{
	"contracts/kamenzi.sol": {
		"RockPaperScissors": {
			"abi": [
				{
					"inputs": [],
					"stateMutability": "nonpayable",
					"type": "constructor"
				},
				{
					"anonymous": false,
					"inputs": [
						{
							"indexed": false,
							"internalType": "address",
							"name": "",
							"type": "address"
						}
					],
					"name": "GameFinished",
					"type": "event"
				},
				{
					"anonymous": false,
					"inputs": [
						{
							"indexed": false,
							"internalType": "address",
							"name": "",
							"type": "address"
						}
					],
					"name": "GameInitialized",
					"type": "event"
				},
				{
					"anonymous": false,
					"inputs": [
						{
							"indexed": false,
							"internalType": "enum RockPaperScissors.GamePhase",
							"name": "",
							"type": "uint8"
						}
					],
					"name": "GamePhaseChanged",
					"type": "event"
				},
				{
					"anonymous": false,
					"inputs": [
						{
							"indexed": false,
							"internalType": "address",
							"name": "",
							"type": "address"
						}
					],
					"name": "GameStarted",
					"type": "event"
				},
				{
					"inputs": [],
					"name": "currentGamePhase",
					"outputs": [
						{
							"internalType": "enum RockPaperScissors.GamePhase",
							"name": "",
							"type": "uint8"
						}
					],
					"stateMutability": "view",
					"type": "function"
				},
				{
					"inputs": [],
					"name": "firstPlayer",
					"outputs": [
						{
							"internalType": "address",
							"name": "",
							"type": "address"
						}
					],
					"stateMutability": "view",
					"type": "function"
				},
				{
					"inputs": [],
					"name": "firstPlayerMove",
					"outputs": [
						{
							"internalType": "enum RockPaperScissors.Move",
							"name": "",
							"type": "uint8"
						}
					],
					"stateMutability": "view",
					"type": "function"
				},
				{
					"inputs": [
						{
							"internalType": "bytes32",
							"name": "move",
							"type": "bytes32"
						}
					],
					"name": "move",
					"outputs": [
						{
							"internalType": "bool",
							"name": "",
							"type": "bool"
						}
					],
					"stateMutability": "nonpayable",
					"type": "function"
				},
				{
					"inputs": [],
					"name": "register",
					"outputs": [
						{
							"internalType": "uint256",
							"name": "",
							"type": "uint256"
						}
					],
					"stateMutability": "nonpayable",
					"type": "function"
				},
				{
					"inputs": [],
					"name": "restart",
					"outputs": [],
					"stateMutability": "nonpayable",
					"type": "function"
				},
				{
					"inputs": [
						{
							"internalType": "enum RockPaperScissors.Move",
							"name": "element",
							"type": "uint8"
						},
						{
							"internalType": "uint32",
							"name": "salt",
							"type": "uint32"
						}
					],
					"name": "reveal",
					"outputs": [
						{
							"internalType": "address",
							"name": "",
							"type": "address"
						}
					],
					"stateMutability": "nonpayable",
					"type": "function"
				},
				{
					"inputs": [],
					"name": "secondPlayer",
					"outputs": [
						{
							"internalType": "address",
							"name": "",
							"type": "address"
						}
					],
					"stateMutability": "view",
					"type": "function"
				},
				{
					"inputs": [],
					"name": "secondPlayerMove",
					"outputs": [
						{
							"internalType": "enum RockPaperScissors.Move",
							"name": "",
							"type": "uint8"
						}
					],
					"stateMutability": "view",
					"type": "function"
				},
				{
					"inputs": [],
					"name": "winner",
					"outputs": [
						{
							"internalType": "address",
							"name": "",
							"type": "address"
						}
					],
					"stateMutability": "view",
					"type": "function"
				}
			],
			"devdoc": {
				"kind": "dev",
				"methods": {},
				"version": 1
			},
			"evm": {
				"assembly": "    /* \"contracts/kamenzi.sol\":86:4376  contract RockPaperScissors {... */\n  mstore(0x40, 0x80)\n    /* \"contracts/kamenzi.sol\":762:802  constructor() {... */\n  callvalue\n  dup1\n  iszero\n  tag_1\n  jumpi\n  0x00\n  dup1\n  revert\ntag_1:\n  pop\n    /* \"contracts/kamenzi.sol\":786:795  restart() */\n  tag_4\n    /* \"contracts/kamenzi.sol\":786:793  restart */\n  shl(0x20, tag_5)\n    /* \"contracts/kamenzi.sol\":786:795  restart() */\n  0x20\n  shr\n  jump\t// in\ntag_4:\n    /* \"contracts/kamenzi.sol\":86:4376  contract RockPaperScissors {... */\n  jump(tag_6)\n    /* \"contracts/kamenzi.sol\":3842:4228  function restart() public {... */\ntag_5:\n    /* \"contracts/kamenzi.sol\":3900:3903  0x0 */\n  0x00\n    /* \"contracts/kamenzi.sol\":3878:3889  nullAddress */\n  0x03\n  0x00\n    /* \"contracts/kamenzi.sol\":3878:3904  nullAddress = address(0x0) */\n  0x0100\n  exp\n  dup2\n  sload\n  dup2\n  0xffffffffffffffffffffffffffffffffffffffff\n  mul\n  not\n  and\n  swap1\n  dup4\n  0xffffffffffffffffffffffffffffffffffffffff\n  and\n  mul\n  or\n  swap1\n  sstore\n  pop\n    /* \"contracts/kamenzi.sol\":3932:3943  nullAddress */\n  0x03\n  0x00\n  swap1\n  sload\n  swap1\n  0x0100\n  exp\n  swap1\n  div\n  0xffffffffffffffffffffffffffffffffffffffff\n  and\n    /* \"contracts/kamenzi.sol\":3923:3929  winner */\n  0x00\n  0x01\n    /* \"contracts/kamenzi.sol\":3923:3943  winner = nullAddress */\n  0x0100\n  exp\n  dup2\n  sload\n  dup2\n  0xffffffffffffffffffffffffffffffffffffffff\n  mul\n  not\n  and\n  swap1\n  dup4\n  0xffffffffffffffffffffffffffffffffffffffff\n  and\n  mul\n  or\n  swap1\n  sstore\n  pop\n    /* \"contracts/kamenzi.sol\":3967:3978  nullAddress */\n  0x03\n  0x00\n  swap1\n  sload\n  swap1\n  0x0100\n  exp\n  swap1\n  div\n  0xffffffffffffffffffffffffffffffffffffffff\n  and\n    /* \"contracts/kamenzi.sol\":3953:3964  firstPlayer */\n  0x01\n  0x00\n    /* \"contracts/kamenzi.sol\":3953:3978  firstPlayer = nullAddress */\n  0x0100\n  exp\n  dup2\n  sload\n  dup2\n  0xffffffffffffffffffffffffffffffffffffffff\n  mul\n  not\n  and\n  swap1\n  dup4\n  0xffffffffffffffffffffffffffffffffffffffff\n  and\n  mul\n  or\n  swap1\n  sstore\n  pop\n    /* \"contracts/kamenzi.sol\":4003:4014  nullAddress */\n  0x03\n  0x00\n  swap1\n  sload\n  swap1\n  0x0100\n  exp\n  swap1\n  div\n  0xffffffffffffffffffffffffffffffffffffffff\n  and\n    /* \"contracts/kamenzi.sol\":3988:4000  secondPlayer */\n  0x02\n  0x00\n    /* \"contracts/kamenzi.sol\":3988:4014  secondPlayer = nullAddress */\n  0x0100\n  exp\n  dup2\n  sload\n  dup2\n  0xffffffffffffffffffffffffffffffffffffffff\n  mul\n  not\n  and\n  swap1\n  dup4\n  0xffffffffffffffffffffffffffffffffffffffff\n  and\n  mul\n  or\n  swap1\n  sstore\n  pop\n    /* \"contracts/kamenzi.sol\":4052:4055  0x0 */\n  0x00\n    /* \"contracts/kamenzi.sol\":4025:4055  firstPlayerMoveEncrypted = 0x0 */\n  dup1\n  shl\n    /* \"contracts/kamenzi.sol\":4025:4049  firstPlayerMoveEncrypted */\n  0x04\n    /* \"contracts/kamenzi.sol\":4025:4055  firstPlayerMoveEncrypted = 0x0 */\n  dup2\n  swap1\n  sstore\n  pop\n    /* \"contracts/kamenzi.sol\":4093:4096  0x0 */\n  0x00\n    /* \"contracts/kamenzi.sol\":4065:4096  secondPlayerMoveEncrypted = 0x0 */\n  dup1\n  shl\n    /* \"contracts/kamenzi.sol\":4065:4090  secondPlayerMoveEncrypted */\n  0x05\n    /* \"contracts/kamenzi.sol\":4065:4096  secondPlayerMoveEncrypted = 0x0 */\n  dup2\n  swap1\n  sstore\n  pop\n    /* \"contracts/kamenzi.sol\":4125:4134  Move.None */\n  0x00\n    /* \"contracts/kamenzi.sol\":4107:4122  firstPlayerMove */\n  0x06\n  0x00\n    /* \"contracts/kamenzi.sol\":4107:4134  firstPlayerMove = Move.None */\n  0x0100\n  exp\n  dup2\n  sload\n  dup2\n  0xff\n  mul\n  not\n  and\n  swap1\n  dup4\n  0x03\n  dup2\n  gt\n  iszero\n  tag_8\n  jumpi\n  tag_9\n  tag_10\n  jump\t// in\ntag_9:\ntag_8:\n  mul\n  or\n  swap1\n  sstore\n  pop\n    /* \"contracts/kamenzi.sol\":4163:4172  Move.None */\n  0x00\n    /* \"contracts/kamenzi.sol\":4144:4160  secondPlayerMove */\n  0x06\n  0x01\n    /* \"contracts/kamenzi.sol\":4144:4172  secondPlayerMove = Move.None */\n  0x0100\n  exp\n  dup2\n  sload\n  dup2\n  0xff\n  mul\n  not\n  and\n  swap1\n  dup4\n  0x03\n  dup2\n  gt\n  iszero\n  tag_11\n  jumpi\n  tag_12\n  tag_10\n  jump\t// in\ntag_12:\ntag_11:\n  mul\n  or\n  swap1\n  sstore\n  pop\n    /* \"contracts/kamenzi.sol\":4183:4221  changeGamePhase(GamePhase.Preparation) */\n  tag_13\n    /* \"contracts/kamenzi.sol\":4199:4220  GamePhase.Preparation */\n  0x00\n    /* \"contracts/kamenzi.sol\":4183:4198  changeGamePhase */\n  shl(0x20, tag_14)\n    /* \"contracts/kamenzi.sol\":4183:4221  changeGamePhase(GamePhase.Preparation) */\n  0x20\n  shr\n  jump\t// in\ntag_13:\n    /* \"contracts/kamenzi.sol\":3842:4228  function restart() public {... */\n  jump\t// out\n    /* \"contracts/kamenzi.sol\":4234:4374  function changeGamePhase(GamePhase phase) private {... */\ntag_14:\n    /* \"contracts/kamenzi.sol\":4313:4318  phase */\n  dup1\n    /* \"contracts/kamenzi.sol\":4294:4310  currentGamePhase */\n  0x00\n  dup1\n    /* \"contracts/kamenzi.sol\":4294:4318  currentGamePhase = phase */\n  0x0100\n  exp\n  dup2\n  sload\n  dup2\n  0xff\n  mul\n  not\n  and\n  swap1\n  dup4\n  0x02\n  dup2\n  gt\n  iszero\n  tag_16\n  jumpi\n  tag_17\n  tag_10\n  jump\t// in\ntag_17:\ntag_16:\n  mul\n  or\n  swap1\n  sstore\n  pop\n    /* \"contracts/kamenzi.sol\":4333:4367  GamePhaseChanged(currentGamePhase) */\n  0x5fe57a6009d2ae51447def0790762f4e928888c72f5f8ef4abed68599519a833\n    /* \"contracts/kamenzi.sol\":4350:4366  currentGamePhase */\n  0x00\n  dup1\n  sload\n  swap1\n  0x0100\n  exp\n  swap1\n  div\n  0xff\n  and\n    /* \"contracts/kamenzi.sol\":4333:4367  GamePhaseChanged(currentGamePhase) */\n  mload(0x40)\n  tag_18\n  swap2\n  swap1\n  tag_19\n  jump\t// in\ntag_18:\n  mload(0x40)\n  dup1\n  swap2\n  sub\n  swap1\n  log1\n    /* \"contracts/kamenzi.sol\":4234:4374  function changeGamePhase(GamePhase phase) private {... */\n  pop\n  jump\t// out\n    /* \"#utility.yul\":7:160   */\ntag_21:\n    /* \"#utility.yul\":105:153   */\n  tag_23\n    /* \"#utility.yul\":147:152   */\n  dup2\n    /* \"#utility.yul\":105:153   */\n  tag_24\n  jump\t// in\ntag_23:\n    /* \"#utility.yul\":100:103   */\n  dup3\n    /* \"#utility.yul\":93:154   */\n  mstore\n    /* \"#utility.yul\":7:160   */\n  pop\n  pop\n  jump\t// out\n    /* \"#utility.yul\":166:410   */\ntag_19:\n    /* \"#utility.yul\":270:274   */\n  0x00\n    /* \"#utility.yul\":308:310   */\n  0x20\n    /* \"#utility.yul\":297:306   */\n  dup3\n    /* \"#utility.yul\":293:311   */\n  add\n    /* \"#utility.yul\":285:311   */\n  swap1\n  pop\n    /* \"#utility.yul\":321:403   */\n  tag_26\n    /* \"#utility.yul\":400:401   */\n  0x00\n    /* \"#utility.yul\":389:398   */\n  dup4\n    /* \"#utility.yul\":385:402   */\n  add\n    /* \"#utility.yul\":376:382   */\n  dup5\n    /* \"#utility.yul\":321:403   */\n  tag_21\n  jump\t// in\ntag_26:\n    /* \"#utility.yul\":166:410   */\n  swap3\n  swap2\n  pop\n  pop\n  jump\t// out\n    /* \"#utility.yul\":416:553   */\ntag_27:\n    /* \"#utility.yul\":466:473   */\n  0x00\n    /* \"#utility.yul\":495:500   */\n  dup2\n    /* \"#utility.yul\":484:500   */\n  swap1\n  pop\n    /* \"#utility.yul\":501:547   */\n  tag_29\n    /* \"#utility.yul\":541:546   */\n  dup3\n    /* \"#utility.yul\":501:547   */\n  tag_30\n  jump\t// in\ntag_29:\n    /* \"#utility.yul\":416:553   */\n  swap2\n  swap1\n  pop\n  jump\t// out\n    /* \"#utility.yul\":559:696   */\ntag_24:\n    /* \"#utility.yul\":620:629   */\n  0x00\n    /* \"#utility.yul\":653:690   */\n  tag_32\n    /* \"#utility.yul\":684:689   */\n  dup3\n    /* \"#utility.yul\":653:690   */\n  tag_27\n  jump\t// in\ntag_32:\n    /* \"#utility.yul\":640:690   */\n  swap1\n  pop\n    /* \"#utility.yul\":559:696   */\n  swap2\n  swap1\n  pop\n  jump\t// out\n    /* \"#utility.yul\":702:882   */\ntag_10:\n    /* \"#utility.yul\":750:827   */\n  0x4e487b7100000000000000000000000000000000000000000000000000000000\n    /* \"#utility.yul\":747:748   */\n  0x00\n    /* \"#utility.yul\":740:828   */\n  mstore\n    /* \"#utility.yul\":847:851   */\n  0x21\n    /* \"#utility.yul\":844:845   */\n  0x04\n    /* \"#utility.yul\":837:852   */\n  mstore\n    /* \"#utility.yul\":871:875   */\n  0x24\n    /* \"#utility.yul\":868:869   */\n  0x00\n    /* \"#utility.yul\":861:876   */\n  revert\n    /* \"#utility.yul\":888:1006   */\ntag_30:\n    /* \"#utility.yul\":974:975   */\n  0x03\n    /* \"#utility.yul\":967:972   */\n  dup2\n    /* \"#utility.yul\":964:976   */\n  lt\n    /* \"#utility.yul\":954:1000   */\n  tag_35\n  jumpi\n    /* \"#utility.yul\":980:998   */\n  tag_36\n  tag_10\n  jump\t// in\ntag_36:\n    /* \"#utility.yul\":954:1000   */\ntag_35:\n    /* \"#utility.yul\":888:1006   */\n  pop\n  jump\t// out\n    /* \"contracts/kamenzi.sol\":86:4376  contract RockPaperScissors {... */\ntag_6:\n  dataSize(sub_0)\n  dup1\n  dataOffset(sub_0)\n  0x00\n  codecopy\n  0x00\n  return\nstop\n\nsub_0: assembly {\n        /* \"contracts/kamenzi.sol\":86:4376  contract RockPaperScissors {... */\n      mstore(0x40, 0x80)\n      callvalue\n      dup1\n      iszero\n      tag_1\n      jumpi\n      0x00\n      dup1\n      revert\n    tag_1:\n      pop\n      jumpi(tag_2, lt(calldatasize, 0x04))\n      shr(0xe0, calldataload(0x00))\n      dup1\n      0x9ba6c216\n      gt\n      tag_13\n      jumpi\n      dup1\n      0x9ba6c216\n      eq\n      tag_8\n      jumpi\n      dup1\n      0xab4a6be1\n      eq\n      tag_9\n      jumpi\n      dup1\n      0xcefdbc84\n      eq\n      tag_10\n      jumpi\n      dup1\n      0xdbe4dd79\n      eq\n      tag_11\n      jumpi\n      dup1\n      0xdfbf53ae\n      eq\n      tag_12\n      jumpi\n      jump(tag_2)\n    tag_13:\n      dup1\n      0x1aa3a008\n      eq\n      tag_3\n      jumpi\n      dup1\n      0x1bc1e19a\n      eq\n      tag_4\n      jumpi\n      dup1\n      0x1ef3755d\n      eq\n      tag_5\n      jumpi\n      dup1\n      0x54712524\n      eq\n      tag_6\n      jumpi\n      dup1\n      0x8b015ccf\n      eq\n      tag_7\n      jumpi\n    tag_2:\n      0x00\n      dup1\n      revert\n        /* \"contracts/kamenzi.sol\":1165:1688  function register() public unregistered correctGamePhase(GamePhase.Preparation) returns (uint) {... */\n    tag_3:\n      tag_14\n      tag_15\n      jump\t// in\n    tag_14:\n      mload(0x40)\n      tag_16\n      swap2\n      swap1\n      tag_17\n      jump\t// in\n    tag_16:\n      mload(0x40)\n      dup1\n      swap2\n      sub\n      swap1\n      return\n        /* \"contracts/kamenzi.sol\":528:555  address public secondPlayer */\n    tag_4:\n      tag_18\n      tag_19\n      jump\t// in\n    tag_18:\n      mload(0x40)\n      tag_20\n      swap2\n      swap1\n      tag_21\n      jump\t// in\n    tag_20:\n      mload(0x40)\n      dup1\n      swap2\n      sub\n      swap1\n      return\n        /* \"contracts/kamenzi.sol\":3842:4228  function restart() public {... */\n    tag_5:\n      tag_22\n      tag_23\n      jump\t// in\n    tag_22:\n      stop\n        /* \"contracts/kamenzi.sol\":496:522  address public firstPlayer */\n    tag_6:\n      tag_24\n      tag_25\n      jump\t// in\n    tag_24:\n      mload(0x40)\n      tag_26\n      swap2\n      swap1\n      tag_21\n      jump\t// in\n    tag_26:\n      mload(0x40)\n      dup1\n      swap2\n      sub\n      swap1\n      return\n        /* \"contracts/kamenzi.sol\":690:717  Move public firstPlayerMove */\n    tag_7:\n      tag_27\n      tag_28\n      jump\t// in\n    tag_27:\n      mload(0x40)\n      tag_29\n      swap2\n      swap1\n      tag_30\n      jump\t// in\n    tag_29:\n      mload(0x40)\n      dup1\n      swap2\n      sub\n      swap1\n      return\n        /* \"contracts/kamenzi.sol\":429:462  GamePhase public currentGamePhase */\n    tag_8:\n      tag_31\n      tag_32\n      jump\t// in\n    tag_31:\n      mload(0x40)\n      tag_33\n      swap2\n      swap1\n      tag_34\n      jump\t// in\n    tag_33:\n      mload(0x40)\n      dup1\n      swap2\n      sub\n      swap1\n      return\n        /* \"contracts/kamenzi.sol\":2321:3836  function reveal(Move element, uint32 salt) public registered correctGamePhase(GamePhase.Reveal) returns (address){... */\n    tag_9:\n      tag_35\n      0x04\n      dup1\n      calldatasize\n      sub\n      dup2\n      add\n      swap1\n      tag_36\n      swap2\n      swap1\n      tag_37\n      jump\t// in\n    tag_36:\n      tag_38\n      jump\t// in\n    tag_35:\n      mload(0x40)\n      tag_39\n      swap2\n      swap1\n      tag_21\n      jump\t// in\n    tag_39:\n      mload(0x40)\n      dup1\n      swap2\n      sub\n      swap1\n      return\n        /* \"contracts/kamenzi.sol\":1694:2315  function move(bytes32 move) public registered correctGamePhase(GamePhase.Commit) returns (bool) {... */\n    tag_10:\n      tag_40\n      0x04\n      dup1\n      calldatasize\n      sub\n      dup2\n      add\n      swap1\n      tag_41\n      swap2\n      swap1\n      tag_42\n      jump\t// in\n    tag_41:\n      tag_43\n      jump\t// in\n    tag_40:\n      mload(0x40)\n      tag_44\n      swap2\n      swap1\n      tag_45\n      jump\t// in\n    tag_44:\n      mload(0x40)\n      dup1\n      swap2\n      sub\n      swap1\n      return\n        /* \"contracts/kamenzi.sol\":723:751  Move public secondPlayerMove */\n    tag_11:\n      tag_46\n      tag_47\n      jump\t// in\n    tag_46:\n      mload(0x40)\n      tag_48\n      swap2\n      swap1\n      tag_30\n      jump\t// in\n    tag_48:\n      mload(0x40)\n      dup1\n      swap2\n      sub\n      swap1\n      return\n        /* \"contracts/kamenzi.sol\":469:490  address public winner */\n    tag_12:\n      tag_49\n      tag_50\n      jump\t// in\n    tag_49:\n      mload(0x40)\n      tag_51\n      swap2\n      swap1\n      tag_21\n      jump\t// in\n    tag_51:\n      mload(0x40)\n      dup1\n      swap2\n      sub\n      swap1\n      return\n        /* \"contracts/kamenzi.sol\":1165:1688  function register() public unregistered correctGamePhase(GamePhase.Preparation) returns (uint) {... */\n    tag_15:\n        /* \"contracts/kamenzi.sol\":1254:1258  uint */\n      0x00\n        /* \"contracts/kamenzi.sol\":864:875  firstPlayer */\n      0x01\n      0x00\n      swap1\n      sload\n      swap1\n      0x0100\n      exp\n      swap1\n      div\n      0xffffffffffffffffffffffffffffffffffffffff\n      and\n        /* \"contracts/kamenzi.sol\":850:875  msg.sender != firstPlayer */\n      0xffffffffffffffffffffffffffffffffffffffff\n      and\n        /* \"contracts/kamenzi.sol\":850:860  msg.sender */\n      caller\n        /* \"contracts/kamenzi.sol\":850:875  msg.sender != firstPlayer */\n      0xffffffffffffffffffffffffffffffffffffffff\n      and\n      eq\n      iszero\n        /* \"contracts/kamenzi.sol\":850:905  msg.sender != firstPlayer && msg.sender != secondPlayer */\n      dup1\n      iszero\n      tag_53\n      jumpi\n      pop\n        /* \"contracts/kamenzi.sol\":893:905  secondPlayer */\n      0x02\n      0x00\n      swap1\n      sload\n      swap1\n      0x0100\n      exp\n      swap1\n      div\n      0xffffffffffffffffffffffffffffffffffffffff\n      and\n        /* \"contracts/kamenzi.sol\":879:905  msg.sender != secondPlayer */\n      0xffffffffffffffffffffffffffffffffffffffff\n      and\n        /* \"contracts/kamenzi.sol\":879:889  msg.sender */\n      caller\n        /* \"contracts/kamenzi.sol\":879:905  msg.sender != secondPlayer */\n      0xffffffffffffffffffffffffffffffffffffffff\n      and\n      eq\n      iszero\n        /* \"contracts/kamenzi.sol\":850:905  msg.sender != firstPlayer && msg.sender != secondPlayer */\n    tag_53:\n        /* \"contracts/kamenzi.sol\":842:906  require(msg.sender != firstPlayer && msg.sender != secondPlayer) */\n      tag_54\n      jumpi\n      0x00\n      dup1\n      revert\n    tag_54:\n        /* \"contracts/kamenzi.sol\":1222:1243  GamePhase.Preparation */\n      0x00\n        /* \"contracts/kamenzi.sol\":1131:1136  phase */\n      dup1\n        /* \"contracts/kamenzi.sol\":1111:1136  currentGamePhase == phase */\n      0x02\n      dup2\n      gt\n      iszero\n      tag_56\n      jumpi\n      tag_57\n      tag_58\n      jump\t// in\n    tag_57:\n    tag_56:\n        /* \"contracts/kamenzi.sol\":1111:1127  currentGamePhase */\n      0x00\n      dup1\n      sload\n      swap1\n      0x0100\n      exp\n      swap1\n      div\n      0xff\n      and\n        /* \"contracts/kamenzi.sol\":1111:1136  currentGamePhase == phase */\n      0x02\n      dup2\n      gt\n      iszero\n      tag_59\n      jumpi\n      tag_60\n      tag_58\n      jump\t// in\n    tag_60:\n    tag_59:\n      eq\n        /* \"contracts/kamenzi.sol\":1103:1137  require(currentGamePhase == phase) */\n      tag_61\n      jumpi\n      0x00\n      dup1\n      revert\n    tag_61:\n        /* \"contracts/kamenzi.sol\":1297:1300  0x0 */\n      0x00\n        /* \"contracts/kamenzi.sol\":1274:1301  firstPlayer == address(0x0) */\n      0xffffffffffffffffffffffffffffffffffffffff\n      and\n        /* \"contracts/kamenzi.sol\":1274:1285  firstPlayer */\n      0x01\n      0x00\n      swap1\n      sload\n      swap1\n      0x0100\n      exp\n      swap1\n      div\n      0xffffffffffffffffffffffffffffffffffffffff\n      and\n        /* \"contracts/kamenzi.sol\":1274:1301  firstPlayer == address(0x0) */\n      0xffffffffffffffffffffffffffffffffffffffff\n      and\n      eq\n        /* \"contracts/kamenzi.sol\":1270:1430  if (firstPlayer == address(0x0)) {... */\n      iszero\n      tag_63\n      jumpi\n        /* \"contracts/kamenzi.sol\":1339:1349  msg.sender */\n      caller\n        /* \"contracts/kamenzi.sol\":1317:1328  firstPlayer */\n      0x01\n      0x00\n        /* \"contracts/kamenzi.sol\":1317:1350  firstPlayer = payable(msg.sender) */\n      0x0100\n      exp\n      dup2\n      sload\n      dup2\n      0xffffffffffffffffffffffffffffffffffffffff\n      mul\n      not\n      and\n      swap1\n      dup4\n      0xffffffffffffffffffffffffffffffffffffffff\n      and\n      mul\n      or\n      swap1\n      sstore\n      pop\n        /* \"contracts/kamenzi.sol\":1369:1396  GameInitialized(msg.sender) */\n      0xada0ba55ddd90bb25ecc3a5e99986836201565b3a09e5be156e48713da1bfd63\n        /* \"contracts/kamenzi.sol\":1385:1395  msg.sender */\n      caller\n        /* \"contracts/kamenzi.sol\":1369:1396  GameInitialized(msg.sender) */\n      mload(0x40)\n      tag_64\n      swap2\n      swap1\n      tag_21\n      jump\t// in\n    tag_64:\n      mload(0x40)\n      dup1\n      swap2\n      sub\n      swap1\n      log1\n        /* \"contracts/kamenzi.sol\":1418:1419  1 */\n      0x01\n        /* \"contracts/kamenzi.sol\":1411:1419  return 1 */\n      swap2\n      pop\n      jump(tag_62)\n        /* \"contracts/kamenzi.sol\":1270:1430  if (firstPlayer == address(0x0)) {... */\n    tag_63:\n        /* \"contracts/kamenzi.sol\":1486:1489  0x0 */\n      0x00\n        /* \"contracts/kamenzi.sol\":1462:1490  secondPlayer == address(0x0) */\n      0xffffffffffffffffffffffffffffffffffffffff\n      and\n        /* \"contracts/kamenzi.sol\":1462:1474  secondPlayer */\n      0x02\n      0x00\n      swap1\n      sload\n      swap1\n      0x0100\n      exp\n      swap1\n      div\n      0xffffffffffffffffffffffffffffffffffffffff\n      and\n        /* \"contracts/kamenzi.sol\":1462:1490  secondPlayer == address(0x0) */\n      0xffffffffffffffffffffffffffffffffffffffff\n      and\n      eq\n        /* \"contracts/kamenzi.sol\":1458:1663  if (secondPlayer == address(0x0)) {... */\n      iszero\n      tag_65\n      jumpi\n        /* \"contracts/kamenzi.sol\":1529:1539  msg.sender */\n      caller\n        /* \"contracts/kamenzi.sol\":1506:1518  secondPlayer */\n      0x02\n      0x00\n        /* \"contracts/kamenzi.sol\":1506:1540  secondPlayer = payable(msg.sender) */\n      0x0100\n      exp\n      dup2\n      sload\n      dup2\n      0xffffffffffffffffffffffffffffffffffffffff\n      mul\n      not\n      and\n      swap1\n      dup4\n      0xffffffffffffffffffffffffffffffffffffffff\n      and\n      mul\n      or\n      swap1\n      sstore\n      pop\n        /* \"contracts/kamenzi.sol\":1559:1582  GameStarted(msg.sender) */\n      0x67cf7f1535e1c1323fe4e76266f7d55f0c1f67fdf449db65e014f9d35881514d\n        /* \"contracts/kamenzi.sol\":1571:1581  msg.sender */\n      caller\n        /* \"contracts/kamenzi.sol\":1559:1582  GameStarted(msg.sender) */\n      mload(0x40)\n      tag_66\n      swap2\n      swap1\n      tag_21\n      jump\t// in\n    tag_66:\n      mload(0x40)\n      dup1\n      swap2\n      sub\n      swap1\n      log1\n        /* \"contracts/kamenzi.sol\":1597:1630  changeGamePhase(GamePhase.Commit) */\n      tag_67\n        /* \"contracts/kamenzi.sol\":1613:1629  GamePhase.Commit */\n      0x01\n        /* \"contracts/kamenzi.sol\":1597:1612  changeGamePhase */\n      tag_68\n        /* \"contracts/kamenzi.sol\":1597:1630  changeGamePhase(GamePhase.Commit) */\n      jump\t// in\n    tag_67:\n        /* \"contracts/kamenzi.sol\":1651:1652  2 */\n      0x02\n        /* \"contracts/kamenzi.sol\":1644:1652  return 2 */\n      swap2\n      pop\n      jump(tag_62)\n        /* \"contracts/kamenzi.sol\":1458:1663  if (secondPlayer == address(0x0)) {... */\n    tag_65:\n        /* \"contracts/kamenzi.sol\":1680:1681  0 */\n      0x00\n        /* \"contracts/kamenzi.sol\":1673:1681  return 0 */\n      swap2\n      pop\n        /* \"contracts/kamenzi.sol\":1147:1148  _ */\n    tag_62:\n        /* \"contracts/kamenzi.sol\":916:917  _ */\n      pop\n        /* \"contracts/kamenzi.sol\":1165:1688  function register() public unregistered correctGamePhase(GamePhase.Preparation) returns (uint) {... */\n      swap1\n      jump\t// out\n        /* \"contracts/kamenzi.sol\":528:555  address public secondPlayer */\n    tag_19:\n      0x02\n      0x00\n      swap1\n      sload\n      swap1\n      0x0100\n      exp\n      swap1\n      div\n      0xffffffffffffffffffffffffffffffffffffffff\n      and\n      dup2\n      jump\t// out\n        /* \"contracts/kamenzi.sol\":3842:4228  function restart() public {... */\n    tag_23:\n        /* \"contracts/kamenzi.sol\":3900:3903  0x0 */\n      0x00\n        /* \"contracts/kamenzi.sol\":3878:3889  nullAddress */\n      0x03\n      0x00\n        /* \"contracts/kamenzi.sol\":3878:3904  nullAddress = address(0x0) */\n      0x0100\n      exp\n      dup2\n      sload\n      dup2\n      0xffffffffffffffffffffffffffffffffffffffff\n      mul\n      not\n      and\n      swap1\n      dup4\n      0xffffffffffffffffffffffffffffffffffffffff\n      and\n      mul\n      or\n      swap1\n      sstore\n      pop\n        /* \"contracts/kamenzi.sol\":3932:3943  nullAddress */\n      0x03\n      0x00\n      swap1\n      sload\n      swap1\n      0x0100\n      exp\n      swap1\n      div\n      0xffffffffffffffffffffffffffffffffffffffff\n      and\n        /* \"contracts/kamenzi.sol\":3923:3929  winner */\n      0x00\n      0x01\n        /* \"contracts/kamenzi.sol\":3923:3943  winner = nullAddress */\n      0x0100\n      exp\n      dup2\n      sload\n      dup2\n      0xffffffffffffffffffffffffffffffffffffffff\n      mul\n      not\n      and\n      swap1\n      dup4\n      0xffffffffffffffffffffffffffffffffffffffff\n      and\n      mul\n      or\n      swap1\n      sstore\n      pop\n        /* \"contracts/kamenzi.sol\":3967:3978  nullAddress */\n      0x03\n      0x00\n      swap1\n      sload\n      swap1\n      0x0100\n      exp\n      swap1\n      div\n      0xffffffffffffffffffffffffffffffffffffffff\n      and\n        /* \"contracts/kamenzi.sol\":3953:3964  firstPlayer */\n      0x01\n      0x00\n        /* \"contracts/kamenzi.sol\":3953:3978  firstPlayer = nullAddress */\n      0x0100\n      exp\n      dup2\n      sload\n      dup2\n      0xffffffffffffffffffffffffffffffffffffffff\n      mul\n      not\n      and\n      swap1\n      dup4\n      0xffffffffffffffffffffffffffffffffffffffff\n      and\n      mul\n      or\n      swap1\n      sstore\n      pop\n        /* \"contracts/kamenzi.sol\":4003:4014  nullAddress */\n      0x03\n      0x00\n      swap1\n      sload\n      swap1\n      0x0100\n      exp\n      swap1\n      div\n      0xffffffffffffffffffffffffffffffffffffffff\n      and\n        /* \"contracts/kamenzi.sol\":3988:4000  secondPlayer */\n      0x02\n      0x00\n        /* \"contracts/kamenzi.sol\":3988:4014  secondPlayer = nullAddress */\n      0x0100\n      exp\n      dup2\n      sload\n      dup2\n      0xffffffffffffffffffffffffffffffffffffffff\n      mul\n      not\n      and\n      swap1\n      dup4\n      0xffffffffffffffffffffffffffffffffffffffff\n      and\n      mul\n      or\n      swap1\n      sstore\n      pop\n        /* \"contracts/kamenzi.sol\":4052:4055  0x0 */\n      0x00\n        /* \"contracts/kamenzi.sol\":4025:4055  firstPlayerMoveEncrypted = 0x0 */\n      dup1\n      shl\n        /* \"contracts/kamenzi.sol\":4025:4049  firstPlayerMoveEncrypted */\n      0x04\n        /* \"contracts/kamenzi.sol\":4025:4055  firstPlayerMoveEncrypted = 0x0 */\n      dup2\n      swap1\n      sstore\n      pop\n        /* \"contracts/kamenzi.sol\":4093:4096  0x0 */\n      0x00\n        /* \"contracts/kamenzi.sol\":4065:4096  secondPlayerMoveEncrypted = 0x0 */\n      dup1\n      shl\n        /* \"contracts/kamenzi.sol\":4065:4090  secondPlayerMoveEncrypted */\n      0x05\n        /* \"contracts/kamenzi.sol\":4065:4096  secondPlayerMoveEncrypted = 0x0 */\n      dup2\n      swap1\n      sstore\n      pop\n        /* \"contracts/kamenzi.sol\":4125:4134  Move.None */\n      0x00\n        /* \"contracts/kamenzi.sol\":4107:4122  firstPlayerMove */\n      0x06\n      0x00\n        /* \"contracts/kamenzi.sol\":4107:4134  firstPlayerMove = Move.None */\n      0x0100\n      exp\n      dup2\n      sload\n      dup2\n      0xff\n      mul\n      not\n      and\n      swap1\n      dup4\n      0x03\n      dup2\n      gt\n      iszero\n      tag_70\n      jumpi\n      tag_71\n      tag_58\n      jump\t// in\n    tag_71:\n    tag_70:\n      mul\n      or\n      swap1\n      sstore\n      pop\n        /* \"contracts/kamenzi.sol\":4163:4172  Move.None */\n      0x00\n        /* \"contracts/kamenzi.sol\":4144:4160  secondPlayerMove */\n      0x06\n      0x01\n        /* \"contracts/kamenzi.sol\":4144:4172  secondPlayerMove = Move.None */\n      0x0100\n      exp\n      dup2\n      sload\n      dup2\n      0xff\n      mul\n      not\n      and\n      swap1\n      dup4\n      0x03\n      dup2\n      gt\n      iszero\n      tag_72\n      jumpi\n      tag_73\n      tag_58\n      jump\t// in\n    tag_73:\n    tag_72:\n      mul\n      or\n      swap1\n      sstore\n      pop\n        /* \"contracts/kamenzi.sol\":4183:4221  changeGamePhase(GamePhase.Preparation) */\n      tag_74\n        /* \"contracts/kamenzi.sol\":4199:4220  GamePhase.Preparation */\n      0x00\n        /* \"contracts/kamenzi.sol\":4183:4198  changeGamePhase */\n      tag_68\n        /* \"contracts/kamenzi.sol\":4183:4221  changeGamePhase(GamePhase.Preparation) */\n      jump\t// in\n    tag_74:\n        /* \"contracts/kamenzi.sol\":3842:4228  function restart() public {... */\n      jump\t// out\n        /* \"contracts/kamenzi.sol\":496:522  address public firstPlayer */\n    tag_25:\n      0x01\n      0x00\n      swap1\n      sload\n      swap1\n      0x0100\n      exp\n      swap1\n      div\n      0xffffffffffffffffffffffffffffffffffffffff\n      and\n      dup2\n      jump\t// out\n        /* \"contracts/kamenzi.sol\":690:717  Move public firstPlayerMove */\n    tag_28:\n      0x06\n      0x00\n      swap1\n      sload\n      swap1\n      0x0100\n      exp\n      swap1\n      div\n      0xff\n      and\n      dup2\n      jump\t// out\n        /* \"contracts/kamenzi.sol\":429:462  GamePhase public currentGamePhase */\n    tag_32:\n      0x00\n      dup1\n      sload\n      swap1\n      0x0100\n      exp\n      swap1\n      div\n      0xff\n      and\n      dup2\n      jump\t// out\n        /* \"contracts/kamenzi.sol\":2321:3836  function reveal(Move element, uint32 salt) public registered correctGamePhase(GamePhase.Reveal) returns (address){... */\n    tag_38:\n        /* \"contracts/kamenzi.sol\":2426:2433  address */\n      0x00\n        /* \"contracts/kamenzi.sol\":984:995  firstPlayer */\n      0x01\n      0x00\n      swap1\n      sload\n      swap1\n      0x0100\n      exp\n      swap1\n      div\n      0xffffffffffffffffffffffffffffffffffffffff\n      and\n        /* \"contracts/kamenzi.sol\":970:995  msg.sender == firstPlayer */\n      0xffffffffffffffffffffffffffffffffffffffff\n      and\n        /* \"contracts/kamenzi.sol\":970:980  msg.sender */\n      caller\n        /* \"contracts/kamenzi.sol\":970:995  msg.sender == firstPlayer */\n      0xffffffffffffffffffffffffffffffffffffffff\n      and\n      eq\n        /* \"contracts/kamenzi.sol\":970:1025  msg.sender == firstPlayer || msg.sender == secondPlayer */\n      dup1\n      tag_76\n      jumpi\n      pop\n        /* \"contracts/kamenzi.sol\":1013:1025  secondPlayer */\n      0x02\n      0x00\n      swap1\n      sload\n      swap1\n      0x0100\n      exp\n      swap1\n      div\n      0xffffffffffffffffffffffffffffffffffffffff\n      and\n        /* \"contracts/kamenzi.sol\":999:1025  msg.sender == secondPlayer */\n      0xffffffffffffffffffffffffffffffffffffffff\n      and\n        /* \"contracts/kamenzi.sol\":999:1009  msg.sender */\n      caller\n        /* \"contracts/kamenzi.sol\":999:1025  msg.sender == secondPlayer */\n      0xffffffffffffffffffffffffffffffffffffffff\n      and\n      eq\n        /* \"contracts/kamenzi.sol\":970:1025  msg.sender == firstPlayer || msg.sender == secondPlayer */\n    tag_76:\n        /* \"contracts/kamenzi.sol\":962:1026  require(msg.sender == firstPlayer || msg.sender == secondPlayer) */\n      tag_77\n      jumpi\n      0x00\n      dup1\n      revert\n    tag_77:\n        /* \"contracts/kamenzi.sol\":2399:2415  GamePhase.Reveal */\n      0x02\n        /* \"contracts/kamenzi.sol\":1131:1136  phase */\n      dup1\n        /* \"contracts/kamenzi.sol\":1111:1136  currentGamePhase == phase */\n      0x02\n      dup2\n      gt\n      iszero\n      tag_79\n      jumpi\n      tag_80\n      tag_58\n      jump\t// in\n    tag_80:\n    tag_79:\n        /* \"contracts/kamenzi.sol\":1111:1127  currentGamePhase */\n      0x00\n      dup1\n      sload\n      swap1\n      0x0100\n      exp\n      swap1\n      div\n      0xff\n      and\n        /* \"contracts/kamenzi.sol\":1111:1136  currentGamePhase == phase */\n      0x02\n      dup2\n      gt\n      iszero\n      tag_81\n      jumpi\n      tag_82\n      tag_58\n      jump\t// in\n    tag_82:\n    tag_81:\n      eq\n        /* \"contracts/kamenzi.sol\":1103:1137  require(currentGamePhase == phase) */\n      tag_83\n      jumpi\n      0x00\n      dup1\n      revert\n    tag_83:\n        /* \"contracts/kamenzi.sol\":2480:2483  0x0 */\n      0x00\n        /* \"contracts/kamenzi.sol\":2452:2483  firstPlayerMoveEncrypted != 0x0 */\n      dup1\n      shl\n        /* \"contracts/kamenzi.sol\":2452:2476  firstPlayerMoveEncrypted */\n      sload(0x04)\n        /* \"contracts/kamenzi.sol\":2452:2483  firstPlayerMoveEncrypted != 0x0 */\n      eq\n      iszero\n        /* \"contracts/kamenzi.sol\":2452:2519  firstPlayerMoveEncrypted != 0x0 && secondPlayerMoveEncrypted != 0x0 */\n      dup1\n      iszero\n      tag_85\n      jumpi\n      pop\n        /* \"contracts/kamenzi.sol\":2516:2519  0x0 */\n      0x00\n        /* \"contracts/kamenzi.sol\":2487:2519  secondPlayerMoveEncrypted != 0x0 */\n      dup1\n      shl\n        /* \"contracts/kamenzi.sol\":2487:2512  secondPlayerMoveEncrypted */\n      sload(0x05)\n        /* \"contracts/kamenzi.sol\":2487:2519  secondPlayerMoveEncrypted != 0x0 */\n      eq\n      iszero\n        /* \"contracts/kamenzi.sol\":2452:2519  firstPlayerMoveEncrypted != 0x0 && secondPlayerMoveEncrypted != 0x0 */\n    tag_85:\n        /* \"contracts/kamenzi.sol\":2444:2520  require(firstPlayerMoveEncrypted != 0x0 && secondPlayerMoveEncrypted != 0x0) */\n      tag_86\n      jumpi\n      0x00\n      dup1\n      revert\n    tag_86:\n        /* \"contracts/kamenzi.sol\":2531:2548  bytes32 encrypted */\n      0x00\n        /* \"contracts/kamenzi.sol\":2551:2642  sha256(bytes.concat(bytes(Strings.toString(uint(element))), bytes(Strings.toString(salt)))) */\n      0x02\n        /* \"contracts/kamenzi.sol\":2577:2608  Strings.toString(uint(element)) */\n      tag_87\n        /* \"contracts/kamenzi.sol\":2599:2606  element */\n      dup7\n        /* \"contracts/kamenzi.sol\":2594:2607  uint(element) */\n      0x03\n      dup2\n      gt\n      iszero\n      tag_88\n      jumpi\n      tag_89\n      tag_58\n      jump\t// in\n    tag_89:\n    tag_88:\n        /* \"contracts/kamenzi.sol\":2577:2593  Strings.toString */\n      tag_90\n        /* \"contracts/kamenzi.sol\":2577:2608  Strings.toString(uint(element)) */\n      jump\t// in\n    tag_87:\n        /* \"contracts/kamenzi.sol\":2617:2639  Strings.toString(salt) */\n      tag_91\n        /* \"contracts/kamenzi.sol\":2634:2638  salt */\n      dup7\n        /* \"contracts/kamenzi.sol\":2617:2639  Strings.toString(salt) */\n      0xffffffff\n      and\n        /* \"contracts/kamenzi.sol\":2617:2633  Strings.toString */\n      tag_90\n        /* \"contracts/kamenzi.sol\":2617:2639  Strings.toString(salt) */\n      jump\t// in\n    tag_91:\n        /* \"contracts/kamenzi.sol\":2558:2641  bytes.concat(bytes(Strings.toString(uint(element))), bytes(Strings.toString(salt))) */\n      add(0x20, mload(0x40))\n      tag_92\n      swap3\n      swap2\n      swap1\n      tag_93\n      jump\t// in\n    tag_92:\n      mload(0x40)\n      0x20\n      dup2\n      dup4\n      sub\n      sub\n      dup2\n      mstore\n      swap1\n      0x40\n      mstore\n        /* \"contracts/kamenzi.sol\":2551:2642  sha256(bytes.concat(bytes(Strings.toString(uint(element))), bytes(Strings.toString(salt)))) */\n      mload(0x40)\n      tag_94\n      swap2\n      swap1\n      tag_95\n      jump\t// in\n    tag_94:\n      0x20\n      mload(0x40)\n      dup1\n      dup4\n      sub\n      dup2\n      dup6\n      gas\n      staticcall\n      iszero\n      dup1\n      iszero\n      tag_97\n      jumpi\n      returndatasize\n      0x00\n      dup1\n      returndatacopy\n      revert(0x00, returndatasize)\n    tag_97:\n      pop\n      pop\n      pop\n      mload(0x40)\n      returndatasize\n      not(0x1f)\n      0x1f\n      dup3\n      add\n      and\n      dup3\n      add\n      dup1\n      0x40\n      mstore\n      pop\n      dup2\n      add\n      swap1\n      tag_98\n      swap2\n      swap1\n      tag_99\n      jump\t// in\n    tag_98:\n        /* \"contracts/kamenzi.sol\":2531:2642  bytes32 encrypted = sha256(bytes.concat(bytes(Strings.toString(uint(element))), bytes(Strings.toString(salt)))) */\n      swap1\n      pop\n        /* \"contracts/kamenzi.sol\":2668:2677  Move.None */\n      0x00\n        /* \"contracts/kamenzi.sol\":2657:2677  element == Move.None */\n      0x03\n      dup2\n      gt\n      iszero\n      tag_100\n      jumpi\n      tag_101\n      tag_58\n      jump\t// in\n    tag_101:\n    tag_100:\n        /* \"contracts/kamenzi.sol\":2657:2664  element */\n      dup6\n        /* \"contracts/kamenzi.sol\":2657:2677  element == Move.None */\n      0x03\n      dup2\n      gt\n      iszero\n      tag_102\n      jumpi\n      tag_103\n      tag_58\n      jump\t// in\n    tag_103:\n    tag_102:\n      eq\n        /* \"contracts/kamenzi.sol\":2653:2722  if (element == Move.None) {... */\n      iszero\n      tag_104\n      jumpi\n        /* \"contracts/kamenzi.sol\":2700:2711  nullAddress */\n      0x03\n      0x00\n      swap1\n      sload\n      swap1\n      0x0100\n      exp\n      swap1\n      div\n      0xffffffffffffffffffffffffffffffffffffffff\n      and\n        /* \"contracts/kamenzi.sol\":2693:2711  return nullAddress */\n      swap3\n      pop\n      pop\n      jump(tag_84)\n        /* \"contracts/kamenzi.sol\":2653:2722  if (element == Move.None) {... */\n    tag_104:\n        /* \"contracts/kamenzi.sol\":2750:2761  firstPlayer */\n      0x01\n      0x00\n      swap1\n      sload\n      swap1\n      0x0100\n      exp\n      swap1\n      div\n      0xffffffffffffffffffffffffffffffffffffffff\n      and\n        /* \"contracts/kamenzi.sol\":2736:2761  msg.sender == firstPlayer */\n      0xffffffffffffffffffffffffffffffffffffffff\n      and\n        /* \"contracts/kamenzi.sol\":2736:2746  msg.sender */\n      caller\n        /* \"contracts/kamenzi.sol\":2736:2761  msg.sender == firstPlayer */\n      0xffffffffffffffffffffffffffffffffffffffff\n      and\n      eq\n        /* \"contracts/kamenzi.sol\":2736:2802  msg.sender == firstPlayer && encrypted == firstPlayerMoveEncrypted */\n      dup1\n      iszero\n      tag_105\n      jumpi\n      pop\n        /* \"contracts/kamenzi.sol\":2778:2802  firstPlayerMoveEncrypted */\n      sload(0x04)\n        /* \"contracts/kamenzi.sol\":2765:2774  encrypted */\n      dup2\n        /* \"contracts/kamenzi.sol\":2765:2802  encrypted == firstPlayerMoveEncrypted */\n      eq\n        /* \"contracts/kamenzi.sol\":2736:2802  msg.sender == firstPlayer && encrypted == firstPlayerMoveEncrypted */\n    tag_105:\n        /* \"contracts/kamenzi.sol\":2732:3034  if (msg.sender == firstPlayer && encrypted == firstPlayerMoveEncrypted) {... */\n      iszero\n      tag_106\n      jumpi\n        /* \"contracts/kamenzi.sol\":2836:2843  element */\n      dup5\n        /* \"contracts/kamenzi.sol\":2818:2833  firstPlayerMove */\n      0x06\n      0x00\n        /* \"contracts/kamenzi.sol\":2818:2843  firstPlayerMove = element */\n      0x0100\n      exp\n      dup2\n      sload\n      dup2\n      0xff\n      mul\n      not\n      and\n      swap1\n      dup4\n      0x03\n      dup2\n      gt\n      iszero\n      tag_107\n      jumpi\n      tag_108\n      tag_58\n      jump\t// in\n    tag_108:\n    tag_107:\n      mul\n      or\n      swap1\n      sstore\n      pop\n        /* \"contracts/kamenzi.sol\":2732:3034  if (msg.sender == firstPlayer && encrypted == firstPlayerMoveEncrypted) {... */\n      jump(tag_109)\n    tag_106:\n        /* \"contracts/kamenzi.sol\":2878:2890  secondPlayer */\n      0x02\n      0x00\n      swap1\n      sload\n      swap1\n      0x0100\n      exp\n      swap1\n      div\n      0xffffffffffffffffffffffffffffffffffffffff\n      and\n        /* \"contracts/kamenzi.sol\":2864:2890  msg.sender == secondPlayer */\n      0xffffffffffffffffffffffffffffffffffffffff\n      and\n        /* \"contracts/kamenzi.sol\":2864:2874  msg.sender */\n      caller\n        /* \"contracts/kamenzi.sol\":2864:2890  msg.sender == secondPlayer */\n      0xffffffffffffffffffffffffffffffffffffffff\n      and\n      eq\n        /* \"contracts/kamenzi.sol\":2864:2932  msg.sender == secondPlayer && encrypted == secondPlayerMoveEncrypted */\n      dup1\n      iszero\n      tag_110\n      jumpi\n      pop\n        /* \"contracts/kamenzi.sol\":2907:2932  secondPlayerMoveEncrypted */\n      sload(0x05)\n        /* \"contracts/kamenzi.sol\":2894:2903  encrypted */\n      dup2\n        /* \"contracts/kamenzi.sol\":2894:2932  encrypted == secondPlayerMoveEncrypted */\n      eq\n        /* \"contracts/kamenzi.sol\":2864:2932  msg.sender == secondPlayer && encrypted == secondPlayerMoveEncrypted */\n    tag_110:\n        /* \"contracts/kamenzi.sol\":2860:3034  if (msg.sender == secondPlayer && encrypted == secondPlayerMoveEncrypted) {... */\n      iszero\n      tag_111\n      jumpi\n        /* \"contracts/kamenzi.sol\":2967:2974  element */\n      dup5\n        /* \"contracts/kamenzi.sol\":2948:2964  secondPlayerMove */\n      0x06\n      0x01\n        /* \"contracts/kamenzi.sol\":2948:2974  secondPlayerMove = element */\n      0x0100\n      exp\n      dup2\n      sload\n      dup2\n      0xff\n      mul\n      not\n      and\n      swap1\n      dup4\n      0x03\n      dup2\n      gt\n      iszero\n      tag_112\n      jumpi\n      tag_113\n      tag_58\n      jump\t// in\n    tag_113:\n    tag_112:\n      mul\n      or\n      swap1\n      sstore\n      pop\n        /* \"contracts/kamenzi.sol\":2860:3034  if (msg.sender == secondPlayer && encrypted == secondPlayerMoveEncrypted) {... */\n      jump(tag_114)\n    tag_111:\n        /* \"contracts/kamenzi.sol\":3012:3023  nullAddress */\n      0x03\n      0x00\n      swap1\n      sload\n      swap1\n      0x0100\n      exp\n      swap1\n      div\n      0xffffffffffffffffffffffffffffffffffffffff\n      and\n        /* \"contracts/kamenzi.sol\":3005:3023  return nullAddress */\n      swap3\n      pop\n      pop\n      jump(tag_84)\n        /* \"contracts/kamenzi.sol\":2860:3034  if (msg.sender == secondPlayer && encrypted == secondPlayerMoveEncrypted) {... */\n    tag_114:\n        /* \"contracts/kamenzi.sol\":2732:3034  if (msg.sender == firstPlayer && encrypted == firstPlayerMoveEncrypted) {... */\n    tag_109:\n        /* \"contracts/kamenzi.sol\":3067:3076  Move.None */\n      0x00\n        /* \"contracts/kamenzi.sol\":3048:3076  firstPlayerMove != Move.None */\n      0x03\n      dup2\n      gt\n      iszero\n      tag_115\n      jumpi\n      tag_116\n      tag_58\n      jump\t// in\n    tag_116:\n    tag_115:\n        /* \"contracts/kamenzi.sol\":3048:3063  firstPlayerMove */\n      0x06\n      0x00\n      swap1\n      sload\n      swap1\n      0x0100\n      exp\n      swap1\n      div\n      0xff\n      and\n        /* \"contracts/kamenzi.sol\":3048:3076  firstPlayerMove != Move.None */\n      0x03\n      dup2\n      gt\n      iszero\n      tag_117\n      jumpi\n      tag_118\n      tag_58\n      jump\t// in\n    tag_118:\n    tag_117:\n      eq\n      iszero\n        /* \"contracts/kamenzi.sol\":3048:3109  firstPlayerMove != Move.None || secondPlayerMove != Move.None */\n      dup1\n      tag_119\n      jumpi\n      pop\n        /* \"contracts/kamenzi.sol\":3100:3109  Move.None */\n      0x00\n        /* \"contracts/kamenzi.sol\":3080:3109  secondPlayerMove != Move.None */\n      0x03\n      dup2\n      gt\n      iszero\n      tag_120\n      jumpi\n      tag_121\n      tag_58\n      jump\t// in\n    tag_121:\n    tag_120:\n        /* \"contracts/kamenzi.sol\":3080:3096  secondPlayerMove */\n      0x06\n      0x01\n      swap1\n      sload\n      swap1\n      0x0100\n      exp\n      swap1\n      div\n      0xff\n      and\n        /* \"contracts/kamenzi.sol\":3080:3109  secondPlayerMove != Move.None */\n      0x03\n      dup2\n      gt\n      iszero\n      tag_122\n      jumpi\n      tag_123\n      tag_58\n      jump\t// in\n    tag_123:\n    tag_122:\n      eq\n      iszero\n        /* \"contracts/kamenzi.sol\":3048:3109  firstPlayerMove != Move.None || secondPlayerMove != Move.None */\n    tag_119:\n        /* \"contracts/kamenzi.sol\":3044:3771  if (firstPlayerMove != Move.None || secondPlayerMove != Move.None) {... */\n      iszero\n      tag_124\n      jumpi\n        /* \"contracts/kamenzi.sol\":3148:3164  secondPlayerMove */\n      0x06\n      0x01\n      swap1\n      sload\n      swap1\n      0x0100\n      exp\n      swap1\n      div\n      0xff\n      and\n        /* \"contracts/kamenzi.sol\":3129:3164  firstPlayerMove == secondPlayerMove */\n      0x03\n      dup2\n      gt\n      iszero\n      tag_125\n      jumpi\n      tag_126\n      tag_58\n      jump\t// in\n    tag_126:\n    tag_125:\n        /* \"contracts/kamenzi.sol\":3129:3144  firstPlayerMove */\n      0x06\n      0x00\n      swap1\n      sload\n      swap1\n      0x0100\n      exp\n      swap1\n      div\n      0xff\n      and\n        /* \"contracts/kamenzi.sol\":3129:3164  firstPlayerMove == secondPlayerMove */\n      0x03\n      dup2\n      gt\n      iszero\n      tag_127\n      jumpi\n      tag_128\n      tag_58\n      jump\t// in\n    tag_128:\n    tag_127:\n      eq\n        /* \"contracts/kamenzi.sol\":3125:3710  if (firstPlayerMove == secondPlayerMove) {... */\n      iszero\n      tag_129\n      jumpi\n        /* \"contracts/kamenzi.sol\":3193:3204  nullAddress */\n      0x03\n      0x00\n      swap1\n      sload\n      swap1\n      0x0100\n      exp\n      swap1\n      div\n      0xffffffffffffffffffffffffffffffffffffffff\n      and\n        /* \"contracts/kamenzi.sol\":3184:3190  winner */\n      0x00\n      0x01\n        /* \"contracts/kamenzi.sol\":3184:3204  winner = nullAddress */\n      0x0100\n      exp\n      dup2\n      sload\n      dup2\n      0xffffffffffffffffffffffffffffffffffffffff\n      mul\n      not\n      and\n      swap1\n      dup4\n      0xffffffffffffffffffffffffffffffffffffffff\n      and\n      mul\n      or\n      swap1\n      sstore\n      pop\n        /* \"contracts/kamenzi.sol\":3125:3710  if (firstPlayerMove == secondPlayerMove) {... */\n      jump(tag_130)\n    tag_129:\n        /* \"contracts/kamenzi.sol\":3278:3291  Move.Scissors */\n      0x02\n        /* \"contracts/kamenzi.sol\":3259:3291  firstPlayerMove == Move.Scissors */\n      0x03\n      dup2\n      gt\n      iszero\n      tag_131\n      jumpi\n      tag_132\n      tag_58\n      jump\t// in\n    tag_132:\n    tag_131:\n        /* \"contracts/kamenzi.sol\":3259:3274  firstPlayerMove */\n      0x06\n      0x00\n      swap1\n      sload\n      swap1\n      0x0100\n      exp\n      swap1\n      div\n      0xff\n      and\n        /* \"contracts/kamenzi.sol\":3259:3291  firstPlayerMove == Move.Scissors */\n      0x03\n      dup2\n      gt\n      iszero\n      tag_133\n      jumpi\n      tag_134\n      tag_58\n      jump\t// in\n    tag_134:\n    tag_133:\n      eq\n        /* \"contracts/kamenzi.sol\":3259:3325  firstPlayerMove == Move.Scissors && secondPlayerMove == Move.Paper */\n      dup1\n      iszero\n      tag_135\n      jumpi\n      pop\n        /* \"contracts/kamenzi.sol\":3315:3325  Move.Paper */\n      0x03\n        /* \"contracts/kamenzi.sol\":3295:3325  secondPlayerMove == Move.Paper */\n      dup1\n      dup2\n      gt\n      iszero\n      tag_136\n      jumpi\n      tag_137\n      tag_58\n      jump\t// in\n    tag_137:\n    tag_136:\n        /* \"contracts/kamenzi.sol\":3295:3311  secondPlayerMove */\n      0x06\n      0x01\n      swap1\n      sload\n      swap1\n      0x0100\n      exp\n      swap1\n      div\n      0xff\n      and\n        /* \"contracts/kamenzi.sol\":3295:3325  secondPlayerMove == Move.Paper */\n      0x03\n      dup2\n      gt\n      iszero\n      tag_138\n      jumpi\n      tag_139\n      tag_58\n      jump\t// in\n    tag_139:\n    tag_138:\n      eq\n        /* \"contracts/kamenzi.sol\":3259:3325  firstPlayerMove == Move.Scissors && secondPlayerMove == Move.Paper */\n    tag_135:\n        /* \"contracts/kamenzi.sol\":3258:3411  (firstPlayerMove == Move.Scissors && secondPlayerMove == Move.Paper) || ... */\n      dup1\n      tag_140\n      jumpi\n      pop\n        /* \"contracts/kamenzi.sol\":3367:3377  Move.Paper */\n      0x03\n        /* \"contracts/kamenzi.sol\":3348:3377  firstPlayerMove == Move.Paper */\n      dup1\n      dup2\n      gt\n      iszero\n      tag_141\n      jumpi\n      tag_142\n      tag_58\n      jump\t// in\n    tag_142:\n    tag_141:\n        /* \"contracts/kamenzi.sol\":3348:3363  firstPlayerMove */\n      0x06\n      0x00\n      swap1\n      sload\n      swap1\n      0x0100\n      exp\n      swap1\n      div\n      0xff\n      and\n        /* \"contracts/kamenzi.sol\":3348:3377  firstPlayerMove == Move.Paper */\n      0x03\n      dup2\n      gt\n      iszero\n      tag_143\n      jumpi\n      tag_144\n      tag_58\n      jump\t// in\n    tag_144:\n    tag_143:\n      eq\n        /* \"contracts/kamenzi.sol\":3348:3410  firstPlayerMove == Move.Paper && secondPlayerMove == Move.Rock */\n      dup1\n      iszero\n      tag_145\n      jumpi\n      pop\n        /* \"contracts/kamenzi.sol\":3401:3410  Move.Rock */\n      0x01\n        /* \"contracts/kamenzi.sol\":3381:3410  secondPlayerMove == Move.Rock */\n      0x03\n      dup2\n      gt\n      iszero\n      tag_146\n      jumpi\n      tag_147\n      tag_58\n      jump\t// in\n    tag_147:\n    tag_146:\n        /* \"contracts/kamenzi.sol\":3381:3397  secondPlayerMove */\n      0x06\n      0x01\n      swap1\n      sload\n      swap1\n      0x0100\n      exp\n      swap1\n      div\n      0xff\n      and\n        /* \"contracts/kamenzi.sol\":3381:3410  secondPlayerMove == Move.Rock */\n      0x03\n      dup2\n      gt\n      iszero\n      tag_148\n      jumpi\n      tag_149\n      tag_58\n      jump\t// in\n    tag_149:\n    tag_148:\n      eq\n        /* \"contracts/kamenzi.sol\":3348:3410  firstPlayerMove == Move.Paper && secondPlayerMove == Move.Rock */\n    tag_145:\n        /* \"contracts/kamenzi.sol\":3258:3411  (firstPlayerMove == Move.Scissors && secondPlayerMove == Move.Paper) || ... */\n    tag_140:\n        /* \"contracts/kamenzi.sol\":3258:3499  (firstPlayerMove == Move.Scissors && secondPlayerMove == Move.Paper) || ... */\n      dup1\n      tag_150\n      jumpi\n      pop\n        /* \"contracts/kamenzi.sol\":3452:3461  Move.Rock */\n      0x01\n        /* \"contracts/kamenzi.sol\":3433:3461  firstPlayerMove == Move.Rock */\n      0x03\n      dup2\n      gt\n      iszero\n      tag_151\n      jumpi\n      tag_152\n      tag_58\n      jump\t// in\n    tag_152:\n    tag_151:\n        /* \"contracts/kamenzi.sol\":3433:3448  firstPlayerMove */\n      0x06\n      0x00\n      swap1\n      sload\n      swap1\n      0x0100\n      exp\n      swap1\n      div\n      0xff\n      and\n        /* \"contracts/kamenzi.sol\":3433:3461  firstPlayerMove == Move.Rock */\n      0x03\n      dup2\n      gt\n      iszero\n      tag_153\n      jumpi\n      tag_154\n      tag_58\n      jump\t// in\n    tag_154:\n    tag_153:\n      eq\n        /* \"contracts/kamenzi.sol\":3433:3498  firstPlayerMove == Move.Rock && secondPlayerMove == Move.Scissors */\n      dup1\n      iszero\n      tag_155\n      jumpi\n      pop\n        /* \"contracts/kamenzi.sol\":3485:3498  Move.Scissors */\n      0x02\n        /* \"contracts/kamenzi.sol\":3465:3498  secondPlayerMove == Move.Scissors */\n      0x03\n      dup2\n      gt\n      iszero\n      tag_156\n      jumpi\n      tag_157\n      tag_58\n      jump\t// in\n    tag_157:\n    tag_156:\n        /* \"contracts/kamenzi.sol\":3465:3481  secondPlayerMove */\n      0x06\n      0x01\n      swap1\n      sload\n      swap1\n      0x0100\n      exp\n      swap1\n      div\n      0xff\n      and\n        /* \"contracts/kamenzi.sol\":3465:3498  secondPlayerMove == Move.Scissors */\n      0x03\n      dup2\n      gt\n      iszero\n      tag_158\n      jumpi\n      tag_159\n      tag_58\n      jump\t// in\n    tag_159:\n    tag_158:\n      eq\n        /* \"contracts/kamenzi.sol\":3433:3498  firstPlayerMove == Move.Rock && secondPlayerMove == Move.Scissors */\n    tag_155:\n        /* \"contracts/kamenzi.sol\":3258:3499  (firstPlayerMove == Move.Scissors && secondPlayerMove == Move.Paper) || ... */\n    tag_150:\n        /* \"contracts/kamenzi.sol\":3258:3583  (firstPlayerMove == Move.Scissors && secondPlayerMove == Move.Paper) || ... */\n      dup1\n      tag_160\n      jumpi\n      pop\n        /* \"contracts/kamenzi.sol\":3540:3549  Move.None */\n      0x00\n        /* \"contracts/kamenzi.sol\":3521:3549  firstPlayerMove != Move.None */\n      0x03\n      dup2\n      gt\n      iszero\n      tag_161\n      jumpi\n      tag_162\n      tag_58\n      jump\t// in\n    tag_162:\n    tag_161:\n        /* \"contracts/kamenzi.sol\":3521:3536  firstPlayerMove */\n      0x06\n      0x00\n      swap1\n      sload\n      swap1\n      0x0100\n      exp\n      swap1\n      div\n      0xff\n      and\n        /* \"contracts/kamenzi.sol\":3521:3549  firstPlayerMove != Move.None */\n      0x03\n      dup2\n      gt\n      iszero\n      tag_163\n      jumpi\n      tag_164\n      tag_58\n      jump\t// in\n    tag_164:\n    tag_163:\n      eq\n      iszero\n        /* \"contracts/kamenzi.sol\":3521:3582  firstPlayerMove != Move.None && secondPlayerMove == Move.None */\n      dup1\n      iszero\n      tag_165\n      jumpi\n      pop\n        /* \"contracts/kamenzi.sol\":3573:3582  Move.None */\n      0x00\n        /* \"contracts/kamenzi.sol\":3553:3582  secondPlayerMove == Move.None */\n      0x03\n      dup2\n      gt\n      iszero\n      tag_166\n      jumpi\n      tag_167\n      tag_58\n      jump\t// in\n    tag_167:\n    tag_166:\n        /* \"contracts/kamenzi.sol\":3553:3569  secondPlayerMove */\n      0x06\n      0x01\n      swap1\n      sload\n      swap1\n      0x0100\n      exp\n      swap1\n      div\n      0xff\n      and\n        /* \"contracts/kamenzi.sol\":3553:3582  secondPlayerMove == Move.None */\n      0x03\n      dup2\n      gt\n      iszero\n      tag_168\n      jumpi\n      tag_169\n      tag_58\n      jump\t// in\n    tag_169:\n    tag_168:\n      eq\n        /* \"contracts/kamenzi.sol\":3521:3582  firstPlayerMove != Move.None && secondPlayerMove == Move.None */\n    tag_165:\n        /* \"contracts/kamenzi.sol\":3258:3583  (firstPlayerMove == Move.Scissors && secondPlayerMove == Move.Paper) || ... */\n    tag_160:\n        /* \"contracts/kamenzi.sol\":3237:3710  if (... */\n      iszero\n      tag_170\n      jumpi\n        /* \"contracts/kamenzi.sol\":3612:3623  firstPlayer */\n      0x01\n      0x00\n      swap1\n      sload\n      swap1\n      0x0100\n      exp\n      swap1\n      div\n      0xffffffffffffffffffffffffffffffffffffffff\n      and\n        /* \"contracts/kamenzi.sol\":3603:3609  winner */\n      0x00\n      0x01\n        /* \"contracts/kamenzi.sol\":3603:3623  winner = firstPlayer */\n      0x0100\n      exp\n      dup2\n      sload\n      dup2\n      0xffffffffffffffffffffffffffffffffffffffff\n      mul\n      not\n      and\n      swap1\n      dup4\n      0xffffffffffffffffffffffffffffffffffffffff\n      and\n      mul\n      or\n      swap1\n      sstore\n      pop\n        /* \"contracts/kamenzi.sol\":3237:3710  if (... */\n      jump(tag_171)\n    tag_170:\n        /* \"contracts/kamenzi.sol\":3683:3695  secondPlayer */\n      0x02\n      0x00\n      swap1\n      sload\n      swap1\n      0x0100\n      exp\n      swap1\n      div\n      0xffffffffffffffffffffffffffffffffffffffff\n      and\n        /* \"contracts/kamenzi.sol\":3674:3680  winner */\n      0x00\n      0x01\n        /* \"contracts/kamenzi.sol\":3674:3695  winner = secondPlayer */\n      0x0100\n      exp\n      dup2\n      sload\n      dup2\n      0xffffffffffffffffffffffffffffffffffffffff\n      mul\n      not\n      and\n      swap1\n      dup4\n      0xffffffffffffffffffffffffffffffffffffffff\n      and\n      mul\n      or\n      swap1\n      sstore\n      pop\n        /* \"contracts/kamenzi.sol\":3237:3710  if (... */\n    tag_171:\n        /* \"contracts/kamenzi.sol\":3125:3710  if (firstPlayerMove == secondPlayerMove) {... */\n    tag_130:\n        /* \"contracts/kamenzi.sol\":3044:3771  if (firstPlayerMove != Move.None || secondPlayerMove != Move.None) {... */\n      jump(tag_172)\n    tag_124:\n        /* \"contracts/kamenzi.sol\":3749:3760  nullAddress */\n      0x03\n      0x00\n      swap1\n      sload\n      swap1\n      0x0100\n      exp\n      swap1\n      div\n      0xffffffffffffffffffffffffffffffffffffffff\n      and\n        /* \"contracts/kamenzi.sol\":3740:3746  winner */\n      0x00\n      0x01\n        /* \"contracts/kamenzi.sol\":3740:3760  winner = nullAddress */\n      0x0100\n      exp\n      dup2\n      sload\n      dup2\n      0xffffffffffffffffffffffffffffffffffffffff\n      mul\n      not\n      and\n      swap1\n      dup4\n      0xffffffffffffffffffffffffffffffffffffffff\n      and\n      mul\n      or\n      swap1\n      sstore\n      pop\n        /* \"contracts/kamenzi.sol\":3044:3771  if (firstPlayerMove != Move.None || secondPlayerMove != Move.None) {... */\n    tag_172:\n        /* \"contracts/kamenzi.sol\":3786:3806  GameFinished(winner) */\n      0x1728dd43546edd06fabfe796e5b641a151aa90998bfd1b1ec0ae98c6e7708459\n        /* \"contracts/kamenzi.sol\":3799:3805  winner */\n      0x00\n      0x01\n      swap1\n      sload\n      swap1\n      0x0100\n      exp\n      swap1\n      div\n      0xffffffffffffffffffffffffffffffffffffffff\n      and\n        /* \"contracts/kamenzi.sol\":3786:3806  GameFinished(winner) */\n      mload(0x40)\n      tag_173\n      swap2\n      swap1\n      tag_21\n      jump\t// in\n    tag_173:\n      mload(0x40)\n      dup1\n      swap2\n      sub\n      swap1\n      log1\n        /* \"contracts/kamenzi.sol\":3823:3829  winner */\n      0x00\n      0x01\n      swap1\n      sload\n      swap1\n      0x0100\n      exp\n      swap1\n      div\n      0xffffffffffffffffffffffffffffffffffffffff\n      and\n        /* \"contracts/kamenzi.sol\":3816:3829  return winner */\n      swap3\n      pop\n      pop\n        /* \"contracts/kamenzi.sol\":1147:1148  _ */\n    tag_84:\n        /* \"contracts/kamenzi.sol\":1036:1037  _ */\n      pop\n        /* \"contracts/kamenzi.sol\":2321:3836  function reveal(Move element, uint32 salt) public registered correctGamePhase(GamePhase.Reveal) returns (address){... */\n      swap3\n      swap2\n      pop\n      pop\n      jump\t// out\n        /* \"contracts/kamenzi.sol\":1694:2315  function move(bytes32 move) public registered correctGamePhase(GamePhase.Commit) returns (bool) {... */\n    tag_43:\n        /* \"contracts/kamenzi.sol\":1784:1788  bool */\n      0x00\n        /* \"contracts/kamenzi.sol\":984:995  firstPlayer */\n      0x01\n      0x00\n      swap1\n      sload\n      swap1\n      0x0100\n      exp\n      swap1\n      div\n      0xffffffffffffffffffffffffffffffffffffffff\n      and\n        /* \"contracts/kamenzi.sol\":970:995  msg.sender == firstPlayer */\n      0xffffffffffffffffffffffffffffffffffffffff\n      and\n        /* \"contracts/kamenzi.sol\":970:980  msg.sender */\n      caller\n        /* \"contracts/kamenzi.sol\":970:995  msg.sender == firstPlayer */\n      0xffffffffffffffffffffffffffffffffffffffff\n      and\n      eq\n        /* \"contracts/kamenzi.sol\":970:1025  msg.sender == firstPlayer || msg.sender == secondPlayer */\n      dup1\n      tag_175\n      jumpi\n      pop\n        /* \"contracts/kamenzi.sol\":1013:1025  secondPlayer */\n      0x02\n      0x00\n      swap1\n      sload\n      swap1\n      0x0100\n      exp\n      swap1\n      div\n      0xffffffffffffffffffffffffffffffffffffffff\n      and\n        /* \"contracts/kamenzi.sol\":999:1025  msg.sender == secondPlayer */\n      0xffffffffffffffffffffffffffffffffffffffff\n      and\n        /* \"contracts/kamenzi.sol\":999:1009  msg.sender */\n      caller\n        /* \"contracts/kamenzi.sol\":999:1025  msg.sender == secondPlayer */\n      0xffffffffffffffffffffffffffffffffffffffff\n      and\n      eq\n        /* \"contracts/kamenzi.sol\":970:1025  msg.sender == firstPlayer || msg.sender == secondPlayer */\n    tag_175:\n        /* \"contracts/kamenzi.sol\":962:1026  require(msg.sender == firstPlayer || msg.sender == secondPlayer) */\n      tag_176\n      jumpi\n      0x00\n      dup1\n      revert\n    tag_176:\n        /* \"contracts/kamenzi.sol\":1757:1773  GamePhase.Commit */\n      0x01\n        /* \"contracts/kamenzi.sol\":1131:1136  phase */\n      dup1\n        /* \"contracts/kamenzi.sol\":1111:1136  currentGamePhase == phase */\n      0x02\n      dup2\n      gt\n      iszero\n      tag_178\n      jumpi\n      tag_179\n      tag_58\n      jump\t// in\n    tag_179:\n    tag_178:\n        /* \"contracts/kamenzi.sol\":1111:1127  currentGamePhase */\n      0x00\n      dup1\n      sload\n      swap1\n      0x0100\n      exp\n      swap1\n      div\n      0xff\n      and\n        /* \"contracts/kamenzi.sol\":1111:1136  currentGamePhase == phase */\n      0x02\n      dup2\n      gt\n      iszero\n      tag_180\n      jumpi\n      tag_181\n      tag_58\n      jump\t// in\n    tag_181:\n    tag_180:\n      eq\n        /* \"contracts/kamenzi.sol\":1103:1137  require(currentGamePhase == phase) */\n      tag_182\n      jumpi\n      0x00\n      dup1\n      revert\n    tag_182:\n        /* \"contracts/kamenzi.sol\":1800:1811  bool result */\n      0x00\n        /* \"contracts/kamenzi.sol\":1847:1858  firstPlayer */\n      0x01\n      0x00\n      swap1\n      sload\n      swap1\n      0x0100\n      exp\n      swap1\n      div\n      0xffffffffffffffffffffffffffffffffffffffff\n      and\n        /* \"contracts/kamenzi.sol\":1833:1858  msg.sender == firstPlayer */\n      0xffffffffffffffffffffffffffffffffffffffff\n      and\n        /* \"contracts/kamenzi.sol\":1833:1843  msg.sender */\n      caller\n        /* \"contracts/kamenzi.sol\":1833:1858  msg.sender == firstPlayer */\n      0xffffffffffffffffffffffffffffffffffffffff\n      and\n      eq\n        /* \"contracts/kamenzi.sol\":1833:1893  msg.sender == firstPlayer && firstPlayerMoveEncrypted == 0x0 */\n      dup1\n      iszero\n      tag_184\n      jumpi\n      pop\n        /* \"contracts/kamenzi.sol\":1890:1893  0x0 */\n      0x00\n        /* \"contracts/kamenzi.sol\":1862:1893  firstPlayerMoveEncrypted == 0x0 */\n      dup1\n      shl\n        /* \"contracts/kamenzi.sol\":1862:1886  firstPlayerMoveEncrypted */\n      sload(0x04)\n        /* \"contracts/kamenzi.sol\":1862:1893  firstPlayerMoveEncrypted == 0x0 */\n      eq\n        /* \"contracts/kamenzi.sol\":1833:1893  msg.sender == firstPlayer && firstPlayerMoveEncrypted == 0x0 */\n    tag_184:\n        /* \"contracts/kamenzi.sol\":1829:2136  if (msg.sender == firstPlayer && firstPlayerMoveEncrypted == 0x0) {... */\n      iszero\n      tag_185\n      jumpi\n        /* \"contracts/kamenzi.sol\":1936:1940  move */\n      dup4\n        /* \"contracts/kamenzi.sol\":1909:1933  firstPlayerMoveEncrypted */\n      0x04\n        /* \"contracts/kamenzi.sol\":1909:1940  firstPlayerMoveEncrypted = move */\n      dup2\n      swap1\n      sstore\n      pop\n        /* \"contracts/kamenzi.sol\":1963:1967  true */\n      0x01\n        /* \"contracts/kamenzi.sol\":1954:1967  result = true */\n      swap1\n      pop\n        /* \"contracts/kamenzi.sol\":1829:2136  if (msg.sender == firstPlayer && firstPlayerMoveEncrypted == 0x0) {... */\n      jump(tag_186)\n    tag_185:\n        /* \"contracts/kamenzi.sol\":2002:2014  secondPlayer */\n      0x02\n      0x00\n      swap1\n      sload\n      swap1\n      0x0100\n      exp\n      swap1\n      div\n      0xffffffffffffffffffffffffffffffffffffffff\n      and\n        /* \"contracts/kamenzi.sol\":1988:2014  msg.sender == secondPlayer */\n      0xffffffffffffffffffffffffffffffffffffffff\n      and\n        /* \"contracts/kamenzi.sol\":1988:1998  msg.sender */\n      caller\n        /* \"contracts/kamenzi.sol\":1988:2014  msg.sender == secondPlayer */\n      0xffffffffffffffffffffffffffffffffffffffff\n      and\n      eq\n        /* \"contracts/kamenzi.sol\":1988:2050  msg.sender == secondPlayer && secondPlayerMoveEncrypted == 0x0 */\n      dup1\n      iszero\n      tag_187\n      jumpi\n      pop\n        /* \"contracts/kamenzi.sol\":2047:2050  0x0 */\n      0x00\n        /* \"contracts/kamenzi.sol\":2018:2050  secondPlayerMoveEncrypted == 0x0 */\n      dup1\n      shl\n        /* \"contracts/kamenzi.sol\":2018:2043  secondPlayerMoveEncrypted */\n      sload(0x05)\n        /* \"contracts/kamenzi.sol\":2018:2050  secondPlayerMoveEncrypted == 0x0 */\n      eq\n        /* \"contracts/kamenzi.sol\":1988:2050  msg.sender == secondPlayer && secondPlayerMoveEncrypted == 0x0 */\n    tag_187:\n        /* \"contracts/kamenzi.sol\":1984:2136  if (msg.sender == secondPlayer && secondPlayerMoveEncrypted == 0x0) {... */\n      iszero\n      tag_188\n      jumpi\n        /* \"contracts/kamenzi.sol\":2094:2098  move */\n      dup4\n        /* \"contracts/kamenzi.sol\":2066:2091  secondPlayerMoveEncrypted */\n      0x05\n        /* \"contracts/kamenzi.sol\":2066:2098  secondPlayerMoveEncrypted = move */\n      dup2\n      swap1\n      sstore\n      pop\n        /* \"contracts/kamenzi.sol\":2121:2125  true */\n      0x01\n        /* \"contracts/kamenzi.sol\":2112:2125  result = true */\n      swap1\n      pop\n        /* \"contracts/kamenzi.sol\":1984:2136  if (msg.sender == secondPlayer && secondPlayerMoveEncrypted == 0x0) {... */\n    tag_188:\n        /* \"contracts/kamenzi.sol\":1829:2136  if (msg.sender == firstPlayer && firstPlayerMoveEncrypted == 0x0) {... */\n    tag_186:\n        /* \"contracts/kamenzi.sol\":2186:2189  0x0 */\n      0x00\n        /* \"contracts/kamenzi.sol\":2158:2189  firstPlayerMoveEncrypted != 0x0 */\n      dup1\n      shl\n        /* \"contracts/kamenzi.sol\":2158:2182  firstPlayerMoveEncrypted */\n      sload(0x04)\n        /* \"contracts/kamenzi.sol\":2158:2189  firstPlayerMoveEncrypted != 0x0 */\n      eq\n      iszero\n        /* \"contracts/kamenzi.sol\":2158:2225  firstPlayerMoveEncrypted != 0x0 && secondPlayerMoveEncrypted != 0x0 */\n      dup1\n      iszero\n      tag_189\n      jumpi\n      pop\n        /* \"contracts/kamenzi.sol\":2222:2225  0x0 */\n      0x00\n        /* \"contracts/kamenzi.sol\":2193:2225  secondPlayerMoveEncrypted != 0x0 */\n      dup1\n      shl\n        /* \"contracts/kamenzi.sol\":2193:2218  secondPlayerMoveEncrypted */\n      sload(0x05)\n        /* \"contracts/kamenzi.sol\":2193:2225  secondPlayerMoveEncrypted != 0x0 */\n      eq\n      iszero\n        /* \"contracts/kamenzi.sol\":2158:2225  firstPlayerMoveEncrypted != 0x0 && secondPlayerMoveEncrypted != 0x0 */\n    tag_189:\n        /* \"contracts/kamenzi.sol\":2154:2285  if (firstPlayerMoveEncrypted != 0x0 && secondPlayerMoveEncrypted != 0x0) {... */\n      iszero\n      tag_190\n      jumpi\n        /* \"contracts/kamenzi.sol\":2241:2274  changeGamePhase(GamePhase.Reveal) */\n      tag_191\n        /* \"contracts/kamenzi.sol\":2257:2273  GamePhase.Reveal */\n      0x02\n        /* \"contracts/kamenzi.sol\":2241:2256  changeGamePhase */\n      tag_68\n        /* \"contracts/kamenzi.sol\":2241:2274  changeGamePhase(GamePhase.Reveal) */\n      jump\t// in\n    tag_191:\n        /* \"contracts/kamenzi.sol\":2154:2285  if (firstPlayerMoveEncrypted != 0x0 && secondPlayerMoveEncrypted != 0x0) {... */\n    tag_190:\n        /* \"contracts/kamenzi.sol\":2302:2308  result */\n      dup1\n        /* \"contracts/kamenzi.sol\":2295:2308  return result */\n      swap3\n      pop\n      pop\n        /* \"contracts/kamenzi.sol\":1036:1037  _ */\n      pop\n        /* \"contracts/kamenzi.sol\":1694:2315  function move(bytes32 move) public registered correctGamePhase(GamePhase.Commit) returns (bool) {... */\n      swap2\n      swap1\n      pop\n      jump\t// out\n        /* \"contracts/kamenzi.sol\":723:751  Move public secondPlayerMove */\n    tag_47:\n      0x06\n      0x01\n      swap1\n      sload\n      swap1\n      0x0100\n      exp\n      swap1\n      div\n      0xff\n      and\n      dup2\n      jump\t// out\n        /* \"contracts/kamenzi.sol\":469:490  address public winner */\n    tag_50:\n      0x00\n      0x01\n      swap1\n      sload\n      swap1\n      0x0100\n      exp\n      swap1\n      div\n      0xffffffffffffffffffffffffffffffffffffffff\n      and\n      dup2\n      jump\t// out\n        /* \"contracts/kamenzi.sol\":4234:4374  function changeGamePhase(GamePhase phase) private {... */\n    tag_68:\n        /* \"contracts/kamenzi.sol\":4313:4318  phase */\n      dup1\n        /* \"contracts/kamenzi.sol\":4294:4310  currentGamePhase */\n      0x00\n      dup1\n        /* \"contracts/kamenzi.sol\":4294:4318  currentGamePhase = phase */\n      0x0100\n      exp\n      dup2\n      sload\n      dup2\n      0xff\n      mul\n      not\n      and\n      swap1\n      dup4\n      0x02\n      dup2\n      gt\n      iszero\n      tag_193\n      jumpi\n      tag_194\n      tag_58\n      jump\t// in\n    tag_194:\n    tag_193:\n      mul\n      or\n      swap1\n      sstore\n      pop\n        /* \"contracts/kamenzi.sol\":4333:4367  GamePhaseChanged(currentGamePhase) */\n      0x5fe57a6009d2ae51447def0790762f4e928888c72f5f8ef4abed68599519a833\n        /* \"contracts/kamenzi.sol\":4350:4366  currentGamePhase */\n      0x00\n      dup1\n      sload\n      swap1\n      0x0100\n      exp\n      swap1\n      div\n      0xff\n      and\n        /* \"contracts/kamenzi.sol\":4333:4367  GamePhaseChanged(currentGamePhase) */\n      mload(0x40)\n      tag_195\n      swap2\n      swap1\n      tag_34\n      jump\t// in\n    tag_195:\n      mload(0x40)\n      dup1\n      swap2\n      sub\n      swap1\n      log1\n        /* \"contracts/kamenzi.sol\":4234:4374  function changeGamePhase(GamePhase phase) private {... */\n      pop\n      jump\t// out\n        /* \"@openzeppelin/contracts/utils/Strings.sol\":392:1095  function toString(uint256 value) internal pure returns (string memory) {... */\n    tag_90:\n        /* \"@openzeppelin/contracts/utils/Strings.sol\":448:461  string memory */\n      0x60\n        /* \"@openzeppelin/contracts/utils/Strings.sol\":674:675  0 */\n      0x00\n        /* \"@openzeppelin/contracts/utils/Strings.sol\":665:670  value */\n      dup3\n        /* \"@openzeppelin/contracts/utils/Strings.sol\":665:675  value == 0 */\n      eq\n        /* \"@openzeppelin/contracts/utils/Strings.sol\":661:712  if (value == 0) {... */\n      iszero\n      tag_197\n      jumpi\n        /* \"@openzeppelin/contracts/utils/Strings.sol\":691:701  return \"0\" */\n      mload(0x40)\n      dup1\n      0x40\n      add\n      0x40\n      mstore\n      dup1\n      0x01\n      dup2\n      mstore\n      0x20\n      add\n      0x3000000000000000000000000000000000000000000000000000000000000000\n      dup2\n      mstore\n      pop\n      swap1\n      pop\n      jump(tag_196)\n        /* \"@openzeppelin/contracts/utils/Strings.sol\":661:712  if (value == 0) {... */\n    tag_197:\n        /* \"@openzeppelin/contracts/utils/Strings.sol\":721:733  uint256 temp */\n      0x00\n        /* \"@openzeppelin/contracts/utils/Strings.sol\":736:741  value */\n      dup3\n        /* \"@openzeppelin/contracts/utils/Strings.sol\":721:741  uint256 temp = value */\n      swap1\n      pop\n        /* \"@openzeppelin/contracts/utils/Strings.sol\":751:765  uint256 digits */\n      0x00\n        /* \"@openzeppelin/contracts/utils/Strings.sol\":775:850  while (temp != 0) {... */\n    tag_198:\n        /* \"@openzeppelin/contracts/utils/Strings.sol\":790:791  0 */\n      0x00\n        /* \"@openzeppelin/contracts/utils/Strings.sol\":782:786  temp */\n      dup3\n        /* \"@openzeppelin/contracts/utils/Strings.sol\":782:791  temp != 0 */\n      eq\n        /* \"@openzeppelin/contracts/utils/Strings.sol\":775:850  while (temp != 0) {... */\n      tag_199\n      jumpi\n        /* \"@openzeppelin/contracts/utils/Strings.sol\":807:815  digits++ */\n      dup1\n      dup1\n      tag_200\n      swap1\n      tag_201\n      jump\t// in\n    tag_200:\n      swap2\n      pop\n      pop\n        /* \"@openzeppelin/contracts/utils/Strings.sol\":837:839  10 */\n      0x0a\n        /* \"@openzeppelin/contracts/utils/Strings.sol\":829:839  temp /= 10 */\n      dup3\n      tag_202\n      swap2\n      swap1\n      tag_203\n      jump\t// in\n    tag_202:\n      swap2\n      pop\n        /* \"@openzeppelin/contracts/utils/Strings.sol\":775:850  while (temp != 0) {... */\n      jump(tag_198)\n    tag_199:\n        /* \"@openzeppelin/contracts/utils/Strings.sol\":859:878  bytes memory buffer */\n      0x00\n        /* \"@openzeppelin/contracts/utils/Strings.sol\":891:897  digits */\n      dup2\n        /* \"@openzeppelin/contracts/utils/Strings.sol\":881:898  new bytes(digits) */\n      0xffffffffffffffff\n      dup2\n      gt\n      iszero\n      tag_204\n      jumpi\n      tag_205\n      tag_206\n      jump\t// in\n    tag_205:\n    tag_204:\n      mload(0x40)\n      swap1\n      dup1\n      dup3\n      mstore\n      dup1\n      0x1f\n      add\n      not(0x1f)\n      and\n      0x20\n      add\n      dup3\n      add\n      0x40\n      mstore\n      dup1\n      iszero\n      tag_207\n      jumpi\n      dup2\n      0x20\n      add\n      0x01\n      dup3\n      mul\n      dup1\n      calldatasize\n      dup4\n      calldatacopy\n      dup1\n      dup3\n      add\n      swap2\n      pop\n      pop\n      swap1\n      pop\n    tag_207:\n      pop\n        /* \"@openzeppelin/contracts/utils/Strings.sol\":859:898  bytes memory buffer = new bytes(digits) */\n      swap1\n      pop\n        /* \"@openzeppelin/contracts/utils/Strings.sol\":908:1058  while (value != 0) {... */\n    tag_208:\n        /* \"@openzeppelin/contracts/utils/Strings.sol\":924:925  0 */\n      0x00\n        /* \"@openzeppelin/contracts/utils/Strings.sol\":915:920  value */\n      dup6\n        /* \"@openzeppelin/contracts/utils/Strings.sol\":915:925  value != 0 */\n      eq\n        /* \"@openzeppelin/contracts/utils/Strings.sol\":908:1058  while (value != 0) {... */\n      tag_209\n      jumpi\n        /* \"@openzeppelin/contracts/utils/Strings.sol\":951:952  1 */\n      0x01\n        /* \"@openzeppelin/contracts/utils/Strings.sol\":941:952  digits -= 1 */\n      dup3\n      tag_210\n      swap2\n      swap1\n      tag_211\n      jump\t// in\n    tag_210:\n      swap2\n      pop\n        /* \"@openzeppelin/contracts/utils/Strings.sol\":1017:1019  10 */\n      0x0a\n        /* \"@openzeppelin/contracts/utils/Strings.sol\":1009:1014  value */\n      dup6\n        /* \"@openzeppelin/contracts/utils/Strings.sol\":1009:1019  value % 10 */\n      tag_212\n      swap2\n      swap1\n      tag_213\n      jump\t// in\n    tag_212:\n        /* \"@openzeppelin/contracts/utils/Strings.sol\":996:998  48 */\n      0x30\n        /* \"@openzeppelin/contracts/utils/Strings.sol\":996:1020  48 + uint256(value % 10) */\n      tag_214\n      swap2\n      swap1\n      tag_215\n      jump\t// in\n    tag_214:\n        /* \"@openzeppelin/contracts/utils/Strings.sol\":983:1022  bytes1(uint8(48 + uint256(value % 10))) */\n      0xf8\n      shl\n        /* \"@openzeppelin/contracts/utils/Strings.sol\":966:972  buffer */\n      dup2\n        /* \"@openzeppelin/contracts/utils/Strings.sol\":973:979  digits */\n      dup4\n        /* \"@openzeppelin/contracts/utils/Strings.sol\":966:980  buffer[digits] */\n      dup2\n      mload\n      dup2\n      lt\n      tag_216\n      jumpi\n      tag_217\n      tag_218\n      jump\t// in\n    tag_217:\n    tag_216:\n      0x20\n      add\n      add\n        /* \"@openzeppelin/contracts/utils/Strings.sol\":966:1022  buffer[digits] = bytes1(uint8(48 + uint256(value % 10))) */\n      swap1\n      not(0xffffffffffffffffffffffffffffffffffffffffffffffffffffffffffffff)\n      and\n      swap1\n      dup2\n      0x00\n      byte\n      swap1\n      mstore8\n      pop\n        /* \"@openzeppelin/contracts/utils/Strings.sol\":1045:1047  10 */\n      0x0a\n        /* \"@openzeppelin/contracts/utils/Strings.sol\":1036:1047  value /= 10 */\n      dup6\n      tag_219\n      swap2\n      swap1\n      tag_203\n      jump\t// in\n    tag_219:\n      swap5\n      pop\n        /* \"@openzeppelin/contracts/utils/Strings.sol\":908:1058  while (value != 0) {... */\n      jump(tag_208)\n    tag_209:\n        /* \"@openzeppelin/contracts/utils/Strings.sol\":1081:1087  buffer */\n      dup1\n        /* \"@openzeppelin/contracts/utils/Strings.sol\":1067:1088  return string(buffer) */\n      swap4\n      pop\n      pop\n      pop\n      pop\n        /* \"@openzeppelin/contracts/utils/Strings.sol\":392:1095  function toString(uint256 value) internal pure returns (string memory) {... */\n    tag_196:\n      swap2\n      swap1\n      pop\n      jump\t// out\n        /* \"#utility.yul\":7:146   */\n    tag_221:\n        /* \"#utility.yul\":53:58   */\n      0x00\n        /* \"#utility.yul\":91:97   */\n      dup2\n        /* \"#utility.yul\":78:98   */\n      calldataload\n        /* \"#utility.yul\":69:98   */\n      swap1\n      pop\n        /* \"#utility.yul\":107:140   */\n      tag_223\n        /* \"#utility.yul\":134:139   */\n      dup2\n        /* \"#utility.yul\":107:140   */\n      tag_224\n      jump\t// in\n    tag_223:\n        /* \"#utility.yul\":7:146   */\n      swap3\n      swap2\n      pop\n      pop\n      jump\t// out\n        /* \"#utility.yul\":152:295   */\n    tag_225:\n        /* \"#utility.yul\":209:214   */\n      0x00\n        /* \"#utility.yul\":240:246   */\n      dup2\n        /* \"#utility.yul\":234:247   */\n      mload\n        /* \"#utility.yul\":225:247   */\n      swap1\n      pop\n        /* \"#utility.yul\":256:289   */\n      tag_227\n        /* \"#utility.yul\":283:288   */\n      dup2\n        /* \"#utility.yul\":256:289   */\n      tag_224\n      jump\t// in\n    tag_227:\n        /* \"#utility.yul\":152:295   */\n      swap3\n      swap2\n      pop\n      pop\n      jump\t// out\n        /* \"#utility.yul\":301:456   */\n    tag_228:\n        /* \"#utility.yul\":355:360   */\n      0x00\n        /* \"#utility.yul\":393:399   */\n      dup2\n        /* \"#utility.yul\":380:400   */\n      calldataload\n        /* \"#utility.yul\":371:400   */\n      swap1\n      pop\n        /* \"#utility.yul\":409:450   */\n      tag_230\n        /* \"#utility.yul\":444:449   */\n      dup2\n        /* \"#utility.yul\":409:450   */\n      tag_231\n      jump\t// in\n    tag_230:\n        /* \"#utility.yul\":301:456   */\n      swap3\n      swap2\n      pop\n      pop\n      jump\t// out\n        /* \"#utility.yul\":462:599   */\n    tag_232:\n        /* \"#utility.yul\":507:512   */\n      0x00\n        /* \"#utility.yul\":545:551   */\n      dup2\n        /* \"#utility.yul\":532:552   */\n      calldataload\n        /* \"#utility.yul\":523:552   */\n      swap1\n      pop\n        /* \"#utility.yul\":561:593   */\n      tag_234\n        /* \"#utility.yul\":587:592   */\n      dup2\n        /* \"#utility.yul\":561:593   */\n      tag_235\n      jump\t// in\n    tag_234:\n        /* \"#utility.yul\":462:599   */\n      swap3\n      swap2\n      pop\n      pop\n      jump\t// out\n        /* \"#utility.yul\":605:934   */\n    tag_42:\n        /* \"#utility.yul\":664:670   */\n      0x00\n        /* \"#utility.yul\":713:715   */\n      0x20\n        /* \"#utility.yul\":701:710   */\n      dup3\n        /* \"#utility.yul\":692:699   */\n      dup5\n        /* \"#utility.yul\":688:711   */\n      sub\n        /* \"#utility.yul\":684:716   */\n      slt\n        /* \"#utility.yul\":681:800   */\n      iszero\n      tag_237\n      jumpi\n        /* \"#utility.yul\":719:798   */\n      tag_238\n      tag_239\n      jump\t// in\n    tag_238:\n        /* \"#utility.yul\":681:800   */\n    tag_237:\n        /* \"#utility.yul\":839:840   */\n      0x00\n        /* \"#utility.yul\":864:917   */\n      tag_240\n        /* \"#utility.yul\":909:916   */\n      dup5\n        /* \"#utility.yul\":900:906   */\n      dup3\n        /* \"#utility.yul\":889:898   */\n      dup6\n        /* \"#utility.yul\":885:907   */\n      add\n        /* \"#utility.yul\":864:917   */\n      tag_221\n      jump\t// in\n    tag_240:\n        /* \"#utility.yul\":854:917   */\n      swap2\n      pop\n        /* \"#utility.yul\":810:927   */\n      pop\n        /* \"#utility.yul\":605:934   */\n      swap3\n      swap2\n      pop\n      pop\n      jump\t// out\n        /* \"#utility.yul\":940:1291   */\n    tag_99:\n        /* \"#utility.yul\":1010:1016   */\n      0x00\n        /* \"#utility.yul\":1059:1061   */\n      0x20\n        /* \"#utility.yul\":1047:1056   */\n      dup3\n        /* \"#utility.yul\":1038:1045   */\n      dup5\n        /* \"#utility.yul\":1034:1057   */\n      sub\n        /* \"#utility.yul\":1030:1062   */\n      slt\n        /* \"#utility.yul\":1027:1146   */\n      iszero\n      tag_242\n      jumpi\n        /* \"#utility.yul\":1065:1144   */\n      tag_243\n      tag_239\n      jump\t// in\n    tag_243:\n        /* \"#utility.yul\":1027:1146   */\n    tag_242:\n        /* \"#utility.yul\":1185:1186   */\n      0x00\n        /* \"#utility.yul\":1210:1274   */\n      tag_244\n        /* \"#utility.yul\":1266:1273   */\n      dup5\n        /* \"#utility.yul\":1257:1263   */\n      dup3\n        /* \"#utility.yul\":1246:1255   */\n      dup6\n        /* \"#utility.yul\":1242:1264   */\n      add\n        /* \"#utility.yul\":1210:1274   */\n      tag_225\n      jump\t// in\n    tag_244:\n        /* \"#utility.yul\":1200:1274   */\n      swap2\n      pop\n        /* \"#utility.yul\":1156:1284   */\n      pop\n        /* \"#utility.yul\":940:1291   */\n      swap3\n      swap2\n      pop\n      pop\n      jump\t// out\n        /* \"#utility.yul\":1297:1785   */\n    tag_37:\n        /* \"#utility.yul\":1372:1378   */\n      0x00\n        /* \"#utility.yul\":1380:1386   */\n      dup1\n        /* \"#utility.yul\":1429:1431   */\n      0x40\n        /* \"#utility.yul\":1417:1426   */\n      dup4\n        /* \"#utility.yul\":1408:1415   */\n      dup6\n        /* \"#utility.yul\":1404:1427   */\n      sub\n        /* \"#utility.yul\":1400:1432   */\n      slt\n        /* \"#utility.yul\":1397:1516   */\n      iszero\n      tag_246\n      jumpi\n        /* \"#utility.yul\":1435:1514   */\n      tag_247\n      tag_239\n      jump\t// in\n    tag_247:\n        /* \"#utility.yul\":1397:1516   */\n    tag_246:\n        /* \"#utility.yul\":1555:1556   */\n      0x00\n        /* \"#utility.yul\":1580:1641   */\n      tag_248\n        /* \"#utility.yul\":1633:1640   */\n      dup6\n        /* \"#utility.yul\":1624:1630   */\n      dup3\n        /* \"#utility.yul\":1613:1622   */\n      dup7\n        /* \"#utility.yul\":1609:1631   */\n      add\n        /* \"#utility.yul\":1580:1641   */\n      tag_228\n      jump\t// in\n    tag_248:\n        /* \"#utility.yul\":1570:1641   */\n      swap3\n      pop\n        /* \"#utility.yul\":1526:1651   */\n      pop\n        /* \"#utility.yul\":1690:1692   */\n      0x20\n        /* \"#utility.yul\":1716:1768   */\n      tag_249\n        /* \"#utility.yul\":1760:1767   */\n      dup6\n        /* \"#utility.yul\":1751:1757   */\n      dup3\n        /* \"#utility.yul\":1740:1749   */\n      dup7\n        /* \"#utility.yul\":1736:1758   */\n      add\n        /* \"#utility.yul\":1716:1768   */\n      tag_232\n      jump\t// in\n    tag_249:\n        /* \"#utility.yul\":1706:1768   */\n      swap2\n      pop\n        /* \"#utility.yul\":1661:1778   */\n      pop\n        /* \"#utility.yul\":1297:1785   */\n      swap3\n      pop\n      swap3\n      swap1\n      pop\n      jump\t// out\n        /* \"#utility.yul\":1791:1909   */\n    tag_250:\n        /* \"#utility.yul\":1878:1902   */\n      tag_252\n        /* \"#utility.yul\":1896:1901   */\n      dup2\n        /* \"#utility.yul\":1878:1902   */\n      tag_253\n      jump\t// in\n    tag_252:\n        /* \"#utility.yul\":1873:1876   */\n      dup3\n        /* \"#utility.yul\":1866:1903   */\n      mstore\n        /* \"#utility.yul\":1791:1909   */\n      pop\n      pop\n      jump\t// out\n        /* \"#utility.yul\":1915:2024   */\n    tag_254:\n        /* \"#utility.yul\":1996:2017   */\n      tag_256\n        /* \"#utility.yul\":2011:2016   */\n      dup2\n        /* \"#utility.yul\":1996:2017   */\n      tag_257\n      jump\t// in\n    tag_256:\n        /* \"#utility.yul\":1991:1994   */\n      dup3\n        /* \"#utility.yul\":1984:2018   */\n      mstore\n        /* \"#utility.yul\":1915:2024   */\n      pop\n      pop\n      jump\t// out\n        /* \"#utility.yul\":2030:2403   */\n    tag_258:\n        /* \"#utility.yul\":2134:2137   */\n      0x00\n        /* \"#utility.yul\":2162:2200   */\n      tag_260\n        /* \"#utility.yul\":2194:2199   */\n      dup3\n        /* \"#utility.yul\":2162:2200   */\n      tag_261\n      jump\t// in\n    tag_260:\n        /* \"#utility.yul\":2216:2304   */\n      tag_262\n        /* \"#utility.yul\":2297:2303   */\n      dup2\n        /* \"#utility.yul\":2292:2295   */\n      dup6\n        /* \"#utility.yul\":2216:2304   */\n      tag_263\n      jump\t// in\n    tag_262:\n        /* \"#utility.yul\":2209:2304   */\n      swap4\n      pop\n        /* \"#utility.yul\":2313:2365   */\n      tag_264\n        /* \"#utility.yul\":2358:2364   */\n      dup2\n        /* \"#utility.yul\":2353:2356   */\n      dup6\n        /* \"#utility.yul\":2346:2350   */\n      0x20\n        /* \"#utility.yul\":2339:2344   */\n      dup7\n        /* \"#utility.yul\":2335:2351   */\n      add\n        /* \"#utility.yul\":2313:2365   */\n      tag_265\n      jump\t// in\n    tag_264:\n        /* \"#utility.yul\":2390:2396   */\n      dup1\n        /* \"#utility.yul\":2385:2388   */\n      dup5\n        /* \"#utility.yul\":2381:2397   */\n      add\n        /* \"#utility.yul\":2374:2397   */\n      swap2\n      pop\n        /* \"#utility.yul\":2138:2403   */\n      pop\n        /* \"#utility.yul\":2030:2403   */\n      swap3\n      swap2\n      pop\n      pop\n      jump\t// out\n        /* \"#utility.yul\":2409:2562   */\n    tag_266:\n        /* \"#utility.yul\":2507:2555   */\n      tag_268\n        /* \"#utility.yul\":2549:2554   */\n      dup2\n        /* \"#utility.yul\":2507:2555   */\n      tag_269\n      jump\t// in\n    tag_268:\n        /* \"#utility.yul\":2502:2505   */\n      dup3\n        /* \"#utility.yul\":2495:2556   */\n      mstore\n        /* \"#utility.yul\":2409:2562   */\n      pop\n      pop\n      jump\t// out\n        /* \"#utility.yul\":2568:2711   */\n    tag_270:\n        /* \"#utility.yul\":2661:2704   */\n      tag_272\n        /* \"#utility.yul\":2698:2703   */\n      dup2\n        /* \"#utility.yul\":2661:2704   */\n      tag_273\n      jump\t// in\n    tag_272:\n        /* \"#utility.yul\":2656:2659   */\n      dup3\n        /* \"#utility.yul\":2649:2705   */\n      mstore\n        /* \"#utility.yul\":2568:2711   */\n      pop\n      pop\n      jump\t// out\n        /* \"#utility.yul\":2717:2835   */\n    tag_274:\n        /* \"#utility.yul\":2804:2828   */\n      tag_276\n        /* \"#utility.yul\":2822:2827   */\n      dup2\n        /* \"#utility.yul\":2804:2828   */\n      tag_277\n      jump\t// in\n    tag_276:\n        /* \"#utility.yul\":2799:2802   */\n      dup3\n        /* \"#utility.yul\":2792:2829   */\n      mstore\n        /* \"#utility.yul\":2717:2835   */\n      pop\n      pop\n      jump\t// out\n        /* \"#utility.yul\":2841:3112   */\n    tag_95:\n        /* \"#utility.yul\":2971:2974   */\n      0x00\n        /* \"#utility.yul\":2993:3086   */\n      tag_279\n        /* \"#utility.yul\":3082:3085   */\n      dup3\n        /* \"#utility.yul\":3073:3079   */\n      dup5\n        /* \"#utility.yul\":2993:3086   */\n      tag_258\n      jump\t// in\n    tag_279:\n        /* \"#utility.yul\":2986:3086   */\n      swap2\n      pop\n        /* \"#utility.yul\":3103:3106   */\n      dup2\n        /* \"#utility.yul\":3096:3106   */\n      swap1\n      pop\n        /* \"#utility.yul\":2841:3112   */\n      swap3\n      swap2\n      pop\n      pop\n      jump\t// out\n        /* \"#utility.yul\":3118:3545   */\n    tag_93:\n        /* \"#utility.yul\":3294:3297   */\n      0x00\n        /* \"#utility.yul\":3316:3409   */\n      tag_281\n        /* \"#utility.yul\":3405:3408   */\n      dup3\n        /* \"#utility.yul\":3396:3402   */\n      dup6\n        /* \"#utility.yul\":3316:3409   */\n      tag_258\n      jump\t// in\n    tag_281:\n        /* \"#utility.yul\":3309:3409   */\n      swap2\n      pop\n        /* \"#utility.yul\":3426:3519   */\n      tag_282\n        /* \"#utility.yul\":3515:3518   */\n      dup3\n        /* \"#utility.yul\":3506:3512   */\n      dup5\n        /* \"#utility.yul\":3426:3519   */\n      tag_258\n      jump\t// in\n    tag_282:\n        /* \"#utility.yul\":3419:3519   */\n      swap2\n      pop\n        /* \"#utility.yul\":3536:3539   */\n      dup2\n        /* \"#utility.yul\":3529:3539   */\n      swap1\n      pop\n        /* \"#utility.yul\":3118:3545   */\n      swap4\n      swap3\n      pop\n      pop\n      pop\n      jump\t// out\n        /* \"#utility.yul\":3551:3773   */\n    tag_21:\n        /* \"#utility.yul\":3644:3648   */\n      0x00\n        /* \"#utility.yul\":3682:3684   */\n      0x20\n        /* \"#utility.yul\":3671:3680   */\n      dup3\n        /* \"#utility.yul\":3667:3685   */\n      add\n        /* \"#utility.yul\":3659:3685   */\n      swap1\n      pop\n        /* \"#utility.yul\":3695:3766   */\n      tag_284\n        /* \"#utility.yul\":3763:3764   */\n      0x00\n        /* \"#utility.yul\":3752:3761   */\n      dup4\n        /* \"#utility.yul\":3748:3765   */\n      add\n        /* \"#utility.yul\":3739:3745   */\n      dup5\n        /* \"#utility.yul\":3695:3766   */\n      tag_250\n      jump\t// in\n    tag_284:\n        /* \"#utility.yul\":3551:3773   */\n      swap3\n      swap2\n      pop\n      pop\n      jump\t// out\n        /* \"#utility.yul\":3779:3989   */\n    tag_45:\n        /* \"#utility.yul\":3866:3870   */\n      0x00\n        /* \"#utility.yul\":3904:3906   */\n      0x20\n        /* \"#utility.yul\":3893:3902   */\n      dup3\n        /* \"#utility.yul\":3889:3907   */\n      add\n        /* \"#utility.yul\":3881:3907   */\n      swap1\n      pop\n        /* \"#utility.yul\":3917:3982   */\n      tag_286\n        /* \"#utility.yul\":3979:3980   */\n      0x00\n        /* \"#utility.yul\":3968:3977   */\n      dup4\n        /* \"#utility.yul\":3964:3981   */\n      add\n        /* \"#utility.yul\":3955:3961   */\n      dup5\n        /* \"#utility.yul\":3917:3982   */\n      tag_254\n      jump\t// in\n    tag_286:\n        /* \"#utility.yul\":3779:3989   */\n      swap3\n      swap2\n      pop\n      pop\n      jump\t// out\n        /* \"#utility.yul\":3995:4239   */\n    tag_34:\n        /* \"#utility.yul\":4099:4103   */\n      0x00\n        /* \"#utility.yul\":4137:4139   */\n      0x20\n        /* \"#utility.yul\":4126:4135   */\n      dup3\n        /* \"#utility.yul\":4122:4140   */\n      add\n        /* \"#utility.yul\":4114:4140   */\n      swap1\n      pop\n        /* \"#utility.yul\":4150:4232   */\n      tag_288\n        /* \"#utility.yul\":4229:4230   */\n      0x00\n        /* \"#utility.yul\":4218:4227   */\n      dup4\n        /* \"#utility.yul\":4214:4231   */\n      add\n        /* \"#utility.yul\":4205:4211   */\n      dup5\n        /* \"#utility.yul\":4150:4232   */\n      tag_266\n      jump\t// in\n    tag_288:\n        /* \"#utility.yul\":3995:4239   */\n      swap3\n      swap2\n      pop\n      pop\n      jump\t// out\n        /* \"#utility.yul\":4245:4479   */\n    tag_30:\n        /* \"#utility.yul\":4344:4348   */\n      0x00\n        /* \"#utility.yul\":4382:4384   */\n      0x20\n        /* \"#utility.yul\":4371:4380   */\n      dup3\n        /* \"#utility.yul\":4367:4385   */\n      add\n        /* \"#utility.yul\":4359:4385   */\n      swap1\n      pop\n        /* \"#utility.yul\":4395:4472   */\n      tag_290\n        /* \"#utility.yul\":4469:4470   */\n      0x00\n        /* \"#utility.yul\":4458:4467   */\n      dup4\n        /* \"#utility.yul\":4454:4471   */\n      add\n        /* \"#utility.yul\":4445:4451   */\n      dup5\n        /* \"#utility.yul\":4395:4472   */\n      tag_270\n      jump\t// in\n    tag_290:\n        /* \"#utility.yul\":4245:4479   */\n      swap3\n      swap2\n      pop\n      pop\n      jump\t// out\n        /* \"#utility.yul\":4485:4707   */\n    tag_17:\n        /* \"#utility.yul\":4578:4582   */\n      0x00\n        /* \"#utility.yul\":4616:4618   */\n      0x20\n        /* \"#utility.yul\":4605:4614   */\n      dup3\n        /* \"#utility.yul\":4601:4619   */\n      add\n        /* \"#utility.yul\":4593:4619   */\n      swap1\n      pop\n        /* \"#utility.yul\":4629:4700   */\n      tag_292\n        /* \"#utility.yul\":4697:4698   */\n      0x00\n        /* \"#utility.yul\":4686:4695   */\n      dup4\n        /* \"#utility.yul\":4682:4699   */\n      add\n        /* \"#utility.yul\":4673:4679   */\n      dup5\n        /* \"#utility.yul\":4629:4700   */\n      tag_274\n      jump\t// in\n    tag_292:\n        /* \"#utility.yul\":4485:4707   */\n      swap3\n      swap2\n      pop\n      pop\n      jump\t// out\n        /* \"#utility.yul\":4794:4892   */\n    tag_261:\n        /* \"#utility.yul\":4845:4851   */\n      0x00\n        /* \"#utility.yul\":4879:4884   */\n      dup2\n        /* \"#utility.yul\":4873:4885   */\n      mload\n        /* \"#utility.yul\":4863:4885   */\n      swap1\n      pop\n        /* \"#utility.yul\":4794:4892   */\n      swap2\n      swap1\n      pop\n      jump\t// out\n        /* \"#utility.yul\":4898:5045   */\n    tag_263:\n        /* \"#utility.yul\":4999:5010   */\n      0x00\n        /* \"#utility.yul\":5036:5039   */\n      dup2\n        /* \"#utility.yul\":5021:5039   */\n      swap1\n      pop\n        /* \"#utility.yul\":4898:5045   */\n      swap3\n      swap2\n      pop\n      pop\n      jump\t// out\n        /* \"#utility.yul\":5051:5356   */\n    tag_215:\n        /* \"#utility.yul\":5091:5094   */\n      0x00\n        /* \"#utility.yul\":5110:5130   */\n      tag_298\n        /* \"#utility.yul\":5128:5129   */\n      dup3\n        /* \"#utility.yul\":5110:5130   */\n      tag_277\n      jump\t// in\n    tag_298:\n        /* \"#utility.yul\":5105:5130   */\n      swap2\n      pop\n        /* \"#utility.yul\":5144:5164   */\n      tag_299\n        /* \"#utility.yul\":5162:5163   */\n      dup4\n        /* \"#utility.yul\":5144:5164   */\n      tag_277\n      jump\t// in\n    tag_299:\n        /* \"#utility.yul\":5139:5164   */\n      swap3\n      pop\n        /* \"#utility.yul\":5298:5299   */\n      dup3\n        /* \"#utility.yul\":5230:5296   */\n      0xffffffffffffffffffffffffffffffffffffffffffffffffffffffffffffffff\n        /* \"#utility.yul\":5226:5300   */\n      sub\n        /* \"#utility.yul\":5223:5224   */\n      dup3\n        /* \"#utility.yul\":5220:5301   */\n      gt\n        /* \"#utility.yul\":5217:5324   */\n      iszero\n      tag_300\n      jumpi\n        /* \"#utility.yul\":5304:5322   */\n      tag_301\n      tag_302\n      jump\t// in\n    tag_301:\n        /* \"#utility.yul\":5217:5324   */\n    tag_300:\n        /* \"#utility.yul\":5348:5349   */\n      dup3\n        /* \"#utility.yul\":5345:5346   */\n      dup3\n        /* \"#utility.yul\":5341:5350   */\n      add\n        /* \"#utility.yul\":5334:5350   */\n      swap1\n      pop\n        /* \"#utility.yul\":5051:5356   */\n      swap3\n      swap2\n      pop\n      pop\n      jump\t// out\n        /* \"#utility.yul\":5362:5547   */\n    tag_203:\n        /* \"#utility.yul\":5402:5403   */\n      0x00\n        /* \"#utility.yul\":5419:5439   */\n      tag_304\n        /* \"#utility.yul\":5437:5438   */\n      dup3\n        /* \"#utility.yul\":5419:5439   */\n      tag_277\n      jump\t// in\n    tag_304:\n        /* \"#utility.yul\":5414:5439   */\n      swap2\n      pop\n        /* \"#utility.yul\":5453:5473   */\n      tag_305\n        /* \"#utility.yul\":5471:5472   */\n      dup4\n        /* \"#utility.yul\":5453:5473   */\n      tag_277\n      jump\t// in\n    tag_305:\n        /* \"#utility.yul\":5448:5473   */\n      swap3\n      pop\n        /* \"#utility.yul\":5492:5493   */\n      dup3\n        /* \"#utility.yul\":5482:5517   */\n      tag_306\n      jumpi\n        /* \"#utility.yul\":5497:5515   */\n      tag_307\n      tag_308\n      jump\t// in\n    tag_307:\n        /* \"#utility.yul\":5482:5517   */\n    tag_306:\n        /* \"#utility.yul\":5539:5540   */\n      dup3\n        /* \"#utility.yul\":5536:5537   */\n      dup3\n        /* \"#utility.yul\":5532:5541   */\n      div\n        /* \"#utility.yul\":5527:5541   */\n      swap1\n      pop\n        /* \"#utility.yul\":5362:5547   */\n      swap3\n      swap2\n      pop\n      pop\n      jump\t// out\n        /* \"#utility.yul\":5553:5744   */\n    tag_211:\n        /* \"#utility.yul\":5593:5597   */\n      0x00\n        /* \"#utility.yul\":5613:5633   */\n      tag_310\n        /* \"#utility.yul\":5631:5632   */\n      dup3\n        /* \"#utility.yul\":5613:5633   */\n      tag_277\n      jump\t// in\n    tag_310:\n        /* \"#utility.yul\":5608:5633   */\n      swap2\n      pop\n        /* \"#utility.yul\":5647:5667   */\n      tag_311\n        /* \"#utility.yul\":5665:5666   */\n      dup4\n        /* \"#utility.yul\":5647:5667   */\n      tag_277\n      jump\t// in\n    tag_311:\n        /* \"#utility.yul\":5642:5667   */\n      swap3\n      pop\n        /* \"#utility.yul\":5686:5687   */\n      dup3\n        /* \"#utility.yul\":5683:5684   */\n      dup3\n        /* \"#utility.yul\":5680:5688   */\n      lt\n        /* \"#utility.yul\":5677:5711   */\n      iszero\n      tag_312\n      jumpi\n        /* \"#utility.yul\":5691:5709   */\n      tag_313\n      tag_302\n      jump\t// in\n    tag_313:\n        /* \"#utility.yul\":5677:5711   */\n    tag_312:\n        /* \"#utility.yul\":5736:5737   */\n      dup3\n        /* \"#utility.yul\":5733:5734   */\n      dup3\n        /* \"#utility.yul\":5729:5738   */\n      sub\n        /* \"#utility.yul\":5721:5738   */\n      swap1\n      pop\n        /* \"#utility.yul\":5553:5744   */\n      swap3\n      swap2\n      pop\n      pop\n      jump\t// out\n        /* \"#utility.yul\":5750:5846   */\n    tag_253:\n        /* \"#utility.yul\":5787:5794   */\n      0x00\n        /* \"#utility.yul\":5816:5840   */\n      tag_315\n        /* \"#utility.yul\":5834:5839   */\n      dup3\n        /* \"#utility.yul\":5816:5840   */\n      tag_316\n      jump\t// in\n    tag_315:\n        /* \"#utility.yul\":5805:5840   */\n      swap1\n      pop\n        /* \"#utility.yul\":5750:5846   */\n      swap2\n      swap1\n      pop\n      jump\t// out\n        /* \"#utility.yul\":5852:5942   */\n    tag_257:\n        /* \"#utility.yul\":5886:5893   */\n      0x00\n        /* \"#utility.yul\":5929:5934   */\n      dup2\n        /* \"#utility.yul\":5922:5935   */\n      iszero\n        /* \"#utility.yul\":5915:5936   */\n      iszero\n        /* \"#utility.yul\":5904:5936   */\n      swap1\n      pop\n        /* \"#utility.yul\":5852:5942   */\n      swap2\n      swap1\n      pop\n      jump\t// out\n        /* \"#utility.yul\":5948:6025   */\n    tag_318:\n        /* \"#utility.yul\":5985:5992   */\n      0x00\n        /* \"#utility.yul\":6014:6019   */\n      dup2\n        /* \"#utility.yul\":6003:6019   */\n      swap1\n      pop\n        /* \"#utility.yul\":5948:6025   */\n      swap2\n      swap1\n      pop\n      jump\t// out\n        /* \"#utility.yul\":6031:6168   */\n    tag_320:\n        /* \"#utility.yul\":6081:6088   */\n      0x00\n        /* \"#utility.yul\":6110:6115   */\n      dup2\n        /* \"#utility.yul\":6099:6115   */\n      swap1\n      pop\n        /* \"#utility.yul\":6116:6162   */\n      tag_322\n        /* \"#utility.yul\":6156:6161   */\n      dup3\n        /* \"#utility.yul\":6116:6162   */\n      tag_323\n      jump\t// in\n    tag_322:\n        /* \"#utility.yul\":6031:6168   */\n      swap2\n      swap1\n      pop\n      jump\t// out\n        /* \"#utility.yul\":6174:6301   */\n    tag_324:\n        /* \"#utility.yul\":6219:6226   */\n      0x00\n        /* \"#utility.yul\":6248:6253   */\n      dup2\n        /* \"#utility.yul\":6237:6253   */\n      swap1\n      pop\n        /* \"#utility.yul\":6254:6295   */\n      tag_326\n        /* \"#utility.yul\":6289:6294   */\n      dup3\n        /* \"#utility.yul\":6254:6295   */\n      tag_327\n      jump\t// in\n    tag_326:\n        /* \"#utility.yul\":6174:6301   */\n      swap2\n      swap1\n      pop\n      jump\t// out\n        /* \"#utility.yul\":6307:6433   */\n    tag_316:\n        /* \"#utility.yul\":6344:6351   */\n      0x00\n        /* \"#utility.yul\":6384:6426   */\n      0xffffffffffffffffffffffffffffffffffffffff\n        /* \"#utility.yul\":6377:6382   */\n      dup3\n        /* \"#utility.yul\":6373:6427   */\n      and\n        /* \"#utility.yul\":6362:6427   */\n      swap1\n      pop\n        /* \"#utility.yul\":6307:6433   */\n      swap2\n      swap1\n      pop\n      jump\t// out\n        /* \"#utility.yul\":6439:6516   */\n    tag_277:\n        /* \"#utility.yul\":6476:6483   */\n      0x00\n        /* \"#utility.yul\":6505:6510   */\n      dup2\n        /* \"#utility.yul\":6494:6510   */\n      swap1\n      pop\n        /* \"#utility.yul\":6439:6516   */\n      swap2\n      swap1\n      pop\n      jump\t// out\n        /* \"#utility.yul\":6522:6615   */\n    tag_330:\n        /* \"#utility.yul\":6558:6565   */\n      0x00\n        /* \"#utility.yul\":6598:6608   */\n      0xffffffff\n        /* \"#utility.yul\":6591:6596   */\n      dup3\n        /* \"#utility.yul\":6587:6609   */\n      and\n        /* \"#utility.yul\":6576:6609   */\n      swap1\n      pop\n        /* \"#utility.yul\":6522:6615   */\n      swap2\n      swap1\n      pop\n      jump\t// out\n        /* \"#utility.yul\":6621:6758   */\n    tag_269:\n        /* \"#utility.yul\":6682:6691   */\n      0x00\n        /* \"#utility.yul\":6715:6752   */\n      tag_333\n        /* \"#utility.yul\":6746:6751   */\n      dup3\n        /* \"#utility.yul\":6715:6752   */\n      tag_320\n      jump\t// in\n    tag_333:\n        /* \"#utility.yul\":6702:6752   */\n      swap1\n      pop\n        /* \"#utility.yul\":6621:6758   */\n      swap2\n      swap1\n      pop\n      jump\t// out\n        /* \"#utility.yul\":6764:6891   */\n    tag_273:\n        /* \"#utility.yul\":6820:6829   */\n      0x00\n        /* \"#utility.yul\":6853:6885   */\n      tag_335\n        /* \"#utility.yul\":6879:6884   */\n      dup3\n        /* \"#utility.yul\":6853:6885   */\n      tag_324\n      jump\t// in\n    tag_335:\n        /* \"#utility.yul\":6840:6885   */\n      swap1\n      pop\n        /* \"#utility.yul\":6764:6891   */\n      swap2\n      swap1\n      pop\n      jump\t// out\n        /* \"#utility.yul\":6897:7204   */\n    tag_265:\n        /* \"#utility.yul\":6965:6966   */\n      0x00\n        /* \"#utility.yul\":6975:7088   */\n    tag_337:\n        /* \"#utility.yul\":6989:6995   */\n      dup4\n        /* \"#utility.yul\":6986:6987   */\n      dup2\n        /* \"#utility.yul\":6983:6996   */\n      lt\n        /* \"#utility.yul\":6975:7088   */\n      iszero\n      tag_339\n      jumpi\n        /* \"#utility.yul\":7074:7075   */\n      dup1\n        /* \"#utility.yul\":7069:7072   */\n      dup3\n        /* \"#utility.yul\":7065:7076   */\n      add\n        /* \"#utility.yul\":7059:7077   */\n      mload\n        /* \"#utility.yul\":7055:7056   */\n      dup2\n        /* \"#utility.yul\":7050:7053   */\n      dup5\n        /* \"#utility.yul\":7046:7057   */\n      add\n        /* \"#utility.yul\":7039:7078   */\n      mstore\n        /* \"#utility.yul\":7011:7013   */\n      0x20\n        /* \"#utility.yul\":7008:7009   */\n      dup2\n        /* \"#utility.yul\":7004:7014   */\n      add\n        /* \"#utility.yul\":6999:7014   */\n      swap1\n      pop\n        /* \"#utility.yul\":6975:7088   */\n      jump(tag_337)\n    tag_339:\n        /* \"#utility.yul\":7106:7112   */\n      dup4\n        /* \"#utility.yul\":7103:7104   */\n      dup2\n        /* \"#utility.yul\":7100:7113   */\n      gt\n        /* \"#utility.yul\":7097:7198   */\n      iszero\n      tag_340\n      jumpi\n        /* \"#utility.yul\":7186:7187   */\n      0x00\n        /* \"#utility.yul\":7177:7183   */\n      dup5\n        /* \"#utility.yul\":7172:7175   */\n      dup5\n        /* \"#utility.yul\":7168:7184   */\n      add\n        /* \"#utility.yul\":7161:7188   */\n      mstore\n        /* \"#utility.yul\":7097:7198   */\n    tag_340:\n        /* \"#utility.yul\":6946:7204   */\n      pop\n        /* \"#utility.yul\":6897:7204   */\n      pop\n      pop\n      pop\n      jump\t// out\n        /* \"#utility.yul\":7210:7443   */\n    tag_201:\n        /* \"#utility.yul\":7249:7252   */\n      0x00\n        /* \"#utility.yul\":7272:7296   */\n      tag_342\n        /* \"#utility.yul\":7290:7295   */\n      dup3\n        /* \"#utility.yul\":7272:7296   */\n      tag_277\n      jump\t// in\n    tag_342:\n        /* \"#utility.yul\":7263:7296   */\n      swap2\n      pop\n        /* \"#utility.yul\":7318:7384   */\n      0xffffffffffffffffffffffffffffffffffffffffffffffffffffffffffffffff\n        /* \"#utility.yul\":7311:7316   */\n      dup3\n        /* \"#utility.yul\":7308:7385   */\n      eq\n        /* \"#utility.yul\":7305:7408   */\n      iszero\n      tag_343\n      jumpi\n        /* \"#utility.yul\":7388:7406   */\n      tag_344\n      tag_302\n      jump\t// in\n    tag_344:\n        /* \"#utility.yul\":7305:7408   */\n    tag_343:\n        /* \"#utility.yul\":7435:7436   */\n      0x01\n        /* \"#utility.yul\":7428:7433   */\n      dup3\n        /* \"#utility.yul\":7424:7437   */\n      add\n        /* \"#utility.yul\":7417:7437   */\n      swap1\n      pop\n        /* \"#utility.yul\":7210:7443   */\n      swap2\n      swap1\n      pop\n      jump\t// out\n        /* \"#utility.yul\":7449:7625   */\n    tag_213:\n        /* \"#utility.yul\":7481:7482   */\n      0x00\n        /* \"#utility.yul\":7498:7518   */\n      tag_346\n        /* \"#utility.yul\":7516:7517   */\n      dup3\n        /* \"#utility.yul\":7498:7518   */\n      tag_277\n      jump\t// in\n    tag_346:\n        /* \"#utility.yul\":7493:7518   */\n      swap2\n      pop\n        /* \"#utility.yul\":7532:7552   */\n      tag_347\n        /* \"#utility.yul\":7550:7551   */\n      dup4\n        /* \"#utility.yul\":7532:7552   */\n      tag_277\n      jump\t// in\n    tag_347:\n        /* \"#utility.yul\":7527:7552   */\n      swap3\n      pop\n        /* \"#utility.yul\":7571:7572   */\n      dup3\n        /* \"#utility.yul\":7561:7596   */\n      tag_348\n      jumpi\n        /* \"#utility.yul\":7576:7594   */\n      tag_349\n      tag_308\n      jump\t// in\n    tag_349:\n        /* \"#utility.yul\":7561:7596   */\n    tag_348:\n        /* \"#utility.yul\":7617:7618   */\n      dup3\n        /* \"#utility.yul\":7614:7615   */\n      dup3\n        /* \"#utility.yul\":7610:7619   */\n      mod\n        /* \"#utility.yul\":7605:7619   */\n      swap1\n      pop\n        /* \"#utility.yul\":7449:7625   */\n      swap3\n      swap2\n      pop\n      pop\n      jump\t// out\n        /* \"#utility.yul\":7631:7811   */\n    tag_302:\n        /* \"#utility.yul\":7679:7756   */\n      0x4e487b7100000000000000000000000000000000000000000000000000000000\n        /* \"#utility.yul\":7676:7677   */\n      0x00\n        /* \"#utility.yul\":7669:7757   */\n      mstore\n        /* \"#utility.yul\":7776:7780   */\n      0x11\n        /* \"#utility.yul\":7773:7774   */\n      0x04\n        /* \"#utility.yul\":7766:7781   */\n      mstore\n        /* \"#utility.yul\":7800:7804   */\n      0x24\n        /* \"#utility.yul\":7797:7798   */\n      0x00\n        /* \"#utility.yul\":7790:7805   */\n      revert\n        /* \"#utility.yul\":7817:7997   */\n    tag_308:\n        /* \"#utility.yul\":7865:7942   */\n      0x4e487b7100000000000000000000000000000000000000000000000000000000\n        /* \"#utility.yul\":7862:7863   */\n      0x00\n        /* \"#utility.yul\":7855:7943   */\n      mstore\n        /* \"#utility.yul\":7962:7966   */\n      0x12\n        /* \"#utility.yul\":7959:7960   */\n      0x04\n        /* \"#utility.yul\":7952:7967   */\n      mstore\n        /* \"#utility.yul\":7986:7990   */\n      0x24\n        /* \"#utility.yul\":7983:7984   */\n      0x00\n        /* \"#utility.yul\":7976:7991   */\n      revert\n        /* \"#utility.yul\":8003:8183   */\n    tag_58:\n        /* \"#utility.yul\":8051:8128   */\n      0x4e487b7100000000000000000000000000000000000000000000000000000000\n        /* \"#utility.yul\":8048:8049   */\n      0x00\n        /* \"#utility.yul\":8041:8129   */\n      mstore\n        /* \"#utility.yul\":8148:8152   */\n      0x21\n        /* \"#utility.yul\":8145:8146   */\n      0x04\n        /* \"#utility.yul\":8138:8153   */\n      mstore\n        /* \"#utility.yul\":8172:8176   */\n      0x24\n        /* \"#utility.yul\":8169:8170   */\n      0x00\n        /* \"#utility.yul\":8162:8177   */\n      revert\n        /* \"#utility.yul\":8189:8369   */\n    tag_218:\n        /* \"#utility.yul\":8237:8314   */\n      0x4e487b7100000000000000000000000000000000000000000000000000000000\n        /* \"#utility.yul\":8234:8235   */\n      0x00\n        /* \"#utility.yul\":8227:8315   */\n      mstore\n        /* \"#utility.yul\":8334:8338   */\n      0x32\n        /* \"#utility.yul\":8331:8332   */\n      0x04\n        /* \"#utility.yul\":8324:8339   */\n      mstore\n        /* \"#utility.yul\":8358:8362   */\n      0x24\n        /* \"#utility.yul\":8355:8356   */\n      0x00\n        /* \"#utility.yul\":8348:8363   */\n      revert\n        /* \"#utility.yul\":8375:8555   */\n    tag_206:\n        /* \"#utility.yul\":8423:8500   */\n      0x4e487b7100000000000000000000000000000000000000000000000000000000\n        /* \"#utility.yul\":8420:8421   */\n      0x00\n        /* \"#utility.yul\":8413:8501   */\n      mstore\n        /* \"#utility.yul\":8520:8524   */\n      0x41\n        /* \"#utility.yul\":8517:8518   */\n      0x04\n        /* \"#utility.yul\":8510:8525   */\n      mstore\n        /* \"#utility.yul\":8544:8548   */\n      0x24\n        /* \"#utility.yul\":8541:8542   */\n      0x00\n        /* \"#utility.yul\":8534:8549   */\n      revert\n        /* \"#utility.yul\":8684:8801   */\n    tag_239:\n        /* \"#utility.yul\":8793:8794   */\n      0x00\n        /* \"#utility.yul\":8790:8791   */\n      dup1\n        /* \"#utility.yul\":8783:8795   */\n      revert\n        /* \"#utility.yul\":8807:8925   */\n    tag_323:\n        /* \"#utility.yul\":8893:8894   */\n      0x03\n        /* \"#utility.yul\":8886:8891   */\n      dup2\n        /* \"#utility.yul\":8883:8895   */\n      lt\n        /* \"#utility.yul\":8873:8919   */\n      tag_359\n      jumpi\n        /* \"#utility.yul\":8899:8917   */\n      tag_360\n      tag_58\n      jump\t// in\n    tag_360:\n        /* \"#utility.yul\":8873:8919   */\n    tag_359:\n        /* \"#utility.yul\":8807:8925   */\n      pop\n      jump\t// out\n        /* \"#utility.yul\":8931:9044   */\n    tag_327:\n        /* \"#utility.yul\":9012:9013   */\n      0x04\n        /* \"#utility.yul\":9005:9010   */\n      dup2\n        /* \"#utility.yul\":9002:9014   */\n      lt\n        /* \"#utility.yul\":8992:9038   */\n      tag_362\n      jumpi\n        /* \"#utility.yul\":9018:9036   */\n      tag_363\n      tag_58\n      jump\t// in\n    tag_363:\n        /* \"#utility.yul\":8992:9038   */\n    tag_362:\n        /* \"#utility.yul\":8931:9044   */\n      pop\n      jump\t// out\n        /* \"#utility.yul\":9050:9172   */\n    tag_224:\n        /* \"#utility.yul\":9123:9147   */\n      tag_365\n        /* \"#utility.yul\":9141:9146   */\n      dup2\n        /* \"#utility.yul\":9123:9147   */\n      tag_318\n      jump\t// in\n    tag_365:\n        /* \"#utility.yul\":9116:9121   */\n      dup2\n        /* \"#utility.yul\":9113:9148   */\n      eq\n        /* \"#utility.yul\":9103:9166   */\n      tag_366\n      jumpi\n        /* \"#utility.yul\":9162:9163   */\n      0x00\n        /* \"#utility.yul\":9159:9160   */\n      dup1\n        /* \"#utility.yul\":9152:9164   */\n      revert\n        /* \"#utility.yul\":9103:9166   */\n    tag_366:\n        /* \"#utility.yul\":9050:9172   */\n      pop\n      jump\t// out\n        /* \"#utility.yul\":9178:9285   */\n    tag_231:\n        /* \"#utility.yul\":9259:9260   */\n      0x04\n        /* \"#utility.yul\":9252:9257   */\n      dup2\n        /* \"#utility.yul\":9249:9261   */\n      lt\n        /* \"#utility.yul\":9239:9279   */\n      tag_368\n      jumpi\n        /* \"#utility.yul\":9275:9276   */\n      0x00\n        /* \"#utility.yul\":9272:9273   */\n      dup1\n        /* \"#utility.yul\":9265:9277   */\n      revert\n        /* \"#utility.yul\":9239:9279   */\n    tag_368:\n        /* \"#utility.yul\":9178:9285   */\n      pop\n      jump\t// out\n        /* \"#utility.yul\":9291:9411   */\n    tag_235:\n        /* \"#utility.yul\":9363:9386   */\n      tag_370\n        /* \"#utility.yul\":9380:9385   */\n      dup2\n        /* \"#utility.yul\":9363:9386   */\n      tag_330\n      jump\t// in\n    tag_370:\n        /* \"#utility.yul\":9356:9361   */\n      dup2\n        /* \"#utility.yul\":9353:9387   */\n      eq\n        /* \"#utility.yul\":9343:9405   */\n      tag_371\n      jumpi\n        /* \"#utility.yul\":9401:9402   */\n      0x00\n        /* \"#utility.yul\":9398:9399   */\n      dup1\n        /* \"#utility.yul\":9391:9403   */\n      revert\n        /* \"#utility.yul\":9343:9405   */\n    tag_371:\n        /* \"#utility.yul\":9291:9411   */\n      pop\n      jump\t// out\n\n    auxdata: 0xa264697066735822122038f9cd41053edda30d0beb082f323e320be8b7453779fa89e47a1d030e9b27cb64736f6c63430008070033\n}\n",
				"bytecode": {
					"linkReferences": {},
					"object": "60806040523480156200001157600080fd5b50620000226200002860201b60201c565b62000329565b6000600360006101000a81548173ffffffffffffffffffffffffffffffffffffffff021916908373ffffffffffffffffffffffffffffffffffffffff160217905550600360009054906101000a900473ffffffffffffffffffffffffffffffffffffffff16600060016101000a81548173ffffffffffffffffffffffffffffffffffffffff021916908373ffffffffffffffffffffffffffffffffffffffff160217905550600360009054906101000a900473ffffffffffffffffffffffffffffffffffffffff16600160006101000a81548173ffffffffffffffffffffffffffffffffffffffff021916908373ffffffffffffffffffffffffffffffffffffffff160217905550600360009054906101000a900473ffffffffffffffffffffffffffffffffffffffff16600260006101000a81548173ffffffffffffffffffffffffffffffffffffffff021916908373ffffffffffffffffffffffffffffffffffffffff1602179055506000801b6004819055506000801b6005819055506000600660006101000a81548160ff02191690836003811115620001d057620001cf620002e3565b5b02179055506000600660016101000a81548160ff02191690836003811115620001fe57620001fd620002e3565b5b02179055506200021560006200021760201b60201c565b565b806000806101000a81548160ff021916908360028111156200023e576200023d620002e3565b5b02179055507f5fe57a6009d2ae51447def0790762f4e928888c72f5f8ef4abed68599519a83360008054906101000a900460ff166040516200028191906200029d565b60405180910390a150565b6200029781620002cf565b82525050565b6000602082019050620002b460008301846200028c565b92915050565b6000819050620002ca8262000312565b919050565b6000620002dc82620002ba565b9050919050565b7f4e487b7100000000000000000000000000000000000000000000000000000000600052602160045260246000fd5b60038110620003265762000325620002e3565b5b50565b61191e80620003396000396000f3fe608060405234801561001057600080fd5b506004361061009e5760003560e01c80639ba6c216116100665780639ba6c21614610125578063ab4a6be114610143578063cefdbc8414610173578063dbe4dd79146101a3578063dfbf53ae146101c15761009e565b80631aa3a008146100a35780631bc1e19a146100c15780631ef3755d146100df57806354712524146100e95780638b015ccf14610107575b600080fd5b6100ab6101df565b6040516100b8919061154d565b60405180910390f35b6100c9610498565b6040516100d691906114e1565b60405180910390f35b6100e76104be565b005b6100f161069f565b6040516100fe91906114e1565b60405180910390f35b61010f6106c5565b60405161011c9190611532565b60405180910390f35b61012d6106d8565b60405161013a9190611517565b60405180910390f35b61015d600480360381019061015891906113ea565b6106e9565b60405161016a91906114e1565b60405180910390f35b61018d60048036038101906101889190611390565b610f20565b60405161019a91906114fc565b60405180910390f35b6101ab611132565b6040516101b89190611532565b60405180910390f35b6101c9611145565b6040516101d691906114e1565b60405180910390f35b6000600160009054906101000a900473ffffffffffffffffffffffffffffffffffffffff1673ffffffffffffffffffffffffffffffffffffffff163373ffffffffffffffffffffffffffffffffffffffff161415801561028d5750600260009054906101000a900473ffffffffffffffffffffffffffffffffffffffff1673ffffffffffffffffffffffffffffffffffffffff163373ffffffffffffffffffffffffffffffffffffffff1614155b61029657600080fd5b60008060028111156102ab576102aa6117f0565b5b60008054906101000a900460ff1660028111156102cb576102ca6117f0565b5b146102d557600080fd5b600073ffffffffffffffffffffffffffffffffffffffff16600160009054906101000a900473ffffffffffffffffffffffffffffffffffffffff1673ffffffffffffffffffffffffffffffffffffffff1614156103ad5733600160006101000a81548173ffffffffffffffffffffffffffffffffffffffff021916908373ffffffffffffffffffffffffffffffffffffffff1602179055507fada0ba55ddd90bb25ecc3a5e99986836201565b3a09e5be156e48713da1bfd633360405161039c91906114e1565b60405180910390a160019150610494565b600073ffffffffffffffffffffffffffffffffffffffff16600260009054906101000a900473ffffffffffffffffffffffffffffffffffffffff1673ffffffffffffffffffffffffffffffffffffffff16141561048f5733600260006101000a81548173ffffffffffffffffffffffffffffffffffffffff021916908373ffffffffffffffffffffffffffffffffffffffff1602179055507f67cf7f1535e1c1323fe4e76266f7d55f0c1f67fdf449db65e014f9d35881514d3360405161047491906114e1565b60405180910390a1610486600161116b565b60029150610494565b600091505b5090565b600260009054906101000a900473ffffffffffffffffffffffffffffffffffffffff1681565b6000600360006101000a81548173ffffffffffffffffffffffffffffffffffffffff021916908373ffffffffffffffffffffffffffffffffffffffff160217905550600360009054906101000a900473ffffffffffffffffffffffffffffffffffffffff16600060016101000a81548173ffffffffffffffffffffffffffffffffffffffff021916908373ffffffffffffffffffffffffffffffffffffffff160217905550600360009054906101000a900473ffffffffffffffffffffffffffffffffffffffff16600160006101000a81548173ffffffffffffffffffffffffffffffffffffffff021916908373ffffffffffffffffffffffffffffffffffffffff160217905550600360009054906101000a900473ffffffffffffffffffffffffffffffffffffffff16600260006101000a81548173ffffffffffffffffffffffffffffffffffffffff021916908373ffffffffffffffffffffffffffffffffffffffff1602179055506000801b6004819055506000801b6005819055506000600660006101000a81548160ff02191690836003811115610663576106626117f0565b5b02179055506000600660016101000a81548160ff0219169083600381111561068e5761068d6117f0565b5b021790555061069d600061116b565b565b600160009054906101000a900473ffffffffffffffffffffffffffffffffffffffff1681565b600660009054906101000a900460ff1681565b60008054906101000a900460ff1681565b6000600160009054906101000a900473ffffffffffffffffffffffffffffffffffffffff1673ffffffffffffffffffffffffffffffffffffffff163373ffffffffffffffffffffffffffffffffffffffff1614806107945750600260009054906101000a900473ffffffffffffffffffffffffffffffffffffffff1673ffffffffffffffffffffffffffffffffffffffff163373ffffffffffffffffffffffffffffffffffffffff16145b61079d57600080fd5b60028060028111156107b2576107b16117f0565b5b60008054906101000a900460ff1660028111156107d2576107d16117f0565b5b146107dc57600080fd5b6000801b600454141580156107f657506000801b60055414155b6107ff57600080fd5b6000600261081e866003811115610819576108186117f0565b5b6111db565b61082d8663ffffffff166111db565b60405160200161083e9291906114bd565b60405160208183030381529060405260405161085a91906114a6565b602060405180830381855afa158015610877573d6000803e3d6000fd5b5050506040513d601f19601f8201168201806040525081019061089a91906113bd565b9050600060038111156108b0576108af6117f0565b5b8560038111156108c3576108c26117f0565b5b14156108f457600360009054906101000a900473ffffffffffffffffffffffffffffffffffffffff16925050610f19565b600160009054906101000a900473ffffffffffffffffffffffffffffffffffffffff1673ffffffffffffffffffffffffffffffffffffffff163373ffffffffffffffffffffffffffffffffffffffff16148015610952575060045481145b156109865784600660006101000a81548160ff0219169083600381111561097c5761097b6117f0565b5b0217905550610a44565b600260009054906101000a900473ffffffffffffffffffffffffffffffffffffffff1673ffffffffffffffffffffffffffffffffffffffff163373ffffffffffffffffffffffffffffffffffffffff161480156109e4575060055481145b15610a185784600660016101000a81548160ff02191690836003811115610a0e57610a0d6117f0565b5b0217905550610a43565b600360009054906101000a900473ffffffffffffffffffffffffffffffffffffffff16925050610f19565b5b60006003811115610a5857610a576117f0565b5b600660009054906101000a900460ff166003811115610a7a57610a796117f0565b5b141580610abb575060006003811115610a9657610a956117f0565b5b600660019054906101000a900460ff166003811115610ab857610ab76117f0565b5b14155b15610e3557600660019054906101000a900460ff166003811115610ae257610ae16117f0565b5b600660009054906101000a900460ff166003811115610b0457610b036117f0565b5b1415610b7257600360009054906101000a900473ffffffffffffffffffffffffffffffffffffffff16600060016101000a81548173ffffffffffffffffffffffffffffffffffffffff021916908373ffffffffffffffffffffffffffffffffffffffff160217905550610e30565b60026003811115610b8657610b856117f0565b5b600660009054906101000a900460ff166003811115610ba857610ba76117f0565b5b148015610be75750600380811115610bc357610bc26117f0565b5b600660019054906101000a900460ff166003811115610be557610be46117f0565b5b145b80610c635750600380811115610c0057610bff6117f0565b5b600660009054906101000a900460ff166003811115610c2257610c216117f0565b5b148015610c62575060016003811115610c3e57610c3d6117f0565b5b600660019054906101000a900460ff166003811115610c6057610c5f6117f0565b5b145b5b80610ce0575060016003811115610c7d57610c7c6117f0565b5b600660009054906101000a900460ff166003811115610c9f57610c9e6117f0565b5b148015610cdf575060026003811115610cbb57610cba6117f0565b5b600660019054906101000a900460ff166003811115610cdd57610cdc6117f0565b5b145b5b80610d5e575060006003811115610cfa57610cf96117f0565b5b600660009054906101000a900460ff166003811115610d1c57610d1b6117f0565b5b14158015610d5d575060006003811115610d3957610d386117f0565b5b600660019054906101000a900460ff166003811115610d5b57610d5a6117f0565b5b145b5b15610dcb57600160009054906101000a900473ffffffffffffffffffffffffffffffffffffffff16600060016101000a81548173ffffffffffffffffffffffffffffffffffffffff021916908373ffffffffffffffffffffffffffffffffffffffff160217905550610e2f565b600260009054906101000a900473ffffffffffffffffffffffffffffffffffffffff16600060016101000a81548173ffffffffffffffffffffffffffffffffffffffff021916908373ffffffffffffffffffffffffffffffffffffffff1602179055505b5b610e99565b600360009054906101000a900473ffffffffffffffffffffffffffffffffffffffff16600060016101000a81548173ffffffffffffffffffffffffffffffffffffffff021916908373ffffffffffffffffffffffffffffffffffffffff1602179055505b7f1728dd43546edd06fabfe796e5b641a151aa90998bfd1b1ec0ae98c6e7708459600060019054906101000a900473ffffffffffffffffffffffffffffffffffffffff16604051610eea91906114e1565b60405180910390a1600060019054906101000a900473ffffffffffffffffffffffffffffffffffffffff169250505b5092915050565b6000600160009054906101000a900473ffffffffffffffffffffffffffffffffffffffff1673ffffffffffffffffffffffffffffffffffffffff163373ffffffffffffffffffffffffffffffffffffffff161480610fcb5750600260009054906101000a900473ffffffffffffffffffffffffffffffffffffffff1673ffffffffffffffffffffffffffffffffffffffff163373ffffffffffffffffffffffffffffffffffffffff16145b610fd457600080fd5b6001806002811115610fe957610fe86117f0565b5b60008054906101000a900460ff166002811115611009576110086117f0565b5b1461101357600080fd5b6000600160009054906101000a900473ffffffffffffffffffffffffffffffffffffffff1673ffffffffffffffffffffffffffffffffffffffff163373ffffffffffffffffffffffffffffffffffffffff1614801561107657506000801b600454145b1561108b5783600481905550600190506110fe565b600260009054906101000a900473ffffffffffffffffffffffffffffffffffffffff1673ffffffffffffffffffffffffffffffffffffffff163373ffffffffffffffffffffffffffffffffffffffff161480156110ec57506000801b600554145b156110fd5783600581905550600190505b5b6000801b6004541415801561111857506000801b60055414155b1561112857611127600261116b565b5b8092505050919050565b600660019054906101000a900460ff1681565b600060019054906101000a900473ffffffffffffffffffffffffffffffffffffffff1681565b806000806101000a81548160ff0219169083600281111561118f5761118e6117f0565b5b02179055507f5fe57a6009d2ae51447def0790762f4e928888c72f5f8ef4abed68599519a83360008054906101000a900460ff166040516111d09190611517565b60405180910390a150565b60606000821415611223576040518060400160405280600181526020017f30000000000000000000000000000000000000000000000000000000000000008152509050611337565b600082905060005b6000821461125557808061123e90611718565b915050600a8261124e91906115d4565b915061122b565b60008167ffffffffffffffff8111156112715761127061184e565b5b6040519080825280601f01601f1916602001820160405280156112a35781602001600182028036833780820191505090505b5090505b60008514611330576001826112bc9190611605565b9150600a856112cb9190611761565b60306112d7919061157e565b60f81b8183815181106112ed576112ec61181f565b5b60200101907effffffffffffffffffffffffffffffffffffffffffffffffffffffffffffff1916908160001a905350600a8561132991906115d4565b94506112a7565b8093505050505b919050565b60008135905061134b816118aa565b92915050565b600081519050611360816118aa565b92915050565b600081359050611375816118c1565b92915050565b60008135905061138a816118d1565b92915050565b6000602082840312156113a6576113a561187d565b5b60006113b48482850161133c565b91505092915050565b6000602082840312156113d3576113d261187d565b5b60006113e184828501611351565b91505092915050565b600080604083850312156114015761140061187d565b5b600061140f85828601611366565b92505060206114208582860161137b565b9150509250929050565b61143381611639565b82525050565b6114428161164b565b82525050565b600061145382611568565b61145d8185611573565b935061146d8185602086016116e5565b80840191505092915050565b611482816116c1565b82525050565b611491816116d3565b82525050565b6114a0816116a7565b82525050565b60006114b28284611448565b915081905092915050565b60006114c98285611448565b91506114d58284611448565b91508190509392505050565b60006020820190506114f6600083018461142a565b92915050565b60006020820190506115116000830184611439565b92915050565b600060208201905061152c6000830184611479565b92915050565b60006020820190506115476000830184611488565b92915050565b60006020820190506115626000830184611497565b92915050565b600081519050919050565b600081905092915050565b6000611589826116a7565b9150611594836116a7565b9250827fffffffffffffffffffffffffffffffffffffffffffffffffffffffffffffffff038211156115c9576115c8611792565b5b828201905092915050565b60006115df826116a7565b91506115ea836116a7565b9250826115fa576115f96117c1565b5b828204905092915050565b6000611610826116a7565b915061161b836116a7565b92508282101561162e5761162d611792565b5b828203905092915050565b600061164482611687565b9050919050565b60008115159050919050565b6000819050919050565b600081905061166f82611882565b919050565b600081905061168282611896565b919050565b600073ffffffffffffffffffffffffffffffffffffffff82169050919050565b6000819050919050565b600063ffffffff82169050919050565b60006116cc82611661565b9050919050565b60006116de82611674565b9050919050565b60005b838110156117035780820151818401526020810190506116e8565b83811115611712576000848401525b50505050565b6000611723826116a7565b91507fffffffffffffffffffffffffffffffffffffffffffffffffffffffffffffffff82141561175657611755611792565b5b600182019050919050565b600061176c826116a7565b9150611777836116a7565b925082611787576117866117c1565b5b828206905092915050565b7f4e487b7100000000000000000000000000000000000000000000000000000000600052601160045260246000fd5b7f4e487b7100000000000000000000000000000000000000000000000000000000600052601260045260246000fd5b7f4e487b7100000000000000000000000000000000000000000000000000000000600052602160045260246000fd5b7f4e487b7100000000000000000000000000000000000000000000000000000000600052603260045260246000fd5b7f4e487b7100000000000000000000000000000000000000000000000000000000600052604160045260246000fd5b600080fd5b60038110611893576118926117f0565b5b50565b600481106118a7576118a66117f0565b5b50565b6118b381611657565b81146118be57600080fd5b50565b600481106118ce57600080fd5b50565b6118da816116b1565b81146118e557600080fd5b5056fea264697066735822122038f9cd41053edda30d0beb082f323e320be8b7453779fa89e47a1d030e9b27cb64736f6c63430008070033",
					"opcodes": "PUSH1 0x80 PUSH1 0x40 MSTORE CALLVALUE DUP1 ISZERO PUSH3 0x11 JUMPI PUSH1 0x0 DUP1 REVERT JUMPDEST POP PUSH3 0x22 PUSH3 0x28 PUSH1 0x20 SHL PUSH1 0x20 SHR JUMP JUMPDEST PUSH3 0x329 JUMP JUMPDEST PUSH1 0x0 PUSH1 0x3 PUSH1 0x0 PUSH2 0x100 EXP DUP2 SLOAD DUP2 PUSH20 0xFFFFFFFFFFFFFFFFFFFFFFFFFFFFFFFFFFFFFFFF MUL NOT AND SWAP1 DUP4 PUSH20 0xFFFFFFFFFFFFFFFFFFFFFFFFFFFFFFFFFFFFFFFF AND MUL OR SWAP1 SSTORE POP PUSH1 0x3 PUSH1 0x0 SWAP1 SLOAD SWAP1 PUSH2 0x100 EXP SWAP1 DIV PUSH20 0xFFFFFFFFFFFFFFFFFFFFFFFFFFFFFFFFFFFFFFFF AND PUSH1 0x0 PUSH1 0x1 PUSH2 0x100 EXP DUP2 SLOAD DUP2 PUSH20 0xFFFFFFFFFFFFFFFFFFFFFFFFFFFFFFFFFFFFFFFF MUL NOT AND SWAP1 DUP4 PUSH20 0xFFFFFFFFFFFFFFFFFFFFFFFFFFFFFFFFFFFFFFFF AND MUL OR SWAP1 SSTORE POP PUSH1 0x3 PUSH1 0x0 SWAP1 SLOAD SWAP1 PUSH2 0x100 EXP SWAP1 DIV PUSH20 0xFFFFFFFFFFFFFFFFFFFFFFFFFFFFFFFFFFFFFFFF AND PUSH1 0x1 PUSH1 0x0 PUSH2 0x100 EXP DUP2 SLOAD DUP2 PUSH20 0xFFFFFFFFFFFFFFFFFFFFFFFFFFFFFFFFFFFFFFFF MUL NOT AND SWAP1 DUP4 PUSH20 0xFFFFFFFFFFFFFFFFFFFFFFFFFFFFFFFFFFFFFFFF AND MUL OR SWAP1 SSTORE POP PUSH1 0x3 PUSH1 0x0 SWAP1 SLOAD SWAP1 PUSH2 0x100 EXP SWAP1 DIV PUSH20 0xFFFFFFFFFFFFFFFFFFFFFFFFFFFFFFFFFFFFFFFF AND PUSH1 0x2 PUSH1 0x0 PUSH2 0x100 EXP DUP2 SLOAD DUP2 PUSH20 0xFFFFFFFFFFFFFFFFFFFFFFFFFFFFFFFFFFFFFFFF MUL NOT AND SWAP1 DUP4 PUSH20 0xFFFFFFFFFFFFFFFFFFFFFFFFFFFFFFFFFFFFFFFF AND MUL OR SWAP1 SSTORE POP PUSH1 0x0 DUP1 SHL PUSH1 0x4 DUP2 SWAP1 SSTORE POP PUSH1 0x0 DUP1 SHL PUSH1 0x5 DUP2 SWAP1 SSTORE POP PUSH1 0x0 PUSH1 0x6 PUSH1 0x0 PUSH2 0x100 EXP DUP2 SLOAD DUP2 PUSH1 0xFF MUL NOT AND SWAP1 DUP4 PUSH1 0x3 DUP2 GT ISZERO PUSH3 0x1D0 JUMPI PUSH3 0x1CF PUSH3 0x2E3 JUMP JUMPDEST JUMPDEST MUL OR SWAP1 SSTORE POP PUSH1 0x0 PUSH1 0x6 PUSH1 0x1 PUSH2 0x100 EXP DUP2 SLOAD DUP2 PUSH1 0xFF MUL NOT AND SWAP1 DUP4 PUSH1 0x3 DUP2 GT ISZERO PUSH3 0x1FE JUMPI PUSH3 0x1FD PUSH3 0x2E3 JUMP JUMPDEST JUMPDEST MUL OR SWAP1 SSTORE POP PUSH3 0x215 PUSH1 0x0 PUSH3 0x217 PUSH1 0x20 SHL PUSH1 0x20 SHR JUMP JUMPDEST JUMP JUMPDEST DUP1 PUSH1 0x0 DUP1 PUSH2 0x100 EXP DUP2 SLOAD DUP2 PUSH1 0xFF MUL NOT AND SWAP1 DUP4 PUSH1 0x2 DUP2 GT ISZERO PUSH3 0x23E JUMPI PUSH3 0x23D PUSH3 0x2E3 JUMP JUMPDEST JUMPDEST MUL OR SWAP1 SSTORE POP PUSH32 0x5FE57A6009D2AE51447DEF0790762F4E928888C72F5F8EF4ABED68599519A833 PUSH1 0x0 DUP1 SLOAD SWAP1 PUSH2 0x100 EXP SWAP1 DIV PUSH1 0xFF AND PUSH1 0x40 MLOAD PUSH3 0x281 SWAP2 SWAP1 PUSH3 0x29D JUMP JUMPDEST PUSH1 0x40 MLOAD DUP1 SWAP2 SUB SWAP1 LOG1 POP JUMP JUMPDEST PUSH3 0x297 DUP2 PUSH3 0x2CF JUMP JUMPDEST DUP3 MSTORE POP POP JUMP JUMPDEST PUSH1 0x0 PUSH1 0x20 DUP3 ADD SWAP1 POP PUSH3 0x2B4 PUSH1 0x0 DUP4 ADD DUP5 PUSH3 0x28C JUMP JUMPDEST SWAP3 SWAP2 POP POP JUMP JUMPDEST PUSH1 0x0 DUP2 SWAP1 POP PUSH3 0x2CA DUP3 PUSH3 0x312 JUMP JUMPDEST SWAP2 SWAP1 POP JUMP JUMPDEST PUSH1 0x0 PUSH3 0x2DC DUP3 PUSH3 0x2BA JUMP JUMPDEST SWAP1 POP SWAP2 SWAP1 POP JUMP JUMPDEST PUSH32 0x4E487B7100000000000000000000000000000000000000000000000000000000 PUSH1 0x0 MSTORE PUSH1 0x21 PUSH1 0x4 MSTORE PUSH1 0x24 PUSH1 0x0 REVERT JUMPDEST PUSH1 0x3 DUP2 LT PUSH3 0x326 JUMPI PUSH3 0x325 PUSH3 0x2E3 JUMP JUMPDEST JUMPDEST POP JUMP JUMPDEST PUSH2 0x191E DUP1 PUSH3 0x339 PUSH1 0x0 CODECOPY PUSH1 0x0 RETURN INVALID PUSH1 0x80 PUSH1 0x40 MSTORE CALLVALUE DUP1 ISZERO PUSH2 0x10 JUMPI PUSH1 0x0 DUP1 REVERT JUMPDEST POP PUSH1 0x4 CALLDATASIZE LT PUSH2 0x9E JUMPI PUSH1 0x0 CALLDATALOAD PUSH1 0xE0 SHR DUP1 PUSH4 0x9BA6C216 GT PUSH2 0x66 JUMPI DUP1 PUSH4 0x9BA6C216 EQ PUSH2 0x125 JUMPI DUP1 PUSH4 0xAB4A6BE1 EQ PUSH2 0x143 JUMPI DUP1 PUSH4 0xCEFDBC84 EQ PUSH2 0x173 JUMPI DUP1 PUSH4 0xDBE4DD79 EQ PUSH2 0x1A3 JUMPI DUP1 PUSH4 0xDFBF53AE EQ PUSH2 0x1C1 JUMPI PUSH2 0x9E JUMP JUMPDEST DUP1 PUSH4 0x1AA3A008 EQ PUSH2 0xA3 JUMPI DUP1 PUSH4 0x1BC1E19A EQ PUSH2 0xC1 JUMPI DUP1 PUSH4 0x1EF3755D EQ PUSH2 0xDF JUMPI DUP1 PUSH4 0x54712524 EQ PUSH2 0xE9 JUMPI DUP1 PUSH4 0x8B015CCF EQ PUSH2 0x107 JUMPI JUMPDEST PUSH1 0x0 DUP1 REVERT JUMPDEST PUSH2 0xAB PUSH2 0x1DF JUMP JUMPDEST PUSH1 0x40 MLOAD PUSH2 0xB8 SWAP2 SWAP1 PUSH2 0x154D JUMP JUMPDEST PUSH1 0x40 MLOAD DUP1 SWAP2 SUB SWAP1 RETURN JUMPDEST PUSH2 0xC9 PUSH2 0x498 JUMP JUMPDEST PUSH1 0x40 MLOAD PUSH2 0xD6 SWAP2 SWAP1 PUSH2 0x14E1 JUMP JUMPDEST PUSH1 0x40 MLOAD DUP1 SWAP2 SUB SWAP1 RETURN JUMPDEST PUSH2 0xE7 PUSH2 0x4BE JUMP JUMPDEST STOP JUMPDEST PUSH2 0xF1 PUSH2 0x69F JUMP JUMPDEST PUSH1 0x40 MLOAD PUSH2 0xFE SWAP2 SWAP1 PUSH2 0x14E1 JUMP JUMPDEST PUSH1 0x40 MLOAD DUP1 SWAP2 SUB SWAP1 RETURN JUMPDEST PUSH2 0x10F PUSH2 0x6C5 JUMP JUMPDEST PUSH1 0x40 MLOAD PUSH2 0x11C SWAP2 SWAP1 PUSH2 0x1532 JUMP JUMPDEST PUSH1 0x40 MLOAD DUP1 SWAP2 SUB SWAP1 RETURN JUMPDEST PUSH2 0x12D PUSH2 0x6D8 JUMP JUMPDEST PUSH1 0x40 MLOAD PUSH2 0x13A SWAP2 SWAP1 PUSH2 0x1517 JUMP JUMPDEST PUSH1 0x40 MLOAD DUP1 SWAP2 SUB SWAP1 RETURN JUMPDEST PUSH2 0x15D PUSH1 0x4 DUP1 CALLDATASIZE SUB DUP2 ADD SWAP1 PUSH2 0x158 SWAP2 SWAP1 PUSH2 0x13EA JUMP JUMPDEST PUSH2 0x6E9 JUMP JUMPDEST PUSH1 0x40 MLOAD PUSH2 0x16A SWAP2 SWAP1 PUSH2 0x14E1 JUMP JUMPDEST PUSH1 0x40 MLOAD DUP1 SWAP2 SUB SWAP1 RETURN JUMPDEST PUSH2 0x18D PUSH1 0x4 DUP1 CALLDATASIZE SUB DUP2 ADD SWAP1 PUSH2 0x188 SWAP2 SWAP1 PUSH2 0x1390 JUMP JUMPDEST PUSH2 0xF20 JUMP JUMPDEST PUSH1 0x40 MLOAD PUSH2 0x19A SWAP2 SWAP1 PUSH2 0x14FC JUMP JUMPDEST PUSH1 0x40 MLOAD DUP1 SWAP2 SUB SWAP1 RETURN JUMPDEST PUSH2 0x1AB PUSH2 0x1132 JUMP JUMPDEST PUSH1 0x40 MLOAD PUSH2 0x1B8 SWAP2 SWAP1 PUSH2 0x1532 JUMP JUMPDEST PUSH1 0x40 MLOAD DUP1 SWAP2 SUB SWAP1 RETURN JUMPDEST PUSH2 0x1C9 PUSH2 0x1145 JUMP JUMPDEST PUSH1 0x40 MLOAD PUSH2 0x1D6 SWAP2 SWAP1 PUSH2 0x14E1 JUMP JUMPDEST PUSH1 0x40 MLOAD DUP1 SWAP2 SUB SWAP1 RETURN JUMPDEST PUSH1 0x0 PUSH1 0x1 PUSH1 0x0 SWAP1 SLOAD SWAP1 PUSH2 0x100 EXP SWAP1 DIV PUSH20 0xFFFFFFFFFFFFFFFFFFFFFFFFFFFFFFFFFFFFFFFF AND PUSH20 0xFFFFFFFFFFFFFFFFFFFFFFFFFFFFFFFFFFFFFFFF AND CALLER PUSH20 0xFFFFFFFFFFFFFFFFFFFFFFFFFFFFFFFFFFFFFFFF AND EQ ISZERO DUP1 ISZERO PUSH2 0x28D JUMPI POP PUSH1 0x2 PUSH1 0x0 SWAP1 SLOAD SWAP1 PUSH2 0x100 EXP SWAP1 DIV PUSH20 0xFFFFFFFFFFFFFFFFFFFFFFFFFFFFFFFFFFFFFFFF AND PUSH20 0xFFFFFFFFFFFFFFFFFFFFFFFFFFFFFFFFFFFFFFFF AND CALLER PUSH20 0xFFFFFFFFFFFFFFFFFFFFFFFFFFFFFFFFFFFFFFFF AND EQ ISZERO JUMPDEST PUSH2 0x296 JUMPI PUSH1 0x0 DUP1 REVERT JUMPDEST PUSH1 0x0 DUP1 PUSH1 0x2 DUP2 GT ISZERO PUSH2 0x2AB JUMPI PUSH2 0x2AA PUSH2 0x17F0 JUMP JUMPDEST JUMPDEST PUSH1 0x0 DUP1 SLOAD SWAP1 PUSH2 0x100 EXP SWAP1 DIV PUSH1 0xFF AND PUSH1 0x2 DUP2 GT ISZERO PUSH2 0x2CB JUMPI PUSH2 0x2CA PUSH2 0x17F0 JUMP JUMPDEST JUMPDEST EQ PUSH2 0x2D5 JUMPI PUSH1 0x0 DUP1 REVERT JUMPDEST PUSH1 0x0 PUSH20 0xFFFFFFFFFFFFFFFFFFFFFFFFFFFFFFFFFFFFFFFF AND PUSH1 0x1 PUSH1 0x0 SWAP1 SLOAD SWAP1 PUSH2 0x100 EXP SWAP1 DIV PUSH20 0xFFFFFFFFFFFFFFFFFFFFFFFFFFFFFFFFFFFFFFFF AND PUSH20 0xFFFFFFFFFFFFFFFFFFFFFFFFFFFFFFFFFFFFFFFF AND EQ ISZERO PUSH2 0x3AD JUMPI CALLER PUSH1 0x1 PUSH1 0x0 PUSH2 0x100 EXP DUP2 SLOAD DUP2 PUSH20 0xFFFFFFFFFFFFFFFFFFFFFFFFFFFFFFFFFFFFFFFF MUL NOT AND SWAP1 DUP4 PUSH20 0xFFFFFFFFFFFFFFFFFFFFFFFFFFFFFFFFFFFFFFFF AND MUL OR SWAP1 SSTORE POP PUSH32 0xADA0BA55DDD90BB25ECC3A5E99986836201565B3A09E5BE156E48713DA1BFD63 CALLER PUSH1 0x40 MLOAD PUSH2 0x39C SWAP2 SWAP1 PUSH2 0x14E1 JUMP JUMPDEST PUSH1 0x40 MLOAD DUP1 SWAP2 SUB SWAP1 LOG1 PUSH1 0x1 SWAP2 POP PUSH2 0x494 JUMP JUMPDEST PUSH1 0x0 PUSH20 0xFFFFFFFFFFFFFFFFFFFFFFFFFFFFFFFFFFFFFFFF AND PUSH1 0x2 PUSH1 0x0 SWAP1 SLOAD SWAP1 PUSH2 0x100 EXP SWAP1 DIV PUSH20 0xFFFFFFFFFFFFFFFFFFFFFFFFFFFFFFFFFFFFFFFF AND PUSH20 0xFFFFFFFFFFFFFFFFFFFFFFFFFFFFFFFFFFFFFFFF AND EQ ISZERO PUSH2 0x48F JUMPI CALLER PUSH1 0x2 PUSH1 0x0 PUSH2 0x100 EXP DUP2 SLOAD DUP2 PUSH20 0xFFFFFFFFFFFFFFFFFFFFFFFFFFFFFFFFFFFFFFFF MUL NOT AND SWAP1 DUP4 PUSH20 0xFFFFFFFFFFFFFFFFFFFFFFFFFFFFFFFFFFFFFFFF AND MUL OR SWAP1 SSTORE POP PUSH32 0x67CF7F1535E1C1323FE4E76266F7D55F0C1F67FDF449DB65E014F9D35881514D CALLER PUSH1 0x40 MLOAD PUSH2 0x474 SWAP2 SWAP1 PUSH2 0x14E1 JUMP JUMPDEST PUSH1 0x40 MLOAD DUP1 SWAP2 SUB SWAP1 LOG1 PUSH2 0x486 PUSH1 0x1 PUSH2 0x116B JUMP JUMPDEST PUSH1 0x2 SWAP2 POP PUSH2 0x494 JUMP JUMPDEST PUSH1 0x0 SWAP2 POP JUMPDEST POP SWAP1 JUMP JUMPDEST PUSH1 0x2 PUSH1 0x0 SWAP1 SLOAD SWAP1 PUSH2 0x100 EXP SWAP1 DIV PUSH20 0xFFFFFFFFFFFFFFFFFFFFFFFFFFFFFFFFFFFFFFFF AND DUP2 JUMP JUMPDEST PUSH1 0x0 PUSH1 0x3 PUSH1 0x0 PUSH2 0x100 EXP DUP2 SLOAD DUP2 PUSH20 0xFFFFFFFFFFFFFFFFFFFFFFFFFFFFFFFFFFFFFFFF MUL NOT AND SWAP1 DUP4 PUSH20 0xFFFFFFFFFFFFFFFFFFFFFFFFFFFFFFFFFFFFFFFF AND MUL OR SWAP1 SSTORE POP PUSH1 0x3 PUSH1 0x0 SWAP1 SLOAD SWAP1 PUSH2 0x100 EXP SWAP1 DIV PUSH20 0xFFFFFFFFFFFFFFFFFFFFFFFFFFFFFFFFFFFFFFFF AND PUSH1 0x0 PUSH1 0x1 PUSH2 0x100 EXP DUP2 SLOAD DUP2 PUSH20 0xFFFFFFFFFFFFFFFFFFFFFFFFFFFFFFFFFFFFFFFF MUL NOT AND SWAP1 DUP4 PUSH20 0xFFFFFFFFFFFFFFFFFFFFFFFFFFFFFFFFFFFFFFFF AND MUL OR SWAP1 SSTORE POP PUSH1 0x3 PUSH1 0x0 SWAP1 SLOAD SWAP1 PUSH2 0x100 EXP SWAP1 DIV PUSH20 0xFFFFFFFFFFFFFFFFFFFFFFFFFFFFFFFFFFFFFFFF AND PUSH1 0x1 PUSH1 0x0 PUSH2 0x100 EXP DUP2 SLOAD DUP2 PUSH20 0xFFFFFFFFFFFFFFFFFFFFFFFFFFFFFFFFFFFFFFFF MUL NOT AND SWAP1 DUP4 PUSH20 0xFFFFFFFFFFFFFFFFFFFFFFFFFFFFFFFFFFFFFFFF AND MUL OR SWAP1 SSTORE POP PUSH1 0x3 PUSH1 0x0 SWAP1 SLOAD SWAP1 PUSH2 0x100 EXP SWAP1 DIV PUSH20 0xFFFFFFFFFFFFFFFFFFFFFFFFFFFFFFFFFFFFFFFF AND PUSH1 0x2 PUSH1 0x0 PUSH2 0x100 EXP DUP2 SLOAD DUP2 PUSH20 0xFFFFFFFFFFFFFFFFFFFFFFFFFFFFFFFFFFFFFFFF MUL NOT AND SWAP1 DUP4 PUSH20 0xFFFFFFFFFFFFFFFFFFFFFFFFFFFFFFFFFFFFFFFF AND MUL OR SWAP1 SSTORE POP PUSH1 0x0 DUP1 SHL PUSH1 0x4 DUP2 SWAP1 SSTORE POP PUSH1 0x0 DUP1 SHL PUSH1 0x5 DUP2 SWAP1 SSTORE POP PUSH1 0x0 PUSH1 0x6 PUSH1 0x0 PUSH2 0x100 EXP DUP2 SLOAD DUP2 PUSH1 0xFF MUL NOT AND SWAP1 DUP4 PUSH1 0x3 DUP2 GT ISZERO PUSH2 0x663 JUMPI PUSH2 0x662 PUSH2 0x17F0 JUMP JUMPDEST JUMPDEST MUL OR SWAP1 SSTORE POP PUSH1 0x0 PUSH1 0x6 PUSH1 0x1 PUSH2 0x100 EXP DUP2 SLOAD DUP2 PUSH1 0xFF MUL NOT AND SWAP1 DUP4 PUSH1 0x3 DUP2 GT ISZERO PUSH2 0x68E JUMPI PUSH2 0x68D PUSH2 0x17F0 JUMP JUMPDEST JUMPDEST MUL OR SWAP1 SSTORE POP PUSH2 0x69D PUSH1 0x0 PUSH2 0x116B JUMP JUMPDEST JUMP JUMPDEST PUSH1 0x1 PUSH1 0x0 SWAP1 SLOAD SWAP1 PUSH2 0x100 EXP SWAP1 DIV PUSH20 0xFFFFFFFFFFFFFFFFFFFFFFFFFFFFFFFFFFFFFFFF AND DUP2 JUMP JUMPDEST PUSH1 0x6 PUSH1 0x0 SWAP1 SLOAD SWAP1 PUSH2 0x100 EXP SWAP1 DIV PUSH1 0xFF AND DUP2 JUMP JUMPDEST PUSH1 0x0 DUP1 SLOAD SWAP1 PUSH2 0x100 EXP SWAP1 DIV PUSH1 0xFF AND DUP2 JUMP JUMPDEST PUSH1 0x0 PUSH1 0x1 PUSH1 0x0 SWAP1 SLOAD SWAP1 PUSH2 0x100 EXP SWAP1 DIV PUSH20 0xFFFFFFFFFFFFFFFFFFFFFFFFFFFFFFFFFFFFFFFF AND PUSH20 0xFFFFFFFFFFFFFFFFFFFFFFFFFFFFFFFFFFFFFFFF AND CALLER PUSH20 0xFFFFFFFFFFFFFFFFFFFFFFFFFFFFFFFFFFFFFFFF AND EQ DUP1 PUSH2 0x794 JUMPI POP PUSH1 0x2 PUSH1 0x0 SWAP1 SLOAD SWAP1 PUSH2 0x100 EXP SWAP1 DIV PUSH20 0xFFFFFFFFFFFFFFFFFFFFFFFFFFFFFFFFFFFFFFFF AND PUSH20 0xFFFFFFFFFFFFFFFFFFFFFFFFFFFFFFFFFFFFFFFF AND CALLER PUSH20 0xFFFFFFFFFFFFFFFFFFFFFFFFFFFFFFFFFFFFFFFF AND EQ JUMPDEST PUSH2 0x79D JUMPI PUSH1 0x0 DUP1 REVERT JUMPDEST PUSH1 0x2 DUP1 PUSH1 0x2 DUP2 GT ISZERO PUSH2 0x7B2 JUMPI PUSH2 0x7B1 PUSH2 0x17F0 JUMP JUMPDEST JUMPDEST PUSH1 0x0 DUP1 SLOAD SWAP1 PUSH2 0x100 EXP SWAP1 DIV PUSH1 0xFF AND PUSH1 0x2 DUP2 GT ISZERO PUSH2 0x7D2 JUMPI PUSH2 0x7D1 PUSH2 0x17F0 JUMP JUMPDEST JUMPDEST EQ PUSH2 0x7DC JUMPI PUSH1 0x0 DUP1 REVERT JUMPDEST PUSH1 0x0 DUP1 SHL PUSH1 0x4 SLOAD EQ ISZERO DUP1 ISZERO PUSH2 0x7F6 JUMPI POP PUSH1 0x0 DUP1 SHL PUSH1 0x5 SLOAD EQ ISZERO JUMPDEST PUSH2 0x7FF JUMPI PUSH1 0x0 DUP1 REVERT JUMPDEST PUSH1 0x0 PUSH1 0x2 PUSH2 0x81E DUP7 PUSH1 0x3 DUP2 GT ISZERO PUSH2 0x819 JUMPI PUSH2 0x818 PUSH2 0x17F0 JUMP JUMPDEST JUMPDEST PUSH2 0x11DB JUMP JUMPDEST PUSH2 0x82D DUP7 PUSH4 0xFFFFFFFF AND PUSH2 0x11DB JUMP JUMPDEST PUSH1 0x40 MLOAD PUSH1 0x20 ADD PUSH2 0x83E SWAP3 SWAP2 SWAP1 PUSH2 0x14BD JUMP JUMPDEST PUSH1 0x40 MLOAD PUSH1 0x20 DUP2 DUP4 SUB SUB DUP2 MSTORE SWAP1 PUSH1 0x40 MSTORE PUSH1 0x40 MLOAD PUSH2 0x85A SWAP2 SWAP1 PUSH2 0x14A6 JUMP JUMPDEST PUSH1 0x20 PUSH1 0x40 MLOAD DUP1 DUP4 SUB DUP2 DUP6 GAS STATICCALL ISZERO DUP1 ISZERO PUSH2 0x877 JUMPI RETURNDATASIZE PUSH1 0x0 DUP1 RETURNDATACOPY RETURNDATASIZE PUSH1 0x0 REVERT JUMPDEST POP POP POP PUSH1 0x40 MLOAD RETURNDATASIZE PUSH1 0x1F NOT PUSH1 0x1F DUP3 ADD AND DUP3 ADD DUP1 PUSH1 0x40 MSTORE POP DUP2 ADD SWAP1 PUSH2 0x89A SWAP2 SWAP1 PUSH2 0x13BD JUMP JUMPDEST SWAP1 POP PUSH1 0x0 PUSH1 0x3 DUP2 GT ISZERO PUSH2 0x8B0 JUMPI PUSH2 0x8AF PUSH2 0x17F0 JUMP JUMPDEST JUMPDEST DUP6 PUSH1 0x3 DUP2 GT ISZERO PUSH2 0x8C3 JUMPI PUSH2 0x8C2 PUSH2 0x17F0 JUMP JUMPDEST JUMPDEST EQ ISZERO PUSH2 0x8F4 JUMPI PUSH1 0x3 PUSH1 0x0 SWAP1 SLOAD SWAP1 PUSH2 0x100 EXP SWAP1 DIV PUSH20 0xFFFFFFFFFFFFFFFFFFFFFFFFFFFFFFFFFFFFFFFF AND SWAP3 POP POP PUSH2 0xF19 JUMP JUMPDEST PUSH1 0x1 PUSH1 0x0 SWAP1 SLOAD SWAP1 PUSH2 0x100 EXP SWAP1 DIV PUSH20 0xFFFFFFFFFFFFFFFFFFFFFFFFFFFFFFFFFFFFFFFF AND PUSH20 0xFFFFFFFFFFFFFFFFFFFFFFFFFFFFFFFFFFFFFFFF AND CALLER PUSH20 0xFFFFFFFFFFFFFFFFFFFFFFFFFFFFFFFFFFFFFFFF AND EQ DUP1 ISZERO PUSH2 0x952 JUMPI POP PUSH1 0x4 SLOAD DUP2 EQ JUMPDEST ISZERO PUSH2 0x986 JUMPI DUP5 PUSH1 0x6 PUSH1 0x0 PUSH2 0x100 EXP DUP2 SLOAD DUP2 PUSH1 0xFF MUL NOT AND SWAP1 DUP4 PUSH1 0x3 DUP2 GT ISZERO PUSH2 0x97C JUMPI PUSH2 0x97B PUSH2 0x17F0 JUMP JUMPDEST JUMPDEST MUL OR SWAP1 SSTORE POP PUSH2 0xA44 JUMP JUMPDEST PUSH1 0x2 PUSH1 0x0 SWAP1 SLOAD SWAP1 PUSH2 0x100 EXP SWAP1 DIV PUSH20 0xFFFFFFFFFFFFFFFFFFFFFFFFFFFFFFFFFFFFFFFF AND PUSH20 0xFFFFFFFFFFFFFFFFFFFFFFFFFFFFFFFFFFFFFFFF AND CALLER PUSH20 0xFFFFFFFFFFFFFFFFFFFFFFFFFFFFFFFFFFFFFFFF AND EQ DUP1 ISZERO PUSH2 0x9E4 JUMPI POP PUSH1 0x5 SLOAD DUP2 EQ JUMPDEST ISZERO PUSH2 0xA18 JUMPI DUP5 PUSH1 0x6 PUSH1 0x1 PUSH2 0x100 EXP DUP2 SLOAD DUP2 PUSH1 0xFF MUL NOT AND SWAP1 DUP4 PUSH1 0x3 DUP2 GT ISZERO PUSH2 0xA0E JUMPI PUSH2 0xA0D PUSH2 0x17F0 JUMP JUMPDEST JUMPDEST MUL OR SWAP1 SSTORE POP PUSH2 0xA43 JUMP JUMPDEST PUSH1 0x3 PUSH1 0x0 SWAP1 SLOAD SWAP1 PUSH2 0x100 EXP SWAP1 DIV PUSH20 0xFFFFFFFFFFFFFFFFFFFFFFFFFFFFFFFFFFFFFFFF AND SWAP3 POP POP PUSH2 0xF19 JUMP JUMPDEST JUMPDEST PUSH1 0x0 PUSH1 0x3 DUP2 GT ISZERO PUSH2 0xA58 JUMPI PUSH2 0xA57 PUSH2 0x17F0 JUMP JUMPDEST JUMPDEST PUSH1 0x6 PUSH1 0x0 SWAP1 SLOAD SWAP1 PUSH2 0x100 EXP SWAP1 DIV PUSH1 0xFF AND PUSH1 0x3 DUP2 GT ISZERO PUSH2 0xA7A JUMPI PUSH2 0xA79 PUSH2 0x17F0 JUMP JUMPDEST JUMPDEST EQ ISZERO DUP1 PUSH2 0xABB JUMPI POP PUSH1 0x0 PUSH1 0x3 DUP2 GT ISZERO PUSH2 0xA96 JUMPI PUSH2 0xA95 PUSH2 0x17F0 JUMP JUMPDEST JUMPDEST PUSH1 0x6 PUSH1 0x1 SWAP1 SLOAD SWAP1 PUSH2 0x100 EXP SWAP1 DIV PUSH1 0xFF AND PUSH1 0x3 DUP2 GT ISZERO PUSH2 0xAB8 JUMPI PUSH2 0xAB7 PUSH2 0x17F0 JUMP JUMPDEST JUMPDEST EQ ISZERO JUMPDEST ISZERO PUSH2 0xE35 JUMPI PUSH1 0x6 PUSH1 0x1 SWAP1 SLOAD SWAP1 PUSH2 0x100 EXP SWAP1 DIV PUSH1 0xFF AND PUSH1 0x3 DUP2 GT ISZERO PUSH2 0xAE2 JUMPI PUSH2 0xAE1 PUSH2 0x17F0 JUMP JUMPDEST JUMPDEST PUSH1 0x6 PUSH1 0x0 SWAP1 SLOAD SWAP1 PUSH2 0x100 EXP SWAP1 DIV PUSH1 0xFF AND PUSH1 0x3 DUP2 GT ISZERO PUSH2 0xB04 JUMPI PUSH2 0xB03 PUSH2 0x17F0 JUMP JUMPDEST JUMPDEST EQ ISZERO PUSH2 0xB72 JUMPI PUSH1 0x3 PUSH1 0x0 SWAP1 SLOAD SWAP1 PUSH2 0x100 EXP SWAP1 DIV PUSH20 0xFFFFFFFFFFFFFFFFFFFFFFFFFFFFFFFFFFFFFFFF AND PUSH1 0x0 PUSH1 0x1 PUSH2 0x100 EXP DUP2 SLOAD DUP2 PUSH20 0xFFFFFFFFFFFFFFFFFFFFFFFFFFFFFFFFFFFFFFFF MUL NOT AND SWAP1 DUP4 PUSH20 0xFFFFFFFFFFFFFFFFFFFFFFFFFFFFFFFFFFFFFFFF AND MUL OR SWAP1 SSTORE POP PUSH2 0xE30 JUMP JUMPDEST PUSH1 0x2 PUSH1 0x3 DUP2 GT ISZERO PUSH2 0xB86 JUMPI PUSH2 0xB85 PUSH2 0x17F0 JUMP JUMPDEST JUMPDEST PUSH1 0x6 PUSH1 0x0 SWAP1 SLOAD SWAP1 PUSH2 0x100 EXP SWAP1 DIV PUSH1 0xFF AND PUSH1 0x3 DUP2 GT ISZERO PUSH2 0xBA8 JUMPI PUSH2 0xBA7 PUSH2 0x17F0 JUMP JUMPDEST JUMPDEST EQ DUP1 ISZERO PUSH2 0xBE7 JUMPI POP PUSH1 0x3 DUP1 DUP2 GT ISZERO PUSH2 0xBC3 JUMPI PUSH2 0xBC2 PUSH2 0x17F0 JUMP JUMPDEST JUMPDEST PUSH1 0x6 PUSH1 0x1 SWAP1 SLOAD SWAP1 PUSH2 0x100 EXP SWAP1 DIV PUSH1 0xFF AND PUSH1 0x3 DUP2 GT ISZERO PUSH2 0xBE5 JUMPI PUSH2 0xBE4 PUSH2 0x17F0 JUMP JUMPDEST JUMPDEST EQ JUMPDEST DUP1 PUSH2 0xC63 JUMPI POP PUSH1 0x3 DUP1 DUP2 GT ISZERO PUSH2 0xC00 JUMPI PUSH2 0xBFF PUSH2 0x17F0 JUMP JUMPDEST JUMPDEST PUSH1 0x6 PUSH1 0x0 SWAP1 SLOAD SWAP1 PUSH2 0x100 EXP SWAP1 DIV PUSH1 0xFF AND PUSH1 0x3 DUP2 GT ISZERO PUSH2 0xC22 JUMPI PUSH2 0xC21 PUSH2 0x17F0 JUMP JUMPDEST JUMPDEST EQ DUP1 ISZERO PUSH2 0xC62 JUMPI POP PUSH1 0x1 PUSH1 0x3 DUP2 GT ISZERO PUSH2 0xC3E JUMPI PUSH2 0xC3D PUSH2 0x17F0 JUMP JUMPDEST JUMPDEST PUSH1 0x6 PUSH1 0x1 SWAP1 SLOAD SWAP1 PUSH2 0x100 EXP SWAP1 DIV PUSH1 0xFF AND PUSH1 0x3 DUP2 GT ISZERO PUSH2 0xC60 JUMPI PUSH2 0xC5F PUSH2 0x17F0 JUMP JUMPDEST JUMPDEST EQ JUMPDEST JUMPDEST DUP1 PUSH2 0xCE0 JUMPI POP PUSH1 0x1 PUSH1 0x3 DUP2 GT ISZERO PUSH2 0xC7D JUMPI PUSH2 0xC7C PUSH2 0x17F0 JUMP JUMPDEST JUMPDEST PUSH1 0x6 PUSH1 0x0 SWAP1 SLOAD SWAP1 PUSH2 0x100 EXP SWAP1 DIV PUSH1 0xFF AND PUSH1 0x3 DUP2 GT ISZERO PUSH2 0xC9F JUMPI PUSH2 0xC9E PUSH2 0x17F0 JUMP JUMPDEST JUMPDEST EQ DUP1 ISZERO PUSH2 0xCDF JUMPI POP PUSH1 0x2 PUSH1 0x3 DUP2 GT ISZERO PUSH2 0xCBB JUMPI PUSH2 0xCBA PUSH2 0x17F0 JUMP JUMPDEST JUMPDEST PUSH1 0x6 PUSH1 0x1 SWAP1 SLOAD SWAP1 PUSH2 0x100 EXP SWAP1 DIV PUSH1 0xFF AND PUSH1 0x3 DUP2 GT ISZERO PUSH2 0xCDD JUMPI PUSH2 0xCDC PUSH2 0x17F0 JUMP JUMPDEST JUMPDEST EQ JUMPDEST JUMPDEST DUP1 PUSH2 0xD5E JUMPI POP PUSH1 0x0 PUSH1 0x3 DUP2 GT ISZERO PUSH2 0xCFA JUMPI PUSH2 0xCF9 PUSH2 0x17F0 JUMP JUMPDEST JUMPDEST PUSH1 0x6 PUSH1 0x0 SWAP1 SLOAD SWAP1 PUSH2 0x100 EXP SWAP1 DIV PUSH1 0xFF AND PUSH1 0x3 DUP2 GT ISZERO PUSH2 0xD1C JUMPI PUSH2 0xD1B PUSH2 0x17F0 JUMP JUMPDEST JUMPDEST EQ ISZERO DUP1 ISZERO PUSH2 0xD5D JUMPI POP PUSH1 0x0 PUSH1 0x3 DUP2 GT ISZERO PUSH2 0xD39 JUMPI PUSH2 0xD38 PUSH2 0x17F0 JUMP JUMPDEST JUMPDEST PUSH1 0x6 PUSH1 0x1 SWAP1 SLOAD SWAP1 PUSH2 0x100 EXP SWAP1 DIV PUSH1 0xFF AND PUSH1 0x3 DUP2 GT ISZERO PUSH2 0xD5B JUMPI PUSH2 0xD5A PUSH2 0x17F0 JUMP JUMPDEST JUMPDEST EQ JUMPDEST JUMPDEST ISZERO PUSH2 0xDCB JUMPI PUSH1 0x1 PUSH1 0x0 SWAP1 SLOAD SWAP1 PUSH2 0x100 EXP SWAP1 DIV PUSH20 0xFFFFFFFFFFFFFFFFFFFFFFFFFFFFFFFFFFFFFFFF AND PUSH1 0x0 PUSH1 0x1 PUSH2 0x100 EXP DUP2 SLOAD DUP2 PUSH20 0xFFFFFFFFFFFFFFFFFFFFFFFFFFFFFFFFFFFFFFFF MUL NOT AND SWAP1 DUP4 PUSH20 0xFFFFFFFFFFFFFFFFFFFFFFFFFFFFFFFFFFFFFFFF AND MUL OR SWAP1 SSTORE POP PUSH2 0xE2F JUMP JUMPDEST PUSH1 0x2 PUSH1 0x0 SWAP1 SLOAD SWAP1 PUSH2 0x100 EXP SWAP1 DIV PUSH20 0xFFFFFFFFFFFFFFFFFFFFFFFFFFFFFFFFFFFFFFFF AND PUSH1 0x0 PUSH1 0x1 PUSH2 0x100 EXP DUP2 SLOAD DUP2 PUSH20 0xFFFFFFFFFFFFFFFFFFFFFFFFFFFFFFFFFFFFFFFF MUL NOT AND SWAP1 DUP4 PUSH20 0xFFFFFFFFFFFFFFFFFFFFFFFFFFFFFFFFFFFFFFFF AND MUL OR SWAP1 SSTORE POP JUMPDEST JUMPDEST PUSH2 0xE99 JUMP JUMPDEST PUSH1 0x3 PUSH1 0x0 SWAP1 SLOAD SWAP1 PUSH2 0x100 EXP SWAP1 DIV PUSH20 0xFFFFFFFFFFFFFFFFFFFFFFFFFFFFFFFFFFFFFFFF AND PUSH1 0x0 PUSH1 0x1 PUSH2 0x100 EXP DUP2 SLOAD DUP2 PUSH20 0xFFFFFFFFFFFFFFFFFFFFFFFFFFFFFFFFFFFFFFFF MUL NOT AND SWAP1 DUP4 PUSH20 0xFFFFFFFFFFFFFFFFFFFFFFFFFFFFFFFFFFFFFFFF AND MUL OR SWAP1 SSTORE POP JUMPDEST PUSH32 0x1728DD43546EDD06FABFE796E5B641A151AA90998BFD1B1EC0AE98C6E7708459 PUSH1 0x0 PUSH1 0x1 SWAP1 SLOAD SWAP1 PUSH2 0x100 EXP SWAP1 DIV PUSH20 0xFFFFFFFFFFFFFFFFFFFFFFFFFFFFFFFFFFFFFFFF AND PUSH1 0x40 MLOAD PUSH2 0xEEA SWAP2 SWAP1 PUSH2 0x14E1 JUMP JUMPDEST PUSH1 0x40 MLOAD DUP1 SWAP2 SUB SWAP1 LOG1 PUSH1 0x0 PUSH1 0x1 SWAP1 SLOAD SWAP1 PUSH2 0x100 EXP SWAP1 DIV PUSH20 0xFFFFFFFFFFFFFFFFFFFFFFFFFFFFFFFFFFFFFFFF AND SWAP3 POP POP JUMPDEST POP SWAP3 SWAP2 POP POP JUMP JUMPDEST PUSH1 0x0 PUSH1 0x1 PUSH1 0x0 SWAP1 SLOAD SWAP1 PUSH2 0x100 EXP SWAP1 DIV PUSH20 0xFFFFFFFFFFFFFFFFFFFFFFFFFFFFFFFFFFFFFFFF AND PUSH20 0xFFFFFFFFFFFFFFFFFFFFFFFFFFFFFFFFFFFFFFFF AND CALLER PUSH20 0xFFFFFFFFFFFFFFFFFFFFFFFFFFFFFFFFFFFFFFFF AND EQ DUP1 PUSH2 0xFCB JUMPI POP PUSH1 0x2 PUSH1 0x0 SWAP1 SLOAD SWAP1 PUSH2 0x100 EXP SWAP1 DIV PUSH20 0xFFFFFFFFFFFFFFFFFFFFFFFFFFFFFFFFFFFFFFFF AND PUSH20 0xFFFFFFFFFFFFFFFFFFFFFFFFFFFFFFFFFFFFFFFF AND CALLER PUSH20 0xFFFFFFFFFFFFFFFFFFFFFFFFFFFFFFFFFFFFFFFF AND EQ JUMPDEST PUSH2 0xFD4 JUMPI PUSH1 0x0 DUP1 REVERT JUMPDEST PUSH1 0x1 DUP1 PUSH1 0x2 DUP2 GT ISZERO PUSH2 0xFE9 JUMPI PUSH2 0xFE8 PUSH2 0x17F0 JUMP JUMPDEST JUMPDEST PUSH1 0x0 DUP1 SLOAD SWAP1 PUSH2 0x100 EXP SWAP1 DIV PUSH1 0xFF AND PUSH1 0x2 DUP2 GT ISZERO PUSH2 0x1009 JUMPI PUSH2 0x1008 PUSH2 0x17F0 JUMP JUMPDEST JUMPDEST EQ PUSH2 0x1013 JUMPI PUSH1 0x0 DUP1 REVERT JUMPDEST PUSH1 0x0 PUSH1 0x1 PUSH1 0x0 SWAP1 SLOAD SWAP1 PUSH2 0x100 EXP SWAP1 DIV PUSH20 0xFFFFFFFFFFFFFFFFFFFFFFFFFFFFFFFFFFFFFFFF AND PUSH20 0xFFFFFFFFFFFFFFFFFFFFFFFFFFFFFFFFFFFFFFFF AND CALLER PUSH20 0xFFFFFFFFFFFFFFFFFFFFFFFFFFFFFFFFFFFFFFFF AND EQ DUP1 ISZERO PUSH2 0x1076 JUMPI POP PUSH1 0x0 DUP1 SHL PUSH1 0x4 SLOAD EQ JUMPDEST ISZERO PUSH2 0x108B JUMPI DUP4 PUSH1 0x4 DUP2 SWAP1 SSTORE POP PUSH1 0x1 SWAP1 POP PUSH2 0x10FE JUMP JUMPDEST PUSH1 0x2 PUSH1 0x0 SWAP1 SLOAD SWAP1 PUSH2 0x100 EXP SWAP1 DIV PUSH20 0xFFFFFFFFFFFFFFFFFFFFFFFFFFFFFFFFFFFFFFFF AND PUSH20 0xFFFFFFFFFFFFFFFFFFFFFFFFFFFFFFFFFFFFFFFF AND CALLER PUSH20 0xFFFFFFFFFFFFFFFFFFFFFFFFFFFFFFFFFFFFFFFF AND EQ DUP1 ISZERO PUSH2 0x10EC JUMPI POP PUSH1 0x0 DUP1 SHL PUSH1 0x5 SLOAD EQ JUMPDEST ISZERO PUSH2 0x10FD JUMPI DUP4 PUSH1 0x5 DUP2 SWAP1 SSTORE POP PUSH1 0x1 SWAP1 POP JUMPDEST JUMPDEST PUSH1 0x0 DUP1 SHL PUSH1 0x4 SLOAD EQ ISZERO DUP1 ISZERO PUSH2 0x1118 JUMPI POP PUSH1 0x0 DUP1 SHL PUSH1 0x5 SLOAD EQ ISZERO JUMPDEST ISZERO PUSH2 0x1128 JUMPI PUSH2 0x1127 PUSH1 0x2 PUSH2 0x116B JUMP JUMPDEST JUMPDEST DUP1 SWAP3 POP POP POP SWAP2 SWAP1 POP JUMP JUMPDEST PUSH1 0x6 PUSH1 0x1 SWAP1 SLOAD SWAP1 PUSH2 0x100 EXP SWAP1 DIV PUSH1 0xFF AND DUP2 JUMP JUMPDEST PUSH1 0x0 PUSH1 0x1 SWAP1 SLOAD SWAP1 PUSH2 0x100 EXP SWAP1 DIV PUSH20 0xFFFFFFFFFFFFFFFFFFFFFFFFFFFFFFFFFFFFFFFF AND DUP2 JUMP JUMPDEST DUP1 PUSH1 0x0 DUP1 PUSH2 0x100 EXP DUP2 SLOAD DUP2 PUSH1 0xFF MUL NOT AND SWAP1 DUP4 PUSH1 0x2 DUP2 GT ISZERO PUSH2 0x118F JUMPI PUSH2 0x118E PUSH2 0x17F0 JUMP JUMPDEST JUMPDEST MUL OR SWAP1 SSTORE POP PUSH32 0x5FE57A6009D2AE51447DEF0790762F4E928888C72F5F8EF4ABED68599519A833 PUSH1 0x0 DUP1 SLOAD SWAP1 PUSH2 0x100 EXP SWAP1 DIV PUSH1 0xFF AND PUSH1 0x40 MLOAD PUSH2 0x11D0 SWAP2 SWAP1 PUSH2 0x1517 JUMP JUMPDEST PUSH1 0x40 MLOAD DUP1 SWAP2 SUB SWAP1 LOG1 POP JUMP JUMPDEST PUSH1 0x60 PUSH1 0x0 DUP3 EQ ISZERO PUSH2 0x1223 JUMPI PUSH1 0x40 MLOAD DUP1 PUSH1 0x40 ADD PUSH1 0x40 MSTORE DUP1 PUSH1 0x1 DUP2 MSTORE PUSH1 0x20 ADD PUSH32 0x3000000000000000000000000000000000000000000000000000000000000000 DUP2 MSTORE POP SWAP1 POP PUSH2 0x1337 JUMP JUMPDEST PUSH1 0x0 DUP3 SWAP1 POP PUSH1 0x0 JUMPDEST PUSH1 0x0 DUP3 EQ PUSH2 0x1255 JUMPI DUP1 DUP1 PUSH2 0x123E SWAP1 PUSH2 0x1718 JUMP JUMPDEST SWAP2 POP POP PUSH1 0xA DUP3 PUSH2 0x124E SWAP2 SWAP1 PUSH2 0x15D4 JUMP JUMPDEST SWAP2 POP PUSH2 0x122B JUMP JUMPDEST PUSH1 0x0 DUP2 PUSH8 0xFFFFFFFFFFFFFFFF DUP2 GT ISZERO PUSH2 0x1271 JUMPI PUSH2 0x1270 PUSH2 0x184E JUMP JUMPDEST JUMPDEST PUSH1 0x40 MLOAD SWAP1 DUP1 DUP3 MSTORE DUP1 PUSH1 0x1F ADD PUSH1 0x1F NOT AND PUSH1 0x20 ADD DUP3 ADD PUSH1 0x40 MSTORE DUP1 ISZERO PUSH2 0x12A3 JUMPI DUP2 PUSH1 0x20 ADD PUSH1 0x1 DUP3 MUL DUP1 CALLDATASIZE DUP4 CALLDATACOPY DUP1 DUP3 ADD SWAP2 POP POP SWAP1 POP JUMPDEST POP SWAP1 POP JUMPDEST PUSH1 0x0 DUP6 EQ PUSH2 0x1330 JUMPI PUSH1 0x1 DUP3 PUSH2 0x12BC SWAP2 SWAP1 PUSH2 0x1605 JUMP JUMPDEST SWAP2 POP PUSH1 0xA DUP6 PUSH2 0x12CB SWAP2 SWAP1 PUSH2 0x1761 JUMP JUMPDEST PUSH1 0x30 PUSH2 0x12D7 SWAP2 SWAP1 PUSH2 0x157E JUMP JUMPDEST PUSH1 0xF8 SHL DUP2 DUP4 DUP2 MLOAD DUP2 LT PUSH2 0x12ED JUMPI PUSH2 0x12EC PUSH2 0x181F JUMP JUMPDEST JUMPDEST PUSH1 0x20 ADD ADD SWAP1 PUSH31 0xFFFFFFFFFFFFFFFFFFFFFFFFFFFFFFFFFFFFFFFFFFFFFFFFFFFFFFFFFFFFFF NOT AND SWAP1 DUP2 PUSH1 0x0 BYTE SWAP1 MSTORE8 POP PUSH1 0xA DUP6 PUSH2 0x1329 SWAP2 SWAP1 PUSH2 0x15D4 JUMP JUMPDEST SWAP5 POP PUSH2 0x12A7 JUMP JUMPDEST DUP1 SWAP4 POP POP POP POP JUMPDEST SWAP2 SWAP1 POP JUMP JUMPDEST PUSH1 0x0 DUP2 CALLDATALOAD SWAP1 POP PUSH2 0x134B DUP2 PUSH2 0x18AA JUMP JUMPDEST SWAP3 SWAP2 POP POP JUMP JUMPDEST PUSH1 0x0 DUP2 MLOAD SWAP1 POP PUSH2 0x1360 DUP2 PUSH2 0x18AA JUMP JUMPDEST SWAP3 SWAP2 POP POP JUMP JUMPDEST PUSH1 0x0 DUP2 CALLDATALOAD SWAP1 POP PUSH2 0x1375 DUP2 PUSH2 0x18C1 JUMP JUMPDEST SWAP3 SWAP2 POP POP JUMP JUMPDEST PUSH1 0x0 DUP2 CALLDATALOAD SWAP1 POP PUSH2 0x138A DUP2 PUSH2 0x18D1 JUMP JUMPDEST SWAP3 SWAP2 POP POP JUMP JUMPDEST PUSH1 0x0 PUSH1 0x20 DUP3 DUP5 SUB SLT ISZERO PUSH2 0x13A6 JUMPI PUSH2 0x13A5 PUSH2 0x187D JUMP JUMPDEST JUMPDEST PUSH1 0x0 PUSH2 0x13B4 DUP5 DUP3 DUP6 ADD PUSH2 0x133C JUMP JUMPDEST SWAP2 POP POP SWAP3 SWAP2 POP POP JUMP JUMPDEST PUSH1 0x0 PUSH1 0x20 DUP3 DUP5 SUB SLT ISZERO PUSH2 0x13D3 JUMPI PUSH2 0x13D2 PUSH2 0x187D JUMP JUMPDEST JUMPDEST PUSH1 0x0 PUSH2 0x13E1 DUP5 DUP3 DUP6 ADD PUSH2 0x1351 JUMP JUMPDEST SWAP2 POP POP SWAP3 SWAP2 POP POP JUMP JUMPDEST PUSH1 0x0 DUP1 PUSH1 0x40 DUP4 DUP6 SUB SLT ISZERO PUSH2 0x1401 JUMPI PUSH2 0x1400 PUSH2 0x187D JUMP JUMPDEST JUMPDEST PUSH1 0x0 PUSH2 0x140F DUP6 DUP3 DUP7 ADD PUSH2 0x1366 JUMP JUMPDEST SWAP3 POP POP PUSH1 0x20 PUSH2 0x1420 DUP6 DUP3 DUP7 ADD PUSH2 0x137B JUMP JUMPDEST SWAP2 POP POP SWAP3 POP SWAP3 SWAP1 POP JUMP JUMPDEST PUSH2 0x1433 DUP2 PUSH2 0x1639 JUMP JUMPDEST DUP3 MSTORE POP POP JUMP JUMPDEST PUSH2 0x1442 DUP2 PUSH2 0x164B JUMP JUMPDEST DUP3 MSTORE POP POP JUMP JUMPDEST PUSH1 0x0 PUSH2 0x1453 DUP3 PUSH2 0x1568 JUMP JUMPDEST PUSH2 0x145D DUP2 DUP6 PUSH2 0x1573 JUMP JUMPDEST SWAP4 POP PUSH2 0x146D DUP2 DUP6 PUSH1 0x20 DUP7 ADD PUSH2 0x16E5 JUMP JUMPDEST DUP1 DUP5 ADD SWAP2 POP POP SWAP3 SWAP2 POP POP JUMP JUMPDEST PUSH2 0x1482 DUP2 PUSH2 0x16C1 JUMP JUMPDEST DUP3 MSTORE POP POP JUMP JUMPDEST PUSH2 0x1491 DUP2 PUSH2 0x16D3 JUMP JUMPDEST DUP3 MSTORE POP POP JUMP JUMPDEST PUSH2 0x14A0 DUP2 PUSH2 0x16A7 JUMP JUMPDEST DUP3 MSTORE POP POP JUMP JUMPDEST PUSH1 0x0 PUSH2 0x14B2 DUP3 DUP5 PUSH2 0x1448 JUMP JUMPDEST SWAP2 POP DUP2 SWAP1 POP SWAP3 SWAP2 POP POP JUMP JUMPDEST PUSH1 0x0 PUSH2 0x14C9 DUP3 DUP6 PUSH2 0x1448 JUMP JUMPDEST SWAP2 POP PUSH2 0x14D5 DUP3 DUP5 PUSH2 0x1448 JUMP JUMPDEST SWAP2 POP DUP2 SWAP1 POP SWAP4 SWAP3 POP POP POP JUMP JUMPDEST PUSH1 0x0 PUSH1 0x20 DUP3 ADD SWAP1 POP PUSH2 0x14F6 PUSH1 0x0 DUP4 ADD DUP5 PUSH2 0x142A JUMP JUMPDEST SWAP3 SWAP2 POP POP JUMP JUMPDEST PUSH1 0x0 PUSH1 0x20 DUP3 ADD SWAP1 POP PUSH2 0x1511 PUSH1 0x0 DUP4 ADD DUP5 PUSH2 0x1439 JUMP JUMPDEST SWAP3 SWAP2 POP POP JUMP JUMPDEST PUSH1 0x0 PUSH1 0x20 DUP3 ADD SWAP1 POP PUSH2 0x152C PUSH1 0x0 DUP4 ADD DUP5 PUSH2 0x1479 JUMP JUMPDEST SWAP3 SWAP2 POP POP JUMP JUMPDEST PUSH1 0x0 PUSH1 0x20 DUP3 ADD SWAP1 POP PUSH2 0x1547 PUSH1 0x0 DUP4 ADD DUP5 PUSH2 0x1488 JUMP JUMPDEST SWAP3 SWAP2 POP POP JUMP JUMPDEST PUSH1 0x0 PUSH1 0x20 DUP3 ADD SWAP1 POP PUSH2 0x1562 PUSH1 0x0 DUP4 ADD DUP5 PUSH2 0x1497 JUMP JUMPDEST SWAP3 SWAP2 POP POP JUMP JUMPDEST PUSH1 0x0 DUP2 MLOAD SWAP1 POP SWAP2 SWAP1 POP JUMP JUMPDEST PUSH1 0x0 DUP2 SWAP1 POP SWAP3 SWAP2 POP POP JUMP JUMPDEST PUSH1 0x0 PUSH2 0x1589 DUP3 PUSH2 0x16A7 JUMP JUMPDEST SWAP2 POP PUSH2 0x1594 DUP4 PUSH2 0x16A7 JUMP JUMPDEST SWAP3 POP DUP3 PUSH32 0xFFFFFFFFFFFFFFFFFFFFFFFFFFFFFFFFFFFFFFFFFFFFFFFFFFFFFFFFFFFFFFFF SUB DUP3 GT ISZERO PUSH2 0x15C9 JUMPI PUSH2 0x15C8 PUSH2 0x1792 JUMP JUMPDEST JUMPDEST DUP3 DUP3 ADD SWAP1 POP SWAP3 SWAP2 POP POP JUMP JUMPDEST PUSH1 0x0 PUSH2 0x15DF DUP3 PUSH2 0x16A7 JUMP JUMPDEST SWAP2 POP PUSH2 0x15EA DUP4 PUSH2 0x16A7 JUMP JUMPDEST SWAP3 POP DUP3 PUSH2 0x15FA JUMPI PUSH2 0x15F9 PUSH2 0x17C1 JUMP JUMPDEST JUMPDEST DUP3 DUP3 DIV SWAP1 POP SWAP3 SWAP2 POP POP JUMP JUMPDEST PUSH1 0x0 PUSH2 0x1610 DUP3 PUSH2 0x16A7 JUMP JUMPDEST SWAP2 POP PUSH2 0x161B DUP4 PUSH2 0x16A7 JUMP JUMPDEST SWAP3 POP DUP3 DUP3 LT ISZERO PUSH2 0x162E JUMPI PUSH2 0x162D PUSH2 0x1792 JUMP JUMPDEST JUMPDEST DUP3 DUP3 SUB SWAP1 POP SWAP3 SWAP2 POP POP JUMP JUMPDEST PUSH1 0x0 PUSH2 0x1644 DUP3 PUSH2 0x1687 JUMP JUMPDEST SWAP1 POP SWAP2 SWAP1 POP JUMP JUMPDEST PUSH1 0x0 DUP2 ISZERO ISZERO SWAP1 POP SWAP2 SWAP1 POP JUMP JUMPDEST PUSH1 0x0 DUP2 SWAP1 POP SWAP2 SWAP1 POP JUMP JUMPDEST PUSH1 0x0 DUP2 SWAP1 POP PUSH2 0x166F DUP3 PUSH2 0x1882 JUMP JUMPDEST SWAP2 SWAP1 POP JUMP JUMPDEST PUSH1 0x0 DUP2 SWAP1 POP PUSH2 0x1682 DUP3 PUSH2 0x1896 JUMP JUMPDEST SWAP2 SWAP1 POP JUMP JUMPDEST PUSH1 0x0 PUSH20 0xFFFFFFFFFFFFFFFFFFFFFFFFFFFFFFFFFFFFFFFF DUP3 AND SWAP1 POP SWAP2 SWAP1 POP JUMP JUMPDEST PUSH1 0x0 DUP2 SWAP1 POP SWAP2 SWAP1 POP JUMP JUMPDEST PUSH1 0x0 PUSH4 0xFFFFFFFF DUP3 AND SWAP1 POP SWAP2 SWAP1 POP JUMP JUMPDEST PUSH1 0x0 PUSH2 0x16CC DUP3 PUSH2 0x1661 JUMP JUMPDEST SWAP1 POP SWAP2 SWAP1 POP JUMP JUMPDEST PUSH1 0x0 PUSH2 0x16DE DUP3 PUSH2 0x1674 JUMP JUMPDEST SWAP1 POP SWAP2 SWAP1 POP JUMP JUMPDEST PUSH1 0x0 JUMPDEST DUP4 DUP2 LT ISZERO PUSH2 0x1703 JUMPI DUP1 DUP3 ADD MLOAD DUP2 DUP5 ADD MSTORE PUSH1 0x20 DUP2 ADD SWAP1 POP PUSH2 0x16E8 JUMP JUMPDEST DUP4 DUP2 GT ISZERO PUSH2 0x1712 JUMPI PUSH1 0x0 DUP5 DUP5 ADD MSTORE JUMPDEST POP POP POP POP JUMP JUMPDEST PUSH1 0x0 PUSH2 0x1723 DUP3 PUSH2 0x16A7 JUMP JUMPDEST SWAP2 POP PUSH32 0xFFFFFFFFFFFFFFFFFFFFFFFFFFFFFFFFFFFFFFFFFFFFFFFFFFFFFFFFFFFFFFFF DUP3 EQ ISZERO PUSH2 0x1756 JUMPI PUSH2 0x1755 PUSH2 0x1792 JUMP JUMPDEST JUMPDEST PUSH1 0x1 DUP3 ADD SWAP1 POP SWAP2 SWAP1 POP JUMP JUMPDEST PUSH1 0x0 PUSH2 0x176C DUP3 PUSH2 0x16A7 JUMP JUMPDEST SWAP2 POP PUSH2 0x1777 DUP4 PUSH2 0x16A7 JUMP JUMPDEST SWAP3 POP DUP3 PUSH2 0x1787 JUMPI PUSH2 0x1786 PUSH2 0x17C1 JUMP JUMPDEST JUMPDEST DUP3 DUP3 MOD SWAP1 POP SWAP3 SWAP2 POP POP JUMP JUMPDEST PUSH32 0x4E487B7100000000000000000000000000000000000000000000000000000000 PUSH1 0x0 MSTORE PUSH1 0x11 PUSH1 0x4 MSTORE PUSH1 0x24 PUSH1 0x0 REVERT JUMPDEST PUSH32 0x4E487B7100000000000000000000000000000000000000000000000000000000 PUSH1 0x0 MSTORE PUSH1 0x12 PUSH1 0x4 MSTORE PUSH1 0x24 PUSH1 0x0 REVERT JUMPDEST PUSH32 0x4E487B7100000000000000000000000000000000000000000000000000000000 PUSH1 0x0 MSTORE PUSH1 0x21 PUSH1 0x4 MSTORE PUSH1 0x24 PUSH1 0x0 REVERT JUMPDEST PUSH32 0x4E487B7100000000000000000000000000000000000000000000000000000000 PUSH1 0x0 MSTORE PUSH1 0x32 PUSH1 0x4 MSTORE PUSH1 0x24 PUSH1 0x0 REVERT JUMPDEST PUSH32 0x4E487B7100000000000000000000000000000000000000000000000000000000 PUSH1 0x0 MSTORE PUSH1 0x41 PUSH1 0x4 MSTORE PUSH1 0x24 PUSH1 0x0 REVERT JUMPDEST PUSH1 0x0 DUP1 REVERT JUMPDEST PUSH1 0x3 DUP2 LT PUSH2 0x1893 JUMPI PUSH2 0x1892 PUSH2 0x17F0 JUMP JUMPDEST JUMPDEST POP JUMP JUMPDEST PUSH1 0x4 DUP2 LT PUSH2 0x18A7 JUMPI PUSH2 0x18A6 PUSH2 0x17F0 JUMP JUMPDEST JUMPDEST POP JUMP JUMPDEST PUSH2 0x18B3 DUP2 PUSH2 0x1657 JUMP JUMPDEST DUP2 EQ PUSH2 0x18BE JUMPI PUSH1 0x0 DUP1 REVERT JUMPDEST POP JUMP JUMPDEST PUSH1 0x4 DUP2 LT PUSH2 0x18CE JUMPI PUSH1 0x0 DUP1 REVERT JUMPDEST POP JUMP JUMPDEST PUSH2 0x18DA DUP2 PUSH2 0x16B1 JUMP JUMPDEST DUP2 EQ PUSH2 0x18E5 JUMPI PUSH1 0x0 DUP1 REVERT JUMPDEST POP JUMP INVALID LOG2 PUSH5 0x6970667358 0x22 SLT KECCAK256 CODESIZE 0xF9 0xCD COINBASE SDIV RETURNDATACOPY 0xDD LOG3 0xD SIGNEXTEND 0xEB ADDMOD 0x2F ORIGIN RETURNDATACOPY ORIGIN SIGNEXTEND 0xE8 0xB7 GASLIMIT CALLDATACOPY PUSH26 0xFA89E47A1D030E9B27CB64736F6C634300080700330000000000 "
				},
				"gasEstimates": {
					"creation": {
						"codeDepositCost": "1286000",
						"executionCost": "infinite",
						"totalCost": "infinite"
					},
					"external": {
						"currentGamePhase()": "2557",
						"firstPlayer()": "2581",
						"firstPlayerMove()": "2649",
						"move(bytes32)": "69962",
						"register()": "64492",
						"restart()": "190114",
						"reveal(uint8,uint32)": "infinite",
						"secondPlayer()": "2537",
						"secondPlayerMove()": "2676",
						"winner()": "2652"
					},
					"internal": {
						"changeGamePhase(enum RockPaperScissors.GamePhase)": "infinite"
					}
				},
				"methodIdentifiers": {
					"currentGamePhase()": "9ba6c216",
					"firstPlayer()": "54712524",
					"firstPlayerMove()": "8b015ccf",
					"move(bytes32)": "cefdbc84",
					"register()": "1aa3a008",
					"restart()": "1ef3755d",
					"reveal(uint8,uint32)": "ab4a6be1",
					"secondPlayer()": "1bc1e19a",
					"secondPlayerMove()": "dbe4dd79",
					"winner()": "dfbf53ae"
				}
			},
			"storageLayout": {
				"storage": [
					{
						"astId": 257,
						"contract": "contracts/kamenzi.sol:RockPaperScissors",
						"label": "currentGamePhase",
						"offset": 0,
						"slot": "0",
						"type": "t_enum(GamePhase)254"
					},
					{
						"astId": 259,
						"contract": "contracts/kamenzi.sol:RockPaperScissors",
						"label": "winner",
						"offset": 1,
						"slot": "0",
						"type": "t_address"
					},
					{
						"astId": 261,
						"contract": "contracts/kamenzi.sol:RockPaperScissors",
						"label": "firstPlayer",
						"offset": 0,
						"slot": "1",
						"type": "t_address"
					},
					{
						"astId": 263,
						"contract": "contracts/kamenzi.sol:RockPaperScissors",
						"label": "secondPlayer",
						"offset": 0,
						"slot": "2",
						"type": "t_address"
					},
					{
						"astId": 265,
						"contract": "contracts/kamenzi.sol:RockPaperScissors",
						"label": "nullAddress",
						"offset": 0,
						"slot": "3",
						"type": "t_address"
					},
					{
						"astId": 267,
						"contract": "contracts/kamenzi.sol:RockPaperScissors",
						"label": "firstPlayerMoveEncrypted",
						"offset": 0,
						"slot": "4",
						"type": "t_bytes32"
					},
					{
						"astId": 269,
						"contract": "contracts/kamenzi.sol:RockPaperScissors",
						"label": "secondPlayerMoveEncrypted",
						"offset": 0,
						"slot": "5",
						"type": "t_bytes32"
					},
					{
						"astId": 272,
						"contract": "contracts/kamenzi.sol:RockPaperScissors",
						"label": "firstPlayerMove",
						"offset": 0,
						"slot": "6",
						"type": "t_enum(Move)250"
					},
					{
						"astId": 275,
						"contract": "contracts/kamenzi.sol:RockPaperScissors",
						"label": "secondPlayerMove",
						"offset": 1,
						"slot": "6",
						"type": "t_enum(Move)250"
					}
				],
				"types": {
					"t_address": {
						"encoding": "inplace",
						"label": "address",
						"numberOfBytes": "20"
					},
					"t_bytes32": {
						"encoding": "inplace",
						"label": "bytes32",
						"numberOfBytes": "32"
					},
					"t_enum(GamePhase)254": {
						"encoding": "inplace",
						"label": "enum RockPaperScissors.GamePhase",
						"numberOfBytes": "1"
					},
					"t_enum(Move)250": {
						"encoding": "inplace",
						"label": "enum RockPaperScissors.Move",
						"numberOfBytes": "1"
					}
				}
			},
			"userdoc": {
				"kind": "user",
				"methods": {},
				"version": 1
			}
		}
	}
}