{
	"contracts/kamenzi.sol": {
		"RockPaperScissors": {
			"abi": [
				{
					"inputs": [],
					"stateMutability": "nonpayable",
					"type": "constructor"
				},
				{
					"anonymous": false,
					"inputs": [
						{
							"indexed": false,
							"internalType": "address",
							"name": "",
							"type": "address"
						}
					],
					"name": "GameFinished",
					"type": "event"
				},
				{
					"anonymous": false,
					"inputs": [
						{
							"indexed": false,
							"internalType": "address",
							"name": "",
							"type": "address"
						}
					],
					"name": "GameInitialized",
					"type": "event"
				},
				{
					"anonymous": false,
					"inputs": [
						{
							"indexed": false,
							"internalType": "enum RockPaperScissors.GamePhase",
							"name": "",
							"type": "uint8"
						}
					],
					"name": "GamePhaseChanged",
					"type": "event"
				},
				{
					"anonymous": false,
					"inputs": [
						{
							"indexed": false,
							"internalType": "address",
							"name": "",
							"type": "address"
						}
					],
					"name": "GameStarted",
					"type": "event"
				},
				{
					"inputs": [],
					"name": "currentGamePhase",
					"outputs": [
						{
							"internalType": "enum RockPaperScissors.GamePhase",
							"name": "",
							"type": "uint8"
						}
					],
					"stateMutability": "view",
					"type": "function"
				},
				{
					"inputs": [],
					"name": "firstPlayer",
					"outputs": [
						{
							"internalType": "address",
							"name": "",
							"type": "address"
						}
					],
					"stateMutability": "view",
					"type": "function"
				},
				{
					"inputs": [],
					"name": "firstPlayerMove",
					"outputs": [
						{
							"internalType": "enum RockPaperScissors.Move",
							"name": "",
							"type": "uint8"
						}
					],
					"stateMutability": "view",
					"type": "function"
				},
				{
					"inputs": [
						{
							"internalType": "bytes32",
							"name": "move",
							"type": "bytes32"
						}
					],
					"name": "move",
					"outputs": [
						{
							"internalType": "bool",
							"name": "",
							"type": "bool"
						}
					],
					"stateMutability": "nonpayable",
					"type": "function"
				},
				{
					"inputs": [],
					"name": "register",
					"outputs": [
						{
							"internalType": "uint256",
							"name": "",
							"type": "uint256"
						}
					],
					"stateMutability": "nonpayable",
					"type": "function"
				},
				{
					"inputs": [],
					"name": "restart",
					"outputs": [],
					"stateMutability": "nonpayable",
					"type": "function"
				},
				{
					"inputs": [
						{
							"internalType": "enum RockPaperScissors.Move",
							"name": "element",
							"type": "uint8"
						},
						{
							"internalType": "uint32",
							"name": "salt",
							"type": "uint32"
						}
					],
					"name": "reveal",
					"outputs": [
						{
							"internalType": "address",
							"name": "",
							"type": "address"
						}
					],
					"stateMutability": "nonpayable",
					"type": "function"
				},
				{
					"inputs": [],
					"name": "secondPlayer",
					"outputs": [
						{
							"internalType": "address",
							"name": "",
							"type": "address"
						}
					],
					"stateMutability": "view",
					"type": "function"
				},
				{
					"inputs": [],
					"name": "secondPlayerMove",
					"outputs": [
						{
							"internalType": "enum RockPaperScissors.Move",
							"name": "",
							"type": "uint8"
						}
					],
					"stateMutability": "view",
					"type": "function"
				},
				{
					"inputs": [],
					"name": "winner",
					"outputs": [
						{
							"internalType": "address",
							"name": "",
							"type": "address"
						}
					],
					"stateMutability": "view",
					"type": "function"
				}
			],
			"devdoc": {
				"kind": "dev",
				"methods": {},
				"version": 1
			},
			"evm": {
				"assembly": "    /* \"contracts/kamenzi.sol\":86:4603  contract RockPaperScissors {... */\n  mstore(0x40, 0x80)\n    /* \"contracts/kamenzi.sol\":789:866  constructor() {... */\n  callvalue\n  dup1\n  iszero\n  tag_1\n  jumpi\n  0x00\n  dup1\n  revert\ntag_1:\n  pop\n    /* \"contracts/kamenzi.sol\":829:839  msg.sender */\n  caller\n    /* \"contracts/kamenzi.sol\":813:818  owner */\n  0x03\n  0x00\n    /* \"contracts/kamenzi.sol\":813:840  owner = payable(msg.sender) */\n  0x0100\n  exp\n  dup2\n  sload\n  dup2\n  0xffffffffffffffffffffffffffffffffffffffff\n  mul\n  not\n  and\n  swap1\n  dup4\n  0xffffffffffffffffffffffffffffffffffffffff\n  and\n  mul\n  or\n  swap1\n  sstore\n  pop\n    /* \"contracts/kamenzi.sol\":850:859  restart() */\n  tag_4\n    /* \"contracts/kamenzi.sol\":850:857  restart */\n  shl(0x20, tag_5)\n    /* \"contracts/kamenzi.sol\":850:859  restart() */\n  0x20\n  shr\n  jump\t// in\ntag_4:\n    /* \"contracts/kamenzi.sol\":86:4603  contract RockPaperScissors {... */\n  jump(tag_6)\n    /* \"contracts/kamenzi.sol\":4056:4455  function restart() public ableToRestart{... */\ntag_5:\n    /* \"contracts/kamenzi.sol\":1286:1297  firstPlayer */\n  0x01\n  0x00\n  swap1\n  sload\n  swap1\n  0x0100\n  exp\n  swap1\n  div\n  0xffffffffffffffffffffffffffffffffffffffff\n  and\n    /* \"contracts/kamenzi.sol\":1272:1297  msg.sender == firstPlayer */\n  0xffffffffffffffffffffffffffffffffffffffff\n  and\n    /* \"contracts/kamenzi.sol\":1272:1282  msg.sender */\n  caller\n    /* \"contracts/kamenzi.sol\":1272:1297  msg.sender == firstPlayer */\n  0xffffffffffffffffffffffffffffffffffffffff\n  and\n  eq\n    /* \"contracts/kamenzi.sol\":1272:1327  msg.sender == firstPlayer || msg.sender == secondPlayer */\n  dup1\n  tag_8\n  jumpi\n  pop\n    /* \"contracts/kamenzi.sol\":1315:1327  secondPlayer */\n  0x02\n  0x00\n  swap1\n  sload\n  swap1\n  0x0100\n  exp\n  swap1\n  div\n  0xffffffffffffffffffffffffffffffffffffffff\n  and\n    /* \"contracts/kamenzi.sol\":1301:1327  msg.sender == secondPlayer */\n  0xffffffffffffffffffffffffffffffffffffffff\n  and\n    /* \"contracts/kamenzi.sol\":1301:1311  msg.sender */\n  caller\n    /* \"contracts/kamenzi.sol\":1301:1327  msg.sender == secondPlayer */\n  0xffffffffffffffffffffffffffffffffffffffff\n  and\n  eq\n    /* \"contracts/kamenzi.sol\":1272:1327  msg.sender == firstPlayer || msg.sender == secondPlayer */\ntag_8:\n    /* \"contracts/kamenzi.sol\":1272:1350  msg.sender == firstPlayer || msg.sender == secondPlayer || msg.sender == owner */\n  dup1\n  tag_9\n  jumpi\n  pop\n    /* \"contracts/kamenzi.sol\":1345:1350  owner */\n  0x03\n  0x00\n  swap1\n  sload\n  swap1\n  0x0100\n  exp\n  swap1\n  div\n  0xffffffffffffffffffffffffffffffffffffffff\n  and\n    /* \"contracts/kamenzi.sol\":1331:1350  msg.sender == owner */\n  0xffffffffffffffffffffffffffffffffffffffff\n  and\n    /* \"contracts/kamenzi.sol\":1331:1341  msg.sender */\n  caller\n    /* \"contracts/kamenzi.sol\":1331:1350  msg.sender == owner */\n  0xffffffffffffffffffffffffffffffffffffffff\n  and\n  eq\n    /* \"contracts/kamenzi.sol\":1272:1350  msg.sender == firstPlayer || msg.sender == secondPlayer || msg.sender == owner */\ntag_9:\n    /* \"contracts/kamenzi.sol\":1264:1351  require(msg.sender == firstPlayer || msg.sender == secondPlayer || msg.sender == owner) */\n  tag_10\n  jumpi\n  0x00\n  dup1\n  revert\ntag_10:\n    /* \"contracts/kamenzi.sol\":4127:4130  0x0 */\n  0x00\n    /* \"contracts/kamenzi.sol\":4105:4116  nullAddress */\n  0x04\n  0x00\n    /* \"contracts/kamenzi.sol\":4105:4131  nullAddress = address(0x0) */\n  0x0100\n  exp\n  dup2\n  sload\n  dup2\n  0xffffffffffffffffffffffffffffffffffffffff\n  mul\n  not\n  and\n  swap1\n  dup4\n  0xffffffffffffffffffffffffffffffffffffffff\n  and\n  mul\n  or\n  swap1\n  sstore\n  pop\n    /* \"contracts/kamenzi.sol\":4159:4170  nullAddress */\n  0x04\n  0x00\n  swap1\n  sload\n  swap1\n  0x0100\n  exp\n  swap1\n  div\n  0xffffffffffffffffffffffffffffffffffffffff\n  and\n    /* \"contracts/kamenzi.sol\":4150:4156  winner */\n  0x00\n  0x01\n    /* \"contracts/kamenzi.sol\":4150:4170  winner = nullAddress */\n  0x0100\n  exp\n  dup2\n  sload\n  dup2\n  0xffffffffffffffffffffffffffffffffffffffff\n  mul\n  not\n  and\n  swap1\n  dup4\n  0xffffffffffffffffffffffffffffffffffffffff\n  and\n  mul\n  or\n  swap1\n  sstore\n  pop\n    /* \"contracts/kamenzi.sol\":4194:4205  nullAddress */\n  0x04\n  0x00\n  swap1\n  sload\n  swap1\n  0x0100\n  exp\n  swap1\n  div\n  0xffffffffffffffffffffffffffffffffffffffff\n  and\n    /* \"contracts/kamenzi.sol\":4180:4191  firstPlayer */\n  0x01\n  0x00\n    /* \"contracts/kamenzi.sol\":4180:4205  firstPlayer = nullAddress */\n  0x0100\n  exp\n  dup2\n  sload\n  dup2\n  0xffffffffffffffffffffffffffffffffffffffff\n  mul\n  not\n  and\n  swap1\n  dup4\n  0xffffffffffffffffffffffffffffffffffffffff\n  and\n  mul\n  or\n  swap1\n  sstore\n  pop\n    /* \"contracts/kamenzi.sol\":4230:4241  nullAddress */\n  0x04\n  0x00\n  swap1\n  sload\n  swap1\n  0x0100\n  exp\n  swap1\n  div\n  0xffffffffffffffffffffffffffffffffffffffff\n  and\n    /* \"contracts/kamenzi.sol\":4215:4227  secondPlayer */\n  0x02\n  0x00\n    /* \"contracts/kamenzi.sol\":4215:4241  secondPlayer = nullAddress */\n  0x0100\n  exp\n  dup2\n  sload\n  dup2\n  0xffffffffffffffffffffffffffffffffffffffff\n  mul\n  not\n  and\n  swap1\n  dup4\n  0xffffffffffffffffffffffffffffffffffffffff\n  and\n  mul\n  or\n  swap1\n  sstore\n  pop\n    /* \"contracts/kamenzi.sol\":4279:4282  0x0 */\n  0x00\n    /* \"contracts/kamenzi.sol\":4252:4282  firstPlayerMoveEncrypted = 0x0 */\n  dup1\n  shl\n    /* \"contracts/kamenzi.sol\":4252:4276  firstPlayerMoveEncrypted */\n  0x05\n    /* \"contracts/kamenzi.sol\":4252:4282  firstPlayerMoveEncrypted = 0x0 */\n  dup2\n  swap1\n  sstore\n  pop\n    /* \"contracts/kamenzi.sol\":4320:4323  0x0 */\n  0x00\n    /* \"contracts/kamenzi.sol\":4292:4323  secondPlayerMoveEncrypted = 0x0 */\n  dup1\n  shl\n    /* \"contracts/kamenzi.sol\":4292:4317  secondPlayerMoveEncrypted */\n  0x06\n    /* \"contracts/kamenzi.sol\":4292:4323  secondPlayerMoveEncrypted = 0x0 */\n  dup2\n  swap1\n  sstore\n  pop\n    /* \"contracts/kamenzi.sol\":4352:4361  Move.None */\n  0x00\n    /* \"contracts/kamenzi.sol\":4334:4349  firstPlayerMove */\n  0x07\n  0x00\n    /* \"contracts/kamenzi.sol\":4334:4361  firstPlayerMove = Move.None */\n  0x0100\n  exp\n  dup2\n  sload\n  dup2\n  0xff\n  mul\n  not\n  and\n  swap1\n  dup4\n  0x03\n  dup2\n  gt\n  iszero\n  tag_12\n  jumpi\n  tag_13\n  tag_14\n  jump\t// in\ntag_13:\ntag_12:\n  mul\n  or\n  swap1\n  sstore\n  pop\n    /* \"contracts/kamenzi.sol\":4390:4399  Move.None */\n  0x00\n    /* \"contracts/kamenzi.sol\":4371:4387  secondPlayerMove */\n  0x07\n  0x01\n    /* \"contracts/kamenzi.sol\":4371:4399  secondPlayerMove = Move.None */\n  0x0100\n  exp\n  dup2\n  sload\n  dup2\n  0xff\n  mul\n  not\n  and\n  swap1\n  dup4\n  0x03\n  dup2\n  gt\n  iszero\n  tag_15\n  jumpi\n  tag_16\n  tag_14\n  jump\t// in\ntag_16:\ntag_15:\n  mul\n  or\n  swap1\n  sstore\n  pop\n    /* \"contracts/kamenzi.sol\":4410:4448  changeGamePhase(GamePhase.Preparation) */\n  tag_17\n    /* \"contracts/kamenzi.sol\":4426:4447  GamePhase.Preparation */\n  0x00\n    /* \"contracts/kamenzi.sol\":4410:4425  changeGamePhase */\n  shl(0x20, tag_18)\n    /* \"contracts/kamenzi.sol\":4410:4448  changeGamePhase(GamePhase.Preparation) */\n  0x20\n  shr\n  jump\t// in\ntag_17:\n    /* \"contracts/kamenzi.sol\":4056:4455  function restart() public ableToRestart{... */\n  jump\t// out\n    /* \"contracts/kamenzi.sol\":4461:4601  function changeGamePhase(GamePhase phase) private {... */\ntag_18:\n    /* \"contracts/kamenzi.sol\":4540:4545  phase */\n  dup1\n    /* \"contracts/kamenzi.sol\":4521:4537  currentGamePhase */\n  0x00\n  dup1\n    /* \"contracts/kamenzi.sol\":4521:4545  currentGamePhase = phase */\n  0x0100\n  exp\n  dup2\n  sload\n  dup2\n  0xff\n  mul\n  not\n  and\n  swap1\n  dup4\n  0x02\n  dup2\n  gt\n  iszero\n  tag_20\n  jumpi\n  tag_21\n  tag_14\n  jump\t// in\ntag_21:\ntag_20:\n  mul\n  or\n  swap1\n  sstore\n  pop\n    /* \"contracts/kamenzi.sol\":4560:4594  GamePhaseChanged(currentGamePhase) */\n  0x5fe57a6009d2ae51447def0790762f4e928888c72f5f8ef4abed68599519a833\n    /* \"contracts/kamenzi.sol\":4577:4593  currentGamePhase */\n  0x00\n  dup1\n  sload\n  swap1\n  0x0100\n  exp\n  swap1\n  div\n  0xff\n  and\n    /* \"contracts/kamenzi.sol\":4560:4594  GamePhaseChanged(currentGamePhase) */\n  mload(0x40)\n  tag_22\n  swap2\n  swap1\n  tag_23\n  jump\t// in\ntag_22:\n  mload(0x40)\n  dup1\n  swap2\n  sub\n  swap1\n  log1\n    /* \"contracts/kamenzi.sol\":4461:4601  function changeGamePhase(GamePhase phase) private {... */\n  pop\n  jump\t// out\n    /* \"#utility.yul\":7:160   */\ntag_25:\n    /* \"#utility.yul\":105:153   */\n  tag_27\n    /* \"#utility.yul\":147:152   */\n  dup2\n    /* \"#utility.yul\":105:153   */\n  tag_28\n  jump\t// in\ntag_27:\n    /* \"#utility.yul\":100:103   */\n  dup3\n    /* \"#utility.yul\":93:154   */\n  mstore\n    /* \"#utility.yul\":7:160   */\n  pop\n  pop\n  jump\t// out\n    /* \"#utility.yul\":166:410   */\ntag_23:\n    /* \"#utility.yul\":270:274   */\n  0x00\n    /* \"#utility.yul\":308:310   */\n  0x20\n    /* \"#utility.yul\":297:306   */\n  dup3\n    /* \"#utility.yul\":293:311   */\n  add\n    /* \"#utility.yul\":285:311   */\n  swap1\n  pop\n    /* \"#utility.yul\":321:403   */\n  tag_30\n    /* \"#utility.yul\":400:401   */\n  0x00\n    /* \"#utility.yul\":389:398   */\n  dup4\n    /* \"#utility.yul\":385:402   */\n  add\n    /* \"#utility.yul\":376:382   */\n  dup5\n    /* \"#utility.yul\":321:403   */\n  tag_25\n  jump\t// in\ntag_30:\n    /* \"#utility.yul\":166:410   */\n  swap3\n  swap2\n  pop\n  pop\n  jump\t// out\n    /* \"#utility.yul\":416:553   */\ntag_31:\n    /* \"#utility.yul\":466:473   */\n  0x00\n    /* \"#utility.yul\":495:500   */\n  dup2\n    /* \"#utility.yul\":484:500   */\n  swap1\n  pop\n    /* \"#utility.yul\":501:547   */\n  tag_33\n    /* \"#utility.yul\":541:546   */\n  dup3\n    /* \"#utility.yul\":501:547   */\n  tag_34\n  jump\t// in\ntag_33:\n    /* \"#utility.yul\":416:553   */\n  swap2\n  swap1\n  pop\n  jump\t// out\n    /* \"#utility.yul\":559:696   */\ntag_28:\n    /* \"#utility.yul\":620:629   */\n  0x00\n    /* \"#utility.yul\":653:690   */\n  tag_36\n    /* \"#utility.yul\":684:689   */\n  dup3\n    /* \"#utility.yul\":653:690   */\n  tag_31\n  jump\t// in\ntag_36:\n    /* \"#utility.yul\":640:690   */\n  swap1\n  pop\n    /* \"#utility.yul\":559:696   */\n  swap2\n  swap1\n  pop\n  jump\t// out\n    /* \"#utility.yul\":702:882   */\ntag_14:\n    /* \"#utility.yul\":750:827   */\n  0x4e487b7100000000000000000000000000000000000000000000000000000000\n    /* \"#utility.yul\":747:748   */\n  0x00\n    /* \"#utility.yul\":740:828   */\n  mstore\n    /* \"#utility.yul\":847:851   */\n  0x21\n    /* \"#utility.yul\":844:845   */\n  0x04\n    /* \"#utility.yul\":837:852   */\n  mstore\n    /* \"#utility.yul\":871:875   */\n  0x24\n    /* \"#utility.yul\":868:869   */\n  0x00\n    /* \"#utility.yul\":861:876   */\n  revert\n    /* \"#utility.yul\":888:1006   */\ntag_34:\n    /* \"#utility.yul\":974:975   */\n  0x03\n    /* \"#utility.yul\":967:972   */\n  dup2\n    /* \"#utility.yul\":964:976   */\n  lt\n    /* \"#utility.yul\":954:1000   */\n  tag_39\n  jumpi\n    /* \"#utility.yul\":980:998   */\n  tag_40\n  tag_14\n  jump\t// in\ntag_40:\n    /* \"#utility.yul\":954:1000   */\ntag_39:\n    /* \"#utility.yul\":888:1006   */\n  pop\n  jump\t// out\n    /* \"contracts/kamenzi.sol\":86:4603  contract RockPaperScissors {... */\ntag_6:\n  dataSize(sub_0)\n  dup1\n  dataOffset(sub_0)\n  0x00\n  codecopy\n  0x00\n  return\nstop\n\nsub_0: assembly {\n        /* \"contracts/kamenzi.sol\":86:4603  contract RockPaperScissors {... */\n      mstore(0x40, 0x80)\n      callvalue\n      dup1\n      iszero\n      tag_1\n      jumpi\n      0x00\n      dup1\n      revert\n    tag_1:\n      pop\n      jumpi(tag_2, lt(calldatasize, 0x04))\n      shr(0xe0, calldataload(0x00))\n      dup1\n      0x9ba6c216\n      gt\n      tag_13\n      jumpi\n      dup1\n      0x9ba6c216\n      eq\n      tag_8\n      jumpi\n      dup1\n      0xab4a6be1\n      eq\n      tag_9\n      jumpi\n      dup1\n      0xcefdbc84\n      eq\n      tag_10\n      jumpi\n      dup1\n      0xdbe4dd79\n      eq\n      tag_11\n      jumpi\n      dup1\n      0xdfbf53ae\n      eq\n      tag_12\n      jumpi\n      jump(tag_2)\n    tag_13:\n      dup1\n      0x1aa3a008\n      eq\n      tag_3\n      jumpi\n      dup1\n      0x1bc1e19a\n      eq\n      tag_4\n      jumpi\n      dup1\n      0x1ef3755d\n      eq\n      tag_5\n      jumpi\n      dup1\n      0x54712524\n      eq\n      tag_6\n      jumpi\n      dup1\n      0x8b015ccf\n      eq\n      tag_7\n      jumpi\n    tag_2:\n      0x00\n      dup1\n      revert\n        /* \"contracts/kamenzi.sol\":1379:1902  function register() public unregistered correctGamePhase(GamePhase.Preparation) returns (uint) {... */\n    tag_3:\n      tag_14\n      tag_15\n      jump\t// in\n    tag_14:\n      mload(0x40)\n      tag_16\n      swap2\n      swap1\n      tag_17\n      jump\t// in\n    tag_16:\n      mload(0x40)\n      dup1\n      swap2\n      sub\n      swap1\n      return\n        /* \"contracts/kamenzi.sol\":528:555  address public secondPlayer */\n    tag_4:\n      tag_18\n      tag_19\n      jump\t// in\n    tag_18:\n      mload(0x40)\n      tag_20\n      swap2\n      swap1\n      tag_21\n      jump\t// in\n    tag_20:\n      mload(0x40)\n      dup1\n      swap2\n      sub\n      swap1\n      return\n        /* \"contracts/kamenzi.sol\":4056:4455  function restart() public ableToRestart{... */\n    tag_5:\n      tag_22\n      tag_23\n      jump\t// in\n    tag_22:\n      stop\n        /* \"contracts/kamenzi.sol\":496:522  address public firstPlayer */\n    tag_6:\n      tag_24\n      tag_25\n      jump\t// in\n    tag_24:\n      mload(0x40)\n      tag_26\n      swap2\n      swap1\n      tag_21\n      jump\t// in\n    tag_26:\n      mload(0x40)\n      dup1\n      swap2\n      sub\n      swap1\n      return\n        /* \"contracts/kamenzi.sol\":717:744  Move public firstPlayerMove */\n    tag_7:\n      tag_27\n      tag_28\n      jump\t// in\n    tag_27:\n      mload(0x40)\n      tag_29\n      swap2\n      swap1\n      tag_30\n      jump\t// in\n    tag_29:\n      mload(0x40)\n      dup1\n      swap2\n      sub\n      swap1\n      return\n        /* \"contracts/kamenzi.sol\":429:462  GamePhase public currentGamePhase */\n    tag_8:\n      tag_31\n      tag_32\n      jump\t// in\n    tag_31:\n      mload(0x40)\n      tag_33\n      swap2\n      swap1\n      tag_34\n      jump\t// in\n    tag_33:\n      mload(0x40)\n      dup1\n      swap2\n      sub\n      swap1\n      return\n        /* \"contracts/kamenzi.sol\":2535:4050  function reveal(Move element, uint32 salt) public registered correctGamePhase(GamePhase.Reveal) returns (address){... */\n    tag_9:\n      tag_35\n      0x04\n      dup1\n      calldatasize\n      sub\n      dup2\n      add\n      swap1\n      tag_36\n      swap2\n      swap1\n      tag_37\n      jump\t// in\n    tag_36:\n      tag_38\n      jump\t// in\n    tag_35:\n      mload(0x40)\n      tag_39\n      swap2\n      swap1\n      tag_21\n      jump\t// in\n    tag_39:\n      mload(0x40)\n      dup1\n      swap2\n      sub\n      swap1\n      return\n        /* \"contracts/kamenzi.sol\":1908:2529  function move(bytes32 move) public registered correctGamePhase(GamePhase.Commit) returns (bool) {... */\n    tag_10:\n      tag_40\n      0x04\n      dup1\n      calldatasize\n      sub\n      dup2\n      add\n      swap1\n      tag_41\n      swap2\n      swap1\n      tag_42\n      jump\t// in\n    tag_41:\n      tag_43\n      jump\t// in\n    tag_40:\n      mload(0x40)\n      tag_44\n      swap2\n      swap1\n      tag_45\n      jump\t// in\n    tag_44:\n      mload(0x40)\n      dup1\n      swap2\n      sub\n      swap1\n      return\n        /* \"contracts/kamenzi.sol\":750:778  Move public secondPlayerMove */\n    tag_11:\n      tag_46\n      tag_47\n      jump\t// in\n    tag_46:\n      mload(0x40)\n      tag_48\n      swap2\n      swap1\n      tag_30\n      jump\t// in\n    tag_48:\n      mload(0x40)\n      dup1\n      swap2\n      sub\n      swap1\n      return\n        /* \"contracts/kamenzi.sol\":469:490  address public winner */\n    tag_12:\n      tag_49\n      tag_50\n      jump\t// in\n    tag_49:\n      mload(0x40)\n      tag_51\n      swap2\n      swap1\n      tag_21\n      jump\t// in\n    tag_51:\n      mload(0x40)\n      dup1\n      swap2\n      sub\n      swap1\n      return\n        /* \"contracts/kamenzi.sol\":1379:1902  function register() public unregistered correctGamePhase(GamePhase.Preparation) returns (uint) {... */\n    tag_15:\n        /* \"contracts/kamenzi.sol\":1468:1472  uint */\n      0x00\n        /* \"contracts/kamenzi.sol\":928:939  firstPlayer */\n      0x01\n      0x00\n      swap1\n      sload\n      swap1\n      0x0100\n      exp\n      swap1\n      div\n      0xffffffffffffffffffffffffffffffffffffffff\n      and\n        /* \"contracts/kamenzi.sol\":914:939  msg.sender != firstPlayer */\n      0xffffffffffffffffffffffffffffffffffffffff\n      and\n        /* \"contracts/kamenzi.sol\":914:924  msg.sender */\n      caller\n        /* \"contracts/kamenzi.sol\":914:939  msg.sender != firstPlayer */\n      0xffffffffffffffffffffffffffffffffffffffff\n      and\n      eq\n      iszero\n        /* \"contracts/kamenzi.sol\":914:969  msg.sender != firstPlayer && msg.sender != secondPlayer */\n      dup1\n      iszero\n      tag_53\n      jumpi\n      pop\n        /* \"contracts/kamenzi.sol\":957:969  secondPlayer */\n      0x02\n      0x00\n      swap1\n      sload\n      swap1\n      0x0100\n      exp\n      swap1\n      div\n      0xffffffffffffffffffffffffffffffffffffffff\n      and\n        /* \"contracts/kamenzi.sol\":943:969  msg.sender != secondPlayer */\n      0xffffffffffffffffffffffffffffffffffffffff\n      and\n        /* \"contracts/kamenzi.sol\":943:953  msg.sender */\n      caller\n        /* \"contracts/kamenzi.sol\":943:969  msg.sender != secondPlayer */\n      0xffffffffffffffffffffffffffffffffffffffff\n      and\n      eq\n      iszero\n        /* \"contracts/kamenzi.sol\":914:969  msg.sender != firstPlayer && msg.sender != secondPlayer */\n    tag_53:\n        /* \"contracts/kamenzi.sol\":906:970  require(msg.sender != firstPlayer && msg.sender != secondPlayer) */\n      tag_54\n      jumpi\n      0x00\n      dup1\n      revert\n    tag_54:\n        /* \"contracts/kamenzi.sol\":1436:1457  GamePhase.Preparation */\n      0x00\n        /* \"contracts/kamenzi.sol\":1195:1200  phase */\n      dup1\n        /* \"contracts/kamenzi.sol\":1175:1200  currentGamePhase == phase */\n      0x02\n      dup2\n      gt\n      iszero\n      tag_56\n      jumpi\n      tag_57\n      tag_58\n      jump\t// in\n    tag_57:\n    tag_56:\n        /* \"contracts/kamenzi.sol\":1175:1191  currentGamePhase */\n      0x00\n      dup1\n      sload\n      swap1\n      0x0100\n      exp\n      swap1\n      div\n      0xff\n      and\n        /* \"contracts/kamenzi.sol\":1175:1200  currentGamePhase == phase */\n      0x02\n      dup2\n      gt\n      iszero\n      tag_59\n      jumpi\n      tag_60\n      tag_58\n      jump\t// in\n    tag_60:\n    tag_59:\n      eq\n        /* \"contracts/kamenzi.sol\":1167:1201  require(currentGamePhase == phase) */\n      tag_61\n      jumpi\n      0x00\n      dup1\n      revert\n    tag_61:\n        /* \"contracts/kamenzi.sol\":1511:1514  0x0 */\n      0x00\n        /* \"contracts/kamenzi.sol\":1488:1515  firstPlayer == address(0x0) */\n      0xffffffffffffffffffffffffffffffffffffffff\n      and\n        /* \"contracts/kamenzi.sol\":1488:1499  firstPlayer */\n      0x01\n      0x00\n      swap1\n      sload\n      swap1\n      0x0100\n      exp\n      swap1\n      div\n      0xffffffffffffffffffffffffffffffffffffffff\n      and\n        /* \"contracts/kamenzi.sol\":1488:1515  firstPlayer == address(0x0) */\n      0xffffffffffffffffffffffffffffffffffffffff\n      and\n      eq\n        /* \"contracts/kamenzi.sol\":1484:1644  if (firstPlayer == address(0x0)) {... */\n      iszero\n      tag_63\n      jumpi\n        /* \"contracts/kamenzi.sol\":1553:1563  msg.sender */\n      caller\n        /* \"contracts/kamenzi.sol\":1531:1542  firstPlayer */\n      0x01\n      0x00\n        /* \"contracts/kamenzi.sol\":1531:1564  firstPlayer = payable(msg.sender) */\n      0x0100\n      exp\n      dup2\n      sload\n      dup2\n      0xffffffffffffffffffffffffffffffffffffffff\n      mul\n      not\n      and\n      swap1\n      dup4\n      0xffffffffffffffffffffffffffffffffffffffff\n      and\n      mul\n      or\n      swap1\n      sstore\n      pop\n        /* \"contracts/kamenzi.sol\":1583:1610  GameInitialized(msg.sender) */\n      0xada0ba55ddd90bb25ecc3a5e99986836201565b3a09e5be156e48713da1bfd63\n        /* \"contracts/kamenzi.sol\":1599:1609  msg.sender */\n      caller\n        /* \"contracts/kamenzi.sol\":1583:1610  GameInitialized(msg.sender) */\n      mload(0x40)\n      tag_64\n      swap2\n      swap1\n      tag_21\n      jump\t// in\n    tag_64:\n      mload(0x40)\n      dup1\n      swap2\n      sub\n      swap1\n      log1\n        /* \"contracts/kamenzi.sol\":1632:1633  1 */\n      0x01\n        /* \"contracts/kamenzi.sol\":1625:1633  return 1 */\n      swap2\n      pop\n      jump(tag_62)\n        /* \"contracts/kamenzi.sol\":1484:1644  if (firstPlayer == address(0x0)) {... */\n    tag_63:\n        /* \"contracts/kamenzi.sol\":1700:1703  0x0 */\n      0x00\n        /* \"contracts/kamenzi.sol\":1676:1704  secondPlayer == address(0x0) */\n      0xffffffffffffffffffffffffffffffffffffffff\n      and\n        /* \"contracts/kamenzi.sol\":1676:1688  secondPlayer */\n      0x02\n      0x00\n      swap1\n      sload\n      swap1\n      0x0100\n      exp\n      swap1\n      div\n      0xffffffffffffffffffffffffffffffffffffffff\n      and\n        /* \"contracts/kamenzi.sol\":1676:1704  secondPlayer == address(0x0) */\n      0xffffffffffffffffffffffffffffffffffffffff\n      and\n      eq\n        /* \"contracts/kamenzi.sol\":1672:1877  if (secondPlayer == address(0x0)) {... */\n      iszero\n      tag_65\n      jumpi\n        /* \"contracts/kamenzi.sol\":1743:1753  msg.sender */\n      caller\n        /* \"contracts/kamenzi.sol\":1720:1732  secondPlayer */\n      0x02\n      0x00\n        /* \"contracts/kamenzi.sol\":1720:1754  secondPlayer = payable(msg.sender) */\n      0x0100\n      exp\n      dup2\n      sload\n      dup2\n      0xffffffffffffffffffffffffffffffffffffffff\n      mul\n      not\n      and\n      swap1\n      dup4\n      0xffffffffffffffffffffffffffffffffffffffff\n      and\n      mul\n      or\n      swap1\n      sstore\n      pop\n        /* \"contracts/kamenzi.sol\":1773:1796  GameStarted(msg.sender) */\n      0x67cf7f1535e1c1323fe4e76266f7d55f0c1f67fdf449db65e014f9d35881514d\n        /* \"contracts/kamenzi.sol\":1785:1795  msg.sender */\n      caller\n        /* \"contracts/kamenzi.sol\":1773:1796  GameStarted(msg.sender) */\n      mload(0x40)\n      tag_66\n      swap2\n      swap1\n      tag_21\n      jump\t// in\n    tag_66:\n      mload(0x40)\n      dup1\n      swap2\n      sub\n      swap1\n      log1\n        /* \"contracts/kamenzi.sol\":1811:1844  changeGamePhase(GamePhase.Commit) */\n      tag_67\n        /* \"contracts/kamenzi.sol\":1827:1843  GamePhase.Commit */\n      0x01\n        /* \"contracts/kamenzi.sol\":1811:1826  changeGamePhase */\n      tag_68\n        /* \"contracts/kamenzi.sol\":1811:1844  changeGamePhase(GamePhase.Commit) */\n      jump\t// in\n    tag_67:\n        /* \"contracts/kamenzi.sol\":1865:1866  2 */\n      0x02\n        /* \"contracts/kamenzi.sol\":1858:1866  return 2 */\n      swap2\n      pop\n      jump(tag_62)\n        /* \"contracts/kamenzi.sol\":1672:1877  if (secondPlayer == address(0x0)) {... */\n    tag_65:\n        /* \"contracts/kamenzi.sol\":1894:1895  0 */\n      0x00\n        /* \"contracts/kamenzi.sol\":1887:1895  return 0 */\n      swap2\n      pop\n        /* \"contracts/kamenzi.sol\":1211:1212  _ */\n    tag_62:\n        /* \"contracts/kamenzi.sol\":980:981  _ */\n      pop\n        /* \"contracts/kamenzi.sol\":1379:1902  function register() public unregistered correctGamePhase(GamePhase.Preparation) returns (uint) {... */\n      swap1\n      jump\t// out\n        /* \"contracts/kamenzi.sol\":528:555  address public secondPlayer */\n    tag_19:\n      0x02\n      0x00\n      swap1\n      sload\n      swap1\n      0x0100\n      exp\n      swap1\n      div\n      0xffffffffffffffffffffffffffffffffffffffff\n      and\n      dup2\n      jump\t// out\n        /* \"contracts/kamenzi.sol\":4056:4455  function restart() public ableToRestart{... */\n    tag_23:\n        /* \"contracts/kamenzi.sol\":1286:1297  firstPlayer */\n      0x01\n      0x00\n      swap1\n      sload\n      swap1\n      0x0100\n      exp\n      swap1\n      div\n      0xffffffffffffffffffffffffffffffffffffffff\n      and\n        /* \"contracts/kamenzi.sol\":1272:1297  msg.sender == firstPlayer */\n      0xffffffffffffffffffffffffffffffffffffffff\n      and\n        /* \"contracts/kamenzi.sol\":1272:1282  msg.sender */\n      caller\n        /* \"contracts/kamenzi.sol\":1272:1297  msg.sender == firstPlayer */\n      0xffffffffffffffffffffffffffffffffffffffff\n      and\n      eq\n        /* \"contracts/kamenzi.sol\":1272:1327  msg.sender == firstPlayer || msg.sender == secondPlayer */\n      dup1\n      tag_70\n      jumpi\n      pop\n        /* \"contracts/kamenzi.sol\":1315:1327  secondPlayer */\n      0x02\n      0x00\n      swap1\n      sload\n      swap1\n      0x0100\n      exp\n      swap1\n      div\n      0xffffffffffffffffffffffffffffffffffffffff\n      and\n        /* \"contracts/kamenzi.sol\":1301:1327  msg.sender == secondPlayer */\n      0xffffffffffffffffffffffffffffffffffffffff\n      and\n        /* \"contracts/kamenzi.sol\":1301:1311  msg.sender */\n      caller\n        /* \"contracts/kamenzi.sol\":1301:1327  msg.sender == secondPlayer */\n      0xffffffffffffffffffffffffffffffffffffffff\n      and\n      eq\n        /* \"contracts/kamenzi.sol\":1272:1327  msg.sender == firstPlayer || msg.sender == secondPlayer */\n    tag_70:\n        /* \"contracts/kamenzi.sol\":1272:1350  msg.sender == firstPlayer || msg.sender == secondPlayer || msg.sender == owner */\n      dup1\n      tag_71\n      jumpi\n      pop\n        /* \"contracts/kamenzi.sol\":1345:1350  owner */\n      0x03\n      0x00\n      swap1\n      sload\n      swap1\n      0x0100\n      exp\n      swap1\n      div\n      0xffffffffffffffffffffffffffffffffffffffff\n      and\n        /* \"contracts/kamenzi.sol\":1331:1350  msg.sender == owner */\n      0xffffffffffffffffffffffffffffffffffffffff\n      and\n        /* \"contracts/kamenzi.sol\":1331:1341  msg.sender */\n      caller\n        /* \"contracts/kamenzi.sol\":1331:1350  msg.sender == owner */\n      0xffffffffffffffffffffffffffffffffffffffff\n      and\n      eq\n        /* \"contracts/kamenzi.sol\":1272:1350  msg.sender == firstPlayer || msg.sender == secondPlayer || msg.sender == owner */\n    tag_71:\n        /* \"contracts/kamenzi.sol\":1264:1351  require(msg.sender == firstPlayer || msg.sender == secondPlayer || msg.sender == owner) */\n      tag_72\n      jumpi\n      0x00\n      dup1\n      revert\n    tag_72:\n        /* \"contracts/kamenzi.sol\":4127:4130  0x0 */\n      0x00\n        /* \"contracts/kamenzi.sol\":4105:4116  nullAddress */\n      0x04\n      0x00\n        /* \"contracts/kamenzi.sol\":4105:4131  nullAddress = address(0x0) */\n      0x0100\n      exp\n      dup2\n      sload\n      dup2\n      0xffffffffffffffffffffffffffffffffffffffff\n      mul\n      not\n      and\n      swap1\n      dup4\n      0xffffffffffffffffffffffffffffffffffffffff\n      and\n      mul\n      or\n      swap1\n      sstore\n      pop\n        /* \"contracts/kamenzi.sol\":4159:4170  nullAddress */\n      0x04\n      0x00\n      swap1\n      sload\n      swap1\n      0x0100\n      exp\n      swap1\n      div\n      0xffffffffffffffffffffffffffffffffffffffff\n      and\n        /* \"contracts/kamenzi.sol\":4150:4156  winner */\n      0x00\n      0x01\n        /* \"contracts/kamenzi.sol\":4150:4170  winner = nullAddress */\n      0x0100\n      exp\n      dup2\n      sload\n      dup2\n      0xffffffffffffffffffffffffffffffffffffffff\n      mul\n      not\n      and\n      swap1\n      dup4\n      0xffffffffffffffffffffffffffffffffffffffff\n      and\n      mul\n      or\n      swap1\n      sstore\n      pop\n        /* \"contracts/kamenzi.sol\":4194:4205  nullAddress */\n      0x04\n      0x00\n      swap1\n      sload\n      swap1\n      0x0100\n      exp\n      swap1\n      div\n      0xffffffffffffffffffffffffffffffffffffffff\n      and\n        /* \"contracts/kamenzi.sol\":4180:4191  firstPlayer */\n      0x01\n      0x00\n        /* \"contracts/kamenzi.sol\":4180:4205  firstPlayer = nullAddress */\n      0x0100\n      exp\n      dup2\n      sload\n      dup2\n      0xffffffffffffffffffffffffffffffffffffffff\n      mul\n      not\n      and\n      swap1\n      dup4\n      0xffffffffffffffffffffffffffffffffffffffff\n      and\n      mul\n      or\n      swap1\n      sstore\n      pop\n        /* \"contracts/kamenzi.sol\":4230:4241  nullAddress */\n      0x04\n      0x00\n      swap1\n      sload\n      swap1\n      0x0100\n      exp\n      swap1\n      div\n      0xffffffffffffffffffffffffffffffffffffffff\n      and\n        /* \"contracts/kamenzi.sol\":4215:4227  secondPlayer */\n      0x02\n      0x00\n        /* \"contracts/kamenzi.sol\":4215:4241  secondPlayer = nullAddress */\n      0x0100\n      exp\n      dup2\n      sload\n      dup2\n      0xffffffffffffffffffffffffffffffffffffffff\n      mul\n      not\n      and\n      swap1\n      dup4\n      0xffffffffffffffffffffffffffffffffffffffff\n      and\n      mul\n      or\n      swap1\n      sstore\n      pop\n        /* \"contracts/kamenzi.sol\":4279:4282  0x0 */\n      0x00\n        /* \"contracts/kamenzi.sol\":4252:4282  firstPlayerMoveEncrypted = 0x0 */\n      dup1\n      shl\n        /* \"contracts/kamenzi.sol\":4252:4276  firstPlayerMoveEncrypted */\n      0x05\n        /* \"contracts/kamenzi.sol\":4252:4282  firstPlayerMoveEncrypted = 0x0 */\n      dup2\n      swap1\n      sstore\n      pop\n        /* \"contracts/kamenzi.sol\":4320:4323  0x0 */\n      0x00\n        /* \"contracts/kamenzi.sol\":4292:4323  secondPlayerMoveEncrypted = 0x0 */\n      dup1\n      shl\n        /* \"contracts/kamenzi.sol\":4292:4317  secondPlayerMoveEncrypted */\n      0x06\n        /* \"contracts/kamenzi.sol\":4292:4323  secondPlayerMoveEncrypted = 0x0 */\n      dup2\n      swap1\n      sstore\n      pop\n        /* \"contracts/kamenzi.sol\":4352:4361  Move.None */\n      0x00\n        /* \"contracts/kamenzi.sol\":4334:4349  firstPlayerMove */\n      0x07\n      0x00\n        /* \"contracts/kamenzi.sol\":4334:4361  firstPlayerMove = Move.None */\n      0x0100\n      exp\n      dup2\n      sload\n      dup2\n      0xff\n      mul\n      not\n      and\n      swap1\n      dup4\n      0x03\n      dup2\n      gt\n      iszero\n      tag_74\n      jumpi\n      tag_75\n      tag_58\n      jump\t// in\n    tag_75:\n    tag_74:\n      mul\n      or\n      swap1\n      sstore\n      pop\n        /* \"contracts/kamenzi.sol\":4390:4399  Move.None */\n      0x00\n        /* \"contracts/kamenzi.sol\":4371:4387  secondPlayerMove */\n      0x07\n      0x01\n        /* \"contracts/kamenzi.sol\":4371:4399  secondPlayerMove = Move.None */\n      0x0100\n      exp\n      dup2\n      sload\n      dup2\n      0xff\n      mul\n      not\n      and\n      swap1\n      dup4\n      0x03\n      dup2\n      gt\n      iszero\n      tag_76\n      jumpi\n      tag_77\n      tag_58\n      jump\t// in\n    tag_77:\n    tag_76:\n      mul\n      or\n      swap1\n      sstore\n      pop\n        /* \"contracts/kamenzi.sol\":4410:4448  changeGamePhase(GamePhase.Preparation) */\n      tag_78\n        /* \"contracts/kamenzi.sol\":4426:4447  GamePhase.Preparation */\n      0x00\n        /* \"contracts/kamenzi.sol\":4410:4425  changeGamePhase */\n      tag_68\n        /* \"contracts/kamenzi.sol\":4410:4448  changeGamePhase(GamePhase.Preparation) */\n      jump\t// in\n    tag_78:\n        /* \"contracts/kamenzi.sol\":4056:4455  function restart() public ableToRestart{... */\n      jump\t// out\n        /* \"contracts/kamenzi.sol\":496:522  address public firstPlayer */\n    tag_25:\n      0x01\n      0x00\n      swap1\n      sload\n      swap1\n      0x0100\n      exp\n      swap1\n      div\n      0xffffffffffffffffffffffffffffffffffffffff\n      and\n      dup2\n      jump\t// out\n        /* \"contracts/kamenzi.sol\":717:744  Move public firstPlayerMove */\n    tag_28:\n      0x07\n      0x00\n      swap1\n      sload\n      swap1\n      0x0100\n      exp\n      swap1\n      div\n      0xff\n      and\n      dup2\n      jump\t// out\n        /* \"contracts/kamenzi.sol\":429:462  GamePhase public currentGamePhase */\n    tag_32:\n      0x00\n      dup1\n      sload\n      swap1\n      0x0100\n      exp\n      swap1\n      div\n      0xff\n      and\n      dup2\n      jump\t// out\n        /* \"contracts/kamenzi.sol\":2535:4050  function reveal(Move element, uint32 salt) public registered correctGamePhase(GamePhase.Reveal) returns (address){... */\n    tag_38:\n        /* \"contracts/kamenzi.sol\":2640:2647  address */\n      0x00\n        /* \"contracts/kamenzi.sol\":1048:1059  firstPlayer */\n      0x01\n      0x00\n      swap1\n      sload\n      swap1\n      0x0100\n      exp\n      swap1\n      div\n      0xffffffffffffffffffffffffffffffffffffffff\n      and\n        /* \"contracts/kamenzi.sol\":1034:1059  msg.sender == firstPlayer */\n      0xffffffffffffffffffffffffffffffffffffffff\n      and\n        /* \"contracts/kamenzi.sol\":1034:1044  msg.sender */\n      caller\n        /* \"contracts/kamenzi.sol\":1034:1059  msg.sender == firstPlayer */\n      0xffffffffffffffffffffffffffffffffffffffff\n      and\n      eq\n        /* \"contracts/kamenzi.sol\":1034:1089  msg.sender == firstPlayer || msg.sender == secondPlayer */\n      dup1\n      tag_80\n      jumpi\n      pop\n        /* \"contracts/kamenzi.sol\":1077:1089  secondPlayer */\n      0x02\n      0x00\n      swap1\n      sload\n      swap1\n      0x0100\n      exp\n      swap1\n      div\n      0xffffffffffffffffffffffffffffffffffffffff\n      and\n        /* \"contracts/kamenzi.sol\":1063:1089  msg.sender == secondPlayer */\n      0xffffffffffffffffffffffffffffffffffffffff\n      and\n        /* \"contracts/kamenzi.sol\":1063:1073  msg.sender */\n      caller\n        /* \"contracts/kamenzi.sol\":1063:1089  msg.sender == secondPlayer */\n      0xffffffffffffffffffffffffffffffffffffffff\n      and\n      eq\n        /* \"contracts/kamenzi.sol\":1034:1089  msg.sender == firstPlayer || msg.sender == secondPlayer */\n    tag_80:\n        /* \"contracts/kamenzi.sol\":1026:1090  require(msg.sender == firstPlayer || msg.sender == secondPlayer) */\n      tag_81\n      jumpi\n      0x00\n      dup1\n      revert\n    tag_81:\n        /* \"contracts/kamenzi.sol\":2613:2629  GamePhase.Reveal */\n      0x02\n        /* \"contracts/kamenzi.sol\":1195:1200  phase */\n      dup1\n        /* \"contracts/kamenzi.sol\":1175:1200  currentGamePhase == phase */\n      0x02\n      dup2\n      gt\n      iszero\n      tag_83\n      jumpi\n      tag_84\n      tag_58\n      jump\t// in\n    tag_84:\n    tag_83:\n        /* \"contracts/kamenzi.sol\":1175:1191  currentGamePhase */\n      0x00\n      dup1\n      sload\n      swap1\n      0x0100\n      exp\n      swap1\n      div\n      0xff\n      and\n        /* \"contracts/kamenzi.sol\":1175:1200  currentGamePhase == phase */\n      0x02\n      dup2\n      gt\n      iszero\n      tag_85\n      jumpi\n      tag_86\n      tag_58\n      jump\t// in\n    tag_86:\n    tag_85:\n      eq\n        /* \"contracts/kamenzi.sol\":1167:1201  require(currentGamePhase == phase) */\n      tag_87\n      jumpi\n      0x00\n      dup1\n      revert\n    tag_87:\n        /* \"contracts/kamenzi.sol\":2694:2697  0x0 */\n      0x00\n        /* \"contracts/kamenzi.sol\":2666:2697  firstPlayerMoveEncrypted != 0x0 */\n      dup1\n      shl\n        /* \"contracts/kamenzi.sol\":2666:2690  firstPlayerMoveEncrypted */\n      sload(0x05)\n        /* \"contracts/kamenzi.sol\":2666:2697  firstPlayerMoveEncrypted != 0x0 */\n      eq\n      iszero\n        /* \"contracts/kamenzi.sol\":2666:2733  firstPlayerMoveEncrypted != 0x0 && secondPlayerMoveEncrypted != 0x0 */\n      dup1\n      iszero\n      tag_89\n      jumpi\n      pop\n        /* \"contracts/kamenzi.sol\":2730:2733  0x0 */\n      0x00\n        /* \"contracts/kamenzi.sol\":2701:2733  secondPlayerMoveEncrypted != 0x0 */\n      dup1\n      shl\n        /* \"contracts/kamenzi.sol\":2701:2726  secondPlayerMoveEncrypted */\n      sload(0x06)\n        /* \"contracts/kamenzi.sol\":2701:2733  secondPlayerMoveEncrypted != 0x0 */\n      eq\n      iszero\n        /* \"contracts/kamenzi.sol\":2666:2733  firstPlayerMoveEncrypted != 0x0 && secondPlayerMoveEncrypted != 0x0 */\n    tag_89:\n        /* \"contracts/kamenzi.sol\":2658:2734  require(firstPlayerMoveEncrypted != 0x0 && secondPlayerMoveEncrypted != 0x0) */\n      tag_90\n      jumpi\n      0x00\n      dup1\n      revert\n    tag_90:\n        /* \"contracts/kamenzi.sol\":2745:2762  bytes32 encrypted */\n      0x00\n        /* \"contracts/kamenzi.sol\":2765:2856  sha256(bytes.concat(bytes(Strings.toString(uint(element))), bytes(Strings.toString(salt)))) */\n      0x02\n        /* \"contracts/kamenzi.sol\":2791:2822  Strings.toString(uint(element)) */\n      tag_91\n        /* \"contracts/kamenzi.sol\":2813:2820  element */\n      dup7\n        /* \"contracts/kamenzi.sol\":2808:2821  uint(element) */\n      0x03\n      dup2\n      gt\n      iszero\n      tag_92\n      jumpi\n      tag_93\n      tag_58\n      jump\t// in\n    tag_93:\n    tag_92:\n        /* \"contracts/kamenzi.sol\":2791:2807  Strings.toString */\n      tag_94\n        /* \"contracts/kamenzi.sol\":2791:2822  Strings.toString(uint(element)) */\n      jump\t// in\n    tag_91:\n        /* \"contracts/kamenzi.sol\":2831:2853  Strings.toString(salt) */\n      tag_95\n        /* \"contracts/kamenzi.sol\":2848:2852  salt */\n      dup7\n        /* \"contracts/kamenzi.sol\":2831:2853  Strings.toString(salt) */\n      0xffffffff\n      and\n        /* \"contracts/kamenzi.sol\":2831:2847  Strings.toString */\n      tag_94\n        /* \"contracts/kamenzi.sol\":2831:2853  Strings.toString(salt) */\n      jump\t// in\n    tag_95:\n        /* \"contracts/kamenzi.sol\":2772:2855  bytes.concat(bytes(Strings.toString(uint(element))), bytes(Strings.toString(salt))) */\n      add(0x20, mload(0x40))\n      tag_96\n      swap3\n      swap2\n      swap1\n      tag_97\n      jump\t// in\n    tag_96:\n      mload(0x40)\n      0x20\n      dup2\n      dup4\n      sub\n      sub\n      dup2\n      mstore\n      swap1\n      0x40\n      mstore\n        /* \"contracts/kamenzi.sol\":2765:2856  sha256(bytes.concat(bytes(Strings.toString(uint(element))), bytes(Strings.toString(salt)))) */\n      mload(0x40)\n      tag_98\n      swap2\n      swap1\n      tag_99\n      jump\t// in\n    tag_98:\n      0x20\n      mload(0x40)\n      dup1\n      dup4\n      sub\n      dup2\n      dup6\n      gas\n      staticcall\n      iszero\n      dup1\n      iszero\n      tag_101\n      jumpi\n      returndatasize\n      0x00\n      dup1\n      returndatacopy\n      revert(0x00, returndatasize)\n    tag_101:\n      pop\n      pop\n      pop\n      mload(0x40)\n      returndatasize\n      not(0x1f)\n      0x1f\n      dup3\n      add\n      and\n      dup3\n      add\n      dup1\n      0x40\n      mstore\n      pop\n      dup2\n      add\n      swap1\n      tag_102\n      swap2\n      swap1\n      tag_103\n      jump\t// in\n    tag_102:\n        /* \"contracts/kamenzi.sol\":2745:2856  bytes32 encrypted = sha256(bytes.concat(bytes(Strings.toString(uint(element))), bytes(Strings.toString(salt)))) */\n      swap1\n      pop\n        /* \"contracts/kamenzi.sol\":2882:2891  Move.None */\n      0x00\n        /* \"contracts/kamenzi.sol\":2871:2891  element == Move.None */\n      0x03\n      dup2\n      gt\n      iszero\n      tag_104\n      jumpi\n      tag_105\n      tag_58\n      jump\t// in\n    tag_105:\n    tag_104:\n        /* \"contracts/kamenzi.sol\":2871:2878  element */\n      dup6\n        /* \"contracts/kamenzi.sol\":2871:2891  element == Move.None */\n      0x03\n      dup2\n      gt\n      iszero\n      tag_106\n      jumpi\n      tag_107\n      tag_58\n      jump\t// in\n    tag_107:\n    tag_106:\n      eq\n        /* \"contracts/kamenzi.sol\":2867:2936  if (element == Move.None) {... */\n      iszero\n      tag_108\n      jumpi\n        /* \"contracts/kamenzi.sol\":2914:2925  nullAddress */\n      0x04\n      0x00\n      swap1\n      sload\n      swap1\n      0x0100\n      exp\n      swap1\n      div\n      0xffffffffffffffffffffffffffffffffffffffff\n      and\n        /* \"contracts/kamenzi.sol\":2907:2925  return nullAddress */\n      swap3\n      pop\n      pop\n      jump(tag_88)\n        /* \"contracts/kamenzi.sol\":2867:2936  if (element == Move.None) {... */\n    tag_108:\n        /* \"contracts/kamenzi.sol\":2964:2975  firstPlayer */\n      0x01\n      0x00\n      swap1\n      sload\n      swap1\n      0x0100\n      exp\n      swap1\n      div\n      0xffffffffffffffffffffffffffffffffffffffff\n      and\n        /* \"contracts/kamenzi.sol\":2950:2975  msg.sender == firstPlayer */\n      0xffffffffffffffffffffffffffffffffffffffff\n      and\n        /* \"contracts/kamenzi.sol\":2950:2960  msg.sender */\n      caller\n        /* \"contracts/kamenzi.sol\":2950:2975  msg.sender == firstPlayer */\n      0xffffffffffffffffffffffffffffffffffffffff\n      and\n      eq\n        /* \"contracts/kamenzi.sol\":2950:3016  msg.sender == firstPlayer && encrypted == firstPlayerMoveEncrypted */\n      dup1\n      iszero\n      tag_109\n      jumpi\n      pop\n        /* \"contracts/kamenzi.sol\":2992:3016  firstPlayerMoveEncrypted */\n      sload(0x05)\n        /* \"contracts/kamenzi.sol\":2979:2988  encrypted */\n      dup2\n        /* \"contracts/kamenzi.sol\":2979:3016  encrypted == firstPlayerMoveEncrypted */\n      eq\n        /* \"contracts/kamenzi.sol\":2950:3016  msg.sender == firstPlayer && encrypted == firstPlayerMoveEncrypted */\n    tag_109:\n        /* \"contracts/kamenzi.sol\":2946:3248  if (msg.sender == firstPlayer && encrypted == firstPlayerMoveEncrypted) {... */\n      iszero\n      tag_110\n      jumpi\n        /* \"contracts/kamenzi.sol\":3050:3057  element */\n      dup5\n        /* \"contracts/kamenzi.sol\":3032:3047  firstPlayerMove */\n      0x07\n      0x00\n        /* \"contracts/kamenzi.sol\":3032:3057  firstPlayerMove = element */\n      0x0100\n      exp\n      dup2\n      sload\n      dup2\n      0xff\n      mul\n      not\n      and\n      swap1\n      dup4\n      0x03\n      dup2\n      gt\n      iszero\n      tag_111\n      jumpi\n      tag_112\n      tag_58\n      jump\t// in\n    tag_112:\n    tag_111:\n      mul\n      or\n      swap1\n      sstore\n      pop\n        /* \"contracts/kamenzi.sol\":2946:3248  if (msg.sender == firstPlayer && encrypted == firstPlayerMoveEncrypted) {... */\n      jump(tag_113)\n    tag_110:\n        /* \"contracts/kamenzi.sol\":3092:3104  secondPlayer */\n      0x02\n      0x00\n      swap1\n      sload\n      swap1\n      0x0100\n      exp\n      swap1\n      div\n      0xffffffffffffffffffffffffffffffffffffffff\n      and\n        /* \"contracts/kamenzi.sol\":3078:3104  msg.sender == secondPlayer */\n      0xffffffffffffffffffffffffffffffffffffffff\n      and\n        /* \"contracts/kamenzi.sol\":3078:3088  msg.sender */\n      caller\n        /* \"contracts/kamenzi.sol\":3078:3104  msg.sender == secondPlayer */\n      0xffffffffffffffffffffffffffffffffffffffff\n      and\n      eq\n        /* \"contracts/kamenzi.sol\":3078:3146  msg.sender == secondPlayer && encrypted == secondPlayerMoveEncrypted */\n      dup1\n      iszero\n      tag_114\n      jumpi\n      pop\n        /* \"contracts/kamenzi.sol\":3121:3146  secondPlayerMoveEncrypted */\n      sload(0x06)\n        /* \"contracts/kamenzi.sol\":3108:3117  encrypted */\n      dup2\n        /* \"contracts/kamenzi.sol\":3108:3146  encrypted == secondPlayerMoveEncrypted */\n      eq\n        /* \"contracts/kamenzi.sol\":3078:3146  msg.sender == secondPlayer && encrypted == secondPlayerMoveEncrypted */\n    tag_114:\n        /* \"contracts/kamenzi.sol\":3074:3248  if (msg.sender == secondPlayer && encrypted == secondPlayerMoveEncrypted) {... */\n      iszero\n      tag_115\n      jumpi\n        /* \"contracts/kamenzi.sol\":3181:3188  element */\n      dup5\n        /* \"contracts/kamenzi.sol\":3162:3178  secondPlayerMove */\n      0x07\n      0x01\n        /* \"contracts/kamenzi.sol\":3162:3188  secondPlayerMove = element */\n      0x0100\n      exp\n      dup2\n      sload\n      dup2\n      0xff\n      mul\n      not\n      and\n      swap1\n      dup4\n      0x03\n      dup2\n      gt\n      iszero\n      tag_116\n      jumpi\n      tag_117\n      tag_58\n      jump\t// in\n    tag_117:\n    tag_116:\n      mul\n      or\n      swap1\n      sstore\n      pop\n        /* \"contracts/kamenzi.sol\":3074:3248  if (msg.sender == secondPlayer && encrypted == secondPlayerMoveEncrypted) {... */\n      jump(tag_118)\n    tag_115:\n        /* \"contracts/kamenzi.sol\":3226:3237  nullAddress */\n      0x04\n      0x00\n      swap1\n      sload\n      swap1\n      0x0100\n      exp\n      swap1\n      div\n      0xffffffffffffffffffffffffffffffffffffffff\n      and\n        /* \"contracts/kamenzi.sol\":3219:3237  return nullAddress */\n      swap3\n      pop\n      pop\n      jump(tag_88)\n        /* \"contracts/kamenzi.sol\":3074:3248  if (msg.sender == secondPlayer && encrypted == secondPlayerMoveEncrypted) {... */\n    tag_118:\n        /* \"contracts/kamenzi.sol\":2946:3248  if (msg.sender == firstPlayer && encrypted == firstPlayerMoveEncrypted) {... */\n    tag_113:\n        /* \"contracts/kamenzi.sol\":3281:3290  Move.None */\n      0x00\n        /* \"contracts/kamenzi.sol\":3262:3290  firstPlayerMove != Move.None */\n      0x03\n      dup2\n      gt\n      iszero\n      tag_119\n      jumpi\n      tag_120\n      tag_58\n      jump\t// in\n    tag_120:\n    tag_119:\n        /* \"contracts/kamenzi.sol\":3262:3277  firstPlayerMove */\n      0x07\n      0x00\n      swap1\n      sload\n      swap1\n      0x0100\n      exp\n      swap1\n      div\n      0xff\n      and\n        /* \"contracts/kamenzi.sol\":3262:3290  firstPlayerMove != Move.None */\n      0x03\n      dup2\n      gt\n      iszero\n      tag_121\n      jumpi\n      tag_122\n      tag_58\n      jump\t// in\n    tag_122:\n    tag_121:\n      eq\n      iszero\n        /* \"contracts/kamenzi.sol\":3262:3323  firstPlayerMove != Move.None || secondPlayerMove != Move.None */\n      dup1\n      tag_123\n      jumpi\n      pop\n        /* \"contracts/kamenzi.sol\":3314:3323  Move.None */\n      0x00\n        /* \"contracts/kamenzi.sol\":3294:3323  secondPlayerMove != Move.None */\n      0x03\n      dup2\n      gt\n      iszero\n      tag_124\n      jumpi\n      tag_125\n      tag_58\n      jump\t// in\n    tag_125:\n    tag_124:\n        /* \"contracts/kamenzi.sol\":3294:3310  secondPlayerMove */\n      0x07\n      0x01\n      swap1\n      sload\n      swap1\n      0x0100\n      exp\n      swap1\n      div\n      0xff\n      and\n        /* \"contracts/kamenzi.sol\":3294:3323  secondPlayerMove != Move.None */\n      0x03\n      dup2\n      gt\n      iszero\n      tag_126\n      jumpi\n      tag_127\n      tag_58\n      jump\t// in\n    tag_127:\n    tag_126:\n      eq\n      iszero\n        /* \"contracts/kamenzi.sol\":3262:3323  firstPlayerMove != Move.None || secondPlayerMove != Move.None */\n    tag_123:\n        /* \"contracts/kamenzi.sol\":3258:3985  if (firstPlayerMove != Move.None || secondPlayerMove != Move.None) {... */\n      iszero\n      tag_128\n      jumpi\n        /* \"contracts/kamenzi.sol\":3362:3378  secondPlayerMove */\n      0x07\n      0x01\n      swap1\n      sload\n      swap1\n      0x0100\n      exp\n      swap1\n      div\n      0xff\n      and\n        /* \"contracts/kamenzi.sol\":3343:3378  firstPlayerMove == secondPlayerMove */\n      0x03\n      dup2\n      gt\n      iszero\n      tag_129\n      jumpi\n      tag_130\n      tag_58\n      jump\t// in\n    tag_130:\n    tag_129:\n        /* \"contracts/kamenzi.sol\":3343:3358  firstPlayerMove */\n      0x07\n      0x00\n      swap1\n      sload\n      swap1\n      0x0100\n      exp\n      swap1\n      div\n      0xff\n      and\n        /* \"contracts/kamenzi.sol\":3343:3378  firstPlayerMove == secondPlayerMove */\n      0x03\n      dup2\n      gt\n      iszero\n      tag_131\n      jumpi\n      tag_132\n      tag_58\n      jump\t// in\n    tag_132:\n    tag_131:\n      eq\n        /* \"contracts/kamenzi.sol\":3339:3924  if (firstPlayerMove == secondPlayerMove) {... */\n      iszero\n      tag_133\n      jumpi\n        /* \"contracts/kamenzi.sol\":3407:3418  nullAddress */\n      0x04\n      0x00\n      swap1\n      sload\n      swap1\n      0x0100\n      exp\n      swap1\n      div\n      0xffffffffffffffffffffffffffffffffffffffff\n      and\n        /* \"contracts/kamenzi.sol\":3398:3404  winner */\n      0x00\n      0x01\n        /* \"contracts/kamenzi.sol\":3398:3418  winner = nullAddress */\n      0x0100\n      exp\n      dup2\n      sload\n      dup2\n      0xffffffffffffffffffffffffffffffffffffffff\n      mul\n      not\n      and\n      swap1\n      dup4\n      0xffffffffffffffffffffffffffffffffffffffff\n      and\n      mul\n      or\n      swap1\n      sstore\n      pop\n        /* \"contracts/kamenzi.sol\":3339:3924  if (firstPlayerMove == secondPlayerMove) {... */\n      jump(tag_134)\n    tag_133:\n        /* \"contracts/kamenzi.sol\":3492:3505  Move.Scissors */\n      0x02\n        /* \"contracts/kamenzi.sol\":3473:3505  firstPlayerMove == Move.Scissors */\n      0x03\n      dup2\n      gt\n      iszero\n      tag_135\n      jumpi\n      tag_136\n      tag_58\n      jump\t// in\n    tag_136:\n    tag_135:\n        /* \"contracts/kamenzi.sol\":3473:3488  firstPlayerMove */\n      0x07\n      0x00\n      swap1\n      sload\n      swap1\n      0x0100\n      exp\n      swap1\n      div\n      0xff\n      and\n        /* \"contracts/kamenzi.sol\":3473:3505  firstPlayerMove == Move.Scissors */\n      0x03\n      dup2\n      gt\n      iszero\n      tag_137\n      jumpi\n      tag_138\n      tag_58\n      jump\t// in\n    tag_138:\n    tag_137:\n      eq\n        /* \"contracts/kamenzi.sol\":3473:3539  firstPlayerMove == Move.Scissors && secondPlayerMove == Move.Paper */\n      dup1\n      iszero\n      tag_139\n      jumpi\n      pop\n        /* \"contracts/kamenzi.sol\":3529:3539  Move.Paper */\n      0x03\n        /* \"contracts/kamenzi.sol\":3509:3539  secondPlayerMove == Move.Paper */\n      dup1\n      dup2\n      gt\n      iszero\n      tag_140\n      jumpi\n      tag_141\n      tag_58\n      jump\t// in\n    tag_141:\n    tag_140:\n        /* \"contracts/kamenzi.sol\":3509:3525  secondPlayerMove */\n      0x07\n      0x01\n      swap1\n      sload\n      swap1\n      0x0100\n      exp\n      swap1\n      div\n      0xff\n      and\n        /* \"contracts/kamenzi.sol\":3509:3539  secondPlayerMove == Move.Paper */\n      0x03\n      dup2\n      gt\n      iszero\n      tag_142\n      jumpi\n      tag_143\n      tag_58\n      jump\t// in\n    tag_143:\n    tag_142:\n      eq\n        /* \"contracts/kamenzi.sol\":3473:3539  firstPlayerMove == Move.Scissors && secondPlayerMove == Move.Paper */\n    tag_139:\n        /* \"contracts/kamenzi.sol\":3472:3625  (firstPlayerMove == Move.Scissors && secondPlayerMove == Move.Paper) || ... */\n      dup1\n      tag_144\n      jumpi\n      pop\n        /* \"contracts/kamenzi.sol\":3581:3591  Move.Paper */\n      0x03\n        /* \"contracts/kamenzi.sol\":3562:3591  firstPlayerMove == Move.Paper */\n      dup1\n      dup2\n      gt\n      iszero\n      tag_145\n      jumpi\n      tag_146\n      tag_58\n      jump\t// in\n    tag_146:\n    tag_145:\n        /* \"contracts/kamenzi.sol\":3562:3577  firstPlayerMove */\n      0x07\n      0x00\n      swap1\n      sload\n      swap1\n      0x0100\n      exp\n      swap1\n      div\n      0xff\n      and\n        /* \"contracts/kamenzi.sol\":3562:3591  firstPlayerMove == Move.Paper */\n      0x03\n      dup2\n      gt\n      iszero\n      tag_147\n      jumpi\n      tag_148\n      tag_58\n      jump\t// in\n    tag_148:\n    tag_147:\n      eq\n        /* \"contracts/kamenzi.sol\":3562:3624  firstPlayerMove == Move.Paper && secondPlayerMove == Move.Rock */\n      dup1\n      iszero\n      tag_149\n      jumpi\n      pop\n        /* \"contracts/kamenzi.sol\":3615:3624  Move.Rock */\n      0x01\n        /* \"contracts/kamenzi.sol\":3595:3624  secondPlayerMove == Move.Rock */\n      0x03\n      dup2\n      gt\n      iszero\n      tag_150\n      jumpi\n      tag_151\n      tag_58\n      jump\t// in\n    tag_151:\n    tag_150:\n        /* \"contracts/kamenzi.sol\":3595:3611  secondPlayerMove */\n      0x07\n      0x01\n      swap1\n      sload\n      swap1\n      0x0100\n      exp\n      swap1\n      div\n      0xff\n      and\n        /* \"contracts/kamenzi.sol\":3595:3624  secondPlayerMove == Move.Rock */\n      0x03\n      dup2\n      gt\n      iszero\n      tag_152\n      jumpi\n      tag_153\n      tag_58\n      jump\t// in\n    tag_153:\n    tag_152:\n      eq\n        /* \"contracts/kamenzi.sol\":3562:3624  firstPlayerMove == Move.Paper && secondPlayerMove == Move.Rock */\n    tag_149:\n        /* \"contracts/kamenzi.sol\":3472:3625  (firstPlayerMove == Move.Scissors && secondPlayerMove == Move.Paper) || ... */\n    tag_144:\n        /* \"contracts/kamenzi.sol\":3472:3713  (firstPlayerMove == Move.Scissors && secondPlayerMove == Move.Paper) || ... */\n      dup1\n      tag_154\n      jumpi\n      pop\n        /* \"contracts/kamenzi.sol\":3666:3675  Move.Rock */\n      0x01\n        /* \"contracts/kamenzi.sol\":3647:3675  firstPlayerMove == Move.Rock */\n      0x03\n      dup2\n      gt\n      iszero\n      tag_155\n      jumpi\n      tag_156\n      tag_58\n      jump\t// in\n    tag_156:\n    tag_155:\n        /* \"contracts/kamenzi.sol\":3647:3662  firstPlayerMove */\n      0x07\n      0x00\n      swap1\n      sload\n      swap1\n      0x0100\n      exp\n      swap1\n      div\n      0xff\n      and\n        /* \"contracts/kamenzi.sol\":3647:3675  firstPlayerMove == Move.Rock */\n      0x03\n      dup2\n      gt\n      iszero\n      tag_157\n      jumpi\n      tag_158\n      tag_58\n      jump\t// in\n    tag_158:\n    tag_157:\n      eq\n        /* \"contracts/kamenzi.sol\":3647:3712  firstPlayerMove == Move.Rock && secondPlayerMove == Move.Scissors */\n      dup1\n      iszero\n      tag_159\n      jumpi\n      pop\n        /* \"contracts/kamenzi.sol\":3699:3712  Move.Scissors */\n      0x02\n        /* \"contracts/kamenzi.sol\":3679:3712  secondPlayerMove == Move.Scissors */\n      0x03\n      dup2\n      gt\n      iszero\n      tag_160\n      jumpi\n      tag_161\n      tag_58\n      jump\t// in\n    tag_161:\n    tag_160:\n        /* \"contracts/kamenzi.sol\":3679:3695  secondPlayerMove */\n      0x07\n      0x01\n      swap1\n      sload\n      swap1\n      0x0100\n      exp\n      swap1\n      div\n      0xff\n      and\n        /* \"contracts/kamenzi.sol\":3679:3712  secondPlayerMove == Move.Scissors */\n      0x03\n      dup2\n      gt\n      iszero\n      tag_162\n      jumpi\n      tag_163\n      tag_58\n      jump\t// in\n    tag_163:\n    tag_162:\n      eq\n        /* \"contracts/kamenzi.sol\":3647:3712  firstPlayerMove == Move.Rock && secondPlayerMove == Move.Scissors */\n    tag_159:\n        /* \"contracts/kamenzi.sol\":3472:3713  (firstPlayerMove == Move.Scissors && secondPlayerMove == Move.Paper) || ... */\n    tag_154:\n        /* \"contracts/kamenzi.sol\":3472:3797  (firstPlayerMove == Move.Scissors && secondPlayerMove == Move.Paper) || ... */\n      dup1\n      tag_164\n      jumpi\n      pop\n        /* \"contracts/kamenzi.sol\":3754:3763  Move.None */\n      0x00\n        /* \"contracts/kamenzi.sol\":3735:3763  firstPlayerMove != Move.None */\n      0x03\n      dup2\n      gt\n      iszero\n      tag_165\n      jumpi\n      tag_166\n      tag_58\n      jump\t// in\n    tag_166:\n    tag_165:\n        /* \"contracts/kamenzi.sol\":3735:3750  firstPlayerMove */\n      0x07\n      0x00\n      swap1\n      sload\n      swap1\n      0x0100\n      exp\n      swap1\n      div\n      0xff\n      and\n        /* \"contracts/kamenzi.sol\":3735:3763  firstPlayerMove != Move.None */\n      0x03\n      dup2\n      gt\n      iszero\n      tag_167\n      jumpi\n      tag_168\n      tag_58\n      jump\t// in\n    tag_168:\n    tag_167:\n      eq\n      iszero\n        /* \"contracts/kamenzi.sol\":3735:3796  firstPlayerMove != Move.None && secondPlayerMove == Move.None */\n      dup1\n      iszero\n      tag_169\n      jumpi\n      pop\n        /* \"contracts/kamenzi.sol\":3787:3796  Move.None */\n      0x00\n        /* \"contracts/kamenzi.sol\":3767:3796  secondPlayerMove == Move.None */\n      0x03\n      dup2\n      gt\n      iszero\n      tag_170\n      jumpi\n      tag_171\n      tag_58\n      jump\t// in\n    tag_171:\n    tag_170:\n        /* \"contracts/kamenzi.sol\":3767:3783  secondPlayerMove */\n      0x07\n      0x01\n      swap1\n      sload\n      swap1\n      0x0100\n      exp\n      swap1\n      div\n      0xff\n      and\n        /* \"contracts/kamenzi.sol\":3767:3796  secondPlayerMove == Move.None */\n      0x03\n      dup2\n      gt\n      iszero\n      tag_172\n      jumpi\n      tag_173\n      tag_58\n      jump\t// in\n    tag_173:\n    tag_172:\n      eq\n        /* \"contracts/kamenzi.sol\":3735:3796  firstPlayerMove != Move.None && secondPlayerMove == Move.None */\n    tag_169:\n        /* \"contracts/kamenzi.sol\":3472:3797  (firstPlayerMove == Move.Scissors && secondPlayerMove == Move.Paper) || ... */\n    tag_164:\n        /* \"contracts/kamenzi.sol\":3451:3924  if (... */\n      iszero\n      tag_174\n      jumpi\n        /* \"contracts/kamenzi.sol\":3826:3837  firstPlayer */\n      0x01\n      0x00\n      swap1\n      sload\n      swap1\n      0x0100\n      exp\n      swap1\n      div\n      0xffffffffffffffffffffffffffffffffffffffff\n      and\n        /* \"contracts/kamenzi.sol\":3817:3823  winner */\n      0x00\n      0x01\n        /* \"contracts/kamenzi.sol\":3817:3837  winner = firstPlayer */\n      0x0100\n      exp\n      dup2\n      sload\n      dup2\n      0xffffffffffffffffffffffffffffffffffffffff\n      mul\n      not\n      and\n      swap1\n      dup4\n      0xffffffffffffffffffffffffffffffffffffffff\n      and\n      mul\n      or\n      swap1\n      sstore\n      pop\n        /* \"contracts/kamenzi.sol\":3451:3924  if (... */\n      jump(tag_175)\n    tag_174:\n        /* \"contracts/kamenzi.sol\":3897:3909  secondPlayer */\n      0x02\n      0x00\n      swap1\n      sload\n      swap1\n      0x0100\n      exp\n      swap1\n      div\n      0xffffffffffffffffffffffffffffffffffffffff\n      and\n        /* \"contracts/kamenzi.sol\":3888:3894  winner */\n      0x00\n      0x01\n        /* \"contracts/kamenzi.sol\":3888:3909  winner = secondPlayer */\n      0x0100\n      exp\n      dup2\n      sload\n      dup2\n      0xffffffffffffffffffffffffffffffffffffffff\n      mul\n      not\n      and\n      swap1\n      dup4\n      0xffffffffffffffffffffffffffffffffffffffff\n      and\n      mul\n      or\n      swap1\n      sstore\n      pop\n        /* \"contracts/kamenzi.sol\":3451:3924  if (... */\n    tag_175:\n        /* \"contracts/kamenzi.sol\":3339:3924  if (firstPlayerMove == secondPlayerMove) {... */\n    tag_134:\n        /* \"contracts/kamenzi.sol\":3258:3985  if (firstPlayerMove != Move.None || secondPlayerMove != Move.None) {... */\n      jump(tag_176)\n    tag_128:\n        /* \"contracts/kamenzi.sol\":3963:3974  nullAddress */\n      0x04\n      0x00\n      swap1\n      sload\n      swap1\n      0x0100\n      exp\n      swap1\n      div\n      0xffffffffffffffffffffffffffffffffffffffff\n      and\n        /* \"contracts/kamenzi.sol\":3954:3960  winner */\n      0x00\n      0x01\n        /* \"contracts/kamenzi.sol\":3954:3974  winner = nullAddress */\n      0x0100\n      exp\n      dup2\n      sload\n      dup2\n      0xffffffffffffffffffffffffffffffffffffffff\n      mul\n      not\n      and\n      swap1\n      dup4\n      0xffffffffffffffffffffffffffffffffffffffff\n      and\n      mul\n      or\n      swap1\n      sstore\n      pop\n        /* \"contracts/kamenzi.sol\":3258:3985  if (firstPlayerMove != Move.None || secondPlayerMove != Move.None) {... */\n    tag_176:\n        /* \"contracts/kamenzi.sol\":4000:4020  GameFinished(winner) */\n      0x1728dd43546edd06fabfe796e5b641a151aa90998bfd1b1ec0ae98c6e7708459\n        /* \"contracts/kamenzi.sol\":4013:4019  winner */\n      0x00\n      0x01\n      swap1\n      sload\n      swap1\n      0x0100\n      exp\n      swap1\n      div\n      0xffffffffffffffffffffffffffffffffffffffff\n      and\n        /* \"contracts/kamenzi.sol\":4000:4020  GameFinished(winner) */\n      mload(0x40)\n      tag_177\n      swap2\n      swap1\n      tag_21\n      jump\t// in\n    tag_177:\n      mload(0x40)\n      dup1\n      swap2\n      sub\n      swap1\n      log1\n        /* \"contracts/kamenzi.sol\":4037:4043  winner */\n      0x00\n      0x01\n      swap1\n      sload\n      swap1\n      0x0100\n      exp\n      swap1\n      div\n      0xffffffffffffffffffffffffffffffffffffffff\n      and\n        /* \"contracts/kamenzi.sol\":4030:4043  return winner */\n      swap3\n      pop\n      pop\n        /* \"contracts/kamenzi.sol\":1211:1212  _ */\n    tag_88:\n        /* \"contracts/kamenzi.sol\":1100:1101  _ */\n      pop\n        /* \"contracts/kamenzi.sol\":2535:4050  function reveal(Move element, uint32 salt) public registered correctGamePhase(GamePhase.Reveal) returns (address){... */\n      swap3\n      swap2\n      pop\n      pop\n      jump\t// out\n        /* \"contracts/kamenzi.sol\":1908:2529  function move(bytes32 move) public registered correctGamePhase(GamePhase.Commit) returns (bool) {... */\n    tag_43:\n        /* \"contracts/kamenzi.sol\":1998:2002  bool */\n      0x00\n        /* \"contracts/kamenzi.sol\":1048:1059  firstPlayer */\n      0x01\n      0x00\n      swap1\n      sload\n      swap1\n      0x0100\n      exp\n      swap1\n      div\n      0xffffffffffffffffffffffffffffffffffffffff\n      and\n        /* \"contracts/kamenzi.sol\":1034:1059  msg.sender == firstPlayer */\n      0xffffffffffffffffffffffffffffffffffffffff\n      and\n        /* \"contracts/kamenzi.sol\":1034:1044  msg.sender */\n      caller\n        /* \"contracts/kamenzi.sol\":1034:1059  msg.sender == firstPlayer */\n      0xffffffffffffffffffffffffffffffffffffffff\n      and\n      eq\n        /* \"contracts/kamenzi.sol\":1034:1089  msg.sender == firstPlayer || msg.sender == secondPlayer */\n      dup1\n      tag_179\n      jumpi\n      pop\n        /* \"contracts/kamenzi.sol\":1077:1089  secondPlayer */\n      0x02\n      0x00\n      swap1\n      sload\n      swap1\n      0x0100\n      exp\n      swap1\n      div\n      0xffffffffffffffffffffffffffffffffffffffff\n      and\n        /* \"contracts/kamenzi.sol\":1063:1089  msg.sender == secondPlayer */\n      0xffffffffffffffffffffffffffffffffffffffff\n      and\n        /* \"contracts/kamenzi.sol\":1063:1073  msg.sender */\n      caller\n        /* \"contracts/kamenzi.sol\":1063:1089  msg.sender == secondPlayer */\n      0xffffffffffffffffffffffffffffffffffffffff\n      and\n      eq\n        /* \"contracts/kamenzi.sol\":1034:1089  msg.sender == firstPlayer || msg.sender == secondPlayer */\n    tag_179:\n        /* \"contracts/kamenzi.sol\":1026:1090  require(msg.sender == firstPlayer || msg.sender == secondPlayer) */\n      tag_180\n      jumpi\n      0x00\n      dup1\n      revert\n    tag_180:\n        /* \"contracts/kamenzi.sol\":1971:1987  GamePhase.Commit */\n      0x01\n        /* \"contracts/kamenzi.sol\":1195:1200  phase */\n      dup1\n        /* \"contracts/kamenzi.sol\":1175:1200  currentGamePhase == phase */\n      0x02\n      dup2\n      gt\n      iszero\n      tag_182\n      jumpi\n      tag_183\n      tag_58\n      jump\t// in\n    tag_183:\n    tag_182:\n        /* \"contracts/kamenzi.sol\":1175:1191  currentGamePhase */\n      0x00\n      dup1\n      sload\n      swap1\n      0x0100\n      exp\n      swap1\n      div\n      0xff\n      and\n        /* \"contracts/kamenzi.sol\":1175:1200  currentGamePhase == phase */\n      0x02\n      dup2\n      gt\n      iszero\n      tag_184\n      jumpi\n      tag_185\n      tag_58\n      jump\t// in\n    tag_185:\n    tag_184:\n      eq\n        /* \"contracts/kamenzi.sol\":1167:1201  require(currentGamePhase == phase) */\n      tag_186\n      jumpi\n      0x00\n      dup1\n      revert\n    tag_186:\n        /* \"contracts/kamenzi.sol\":2014:2025  bool result */\n      0x00\n        /* \"contracts/kamenzi.sol\":2061:2072  firstPlayer */\n      0x01\n      0x00\n      swap1\n      sload\n      swap1\n      0x0100\n      exp\n      swap1\n      div\n      0xffffffffffffffffffffffffffffffffffffffff\n      and\n        /* \"contracts/kamenzi.sol\":2047:2072  msg.sender == firstPlayer */\n      0xffffffffffffffffffffffffffffffffffffffff\n      and\n        /* \"contracts/kamenzi.sol\":2047:2057  msg.sender */\n      caller\n        /* \"contracts/kamenzi.sol\":2047:2072  msg.sender == firstPlayer */\n      0xffffffffffffffffffffffffffffffffffffffff\n      and\n      eq\n        /* \"contracts/kamenzi.sol\":2047:2107  msg.sender == firstPlayer && firstPlayerMoveEncrypted == 0x0 */\n      dup1\n      iszero\n      tag_188\n      jumpi\n      pop\n        /* \"contracts/kamenzi.sol\":2104:2107  0x0 */\n      0x00\n        /* \"contracts/kamenzi.sol\":2076:2107  firstPlayerMoveEncrypted == 0x0 */\n      dup1\n      shl\n        /* \"contracts/kamenzi.sol\":2076:2100  firstPlayerMoveEncrypted */\n      sload(0x05)\n        /* \"contracts/kamenzi.sol\":2076:2107  firstPlayerMoveEncrypted == 0x0 */\n      eq\n        /* \"contracts/kamenzi.sol\":2047:2107  msg.sender == firstPlayer && firstPlayerMoveEncrypted == 0x0 */\n    tag_188:\n        /* \"contracts/kamenzi.sol\":2043:2350  if (msg.sender == firstPlayer && firstPlayerMoveEncrypted == 0x0) {... */\n      iszero\n      tag_189\n      jumpi\n        /* \"contracts/kamenzi.sol\":2150:2154  move */\n      dup4\n        /* \"contracts/kamenzi.sol\":2123:2147  firstPlayerMoveEncrypted */\n      0x05\n        /* \"contracts/kamenzi.sol\":2123:2154  firstPlayerMoveEncrypted = move */\n      dup2\n      swap1\n      sstore\n      pop\n        /* \"contracts/kamenzi.sol\":2177:2181  true */\n      0x01\n        /* \"contracts/kamenzi.sol\":2168:2181  result = true */\n      swap1\n      pop\n        /* \"contracts/kamenzi.sol\":2043:2350  if (msg.sender == firstPlayer && firstPlayerMoveEncrypted == 0x0) {... */\n      jump(tag_190)\n    tag_189:\n        /* \"contracts/kamenzi.sol\":2216:2228  secondPlayer */\n      0x02\n      0x00\n      swap1\n      sload\n      swap1\n      0x0100\n      exp\n      swap1\n      div\n      0xffffffffffffffffffffffffffffffffffffffff\n      and\n        /* \"contracts/kamenzi.sol\":2202:2228  msg.sender == secondPlayer */\n      0xffffffffffffffffffffffffffffffffffffffff\n      and\n        /* \"contracts/kamenzi.sol\":2202:2212  msg.sender */\n      caller\n        /* \"contracts/kamenzi.sol\":2202:2228  msg.sender == secondPlayer */\n      0xffffffffffffffffffffffffffffffffffffffff\n      and\n      eq\n        /* \"contracts/kamenzi.sol\":2202:2264  msg.sender == secondPlayer && secondPlayerMoveEncrypted == 0x0 */\n      dup1\n      iszero\n      tag_191\n      jumpi\n      pop\n        /* \"contracts/kamenzi.sol\":2261:2264  0x0 */\n      0x00\n        /* \"contracts/kamenzi.sol\":2232:2264  secondPlayerMoveEncrypted == 0x0 */\n      dup1\n      shl\n        /* \"contracts/kamenzi.sol\":2232:2257  secondPlayerMoveEncrypted */\n      sload(0x06)\n        /* \"contracts/kamenzi.sol\":2232:2264  secondPlayerMoveEncrypted == 0x0 */\n      eq\n        /* \"contracts/kamenzi.sol\":2202:2264  msg.sender == secondPlayer && secondPlayerMoveEncrypted == 0x0 */\n    tag_191:\n        /* \"contracts/kamenzi.sol\":2198:2350  if (msg.sender == secondPlayer && secondPlayerMoveEncrypted == 0x0) {... */\n      iszero\n      tag_192\n      jumpi\n        /* \"contracts/kamenzi.sol\":2308:2312  move */\n      dup4\n        /* \"contracts/kamenzi.sol\":2280:2305  secondPlayerMoveEncrypted */\n      0x06\n        /* \"contracts/kamenzi.sol\":2280:2312  secondPlayerMoveEncrypted = move */\n      dup2\n      swap1\n      sstore\n      pop\n        /* \"contracts/kamenzi.sol\":2335:2339  true */\n      0x01\n        /* \"contracts/kamenzi.sol\":2326:2339  result = true */\n      swap1\n      pop\n        /* \"contracts/kamenzi.sol\":2198:2350  if (msg.sender == secondPlayer && secondPlayerMoveEncrypted == 0x0) {... */\n    tag_192:\n        /* \"contracts/kamenzi.sol\":2043:2350  if (msg.sender == firstPlayer && firstPlayerMoveEncrypted == 0x0) {... */\n    tag_190:\n        /* \"contracts/kamenzi.sol\":2400:2403  0x0 */\n      0x00\n        /* \"contracts/kamenzi.sol\":2372:2403  firstPlayerMoveEncrypted != 0x0 */\n      dup1\n      shl\n        /* \"contracts/kamenzi.sol\":2372:2396  firstPlayerMoveEncrypted */\n      sload(0x05)\n        /* \"contracts/kamenzi.sol\":2372:2403  firstPlayerMoveEncrypted != 0x0 */\n      eq\n      iszero\n        /* \"contracts/kamenzi.sol\":2372:2439  firstPlayerMoveEncrypted != 0x0 && secondPlayerMoveEncrypted != 0x0 */\n      dup1\n      iszero\n      tag_193\n      jumpi\n      pop\n        /* \"contracts/kamenzi.sol\":2436:2439  0x0 */\n      0x00\n        /* \"contracts/kamenzi.sol\":2407:2439  secondPlayerMoveEncrypted != 0x0 */\n      dup1\n      shl\n        /* \"contracts/kamenzi.sol\":2407:2432  secondPlayerMoveEncrypted */\n      sload(0x06)\n        /* \"contracts/kamenzi.sol\":2407:2439  secondPlayerMoveEncrypted != 0x0 */\n      eq\n      iszero\n        /* \"contracts/kamenzi.sol\":2372:2439  firstPlayerMoveEncrypted != 0x0 && secondPlayerMoveEncrypted != 0x0 */\n    tag_193:\n        /* \"contracts/kamenzi.sol\":2368:2499  if (firstPlayerMoveEncrypted != 0x0 && secondPlayerMoveEncrypted != 0x0) {... */\n      iszero\n      tag_194\n      jumpi\n        /* \"contracts/kamenzi.sol\":2455:2488  changeGamePhase(GamePhase.Reveal) */\n      tag_195\n        /* \"contracts/kamenzi.sol\":2471:2487  GamePhase.Reveal */\n      0x02\n        /* \"contracts/kamenzi.sol\":2455:2470  changeGamePhase */\n      tag_68\n        /* \"contracts/kamenzi.sol\":2455:2488  changeGamePhase(GamePhase.Reveal) */\n      jump\t// in\n    tag_195:\n        /* \"contracts/kamenzi.sol\":2368:2499  if (firstPlayerMoveEncrypted != 0x0 && secondPlayerMoveEncrypted != 0x0) {... */\n    tag_194:\n        /* \"contracts/kamenzi.sol\":2516:2522  result */\n      dup1\n        /* \"contracts/kamenzi.sol\":2509:2522  return result */\n      swap3\n      pop\n      pop\n        /* \"contracts/kamenzi.sol\":1100:1101  _ */\n      pop\n        /* \"contracts/kamenzi.sol\":1908:2529  function move(bytes32 move) public registered correctGamePhase(GamePhase.Commit) returns (bool) {... */\n      swap2\n      swap1\n      pop\n      jump\t// out\n        /* \"contracts/kamenzi.sol\":750:778  Move public secondPlayerMove */\n    tag_47:\n      0x07\n      0x01\n      swap1\n      sload\n      swap1\n      0x0100\n      exp\n      swap1\n      div\n      0xff\n      and\n      dup2\n      jump\t// out\n        /* \"contracts/kamenzi.sol\":469:490  address public winner */\n    tag_50:\n      0x00\n      0x01\n      swap1\n      sload\n      swap1\n      0x0100\n      exp\n      swap1\n      div\n      0xffffffffffffffffffffffffffffffffffffffff\n      and\n      dup2\n      jump\t// out\n        /* \"contracts/kamenzi.sol\":4461:4601  function changeGamePhase(GamePhase phase) private {... */\n    tag_68:\n        /* \"contracts/kamenzi.sol\":4540:4545  phase */\n      dup1\n        /* \"contracts/kamenzi.sol\":4521:4537  currentGamePhase */\n      0x00\n      dup1\n        /* \"contracts/kamenzi.sol\":4521:4545  currentGamePhase = phase */\n      0x0100\n      exp\n      dup2\n      sload\n      dup2\n      0xff\n      mul\n      not\n      and\n      swap1\n      dup4\n      0x02\n      dup2\n      gt\n      iszero\n      tag_197\n      jumpi\n      tag_198\n      tag_58\n      jump\t// in\n    tag_198:\n    tag_197:\n      mul\n      or\n      swap1\n      sstore\n      pop\n        /* \"contracts/kamenzi.sol\":4560:4594  GamePhaseChanged(currentGamePhase) */\n      0x5fe57a6009d2ae51447def0790762f4e928888c72f5f8ef4abed68599519a833\n        /* \"contracts/kamenzi.sol\":4577:4593  currentGamePhase */\n      0x00\n      dup1\n      sload\n      swap1\n      0x0100\n      exp\n      swap1\n      div\n      0xff\n      and\n        /* \"contracts/kamenzi.sol\":4560:4594  GamePhaseChanged(currentGamePhase) */\n      mload(0x40)\n      tag_199\n      swap2\n      swap1\n      tag_34\n      jump\t// in\n    tag_199:\n      mload(0x40)\n      dup1\n      swap2\n      sub\n      swap1\n      log1\n        /* \"contracts/kamenzi.sol\":4461:4601  function changeGamePhase(GamePhase phase) private {... */\n      pop\n      jump\t// out\n        /* \"@openzeppelin/contracts/utils/Strings.sol\":392:1095  function toString(uint256 value) internal pure returns (string memory) {... */\n    tag_94:\n        /* \"@openzeppelin/contracts/utils/Strings.sol\":448:461  string memory */\n      0x60\n        /* \"@openzeppelin/contracts/utils/Strings.sol\":674:675  0 */\n      0x00\n        /* \"@openzeppelin/contracts/utils/Strings.sol\":665:670  value */\n      dup3\n        /* \"@openzeppelin/contracts/utils/Strings.sol\":665:675  value == 0 */\n      eq\n        /* \"@openzeppelin/contracts/utils/Strings.sol\":661:712  if (value == 0) {... */\n      iszero\n      tag_201\n      jumpi\n        /* \"@openzeppelin/contracts/utils/Strings.sol\":691:701  return \"0\" */\n      mload(0x40)\n      dup1\n      0x40\n      add\n      0x40\n      mstore\n      dup1\n      0x01\n      dup2\n      mstore\n      0x20\n      add\n      0x3000000000000000000000000000000000000000000000000000000000000000\n      dup2\n      mstore\n      pop\n      swap1\n      pop\n      jump(tag_200)\n        /* \"@openzeppelin/contracts/utils/Strings.sol\":661:712  if (value == 0) {... */\n    tag_201:\n        /* \"@openzeppelin/contracts/utils/Strings.sol\":721:733  uint256 temp */\n      0x00\n        /* \"@openzeppelin/contracts/utils/Strings.sol\":736:741  value */\n      dup3\n        /* \"@openzeppelin/contracts/utils/Strings.sol\":721:741  uint256 temp = value */\n      swap1\n      pop\n        /* \"@openzeppelin/contracts/utils/Strings.sol\":751:765  uint256 digits */\n      0x00\n        /* \"@openzeppelin/contracts/utils/Strings.sol\":775:850  while (temp != 0) {... */\n    tag_202:\n        /* \"@openzeppelin/contracts/utils/Strings.sol\":790:791  0 */\n      0x00\n        /* \"@openzeppelin/contracts/utils/Strings.sol\":782:786  temp */\n      dup3\n        /* \"@openzeppelin/contracts/utils/Strings.sol\":782:791  temp != 0 */\n      eq\n        /* \"@openzeppelin/contracts/utils/Strings.sol\":775:850  while (temp != 0) {... */\n      tag_203\n      jumpi\n        /* \"@openzeppelin/contracts/utils/Strings.sol\":807:815  digits++ */\n      dup1\n      dup1\n      tag_204\n      swap1\n      tag_205\n      jump\t// in\n    tag_204:\n      swap2\n      pop\n      pop\n        /* \"@openzeppelin/contracts/utils/Strings.sol\":837:839  10 */\n      0x0a\n        /* \"@openzeppelin/contracts/utils/Strings.sol\":829:839  temp /= 10 */\n      dup3\n      tag_206\n      swap2\n      swap1\n      tag_207\n      jump\t// in\n    tag_206:\n      swap2\n      pop\n        /* \"@openzeppelin/contracts/utils/Strings.sol\":775:850  while (temp != 0) {... */\n      jump(tag_202)\n    tag_203:\n        /* \"@openzeppelin/contracts/utils/Strings.sol\":859:878  bytes memory buffer */\n      0x00\n        /* \"@openzeppelin/contracts/utils/Strings.sol\":891:897  digits */\n      dup2\n        /* \"@openzeppelin/contracts/utils/Strings.sol\":881:898  new bytes(digits) */\n      0xffffffffffffffff\n      dup2\n      gt\n      iszero\n      tag_208\n      jumpi\n      tag_209\n      tag_210\n      jump\t// in\n    tag_209:\n    tag_208:\n      mload(0x40)\n      swap1\n      dup1\n      dup3\n      mstore\n      dup1\n      0x1f\n      add\n      not(0x1f)\n      and\n      0x20\n      add\n      dup3\n      add\n      0x40\n      mstore\n      dup1\n      iszero\n      tag_211\n      jumpi\n      dup2\n      0x20\n      add\n      0x01\n      dup3\n      mul\n      dup1\n      calldatasize\n      dup4\n      calldatacopy\n      dup1\n      dup3\n      add\n      swap2\n      pop\n      pop\n      swap1\n      pop\n    tag_211:\n      pop\n        /* \"@openzeppelin/contracts/utils/Strings.sol\":859:898  bytes memory buffer = new bytes(digits) */\n      swap1\n      pop\n        /* \"@openzeppelin/contracts/utils/Strings.sol\":908:1058  while (value != 0) {... */\n    tag_212:\n        /* \"@openzeppelin/contracts/utils/Strings.sol\":924:925  0 */\n      0x00\n        /* \"@openzeppelin/contracts/utils/Strings.sol\":915:920  value */\n      dup6\n        /* \"@openzeppelin/contracts/utils/Strings.sol\":915:925  value != 0 */\n      eq\n        /* \"@openzeppelin/contracts/utils/Strings.sol\":908:1058  while (value != 0) {... */\n      tag_213\n      jumpi\n        /* \"@openzeppelin/contracts/utils/Strings.sol\":951:952  1 */\n      0x01\n        /* \"@openzeppelin/contracts/utils/Strings.sol\":941:952  digits -= 1 */\n      dup3\n      tag_214\n      swap2\n      swap1\n      tag_215\n      jump\t// in\n    tag_214:\n      swap2\n      pop\n        /* \"@openzeppelin/contracts/utils/Strings.sol\":1017:1019  10 */\n      0x0a\n        /* \"@openzeppelin/contracts/utils/Strings.sol\":1009:1014  value */\n      dup6\n        /* \"@openzeppelin/contracts/utils/Strings.sol\":1009:1019  value % 10 */\n      tag_216\n      swap2\n      swap1\n      tag_217\n      jump\t// in\n    tag_216:\n        /* \"@openzeppelin/contracts/utils/Strings.sol\":996:998  48 */\n      0x30\n        /* \"@openzeppelin/contracts/utils/Strings.sol\":996:1020  48 + uint256(value % 10) */\n      tag_218\n      swap2\n      swap1\n      tag_219\n      jump\t// in\n    tag_218:\n        /* \"@openzeppelin/contracts/utils/Strings.sol\":983:1022  bytes1(uint8(48 + uint256(value % 10))) */\n      0xf8\n      shl\n        /* \"@openzeppelin/contracts/utils/Strings.sol\":966:972  buffer */\n      dup2\n        /* \"@openzeppelin/contracts/utils/Strings.sol\":973:979  digits */\n      dup4\n        /* \"@openzeppelin/contracts/utils/Strings.sol\":966:980  buffer[digits] */\n      dup2\n      mload\n      dup2\n      lt\n      tag_220\n      jumpi\n      tag_221\n      tag_222\n      jump\t// in\n    tag_221:\n    tag_220:\n      0x20\n      add\n      add\n        /* \"@openzeppelin/contracts/utils/Strings.sol\":966:1022  buffer[digits] = bytes1(uint8(48 + uint256(value % 10))) */\n      swap1\n      not(0xffffffffffffffffffffffffffffffffffffffffffffffffffffffffffffff)\n      and\n      swap1\n      dup2\n      0x00\n      byte\n      swap1\n      mstore8\n      pop\n        /* \"@openzeppelin/contracts/utils/Strings.sol\":1045:1047  10 */\n      0x0a\n        /* \"@openzeppelin/contracts/utils/Strings.sol\":1036:1047  value /= 10 */\n      dup6\n      tag_223\n      swap2\n      swap1\n      tag_207\n      jump\t// in\n    tag_223:\n      swap5\n      pop\n        /* \"@openzeppelin/contracts/utils/Strings.sol\":908:1058  while (value != 0) {... */\n      jump(tag_212)\n    tag_213:\n        /* \"@openzeppelin/contracts/utils/Strings.sol\":1081:1087  buffer */\n      dup1\n        /* \"@openzeppelin/contracts/utils/Strings.sol\":1067:1088  return string(buffer) */\n      swap4\n      pop\n      pop\n      pop\n      pop\n        /* \"@openzeppelin/contracts/utils/Strings.sol\":392:1095  function toString(uint256 value) internal pure returns (string memory) {... */\n    tag_200:\n      swap2\n      swap1\n      pop\n      jump\t// out\n        /* \"#utility.yul\":7:146   */\n    tag_225:\n        /* \"#utility.yul\":53:58   */\n      0x00\n        /* \"#utility.yul\":91:97   */\n      dup2\n        /* \"#utility.yul\":78:98   */\n      calldataload\n        /* \"#utility.yul\":69:98   */\n      swap1\n      pop\n        /* \"#utility.yul\":107:140   */\n      tag_227\n        /* \"#utility.yul\":134:139   */\n      dup2\n        /* \"#utility.yul\":107:140   */\n      tag_228\n      jump\t// in\n    tag_227:\n        /* \"#utility.yul\":7:146   */\n      swap3\n      swap2\n      pop\n      pop\n      jump\t// out\n        /* \"#utility.yul\":152:295   */\n    tag_229:\n        /* \"#utility.yul\":209:214   */\n      0x00\n        /* \"#utility.yul\":240:246   */\n      dup2\n        /* \"#utility.yul\":234:247   */\n      mload\n        /* \"#utility.yul\":225:247   */\n      swap1\n      pop\n        /* \"#utility.yul\":256:289   */\n      tag_231\n        /* \"#utility.yul\":283:288   */\n      dup2\n        /* \"#utility.yul\":256:289   */\n      tag_228\n      jump\t// in\n    tag_231:\n        /* \"#utility.yul\":152:295   */\n      swap3\n      swap2\n      pop\n      pop\n      jump\t// out\n        /* \"#utility.yul\":301:456   */\n    tag_232:\n        /* \"#utility.yul\":355:360   */\n      0x00\n        /* \"#utility.yul\":393:399   */\n      dup2\n        /* \"#utility.yul\":380:400   */\n      calldataload\n        /* \"#utility.yul\":371:400   */\n      swap1\n      pop\n        /* \"#utility.yul\":409:450   */\n      tag_234\n        /* \"#utility.yul\":444:449   */\n      dup2\n        /* \"#utility.yul\":409:450   */\n      tag_235\n      jump\t// in\n    tag_234:\n        /* \"#utility.yul\":301:456   */\n      swap3\n      swap2\n      pop\n      pop\n      jump\t// out\n        /* \"#utility.yul\":462:599   */\n    tag_236:\n        /* \"#utility.yul\":507:512   */\n      0x00\n        /* \"#utility.yul\":545:551   */\n      dup2\n        /* \"#utility.yul\":532:552   */\n      calldataload\n        /* \"#utility.yul\":523:552   */\n      swap1\n      pop\n        /* \"#utility.yul\":561:593   */\n      tag_238\n        /* \"#utility.yul\":587:592   */\n      dup2\n        /* \"#utility.yul\":561:593   */\n      tag_239\n      jump\t// in\n    tag_238:\n        /* \"#utility.yul\":462:599   */\n      swap3\n      swap2\n      pop\n      pop\n      jump\t// out\n        /* \"#utility.yul\":605:934   */\n    tag_42:\n        /* \"#utility.yul\":664:670   */\n      0x00\n        /* \"#utility.yul\":713:715   */\n      0x20\n        /* \"#utility.yul\":701:710   */\n      dup3\n        /* \"#utility.yul\":692:699   */\n      dup5\n        /* \"#utility.yul\":688:711   */\n      sub\n        /* \"#utility.yul\":684:716   */\n      slt\n        /* \"#utility.yul\":681:800   */\n      iszero\n      tag_241\n      jumpi\n        /* \"#utility.yul\":719:798   */\n      tag_242\n      tag_243\n      jump\t// in\n    tag_242:\n        /* \"#utility.yul\":681:800   */\n    tag_241:\n        /* \"#utility.yul\":839:840   */\n      0x00\n        /* \"#utility.yul\":864:917   */\n      tag_244\n        /* \"#utility.yul\":909:916   */\n      dup5\n        /* \"#utility.yul\":900:906   */\n      dup3\n        /* \"#utility.yul\":889:898   */\n      dup6\n        /* \"#utility.yul\":885:907   */\n      add\n        /* \"#utility.yul\":864:917   */\n      tag_225\n      jump\t// in\n    tag_244:\n        /* \"#utility.yul\":854:917   */\n      swap2\n      pop\n        /* \"#utility.yul\":810:927   */\n      pop\n        /* \"#utility.yul\":605:934   */\n      swap3\n      swap2\n      pop\n      pop\n      jump\t// out\n        /* \"#utility.yul\":940:1291   */\n    tag_103:\n        /* \"#utility.yul\":1010:1016   */\n      0x00\n        /* \"#utility.yul\":1059:1061   */\n      0x20\n        /* \"#utility.yul\":1047:1056   */\n      dup3\n        /* \"#utility.yul\":1038:1045   */\n      dup5\n        /* \"#utility.yul\":1034:1057   */\n      sub\n        /* \"#utility.yul\":1030:1062   */\n      slt\n        /* \"#utility.yul\":1027:1146   */\n      iszero\n      tag_246\n      jumpi\n        /* \"#utility.yul\":1065:1144   */\n      tag_247\n      tag_243\n      jump\t// in\n    tag_247:\n        /* \"#utility.yul\":1027:1146   */\n    tag_246:\n        /* \"#utility.yul\":1185:1186   */\n      0x00\n        /* \"#utility.yul\":1210:1274   */\n      tag_248\n        /* \"#utility.yul\":1266:1273   */\n      dup5\n        /* \"#utility.yul\":1257:1263   */\n      dup3\n        /* \"#utility.yul\":1246:1255   */\n      dup6\n        /* \"#utility.yul\":1242:1264   */\n      add\n        /* \"#utility.yul\":1210:1274   */\n      tag_229\n      jump\t// in\n    tag_248:\n        /* \"#utility.yul\":1200:1274   */\n      swap2\n      pop\n        /* \"#utility.yul\":1156:1284   */\n      pop\n        /* \"#utility.yul\":940:1291   */\n      swap3\n      swap2\n      pop\n      pop\n      jump\t// out\n        /* \"#utility.yul\":1297:1785   */\n    tag_37:\n        /* \"#utility.yul\":1372:1378   */\n      0x00\n        /* \"#utility.yul\":1380:1386   */\n      dup1\n        /* \"#utility.yul\":1429:1431   */\n      0x40\n        /* \"#utility.yul\":1417:1426   */\n      dup4\n        /* \"#utility.yul\":1408:1415   */\n      dup6\n        /* \"#utility.yul\":1404:1427   */\n      sub\n        /* \"#utility.yul\":1400:1432   */\n      slt\n        /* \"#utility.yul\":1397:1516   */\n      iszero\n      tag_250\n      jumpi\n        /* \"#utility.yul\":1435:1514   */\n      tag_251\n      tag_243\n      jump\t// in\n    tag_251:\n        /* \"#utility.yul\":1397:1516   */\n    tag_250:\n        /* \"#utility.yul\":1555:1556   */\n      0x00\n        /* \"#utility.yul\":1580:1641   */\n      tag_252\n        /* \"#utility.yul\":1633:1640   */\n      dup6\n        /* \"#utility.yul\":1624:1630   */\n      dup3\n        /* \"#utility.yul\":1613:1622   */\n      dup7\n        /* \"#utility.yul\":1609:1631   */\n      add\n        /* \"#utility.yul\":1580:1641   */\n      tag_232\n      jump\t// in\n    tag_252:\n        /* \"#utility.yul\":1570:1641   */\n      swap3\n      pop\n        /* \"#utility.yul\":1526:1651   */\n      pop\n        /* \"#utility.yul\":1690:1692   */\n      0x20\n        /* \"#utility.yul\":1716:1768   */\n      tag_253\n        /* \"#utility.yul\":1760:1767   */\n      dup6\n        /* \"#utility.yul\":1751:1757   */\n      dup3\n        /* \"#utility.yul\":1740:1749   */\n      dup7\n        /* \"#utility.yul\":1736:1758   */\n      add\n        /* \"#utility.yul\":1716:1768   */\n      tag_236\n      jump\t// in\n    tag_253:\n        /* \"#utility.yul\":1706:1768   */\n      swap2\n      pop\n        /* \"#utility.yul\":1661:1778   */\n      pop\n        /* \"#utility.yul\":1297:1785   */\n      swap3\n      pop\n      swap3\n      swap1\n      pop\n      jump\t// out\n        /* \"#utility.yul\":1791:1909   */\n    tag_254:\n        /* \"#utility.yul\":1878:1902   */\n      tag_256\n        /* \"#utility.yul\":1896:1901   */\n      dup2\n        /* \"#utility.yul\":1878:1902   */\n      tag_257\n      jump\t// in\n    tag_256:\n        /* \"#utility.yul\":1873:1876   */\n      dup3\n        /* \"#utility.yul\":1866:1903   */\n      mstore\n        /* \"#utility.yul\":1791:1909   */\n      pop\n      pop\n      jump\t// out\n        /* \"#utility.yul\":1915:2024   */\n    tag_258:\n        /* \"#utility.yul\":1996:2017   */\n      tag_260\n        /* \"#utility.yul\":2011:2016   */\n      dup2\n        /* \"#utility.yul\":1996:2017   */\n      tag_261\n      jump\t// in\n    tag_260:\n        /* \"#utility.yul\":1991:1994   */\n      dup3\n        /* \"#utility.yul\":1984:2018   */\n      mstore\n        /* \"#utility.yul\":1915:2024   */\n      pop\n      pop\n      jump\t// out\n        /* \"#utility.yul\":2030:2403   */\n    tag_262:\n        /* \"#utility.yul\":2134:2137   */\n      0x00\n        /* \"#utility.yul\":2162:2200   */\n      tag_264\n        /* \"#utility.yul\":2194:2199   */\n      dup3\n        /* \"#utility.yul\":2162:2200   */\n      tag_265\n      jump\t// in\n    tag_264:\n        /* \"#utility.yul\":2216:2304   */\n      tag_266\n        /* \"#utility.yul\":2297:2303   */\n      dup2\n        /* \"#utility.yul\":2292:2295   */\n      dup6\n        /* \"#utility.yul\":2216:2304   */\n      tag_267\n      jump\t// in\n    tag_266:\n        /* \"#utility.yul\":2209:2304   */\n      swap4\n      pop\n        /* \"#utility.yul\":2313:2365   */\n      tag_268\n        /* \"#utility.yul\":2358:2364   */\n      dup2\n        /* \"#utility.yul\":2353:2356   */\n      dup6\n        /* \"#utility.yul\":2346:2350   */\n      0x20\n        /* \"#utility.yul\":2339:2344   */\n      dup7\n        /* \"#utility.yul\":2335:2351   */\n      add\n        /* \"#utility.yul\":2313:2365   */\n      tag_269\n      jump\t// in\n    tag_268:\n        /* \"#utility.yul\":2390:2396   */\n      dup1\n        /* \"#utility.yul\":2385:2388   */\n      dup5\n        /* \"#utility.yul\":2381:2397   */\n      add\n        /* \"#utility.yul\":2374:2397   */\n      swap2\n      pop\n        /* \"#utility.yul\":2138:2403   */\n      pop\n        /* \"#utility.yul\":2030:2403   */\n      swap3\n      swap2\n      pop\n      pop\n      jump\t// out\n        /* \"#utility.yul\":2409:2562   */\n    tag_270:\n        /* \"#utility.yul\":2507:2555   */\n      tag_272\n        /* \"#utility.yul\":2549:2554   */\n      dup2\n        /* \"#utility.yul\":2507:2555   */\n      tag_273\n      jump\t// in\n    tag_272:\n        /* \"#utility.yul\":2502:2505   */\n      dup3\n        /* \"#utility.yul\":2495:2556   */\n      mstore\n        /* \"#utility.yul\":2409:2562   */\n      pop\n      pop\n      jump\t// out\n        /* \"#utility.yul\":2568:2711   */\n    tag_274:\n        /* \"#utility.yul\":2661:2704   */\n      tag_276\n        /* \"#utility.yul\":2698:2703   */\n      dup2\n        /* \"#utility.yul\":2661:2704   */\n      tag_277\n      jump\t// in\n    tag_276:\n        /* \"#utility.yul\":2656:2659   */\n      dup3\n        /* \"#utility.yul\":2649:2705   */\n      mstore\n        /* \"#utility.yul\":2568:2711   */\n      pop\n      pop\n      jump\t// out\n        /* \"#utility.yul\":2717:2835   */\n    tag_278:\n        /* \"#utility.yul\":2804:2828   */\n      tag_280\n        /* \"#utility.yul\":2822:2827   */\n      dup2\n        /* \"#utility.yul\":2804:2828   */\n      tag_281\n      jump\t// in\n    tag_280:\n        /* \"#utility.yul\":2799:2802   */\n      dup3\n        /* \"#utility.yul\":2792:2829   */\n      mstore\n        /* \"#utility.yul\":2717:2835   */\n      pop\n      pop\n      jump\t// out\n        /* \"#utility.yul\":2841:3112   */\n    tag_99:\n        /* \"#utility.yul\":2971:2974   */\n      0x00\n        /* \"#utility.yul\":2993:3086   */\n      tag_283\n        /* \"#utility.yul\":3082:3085   */\n      dup3\n        /* \"#utility.yul\":3073:3079   */\n      dup5\n        /* \"#utility.yul\":2993:3086   */\n      tag_262\n      jump\t// in\n    tag_283:\n        /* \"#utility.yul\":2986:3086   */\n      swap2\n      pop\n        /* \"#utility.yul\":3103:3106   */\n      dup2\n        /* \"#utility.yul\":3096:3106   */\n      swap1\n      pop\n        /* \"#utility.yul\":2841:3112   */\n      swap3\n      swap2\n      pop\n      pop\n      jump\t// out\n        /* \"#utility.yul\":3118:3545   */\n    tag_97:\n        /* \"#utility.yul\":3294:3297   */\n      0x00\n        /* \"#utility.yul\":3316:3409   */\n      tag_285\n        /* \"#utility.yul\":3405:3408   */\n      dup3\n        /* \"#utility.yul\":3396:3402   */\n      dup6\n        /* \"#utility.yul\":3316:3409   */\n      tag_262\n      jump\t// in\n    tag_285:\n        /* \"#utility.yul\":3309:3409   */\n      swap2\n      pop\n        /* \"#utility.yul\":3426:3519   */\n      tag_286\n        /* \"#utility.yul\":3515:3518   */\n      dup3\n        /* \"#utility.yul\":3506:3512   */\n      dup5\n        /* \"#utility.yul\":3426:3519   */\n      tag_262\n      jump\t// in\n    tag_286:\n        /* \"#utility.yul\":3419:3519   */\n      swap2\n      pop\n        /* \"#utility.yul\":3536:3539   */\n      dup2\n        /* \"#utility.yul\":3529:3539   */\n      swap1\n      pop\n        /* \"#utility.yul\":3118:3545   */\n      swap4\n      swap3\n      pop\n      pop\n      pop\n      jump\t// out\n        /* \"#utility.yul\":3551:3773   */\n    tag_21:\n        /* \"#utility.yul\":3644:3648   */\n      0x00\n        /* \"#utility.yul\":3682:3684   */\n      0x20\n        /* \"#utility.yul\":3671:3680   */\n      dup3\n        /* \"#utility.yul\":3667:3685   */\n      add\n        /* \"#utility.yul\":3659:3685   */\n      swap1\n      pop\n        /* \"#utility.yul\":3695:3766   */\n      tag_288\n        /* \"#utility.yul\":3763:3764   */\n      0x00\n        /* \"#utility.yul\":3752:3761   */\n      dup4\n        /* \"#utility.yul\":3748:3765   */\n      add\n        /* \"#utility.yul\":3739:3745   */\n      dup5\n        /* \"#utility.yul\":3695:3766   */\n      tag_254\n      jump\t// in\n    tag_288:\n        /* \"#utility.yul\":3551:3773   */\n      swap3\n      swap2\n      pop\n      pop\n      jump\t// out\n        /* \"#utility.yul\":3779:3989   */\n    tag_45:\n        /* \"#utility.yul\":3866:3870   */\n      0x00\n        /* \"#utility.yul\":3904:3906   */\n      0x20\n        /* \"#utility.yul\":3893:3902   */\n      dup3\n        /* \"#utility.yul\":3889:3907   */\n      add\n        /* \"#utility.yul\":3881:3907   */\n      swap1\n      pop\n        /* \"#utility.yul\":3917:3982   */\n      tag_290\n        /* \"#utility.yul\":3979:3980   */\n      0x00\n        /* \"#utility.yul\":3968:3977   */\n      dup4\n        /* \"#utility.yul\":3964:3981   */\n      add\n        /* \"#utility.yul\":3955:3961   */\n      dup5\n        /* \"#utility.yul\":3917:3982   */\n      tag_258\n      jump\t// in\n    tag_290:\n        /* \"#utility.yul\":3779:3989   */\n      swap3\n      swap2\n      pop\n      pop\n      jump\t// out\n        /* \"#utility.yul\":3995:4239   */\n    tag_34:\n        /* \"#utility.yul\":4099:4103   */\n      0x00\n        /* \"#utility.yul\":4137:4139   */\n      0x20\n        /* \"#utility.yul\":4126:4135   */\n      dup3\n        /* \"#utility.yul\":4122:4140   */\n      add\n        /* \"#utility.yul\":4114:4140   */\n      swap1\n      pop\n        /* \"#utility.yul\":4150:4232   */\n      tag_292\n        /* \"#utility.yul\":4229:4230   */\n      0x00\n        /* \"#utility.yul\":4218:4227   */\n      dup4\n        /* \"#utility.yul\":4214:4231   */\n      add\n        /* \"#utility.yul\":4205:4211   */\n      dup5\n        /* \"#utility.yul\":4150:4232   */\n      tag_270\n      jump\t// in\n    tag_292:\n        /* \"#utility.yul\":3995:4239   */\n      swap3\n      swap2\n      pop\n      pop\n      jump\t// out\n        /* \"#utility.yul\":4245:4479   */\n    tag_30:\n        /* \"#utility.yul\":4344:4348   */\n      0x00\n        /* \"#utility.yul\":4382:4384   */\n      0x20\n        /* \"#utility.yul\":4371:4380   */\n      dup3\n        /* \"#utility.yul\":4367:4385   */\n      add\n        /* \"#utility.yul\":4359:4385   */\n      swap1\n      pop\n        /* \"#utility.yul\":4395:4472   */\n      tag_294\n        /* \"#utility.yul\":4469:4470   */\n      0x00\n        /* \"#utility.yul\":4458:4467   */\n      dup4\n        /* \"#utility.yul\":4454:4471   */\n      add\n        /* \"#utility.yul\":4445:4451   */\n      dup5\n        /* \"#utility.yul\":4395:4472   */\n      tag_274\n      jump\t// in\n    tag_294:\n        /* \"#utility.yul\":4245:4479   */\n      swap3\n      swap2\n      pop\n      pop\n      jump\t// out\n        /* \"#utility.yul\":4485:4707   */\n    tag_17:\n        /* \"#utility.yul\":4578:4582   */\n      0x00\n        /* \"#utility.yul\":4616:4618   */\n      0x20\n        /* \"#utility.yul\":4605:4614   */\n      dup3\n        /* \"#utility.yul\":4601:4619   */\n      add\n        /* \"#utility.yul\":4593:4619   */\n      swap1\n      pop\n        /* \"#utility.yul\":4629:4700   */\n      tag_296\n        /* \"#utility.yul\":4697:4698   */\n      0x00\n        /* \"#utility.yul\":4686:4695   */\n      dup4\n        /* \"#utility.yul\":4682:4699   */\n      add\n        /* \"#utility.yul\":4673:4679   */\n      dup5\n        /* \"#utility.yul\":4629:4700   */\n      tag_278\n      jump\t// in\n    tag_296:\n        /* \"#utility.yul\":4485:4707   */\n      swap3\n      swap2\n      pop\n      pop\n      jump\t// out\n        /* \"#utility.yul\":4794:4892   */\n    tag_265:\n        /* \"#utility.yul\":4845:4851   */\n      0x00\n        /* \"#utility.yul\":4879:4884   */\n      dup2\n        /* \"#utility.yul\":4873:4885   */\n      mload\n        /* \"#utility.yul\":4863:4885   */\n      swap1\n      pop\n        /* \"#utility.yul\":4794:4892   */\n      swap2\n      swap1\n      pop\n      jump\t// out\n        /* \"#utility.yul\":4898:5045   */\n    tag_267:\n        /* \"#utility.yul\":4999:5010   */\n      0x00\n        /* \"#utility.yul\":5036:5039   */\n      dup2\n        /* \"#utility.yul\":5021:5039   */\n      swap1\n      pop\n        /* \"#utility.yul\":4898:5045   */\n      swap3\n      swap2\n      pop\n      pop\n      jump\t// out\n        /* \"#utility.yul\":5051:5356   */\n    tag_219:\n        /* \"#utility.yul\":5091:5094   */\n      0x00\n        /* \"#utility.yul\":5110:5130   */\n      tag_302\n        /* \"#utility.yul\":5128:5129   */\n      dup3\n        /* \"#utility.yul\":5110:5130   */\n      tag_281\n      jump\t// in\n    tag_302:\n        /* \"#utility.yul\":5105:5130   */\n      swap2\n      pop\n        /* \"#utility.yul\":5144:5164   */\n      tag_303\n        /* \"#utility.yul\":5162:5163   */\n      dup4\n        /* \"#utility.yul\":5144:5164   */\n      tag_281\n      jump\t// in\n    tag_303:\n        /* \"#utility.yul\":5139:5164   */\n      swap3\n      pop\n        /* \"#utility.yul\":5298:5299   */\n      dup3\n        /* \"#utility.yul\":5230:5296   */\n      0xffffffffffffffffffffffffffffffffffffffffffffffffffffffffffffffff\n        /* \"#utility.yul\":5226:5300   */\n      sub\n        /* \"#utility.yul\":5223:5224   */\n      dup3\n        /* \"#utility.yul\":5220:5301   */\n      gt\n        /* \"#utility.yul\":5217:5324   */\n      iszero\n      tag_304\n      jumpi\n        /* \"#utility.yul\":5304:5322   */\n      tag_305\n      tag_306\n      jump\t// in\n    tag_305:\n        /* \"#utility.yul\":5217:5324   */\n    tag_304:\n        /* \"#utility.yul\":5348:5349   */\n      dup3\n        /* \"#utility.yul\":5345:5346   */\n      dup3\n        /* \"#utility.yul\":5341:5350   */\n      add\n        /* \"#utility.yul\":5334:5350   */\n      swap1\n      pop\n        /* \"#utility.yul\":5051:5356   */\n      swap3\n      swap2\n      pop\n      pop\n      jump\t// out\n        /* \"#utility.yul\":5362:5547   */\n    tag_207:\n        /* \"#utility.yul\":5402:5403   */\n      0x00\n        /* \"#utility.yul\":5419:5439   */\n      tag_308\n        /* \"#utility.yul\":5437:5438   */\n      dup3\n        /* \"#utility.yul\":5419:5439   */\n      tag_281\n      jump\t// in\n    tag_308:\n        /* \"#utility.yul\":5414:5439   */\n      swap2\n      pop\n        /* \"#utility.yul\":5453:5473   */\n      tag_309\n        /* \"#utility.yul\":5471:5472   */\n      dup4\n        /* \"#utility.yul\":5453:5473   */\n      tag_281\n      jump\t// in\n    tag_309:\n        /* \"#utility.yul\":5448:5473   */\n      swap3\n      pop\n        /* \"#utility.yul\":5492:5493   */\n      dup3\n        /* \"#utility.yul\":5482:5517   */\n      tag_310\n      jumpi\n        /* \"#utility.yul\":5497:5515   */\n      tag_311\n      tag_312\n      jump\t// in\n    tag_311:\n        /* \"#utility.yul\":5482:5517   */\n    tag_310:\n        /* \"#utility.yul\":5539:5540   */\n      dup3\n        /* \"#utility.yul\":5536:5537   */\n      dup3\n        /* \"#utility.yul\":5532:5541   */\n      div\n        /* \"#utility.yul\":5527:5541   */\n      swap1\n      pop\n        /* \"#utility.yul\":5362:5547   */\n      swap3\n      swap2\n      pop\n      pop\n      jump\t// out\n        /* \"#utility.yul\":5553:5744   */\n    tag_215:\n        /* \"#utility.yul\":5593:5597   */\n      0x00\n        /* \"#utility.yul\":5613:5633   */\n      tag_314\n        /* \"#utility.yul\":5631:5632   */\n      dup3\n        /* \"#utility.yul\":5613:5633   */\n      tag_281\n      jump\t// in\n    tag_314:\n        /* \"#utility.yul\":5608:5633   */\n      swap2\n      pop\n        /* \"#utility.yul\":5647:5667   */\n      tag_315\n        /* \"#utility.yul\":5665:5666   */\n      dup4\n        /* \"#utility.yul\":5647:5667   */\n      tag_281\n      jump\t// in\n    tag_315:\n        /* \"#utility.yul\":5642:5667   */\n      swap3\n      pop\n        /* \"#utility.yul\":5686:5687   */\n      dup3\n        /* \"#utility.yul\":5683:5684   */\n      dup3\n        /* \"#utility.yul\":5680:5688   */\n      lt\n        /* \"#utility.yul\":5677:5711   */\n      iszero\n      tag_316\n      jumpi\n        /* \"#utility.yul\":5691:5709   */\n      tag_317\n      tag_306\n      jump\t// in\n    tag_317:\n        /* \"#utility.yul\":5677:5711   */\n    tag_316:\n        /* \"#utility.yul\":5736:5737   */\n      dup3\n        /* \"#utility.yul\":5733:5734   */\n      dup3\n        /* \"#utility.yul\":5729:5738   */\n      sub\n        /* \"#utility.yul\":5721:5738   */\n      swap1\n      pop\n        /* \"#utility.yul\":5553:5744   */\n      swap3\n      swap2\n      pop\n      pop\n      jump\t// out\n        /* \"#utility.yul\":5750:5846   */\n    tag_257:\n        /* \"#utility.yul\":5787:5794   */\n      0x00\n        /* \"#utility.yul\":5816:5840   */\n      tag_319\n        /* \"#utility.yul\":5834:5839   */\n      dup3\n        /* \"#utility.yul\":5816:5840   */\n      tag_320\n      jump\t// in\n    tag_319:\n        /* \"#utility.yul\":5805:5840   */\n      swap1\n      pop\n        /* \"#utility.yul\":5750:5846   */\n      swap2\n      swap1\n      pop\n      jump\t// out\n        /* \"#utility.yul\":5852:5942   */\n    tag_261:\n        /* \"#utility.yul\":5886:5893   */\n      0x00\n        /* \"#utility.yul\":5929:5934   */\n      dup2\n        /* \"#utility.yul\":5922:5935   */\n      iszero\n        /* \"#utility.yul\":5915:5936   */\n      iszero\n        /* \"#utility.yul\":5904:5936   */\n      swap1\n      pop\n        /* \"#utility.yul\":5852:5942   */\n      swap2\n      swap1\n      pop\n      jump\t// out\n        /* \"#utility.yul\":5948:6025   */\n    tag_322:\n        /* \"#utility.yul\":5985:5992   */\n      0x00\n        /* \"#utility.yul\":6014:6019   */\n      dup2\n        /* \"#utility.yul\":6003:6019   */\n      swap1\n      pop\n        /* \"#utility.yul\":5948:6025   */\n      swap2\n      swap1\n      pop\n      jump\t// out\n        /* \"#utility.yul\":6031:6168   */\n    tag_324:\n        /* \"#utility.yul\":6081:6088   */\n      0x00\n        /* \"#utility.yul\":6110:6115   */\n      dup2\n        /* \"#utility.yul\":6099:6115   */\n      swap1\n      pop\n        /* \"#utility.yul\":6116:6162   */\n      tag_326\n        /* \"#utility.yul\":6156:6161   */\n      dup3\n        /* \"#utility.yul\":6116:6162   */\n      tag_327\n      jump\t// in\n    tag_326:\n        /* \"#utility.yul\":6031:6168   */\n      swap2\n      swap1\n      pop\n      jump\t// out\n        /* \"#utility.yul\":6174:6301   */\n    tag_328:\n        /* \"#utility.yul\":6219:6226   */\n      0x00\n        /* \"#utility.yul\":6248:6253   */\n      dup2\n        /* \"#utility.yul\":6237:6253   */\n      swap1\n      pop\n        /* \"#utility.yul\":6254:6295   */\n      tag_330\n        /* \"#utility.yul\":6289:6294   */\n      dup3\n        /* \"#utility.yul\":6254:6295   */\n      tag_331\n      jump\t// in\n    tag_330:\n        /* \"#utility.yul\":6174:6301   */\n      swap2\n      swap1\n      pop\n      jump\t// out\n        /* \"#utility.yul\":6307:6433   */\n    tag_320:\n        /* \"#utility.yul\":6344:6351   */\n      0x00\n        /* \"#utility.yul\":6384:6426   */\n      0xffffffffffffffffffffffffffffffffffffffff\n        /* \"#utility.yul\":6377:6382   */\n      dup3\n        /* \"#utility.yul\":6373:6427   */\n      and\n        /* \"#utility.yul\":6362:6427   */\n      swap1\n      pop\n        /* \"#utility.yul\":6307:6433   */\n      swap2\n      swap1\n      pop\n      jump\t// out\n        /* \"#utility.yul\":6439:6516   */\n    tag_281:\n        /* \"#utility.yul\":6476:6483   */\n      0x00\n        /* \"#utility.yul\":6505:6510   */\n      dup2\n        /* \"#utility.yul\":6494:6510   */\n      swap1\n      pop\n        /* \"#utility.yul\":6439:6516   */\n      swap2\n      swap1\n      pop\n      jump\t// out\n        /* \"#utility.yul\":6522:6615   */\n    tag_334:\n        /* \"#utility.yul\":6558:6565   */\n      0x00\n        /* \"#utility.yul\":6598:6608   */\n      0xffffffff\n        /* \"#utility.yul\":6591:6596   */\n      dup3\n        /* \"#utility.yul\":6587:6609   */\n      and\n        /* \"#utility.yul\":6576:6609   */\n      swap1\n      pop\n        /* \"#utility.yul\":6522:6615   */\n      swap2\n      swap1\n      pop\n      jump\t// out\n        /* \"#utility.yul\":6621:6758   */\n    tag_273:\n        /* \"#utility.yul\":6682:6691   */\n      0x00\n        /* \"#utility.yul\":6715:6752   */\n      tag_337\n        /* \"#utility.yul\":6746:6751   */\n      dup3\n        /* \"#utility.yul\":6715:6752   */\n      tag_324\n      jump\t// in\n    tag_337:\n        /* \"#utility.yul\":6702:6752   */\n      swap1\n      pop\n        /* \"#utility.yul\":6621:6758   */\n      swap2\n      swap1\n      pop\n      jump\t// out\n        /* \"#utility.yul\":6764:6891   */\n    tag_277:\n        /* \"#utility.yul\":6820:6829   */\n      0x00\n        /* \"#utility.yul\":6853:6885   */\n      tag_339\n        /* \"#utility.yul\":6879:6884   */\n      dup3\n        /* \"#utility.yul\":6853:6885   */\n      tag_328\n      jump\t// in\n    tag_339:\n        /* \"#utility.yul\":6840:6885   */\n      swap1\n      pop\n        /* \"#utility.yul\":6764:6891   */\n      swap2\n      swap1\n      pop\n      jump\t// out\n        /* \"#utility.yul\":6897:7204   */\n    tag_269:\n        /* \"#utility.yul\":6965:6966   */\n      0x00\n        /* \"#utility.yul\":6975:7088   */\n    tag_341:\n        /* \"#utility.yul\":6989:6995   */\n      dup4\n        /* \"#utility.yul\":6986:6987   */\n      dup2\n        /* \"#utility.yul\":6983:6996   */\n      lt\n        /* \"#utility.yul\":6975:7088   */\n      iszero\n      tag_343\n      jumpi\n        /* \"#utility.yul\":7074:7075   */\n      dup1\n        /* \"#utility.yul\":7069:7072   */\n      dup3\n        /* \"#utility.yul\":7065:7076   */\n      add\n        /* \"#utility.yul\":7059:7077   */\n      mload\n        /* \"#utility.yul\":7055:7056   */\n      dup2\n        /* \"#utility.yul\":7050:7053   */\n      dup5\n        /* \"#utility.yul\":7046:7057   */\n      add\n        /* \"#utility.yul\":7039:7078   */\n      mstore\n        /* \"#utility.yul\":7011:7013   */\n      0x20\n        /* \"#utility.yul\":7008:7009   */\n      dup2\n        /* \"#utility.yul\":7004:7014   */\n      add\n        /* \"#utility.yul\":6999:7014   */\n      swap1\n      pop\n        /* \"#utility.yul\":6975:7088   */\n      jump(tag_341)\n    tag_343:\n        /* \"#utility.yul\":7106:7112   */\n      dup4\n        /* \"#utility.yul\":7103:7104   */\n      dup2\n        /* \"#utility.yul\":7100:7113   */\n      gt\n        /* \"#utility.yul\":7097:7198   */\n      iszero\n      tag_344\n      jumpi\n        /* \"#utility.yul\":7186:7187   */\n      0x00\n        /* \"#utility.yul\":7177:7183   */\n      dup5\n        /* \"#utility.yul\":7172:7175   */\n      dup5\n        /* \"#utility.yul\":7168:7184   */\n      add\n        /* \"#utility.yul\":7161:7188   */\n      mstore\n        /* \"#utility.yul\":7097:7198   */\n    tag_344:\n        /* \"#utility.yul\":6946:7204   */\n      pop\n        /* \"#utility.yul\":6897:7204   */\n      pop\n      pop\n      pop\n      jump\t// out\n        /* \"#utility.yul\":7210:7443   */\n    tag_205:\n        /* \"#utility.yul\":7249:7252   */\n      0x00\n        /* \"#utility.yul\":7272:7296   */\n      tag_346\n        /* \"#utility.yul\":7290:7295   */\n      dup3\n        /* \"#utility.yul\":7272:7296   */\n      tag_281\n      jump\t// in\n    tag_346:\n        /* \"#utility.yul\":7263:7296   */\n      swap2\n      pop\n        /* \"#utility.yul\":7318:7384   */\n      0xffffffffffffffffffffffffffffffffffffffffffffffffffffffffffffffff\n        /* \"#utility.yul\":7311:7316   */\n      dup3\n        /* \"#utility.yul\":7308:7385   */\n      eq\n        /* \"#utility.yul\":7305:7408   */\n      iszero\n      tag_347\n      jumpi\n        /* \"#utility.yul\":7388:7406   */\n      tag_348\n      tag_306\n      jump\t// in\n    tag_348:\n        /* \"#utility.yul\":7305:7408   */\n    tag_347:\n        /* \"#utility.yul\":7435:7436   */\n      0x01\n        /* \"#utility.yul\":7428:7433   */\n      dup3\n        /* \"#utility.yul\":7424:7437   */\n      add\n        /* \"#utility.yul\":7417:7437   */\n      swap1\n      pop\n        /* \"#utility.yul\":7210:7443   */\n      swap2\n      swap1\n      pop\n      jump\t// out\n        /* \"#utility.yul\":7449:7625   */\n    tag_217:\n        /* \"#utility.yul\":7481:7482   */\n      0x00\n        /* \"#utility.yul\":7498:7518   */\n      tag_350\n        /* \"#utility.yul\":7516:7517   */\n      dup3\n        /* \"#utility.yul\":7498:7518   */\n      tag_281\n      jump\t// in\n    tag_350:\n        /* \"#utility.yul\":7493:7518   */\n      swap2\n      pop\n        /* \"#utility.yul\":7532:7552   */\n      tag_351\n        /* \"#utility.yul\":7550:7551   */\n      dup4\n        /* \"#utility.yul\":7532:7552   */\n      tag_281\n      jump\t// in\n    tag_351:\n        /* \"#utility.yul\":7527:7552   */\n      swap3\n      pop\n        /* \"#utility.yul\":7571:7572   */\n      dup3\n        /* \"#utility.yul\":7561:7596   */\n      tag_352\n      jumpi\n        /* \"#utility.yul\":7576:7594   */\n      tag_353\n      tag_312\n      jump\t// in\n    tag_353:\n        /* \"#utility.yul\":7561:7596   */\n    tag_352:\n        /* \"#utility.yul\":7617:7618   */\n      dup3\n        /* \"#utility.yul\":7614:7615   */\n      dup3\n        /* \"#utility.yul\":7610:7619   */\n      mod\n        /* \"#utility.yul\":7605:7619   */\n      swap1\n      pop\n        /* \"#utility.yul\":7449:7625   */\n      swap3\n      swap2\n      pop\n      pop\n      jump\t// out\n        /* \"#utility.yul\":7631:7811   */\n    tag_306:\n        /* \"#utility.yul\":7679:7756   */\n      0x4e487b7100000000000000000000000000000000000000000000000000000000\n        /* \"#utility.yul\":7676:7677   */\n      0x00\n        /* \"#utility.yul\":7669:7757   */\n      mstore\n        /* \"#utility.yul\":7776:7780   */\n      0x11\n        /* \"#utility.yul\":7773:7774   */\n      0x04\n        /* \"#utility.yul\":7766:7781   */\n      mstore\n        /* \"#utility.yul\":7800:7804   */\n      0x24\n        /* \"#utility.yul\":7797:7798   */\n      0x00\n        /* \"#utility.yul\":7790:7805   */\n      revert\n        /* \"#utility.yul\":7817:7997   */\n    tag_312:\n        /* \"#utility.yul\":7865:7942   */\n      0x4e487b7100000000000000000000000000000000000000000000000000000000\n        /* \"#utility.yul\":7862:7863   */\n      0x00\n        /* \"#utility.yul\":7855:7943   */\n      mstore\n        /* \"#utility.yul\":7962:7966   */\n      0x12\n        /* \"#utility.yul\":7959:7960   */\n      0x04\n        /* \"#utility.yul\":7952:7967   */\n      mstore\n        /* \"#utility.yul\":7986:7990   */\n      0x24\n        /* \"#utility.yul\":7983:7984   */\n      0x00\n        /* \"#utility.yul\":7976:7991   */\n      revert\n        /* \"#utility.yul\":8003:8183   */\n    tag_58:\n        /* \"#utility.yul\":8051:8128   */\n      0x4e487b7100000000000000000000000000000000000000000000000000000000\n        /* \"#utility.yul\":8048:8049   */\n      0x00\n        /* \"#utility.yul\":8041:8129   */\n      mstore\n        /* \"#utility.yul\":8148:8152   */\n      0x21\n        /* \"#utility.yul\":8145:8146   */\n      0x04\n        /* \"#utility.yul\":8138:8153   */\n      mstore\n        /* \"#utility.yul\":8172:8176   */\n      0x24\n        /* \"#utility.yul\":8169:8170   */\n      0x00\n        /* \"#utility.yul\":8162:8177   */\n      revert\n        /* \"#utility.yul\":8189:8369   */\n    tag_222:\n        /* \"#utility.yul\":8237:8314   */\n      0x4e487b7100000000000000000000000000000000000000000000000000000000\n        /* \"#utility.yul\":8234:8235   */\n      0x00\n        /* \"#utility.yul\":8227:8315   */\n      mstore\n        /* \"#utility.yul\":8334:8338   */\n      0x32\n        /* \"#utility.yul\":8331:8332   */\n      0x04\n        /* \"#utility.yul\":8324:8339   */\n      mstore\n        /* \"#utility.yul\":8358:8362   */\n      0x24\n        /* \"#utility.yul\":8355:8356   */\n      0x00\n        /* \"#utility.yul\":8348:8363   */\n      revert\n        /* \"#utility.yul\":8375:8555   */\n    tag_210:\n        /* \"#utility.yul\":8423:8500   */\n      0x4e487b7100000000000000000000000000000000000000000000000000000000\n        /* \"#utility.yul\":8420:8421   */\n      0x00\n        /* \"#utility.yul\":8413:8501   */\n      mstore\n        /* \"#utility.yul\":8520:8524   */\n      0x41\n        /* \"#utility.yul\":8517:8518   */\n      0x04\n        /* \"#utility.yul\":8510:8525   */\n      mstore\n        /* \"#utility.yul\":8544:8548   */\n      0x24\n        /* \"#utility.yul\":8541:8542   */\n      0x00\n        /* \"#utility.yul\":8534:8549   */\n      revert\n        /* \"#utility.yul\":8684:8801   */\n    tag_243:\n        /* \"#utility.yul\":8793:8794   */\n      0x00\n        /* \"#utility.yul\":8790:8791   */\n      dup1\n        /* \"#utility.yul\":8783:8795   */\n      revert\n        /* \"#utility.yul\":8807:8925   */\n    tag_327:\n        /* \"#utility.yul\":8893:8894   */\n      0x03\n        /* \"#utility.yul\":8886:8891   */\n      dup2\n        /* \"#utility.yul\":8883:8895   */\n      lt\n        /* \"#utility.yul\":8873:8919   */\n      tag_363\n      jumpi\n        /* \"#utility.yul\":8899:8917   */\n      tag_364\n      tag_58\n      jump\t// in\n    tag_364:\n        /* \"#utility.yul\":8873:8919   */\n    tag_363:\n        /* \"#utility.yul\":8807:8925   */\n      pop\n      jump\t// out\n        /* \"#utility.yul\":8931:9044   */\n    tag_331:\n        /* \"#utility.yul\":9012:9013   */\n      0x04\n        /* \"#utility.yul\":9005:9010   */\n      dup2\n        /* \"#utility.yul\":9002:9014   */\n      lt\n        /* \"#utility.yul\":8992:9038   */\n      tag_366\n      jumpi\n        /* \"#utility.yul\":9018:9036   */\n      tag_367\n      tag_58\n      jump\t// in\n    tag_367:\n        /* \"#utility.yul\":8992:9038   */\n    tag_366:\n        /* \"#utility.yul\":8931:9044   */\n      pop\n      jump\t// out\n        /* \"#utility.yul\":9050:9172   */\n    tag_228:\n        /* \"#utility.yul\":9123:9147   */\n      tag_369\n        /* \"#utility.yul\":9141:9146   */\n      dup2\n        /* \"#utility.yul\":9123:9147   */\n      tag_322\n      jump\t// in\n    tag_369:\n        /* \"#utility.yul\":9116:9121   */\n      dup2\n        /* \"#utility.yul\":9113:9148   */\n      eq\n        /* \"#utility.yul\":9103:9166   */\n      tag_370\n      jumpi\n        /* \"#utility.yul\":9162:9163   */\n      0x00\n        /* \"#utility.yul\":9159:9160   */\n      dup1\n        /* \"#utility.yul\":9152:9164   */\n      revert\n        /* \"#utility.yul\":9103:9166   */\n    tag_370:\n        /* \"#utility.yul\":9050:9172   */\n      pop\n      jump\t// out\n        /* \"#utility.yul\":9178:9285   */\n    tag_235:\n        /* \"#utility.yul\":9259:9260   */\n      0x04\n        /* \"#utility.yul\":9252:9257   */\n      dup2\n        /* \"#utility.yul\":9249:9261   */\n      lt\n        /* \"#utility.yul\":9239:9279   */\n      tag_372\n      jumpi\n        /* \"#utility.yul\":9275:9276   */\n      0x00\n        /* \"#utility.yul\":9272:9273   */\n      dup1\n        /* \"#utility.yul\":9265:9277   */\n      revert\n        /* \"#utility.yul\":9239:9279   */\n    tag_372:\n        /* \"#utility.yul\":9178:9285   */\n      pop\n      jump\t// out\n        /* \"#utility.yul\":9291:9411   */\n    tag_239:\n        /* \"#utility.yul\":9363:9386   */\n      tag_374\n        /* \"#utility.yul\":9380:9385   */\n      dup2\n        /* \"#utility.yul\":9363:9386   */\n      tag_334\n      jump\t// in\n    tag_374:\n        /* \"#utility.yul\":9356:9361   */\n      dup2\n        /* \"#utility.yul\":9353:9387   */\n      eq\n        /* \"#utility.yul\":9343:9405   */\n      tag_375\n      jumpi\n        /* \"#utility.yul\":9401:9402   */\n      0x00\n        /* \"#utility.yul\":9398:9399   */\n      dup1\n        /* \"#utility.yul\":9391:9403   */\n      revert\n        /* \"#utility.yul\":9343:9405   */\n    tag_375:\n        /* \"#utility.yul\":9291:9411   */\n      pop\n      jump\t// out\n\n    auxdata: 0xa2646970667358221220228db907b5fcb36099b8405927810e5a5ab948244fc0ee574a41f7f9b051992564736f6c63430008070033\n}\n",
				"bytecode": {
					"linkReferences": {},
					"object": "60806040523480156200001157600080fd5b5033600360006101000a81548173ffffffffffffffffffffffffffffffffffffffff021916908373ffffffffffffffffffffffffffffffffffffffff160217905550620000636200006960201b60201c565b62000477565b600160009054906101000a900473ffffffffffffffffffffffffffffffffffffffff1673ffffffffffffffffffffffffffffffffffffffff163373ffffffffffffffffffffffffffffffffffffffff161480620001135750600260009054906101000a900473ffffffffffffffffffffffffffffffffffffffff1673ffffffffffffffffffffffffffffffffffffffff163373ffffffffffffffffffffffffffffffffffffffff16145b806200016c5750600360009054906101000a900473ffffffffffffffffffffffffffffffffffffffff1673ffffffffffffffffffffffffffffffffffffffff163373ffffffffffffffffffffffffffffffffffffffff16145b6200017657600080fd5b6000600460006101000a81548173ffffffffffffffffffffffffffffffffffffffff021916908373ffffffffffffffffffffffffffffffffffffffff160217905550600460009054906101000a900473ffffffffffffffffffffffffffffffffffffffff16600060016101000a81548173ffffffffffffffffffffffffffffffffffffffff021916908373ffffffffffffffffffffffffffffffffffffffff160217905550600460009054906101000a900473ffffffffffffffffffffffffffffffffffffffff16600160006101000a81548173ffffffffffffffffffffffffffffffffffffffff021916908373ffffffffffffffffffffffffffffffffffffffff160217905550600460009054906101000a900473ffffffffffffffffffffffffffffffffffffffff16600260006101000a81548173ffffffffffffffffffffffffffffffffffffffff021916908373ffffffffffffffffffffffffffffffffffffffff1602179055506000801b6005819055506000801b6006819055506000600760006101000a81548160ff021916908360038111156200031e576200031d62000431565b5b02179055506000600760016101000a81548160ff021916908360038111156200034c576200034b62000431565b5b02179055506200036360006200036560201b60201c565b565b806000806101000a81548160ff021916908360028111156200038c576200038b62000431565b5b02179055507f5fe57a6009d2ae51447def0790762f4e928888c72f5f8ef4abed68599519a83360008054906101000a900460ff16604051620003cf9190620003eb565b60405180910390a150565b620003e5816200041d565b82525050565b6000602082019050620004026000830184620003da565b92915050565b6000819050620004188262000460565b919050565b60006200042a8262000408565b9050919050565b7f4e487b7100000000000000000000000000000000000000000000000000000000600052602160045260246000fd5b6003811062000474576200047362000431565b5b50565b611a2880620004876000396000f3fe608060405234801561001057600080fd5b506004361061009e5760003560e01c80639ba6c216116100665780639ba6c21614610125578063ab4a6be114610143578063cefdbc8414610173578063dbe4dd79146101a3578063dfbf53ae146101c15761009e565b80631aa3a008146100a35780631bc1e19a146100c15780631ef3755d146100df57806354712524146100e95780638b015ccf14610107575b600080fd5b6100ab6101df565b6040516100b89190611657565b60405180910390f35b6100c9610498565b6040516100d691906115eb565b60405180910390f35b6100e76104be565b005b6100f16107a9565b6040516100fe91906115eb565b60405180910390f35b61010f6107cf565b60405161011c919061163c565b60405180910390f35b61012d6107e2565b60405161013a9190611621565b60405180910390f35b61015d600480360381019061015891906114f4565b6107f3565b60405161016a91906115eb565b60405180910390f35b61018d6004803603810190610188919061149a565b61102a565b60405161019a9190611606565b60405180910390f35b6101ab61123c565b6040516101b8919061163c565b60405180910390f35b6101c961124f565b6040516101d691906115eb565b60405180910390f35b6000600160009054906101000a900473ffffffffffffffffffffffffffffffffffffffff1673ffffffffffffffffffffffffffffffffffffffff163373ffffffffffffffffffffffffffffffffffffffff161415801561028d5750600260009054906101000a900473ffffffffffffffffffffffffffffffffffffffff1673ffffffffffffffffffffffffffffffffffffffff163373ffffffffffffffffffffffffffffffffffffffff1614155b61029657600080fd5b60008060028111156102ab576102aa6118fa565b5b60008054906101000a900460ff1660028111156102cb576102ca6118fa565b5b146102d557600080fd5b600073ffffffffffffffffffffffffffffffffffffffff16600160009054906101000a900473ffffffffffffffffffffffffffffffffffffffff1673ffffffffffffffffffffffffffffffffffffffff1614156103ad5733600160006101000a81548173ffffffffffffffffffffffffffffffffffffffff021916908373ffffffffffffffffffffffffffffffffffffffff1602179055507fada0ba55ddd90bb25ecc3a5e99986836201565b3a09e5be156e48713da1bfd633360405161039c91906115eb565b60405180910390a160019150610494565b600073ffffffffffffffffffffffffffffffffffffffff16600260009054906101000a900473ffffffffffffffffffffffffffffffffffffffff1673ffffffffffffffffffffffffffffffffffffffff16141561048f5733600260006101000a81548173ffffffffffffffffffffffffffffffffffffffff021916908373ffffffffffffffffffffffffffffffffffffffff1602179055507f67cf7f1535e1c1323fe4e76266f7d55f0c1f67fdf449db65e014f9d35881514d3360405161047491906115eb565b60405180910390a16104866001611275565b60029150610494565b600091505b5090565b600260009054906101000a900473ffffffffffffffffffffffffffffffffffffffff1681565b600160009054906101000a900473ffffffffffffffffffffffffffffffffffffffff1673ffffffffffffffffffffffffffffffffffffffff163373ffffffffffffffffffffffffffffffffffffffff1614806105675750600260009054906101000a900473ffffffffffffffffffffffffffffffffffffffff1673ffffffffffffffffffffffffffffffffffffffff163373ffffffffffffffffffffffffffffffffffffffff16145b806105bf5750600360009054906101000a900473ffffffffffffffffffffffffffffffffffffffff1673ffffffffffffffffffffffffffffffffffffffff163373ffffffffffffffffffffffffffffffffffffffff16145b6105c857600080fd5b6000600460006101000a81548173ffffffffffffffffffffffffffffffffffffffff021916908373ffffffffffffffffffffffffffffffffffffffff160217905550600460009054906101000a900473ffffffffffffffffffffffffffffffffffffffff16600060016101000a81548173ffffffffffffffffffffffffffffffffffffffff021916908373ffffffffffffffffffffffffffffffffffffffff160217905550600460009054906101000a900473ffffffffffffffffffffffffffffffffffffffff16600160006101000a81548173ffffffffffffffffffffffffffffffffffffffff021916908373ffffffffffffffffffffffffffffffffffffffff160217905550600460009054906101000a900473ffffffffffffffffffffffffffffffffffffffff16600260006101000a81548173ffffffffffffffffffffffffffffffffffffffff021916908373ffffffffffffffffffffffffffffffffffffffff1602179055506000801b6005819055506000801b6006819055506000600760006101000a81548160ff0219169083600381111561076d5761076c6118fa565b5b02179055506000600760016101000a81548160ff02191690836003811115610798576107976118fa565b5b02179055506107a76000611275565b565b600160009054906101000a900473ffffffffffffffffffffffffffffffffffffffff1681565b600760009054906101000a900460ff1681565b60008054906101000a900460ff1681565b6000600160009054906101000a900473ffffffffffffffffffffffffffffffffffffffff1673ffffffffffffffffffffffffffffffffffffffff163373ffffffffffffffffffffffffffffffffffffffff16148061089e5750600260009054906101000a900473ffffffffffffffffffffffffffffffffffffffff1673ffffffffffffffffffffffffffffffffffffffff163373ffffffffffffffffffffffffffffffffffffffff16145b6108a757600080fd5b60028060028111156108bc576108bb6118fa565b5b60008054906101000a900460ff1660028111156108dc576108db6118fa565b5b146108e657600080fd5b6000801b6005541415801561090057506000801b60065414155b61090957600080fd5b60006002610928866003811115610923576109226118fa565b5b6112e5565b6109378663ffffffff166112e5565b6040516020016109489291906115c7565b60405160208183030381529060405260405161096491906115b0565b602060405180830381855afa158015610981573d6000803e3d6000fd5b5050506040513d601f19601f820116820180604052508101906109a491906114c7565b9050600060038111156109ba576109b96118fa565b5b8560038111156109cd576109cc6118fa565b5b14156109fe57600460009054906101000a900473ffffffffffffffffffffffffffffffffffffffff16925050611023565b600160009054906101000a900473ffffffffffffffffffffffffffffffffffffffff1673ffffffffffffffffffffffffffffffffffffffff163373ffffffffffffffffffffffffffffffffffffffff16148015610a5c575060055481145b15610a905784600760006101000a81548160ff02191690836003811115610a8657610a856118fa565b5b0217905550610b4e565b600260009054906101000a900473ffffffffffffffffffffffffffffffffffffffff1673ffffffffffffffffffffffffffffffffffffffff163373ffffffffffffffffffffffffffffffffffffffff16148015610aee575060065481145b15610b225784600760016101000a81548160ff02191690836003811115610b1857610b176118fa565b5b0217905550610b4d565b600460009054906101000a900473ffffffffffffffffffffffffffffffffffffffff16925050611023565b5b60006003811115610b6257610b616118fa565b5b600760009054906101000a900460ff166003811115610b8457610b836118fa565b5b141580610bc5575060006003811115610ba057610b9f6118fa565b5b600760019054906101000a900460ff166003811115610bc257610bc16118fa565b5b14155b15610f3f57600760019054906101000a900460ff166003811115610bec57610beb6118fa565b5b600760009054906101000a900460ff166003811115610c0e57610c0d6118fa565b5b1415610c7c57600460009054906101000a900473ffffffffffffffffffffffffffffffffffffffff16600060016101000a81548173ffffffffffffffffffffffffffffffffffffffff021916908373ffffffffffffffffffffffffffffffffffffffff160217905550610f3a565b60026003811115610c9057610c8f6118fa565b5b600760009054906101000a900460ff166003811115610cb257610cb16118fa565b5b148015610cf15750600380811115610ccd57610ccc6118fa565b5b600760019054906101000a900460ff166003811115610cef57610cee6118fa565b5b145b80610d6d5750600380811115610d0a57610d096118fa565b5b600760009054906101000a900460ff166003811115610d2c57610d2b6118fa565b5b148015610d6c575060016003811115610d4857610d476118fa565b5b600760019054906101000a900460ff166003811115610d6a57610d696118fa565b5b145b5b80610dea575060016003811115610d8757610d866118fa565b5b600760009054906101000a900460ff166003811115610da957610da86118fa565b5b148015610de9575060026003811115610dc557610dc46118fa565b5b600760019054906101000a900460ff166003811115610de757610de66118fa565b5b145b5b80610e68575060006003811115610e0457610e036118fa565b5b600760009054906101000a900460ff166003811115610e2657610e256118fa565b5b14158015610e67575060006003811115610e4357610e426118fa565b5b600760019054906101000a900460ff166003811115610e6557610e646118fa565b5b145b5b15610ed557600160009054906101000a900473ffffffffffffffffffffffffffffffffffffffff16600060016101000a81548173ffffffffffffffffffffffffffffffffffffffff021916908373ffffffffffffffffffffffffffffffffffffffff160217905550610f39565b600260009054906101000a900473ffffffffffffffffffffffffffffffffffffffff16600060016101000a81548173ffffffffffffffffffffffffffffffffffffffff021916908373ffffffffffffffffffffffffffffffffffffffff1602179055505b5b610fa3565b600460009054906101000a900473ffffffffffffffffffffffffffffffffffffffff16600060016101000a81548173ffffffffffffffffffffffffffffffffffffffff021916908373ffffffffffffffffffffffffffffffffffffffff1602179055505b7f1728dd43546edd06fabfe796e5b641a151aa90998bfd1b1ec0ae98c6e7708459600060019054906101000a900473ffffffffffffffffffffffffffffffffffffffff16604051610ff491906115eb565b60405180910390a1600060019054906101000a900473ffffffffffffffffffffffffffffffffffffffff169250505b5092915050565b6000600160009054906101000a900473ffffffffffffffffffffffffffffffffffffffff1673ffffffffffffffffffffffffffffffffffffffff163373ffffffffffffffffffffffffffffffffffffffff1614806110d55750600260009054906101000a900473ffffffffffffffffffffffffffffffffffffffff1673ffffffffffffffffffffffffffffffffffffffff163373ffffffffffffffffffffffffffffffffffffffff16145b6110de57600080fd5b60018060028111156110f3576110f26118fa565b5b60008054906101000a900460ff166002811115611113576111126118fa565b5b1461111d57600080fd5b6000600160009054906101000a900473ffffffffffffffffffffffffffffffffffffffff1673ffffffffffffffffffffffffffffffffffffffff163373ffffffffffffffffffffffffffffffffffffffff1614801561118057506000801b600554145b15611195578360058190555060019050611208565b600260009054906101000a900473ffffffffffffffffffffffffffffffffffffffff1673ffffffffffffffffffffffffffffffffffffffff163373ffffffffffffffffffffffffffffffffffffffff161480156111f657506000801b600654145b156112075783600681905550600190505b5b6000801b6005541415801561122257506000801b60065414155b15611232576112316002611275565b5b8092505050919050565b600760019054906101000a900460ff1681565b600060019054906101000a900473ffffffffffffffffffffffffffffffffffffffff1681565b806000806101000a81548160ff02191690836002811115611299576112986118fa565b5b02179055507f5fe57a6009d2ae51447def0790762f4e928888c72f5f8ef4abed68599519a83360008054906101000a900460ff166040516112da9190611621565b60405180910390a150565b6060600082141561132d576040518060400160405280600181526020017f30000000000000000000000000000000000000000000000000000000000000008152509050611441565b600082905060005b6000821461135f57808061134890611822565b915050600a8261135891906116de565b9150611335565b60008167ffffffffffffffff81111561137b5761137a611958565b5b6040519080825280601f01601f1916602001820160405280156113ad5781602001600182028036833780820191505090505b5090505b6000851461143a576001826113c6919061170f565b9150600a856113d5919061186b565b60306113e19190611688565b60f81b8183815181106113f7576113f6611929565b5b60200101907effffffffffffffffffffffffffffffffffffffffffffffffffffffffffffff1916908160001a905350600a8561143391906116de565b94506113b1565b8093505050505b919050565b600081359050611455816119b4565b92915050565b60008151905061146a816119b4565b92915050565b60008135905061147f816119cb565b92915050565b600081359050611494816119db565b92915050565b6000602082840312156114b0576114af611987565b5b60006114be84828501611446565b91505092915050565b6000602082840312156114dd576114dc611987565b5b60006114eb8482850161145b565b91505092915050565b6000806040838503121561150b5761150a611987565b5b600061151985828601611470565b925050602061152a85828601611485565b9150509250929050565b61153d81611743565b82525050565b61154c81611755565b82525050565b600061155d82611672565b611567818561167d565b93506115778185602086016117ef565b80840191505092915050565b61158c816117cb565b82525050565b61159b816117dd565b82525050565b6115aa816117b1565b82525050565b60006115bc8284611552565b915081905092915050565b60006115d38285611552565b91506115df8284611552565b91508190509392505050565b60006020820190506116006000830184611534565b92915050565b600060208201905061161b6000830184611543565b92915050565b60006020820190506116366000830184611583565b92915050565b60006020820190506116516000830184611592565b92915050565b600060208201905061166c60008301846115a1565b92915050565b600081519050919050565b600081905092915050565b6000611693826117b1565b915061169e836117b1565b9250827fffffffffffffffffffffffffffffffffffffffffffffffffffffffffffffffff038211156116d3576116d261189c565b5b828201905092915050565b60006116e9826117b1565b91506116f4836117b1565b925082611704576117036118cb565b5b828204905092915050565b600061171a826117b1565b9150611725836117b1565b9250828210156117385761173761189c565b5b828203905092915050565b600061174e82611791565b9050919050565b60008115159050919050565b6000819050919050565b60008190506117798261198c565b919050565b600081905061178c826119a0565b919050565b600073ffffffffffffffffffffffffffffffffffffffff82169050919050565b6000819050919050565b600063ffffffff82169050919050565b60006117d68261176b565b9050919050565b60006117e88261177e565b9050919050565b60005b8381101561180d5780820151818401526020810190506117f2565b8381111561181c576000848401525b50505050565b600061182d826117b1565b91507fffffffffffffffffffffffffffffffffffffffffffffffffffffffffffffffff8214156118605761185f61189c565b5b600182019050919050565b6000611876826117b1565b9150611881836117b1565b925082611891576118906118cb565b5b828206905092915050565b7f4e487b7100000000000000000000000000000000000000000000000000000000600052601160045260246000fd5b7f4e487b7100000000000000000000000000000000000000000000000000000000600052601260045260246000fd5b7f4e487b7100000000000000000000000000000000000000000000000000000000600052602160045260246000fd5b7f4e487b7100000000000000000000000000000000000000000000000000000000600052603260045260246000fd5b7f4e487b7100000000000000000000000000000000000000000000000000000000600052604160045260246000fd5b600080fd5b6003811061199d5761199c6118fa565b5b50565b600481106119b1576119b06118fa565b5b50565b6119bd81611761565b81146119c857600080fd5b50565b600481106119d857600080fd5b50565b6119e4816117bb565b81146119ef57600080fd5b5056fea2646970667358221220228db907b5fcb36099b8405927810e5a5ab948244fc0ee574a41f7f9b051992564736f6c63430008070033",
					"opcodes": "PUSH1 0x80 PUSH1 0x40 MSTORE CALLVALUE DUP1 ISZERO PUSH3 0x11 JUMPI PUSH1 0x0 DUP1 REVERT JUMPDEST POP CALLER PUSH1 0x3 PUSH1 0x0 PUSH2 0x100 EXP DUP2 SLOAD DUP2 PUSH20 0xFFFFFFFFFFFFFFFFFFFFFFFFFFFFFFFFFFFFFFFF MUL NOT AND SWAP1 DUP4 PUSH20 0xFFFFFFFFFFFFFFFFFFFFFFFFFFFFFFFFFFFFFFFF AND MUL OR SWAP1 SSTORE POP PUSH3 0x63 PUSH3 0x69 PUSH1 0x20 SHL PUSH1 0x20 SHR JUMP JUMPDEST PUSH3 0x477 JUMP JUMPDEST PUSH1 0x1 PUSH1 0x0 SWAP1 SLOAD SWAP1 PUSH2 0x100 EXP SWAP1 DIV PUSH20 0xFFFFFFFFFFFFFFFFFFFFFFFFFFFFFFFFFFFFFFFF AND PUSH20 0xFFFFFFFFFFFFFFFFFFFFFFFFFFFFFFFFFFFFFFFF AND CALLER PUSH20 0xFFFFFFFFFFFFFFFFFFFFFFFFFFFFFFFFFFFFFFFF AND EQ DUP1 PUSH3 0x113 JUMPI POP PUSH1 0x2 PUSH1 0x0 SWAP1 SLOAD SWAP1 PUSH2 0x100 EXP SWAP1 DIV PUSH20 0xFFFFFFFFFFFFFFFFFFFFFFFFFFFFFFFFFFFFFFFF AND PUSH20 0xFFFFFFFFFFFFFFFFFFFFFFFFFFFFFFFFFFFFFFFF AND CALLER PUSH20 0xFFFFFFFFFFFFFFFFFFFFFFFFFFFFFFFFFFFFFFFF AND EQ JUMPDEST DUP1 PUSH3 0x16C JUMPI POP PUSH1 0x3 PUSH1 0x0 SWAP1 SLOAD SWAP1 PUSH2 0x100 EXP SWAP1 DIV PUSH20 0xFFFFFFFFFFFFFFFFFFFFFFFFFFFFFFFFFFFFFFFF AND PUSH20 0xFFFFFFFFFFFFFFFFFFFFFFFFFFFFFFFFFFFFFFFF AND CALLER PUSH20 0xFFFFFFFFFFFFFFFFFFFFFFFFFFFFFFFFFFFFFFFF AND EQ JUMPDEST PUSH3 0x176 JUMPI PUSH1 0x0 DUP1 REVERT JUMPDEST PUSH1 0x0 PUSH1 0x4 PUSH1 0x0 PUSH2 0x100 EXP DUP2 SLOAD DUP2 PUSH20 0xFFFFFFFFFFFFFFFFFFFFFFFFFFFFFFFFFFFFFFFF MUL NOT AND SWAP1 DUP4 PUSH20 0xFFFFFFFFFFFFFFFFFFFFFFFFFFFFFFFFFFFFFFFF AND MUL OR SWAP1 SSTORE POP PUSH1 0x4 PUSH1 0x0 SWAP1 SLOAD SWAP1 PUSH2 0x100 EXP SWAP1 DIV PUSH20 0xFFFFFFFFFFFFFFFFFFFFFFFFFFFFFFFFFFFFFFFF AND PUSH1 0x0 PUSH1 0x1 PUSH2 0x100 EXP DUP2 SLOAD DUP2 PUSH20 0xFFFFFFFFFFFFFFFFFFFFFFFFFFFFFFFFFFFFFFFF MUL NOT AND SWAP1 DUP4 PUSH20 0xFFFFFFFFFFFFFFFFFFFFFFFFFFFFFFFFFFFFFFFF AND MUL OR SWAP1 SSTORE POP PUSH1 0x4 PUSH1 0x0 SWAP1 SLOAD SWAP1 PUSH2 0x100 EXP SWAP1 DIV PUSH20 0xFFFFFFFFFFFFFFFFFFFFFFFFFFFFFFFFFFFFFFFF AND PUSH1 0x1 PUSH1 0x0 PUSH2 0x100 EXP DUP2 SLOAD DUP2 PUSH20 0xFFFFFFFFFFFFFFFFFFFFFFFFFFFFFFFFFFFFFFFF MUL NOT AND SWAP1 DUP4 PUSH20 0xFFFFFFFFFFFFFFFFFFFFFFFFFFFFFFFFFFFFFFFF AND MUL OR SWAP1 SSTORE POP PUSH1 0x4 PUSH1 0x0 SWAP1 SLOAD SWAP1 PUSH2 0x100 EXP SWAP1 DIV PUSH20 0xFFFFFFFFFFFFFFFFFFFFFFFFFFFFFFFFFFFFFFFF AND PUSH1 0x2 PUSH1 0x0 PUSH2 0x100 EXP DUP2 SLOAD DUP2 PUSH20 0xFFFFFFFFFFFFFFFFFFFFFFFFFFFFFFFFFFFFFFFF MUL NOT AND SWAP1 DUP4 PUSH20 0xFFFFFFFFFFFFFFFFFFFFFFFFFFFFFFFFFFFFFFFF AND MUL OR SWAP1 SSTORE POP PUSH1 0x0 DUP1 SHL PUSH1 0x5 DUP2 SWAP1 SSTORE POP PUSH1 0x0 DUP1 SHL PUSH1 0x6 DUP2 SWAP1 SSTORE POP PUSH1 0x0 PUSH1 0x7 PUSH1 0x0 PUSH2 0x100 EXP DUP2 SLOAD DUP2 PUSH1 0xFF MUL NOT AND SWAP1 DUP4 PUSH1 0x3 DUP2 GT ISZERO PUSH3 0x31E JUMPI PUSH3 0x31D PUSH3 0x431 JUMP JUMPDEST JUMPDEST MUL OR SWAP1 SSTORE POP PUSH1 0x0 PUSH1 0x7 PUSH1 0x1 PUSH2 0x100 EXP DUP2 SLOAD DUP2 PUSH1 0xFF MUL NOT AND SWAP1 DUP4 PUSH1 0x3 DUP2 GT ISZERO PUSH3 0x34C JUMPI PUSH3 0x34B PUSH3 0x431 JUMP JUMPDEST JUMPDEST MUL OR SWAP1 SSTORE POP PUSH3 0x363 PUSH1 0x0 PUSH3 0x365 PUSH1 0x20 SHL PUSH1 0x20 SHR JUMP JUMPDEST JUMP JUMPDEST DUP1 PUSH1 0x0 DUP1 PUSH2 0x100 EXP DUP2 SLOAD DUP2 PUSH1 0xFF MUL NOT AND SWAP1 DUP4 PUSH1 0x2 DUP2 GT ISZERO PUSH3 0x38C JUMPI PUSH3 0x38B PUSH3 0x431 JUMP JUMPDEST JUMPDEST MUL OR SWAP1 SSTORE POP PUSH32 0x5FE57A6009D2AE51447DEF0790762F4E928888C72F5F8EF4ABED68599519A833 PUSH1 0x0 DUP1 SLOAD SWAP1 PUSH2 0x100 EXP SWAP1 DIV PUSH1 0xFF AND PUSH1 0x40 MLOAD PUSH3 0x3CF SWAP2 SWAP1 PUSH3 0x3EB JUMP JUMPDEST PUSH1 0x40 MLOAD DUP1 SWAP2 SUB SWAP1 LOG1 POP JUMP JUMPDEST PUSH3 0x3E5 DUP2 PUSH3 0x41D JUMP JUMPDEST DUP3 MSTORE POP POP JUMP JUMPDEST PUSH1 0x0 PUSH1 0x20 DUP3 ADD SWAP1 POP PUSH3 0x402 PUSH1 0x0 DUP4 ADD DUP5 PUSH3 0x3DA JUMP JUMPDEST SWAP3 SWAP2 POP POP JUMP JUMPDEST PUSH1 0x0 DUP2 SWAP1 POP PUSH3 0x418 DUP3 PUSH3 0x460 JUMP JUMPDEST SWAP2 SWAP1 POP JUMP JUMPDEST PUSH1 0x0 PUSH3 0x42A DUP3 PUSH3 0x408 JUMP JUMPDEST SWAP1 POP SWAP2 SWAP1 POP JUMP JUMPDEST PUSH32 0x4E487B7100000000000000000000000000000000000000000000000000000000 PUSH1 0x0 MSTORE PUSH1 0x21 PUSH1 0x4 MSTORE PUSH1 0x24 PUSH1 0x0 REVERT JUMPDEST PUSH1 0x3 DUP2 LT PUSH3 0x474 JUMPI PUSH3 0x473 PUSH3 0x431 JUMP JUMPDEST JUMPDEST POP JUMP JUMPDEST PUSH2 0x1A28 DUP1 PUSH3 0x487 PUSH1 0x0 CODECOPY PUSH1 0x0 RETURN INVALID PUSH1 0x80 PUSH1 0x40 MSTORE CALLVALUE DUP1 ISZERO PUSH2 0x10 JUMPI PUSH1 0x0 DUP1 REVERT JUMPDEST POP PUSH1 0x4 CALLDATASIZE LT PUSH2 0x9E JUMPI PUSH1 0x0 CALLDATALOAD PUSH1 0xE0 SHR DUP1 PUSH4 0x9BA6C216 GT PUSH2 0x66 JUMPI DUP1 PUSH4 0x9BA6C216 EQ PUSH2 0x125 JUMPI DUP1 PUSH4 0xAB4A6BE1 EQ PUSH2 0x143 JUMPI DUP1 PUSH4 0xCEFDBC84 EQ PUSH2 0x173 JUMPI DUP1 PUSH4 0xDBE4DD79 EQ PUSH2 0x1A3 JUMPI DUP1 PUSH4 0xDFBF53AE EQ PUSH2 0x1C1 JUMPI PUSH2 0x9E JUMP JUMPDEST DUP1 PUSH4 0x1AA3A008 EQ PUSH2 0xA3 JUMPI DUP1 PUSH4 0x1BC1E19A EQ PUSH2 0xC1 JUMPI DUP1 PUSH4 0x1EF3755D EQ PUSH2 0xDF JUMPI DUP1 PUSH4 0x54712524 EQ PUSH2 0xE9 JUMPI DUP1 PUSH4 0x8B015CCF EQ PUSH2 0x107 JUMPI JUMPDEST PUSH1 0x0 DUP1 REVERT JUMPDEST PUSH2 0xAB PUSH2 0x1DF JUMP JUMPDEST PUSH1 0x40 MLOAD PUSH2 0xB8 SWAP2 SWAP1 PUSH2 0x1657 JUMP JUMPDEST PUSH1 0x40 MLOAD DUP1 SWAP2 SUB SWAP1 RETURN JUMPDEST PUSH2 0xC9 PUSH2 0x498 JUMP JUMPDEST PUSH1 0x40 MLOAD PUSH2 0xD6 SWAP2 SWAP1 PUSH2 0x15EB JUMP JUMPDEST PUSH1 0x40 MLOAD DUP1 SWAP2 SUB SWAP1 RETURN JUMPDEST PUSH2 0xE7 PUSH2 0x4BE JUMP JUMPDEST STOP JUMPDEST PUSH2 0xF1 PUSH2 0x7A9 JUMP JUMPDEST PUSH1 0x40 MLOAD PUSH2 0xFE SWAP2 SWAP1 PUSH2 0x15EB JUMP JUMPDEST PUSH1 0x40 MLOAD DUP1 SWAP2 SUB SWAP1 RETURN JUMPDEST PUSH2 0x10F PUSH2 0x7CF JUMP JUMPDEST PUSH1 0x40 MLOAD PUSH2 0x11C SWAP2 SWAP1 PUSH2 0x163C JUMP JUMPDEST PUSH1 0x40 MLOAD DUP1 SWAP2 SUB SWAP1 RETURN JUMPDEST PUSH2 0x12D PUSH2 0x7E2 JUMP JUMPDEST PUSH1 0x40 MLOAD PUSH2 0x13A SWAP2 SWAP1 PUSH2 0x1621 JUMP JUMPDEST PUSH1 0x40 MLOAD DUP1 SWAP2 SUB SWAP1 RETURN JUMPDEST PUSH2 0x15D PUSH1 0x4 DUP1 CALLDATASIZE SUB DUP2 ADD SWAP1 PUSH2 0x158 SWAP2 SWAP1 PUSH2 0x14F4 JUMP JUMPDEST PUSH2 0x7F3 JUMP JUMPDEST PUSH1 0x40 MLOAD PUSH2 0x16A SWAP2 SWAP1 PUSH2 0x15EB JUMP JUMPDEST PUSH1 0x40 MLOAD DUP1 SWAP2 SUB SWAP1 RETURN JUMPDEST PUSH2 0x18D PUSH1 0x4 DUP1 CALLDATASIZE SUB DUP2 ADD SWAP1 PUSH2 0x188 SWAP2 SWAP1 PUSH2 0x149A JUMP JUMPDEST PUSH2 0x102A JUMP JUMPDEST PUSH1 0x40 MLOAD PUSH2 0x19A SWAP2 SWAP1 PUSH2 0x1606 JUMP JUMPDEST PUSH1 0x40 MLOAD DUP1 SWAP2 SUB SWAP1 RETURN JUMPDEST PUSH2 0x1AB PUSH2 0x123C JUMP JUMPDEST PUSH1 0x40 MLOAD PUSH2 0x1B8 SWAP2 SWAP1 PUSH2 0x163C JUMP JUMPDEST PUSH1 0x40 MLOAD DUP1 SWAP2 SUB SWAP1 RETURN JUMPDEST PUSH2 0x1C9 PUSH2 0x124F JUMP JUMPDEST PUSH1 0x40 MLOAD PUSH2 0x1D6 SWAP2 SWAP1 PUSH2 0x15EB JUMP JUMPDEST PUSH1 0x40 MLOAD DUP1 SWAP2 SUB SWAP1 RETURN JUMPDEST PUSH1 0x0 PUSH1 0x1 PUSH1 0x0 SWAP1 SLOAD SWAP1 PUSH2 0x100 EXP SWAP1 DIV PUSH20 0xFFFFFFFFFFFFFFFFFFFFFFFFFFFFFFFFFFFFFFFF AND PUSH20 0xFFFFFFFFFFFFFFFFFFFFFFFFFFFFFFFFFFFFFFFF AND CALLER PUSH20 0xFFFFFFFFFFFFFFFFFFFFFFFFFFFFFFFFFFFFFFFF AND EQ ISZERO DUP1 ISZERO PUSH2 0x28D JUMPI POP PUSH1 0x2 PUSH1 0x0 SWAP1 SLOAD SWAP1 PUSH2 0x100 EXP SWAP1 DIV PUSH20 0xFFFFFFFFFFFFFFFFFFFFFFFFFFFFFFFFFFFFFFFF AND PUSH20 0xFFFFFFFFFFFFFFFFFFFFFFFFFFFFFFFFFFFFFFFF AND CALLER PUSH20 0xFFFFFFFFFFFFFFFFFFFFFFFFFFFFFFFFFFFFFFFF AND EQ ISZERO JUMPDEST PUSH2 0x296 JUMPI PUSH1 0x0 DUP1 REVERT JUMPDEST PUSH1 0x0 DUP1 PUSH1 0x2 DUP2 GT ISZERO PUSH2 0x2AB JUMPI PUSH2 0x2AA PUSH2 0x18FA JUMP JUMPDEST JUMPDEST PUSH1 0x0 DUP1 SLOAD SWAP1 PUSH2 0x100 EXP SWAP1 DIV PUSH1 0xFF AND PUSH1 0x2 DUP2 GT ISZERO PUSH2 0x2CB JUMPI PUSH2 0x2CA PUSH2 0x18FA JUMP JUMPDEST JUMPDEST EQ PUSH2 0x2D5 JUMPI PUSH1 0x0 DUP1 REVERT JUMPDEST PUSH1 0x0 PUSH20 0xFFFFFFFFFFFFFFFFFFFFFFFFFFFFFFFFFFFFFFFF AND PUSH1 0x1 PUSH1 0x0 SWAP1 SLOAD SWAP1 PUSH2 0x100 EXP SWAP1 DIV PUSH20 0xFFFFFFFFFFFFFFFFFFFFFFFFFFFFFFFFFFFFFFFF AND PUSH20 0xFFFFFFFFFFFFFFFFFFFFFFFFFFFFFFFFFFFFFFFF AND EQ ISZERO PUSH2 0x3AD JUMPI CALLER PUSH1 0x1 PUSH1 0x0 PUSH2 0x100 EXP DUP2 SLOAD DUP2 PUSH20 0xFFFFFFFFFFFFFFFFFFFFFFFFFFFFFFFFFFFFFFFF MUL NOT AND SWAP1 DUP4 PUSH20 0xFFFFFFFFFFFFFFFFFFFFFFFFFFFFFFFFFFFFFFFF AND MUL OR SWAP1 SSTORE POP PUSH32 0xADA0BA55DDD90BB25ECC3A5E99986836201565B3A09E5BE156E48713DA1BFD63 CALLER PUSH1 0x40 MLOAD PUSH2 0x39C SWAP2 SWAP1 PUSH2 0x15EB JUMP JUMPDEST PUSH1 0x40 MLOAD DUP1 SWAP2 SUB SWAP1 LOG1 PUSH1 0x1 SWAP2 POP PUSH2 0x494 JUMP JUMPDEST PUSH1 0x0 PUSH20 0xFFFFFFFFFFFFFFFFFFFFFFFFFFFFFFFFFFFFFFFF AND PUSH1 0x2 PUSH1 0x0 SWAP1 SLOAD SWAP1 PUSH2 0x100 EXP SWAP1 DIV PUSH20 0xFFFFFFFFFFFFFFFFFFFFFFFFFFFFFFFFFFFFFFFF AND PUSH20 0xFFFFFFFFFFFFFFFFFFFFFFFFFFFFFFFFFFFFFFFF AND EQ ISZERO PUSH2 0x48F JUMPI CALLER PUSH1 0x2 PUSH1 0x0 PUSH2 0x100 EXP DUP2 SLOAD DUP2 PUSH20 0xFFFFFFFFFFFFFFFFFFFFFFFFFFFFFFFFFFFFFFFF MUL NOT AND SWAP1 DUP4 PUSH20 0xFFFFFFFFFFFFFFFFFFFFFFFFFFFFFFFFFFFFFFFF AND MUL OR SWAP1 SSTORE POP PUSH32 0x67CF7F1535E1C1323FE4E76266F7D55F0C1F67FDF449DB65E014F9D35881514D CALLER PUSH1 0x40 MLOAD PUSH2 0x474 SWAP2 SWAP1 PUSH2 0x15EB JUMP JUMPDEST PUSH1 0x40 MLOAD DUP1 SWAP2 SUB SWAP1 LOG1 PUSH2 0x486 PUSH1 0x1 PUSH2 0x1275 JUMP JUMPDEST PUSH1 0x2 SWAP2 POP PUSH2 0x494 JUMP JUMPDEST PUSH1 0x0 SWAP2 POP JUMPDEST POP SWAP1 JUMP JUMPDEST PUSH1 0x2 PUSH1 0x0 SWAP1 SLOAD SWAP1 PUSH2 0x100 EXP SWAP1 DIV PUSH20 0xFFFFFFFFFFFFFFFFFFFFFFFFFFFFFFFFFFFFFFFF AND DUP2 JUMP JUMPDEST PUSH1 0x1 PUSH1 0x0 SWAP1 SLOAD SWAP1 PUSH2 0x100 EXP SWAP1 DIV PUSH20 0xFFFFFFFFFFFFFFFFFFFFFFFFFFFFFFFFFFFFFFFF AND PUSH20 0xFFFFFFFFFFFFFFFFFFFFFFFFFFFFFFFFFFFFFFFF AND CALLER PUSH20 0xFFFFFFFFFFFFFFFFFFFFFFFFFFFFFFFFFFFFFFFF AND EQ DUP1 PUSH2 0x567 JUMPI POP PUSH1 0x2 PUSH1 0x0 SWAP1 SLOAD SWAP1 PUSH2 0x100 EXP SWAP1 DIV PUSH20 0xFFFFFFFFFFFFFFFFFFFFFFFFFFFFFFFFFFFFFFFF AND PUSH20 0xFFFFFFFFFFFFFFFFFFFFFFFFFFFFFFFFFFFFFFFF AND CALLER PUSH20 0xFFFFFFFFFFFFFFFFFFFFFFFFFFFFFFFFFFFFFFFF AND EQ JUMPDEST DUP1 PUSH2 0x5BF JUMPI POP PUSH1 0x3 PUSH1 0x0 SWAP1 SLOAD SWAP1 PUSH2 0x100 EXP SWAP1 DIV PUSH20 0xFFFFFFFFFFFFFFFFFFFFFFFFFFFFFFFFFFFFFFFF AND PUSH20 0xFFFFFFFFFFFFFFFFFFFFFFFFFFFFFFFFFFFFFFFF AND CALLER PUSH20 0xFFFFFFFFFFFFFFFFFFFFFFFFFFFFFFFFFFFFFFFF AND EQ JUMPDEST PUSH2 0x5C8 JUMPI PUSH1 0x0 DUP1 REVERT JUMPDEST PUSH1 0x0 PUSH1 0x4 PUSH1 0x0 PUSH2 0x100 EXP DUP2 SLOAD DUP2 PUSH20 0xFFFFFFFFFFFFFFFFFFFFFFFFFFFFFFFFFFFFFFFF MUL NOT AND SWAP1 DUP4 PUSH20 0xFFFFFFFFFFFFFFFFFFFFFFFFFFFFFFFFFFFFFFFF AND MUL OR SWAP1 SSTORE POP PUSH1 0x4 PUSH1 0x0 SWAP1 SLOAD SWAP1 PUSH2 0x100 EXP SWAP1 DIV PUSH20 0xFFFFFFFFFFFFFFFFFFFFFFFFFFFFFFFFFFFFFFFF AND PUSH1 0x0 PUSH1 0x1 PUSH2 0x100 EXP DUP2 SLOAD DUP2 PUSH20 0xFFFFFFFFFFFFFFFFFFFFFFFFFFFFFFFFFFFFFFFF MUL NOT AND SWAP1 DUP4 PUSH20 0xFFFFFFFFFFFFFFFFFFFFFFFFFFFFFFFFFFFFFFFF AND MUL OR SWAP1 SSTORE POP PUSH1 0x4 PUSH1 0x0 SWAP1 SLOAD SWAP1 PUSH2 0x100 EXP SWAP1 DIV PUSH20 0xFFFFFFFFFFFFFFFFFFFFFFFFFFFFFFFFFFFFFFFF AND PUSH1 0x1 PUSH1 0x0 PUSH2 0x100 EXP DUP2 SLOAD DUP2 PUSH20 0xFFFFFFFFFFFFFFFFFFFFFFFFFFFFFFFFFFFFFFFF MUL NOT AND SWAP1 DUP4 PUSH20 0xFFFFFFFFFFFFFFFFFFFFFFFFFFFFFFFFFFFFFFFF AND MUL OR SWAP1 SSTORE POP PUSH1 0x4 PUSH1 0x0 SWAP1 SLOAD SWAP1 PUSH2 0x100 EXP SWAP1 DIV PUSH20 0xFFFFFFFFFFFFFFFFFFFFFFFFFFFFFFFFFFFFFFFF AND PUSH1 0x2 PUSH1 0x0 PUSH2 0x100 EXP DUP2 SLOAD DUP2 PUSH20 0xFFFFFFFFFFFFFFFFFFFFFFFFFFFFFFFFFFFFFFFF MUL NOT AND SWAP1 DUP4 PUSH20 0xFFFFFFFFFFFFFFFFFFFFFFFFFFFFFFFFFFFFFFFF AND MUL OR SWAP1 SSTORE POP PUSH1 0x0 DUP1 SHL PUSH1 0x5 DUP2 SWAP1 SSTORE POP PUSH1 0x0 DUP1 SHL PUSH1 0x6 DUP2 SWAP1 SSTORE POP PUSH1 0x0 PUSH1 0x7 PUSH1 0x0 PUSH2 0x100 EXP DUP2 SLOAD DUP2 PUSH1 0xFF MUL NOT AND SWAP1 DUP4 PUSH1 0x3 DUP2 GT ISZERO PUSH2 0x76D JUMPI PUSH2 0x76C PUSH2 0x18FA JUMP JUMPDEST JUMPDEST MUL OR SWAP1 SSTORE POP PUSH1 0x0 PUSH1 0x7 PUSH1 0x1 PUSH2 0x100 EXP DUP2 SLOAD DUP2 PUSH1 0xFF MUL NOT AND SWAP1 DUP4 PUSH1 0x3 DUP2 GT ISZERO PUSH2 0x798 JUMPI PUSH2 0x797 PUSH2 0x18FA JUMP JUMPDEST JUMPDEST MUL OR SWAP1 SSTORE POP PUSH2 0x7A7 PUSH1 0x0 PUSH2 0x1275 JUMP JUMPDEST JUMP JUMPDEST PUSH1 0x1 PUSH1 0x0 SWAP1 SLOAD SWAP1 PUSH2 0x100 EXP SWAP1 DIV PUSH20 0xFFFFFFFFFFFFFFFFFFFFFFFFFFFFFFFFFFFFFFFF AND DUP2 JUMP JUMPDEST PUSH1 0x7 PUSH1 0x0 SWAP1 SLOAD SWAP1 PUSH2 0x100 EXP SWAP1 DIV PUSH1 0xFF AND DUP2 JUMP JUMPDEST PUSH1 0x0 DUP1 SLOAD SWAP1 PUSH2 0x100 EXP SWAP1 DIV PUSH1 0xFF AND DUP2 JUMP JUMPDEST PUSH1 0x0 PUSH1 0x1 PUSH1 0x0 SWAP1 SLOAD SWAP1 PUSH2 0x100 EXP SWAP1 DIV PUSH20 0xFFFFFFFFFFFFFFFFFFFFFFFFFFFFFFFFFFFFFFFF AND PUSH20 0xFFFFFFFFFFFFFFFFFFFFFFFFFFFFFFFFFFFFFFFF AND CALLER PUSH20 0xFFFFFFFFFFFFFFFFFFFFFFFFFFFFFFFFFFFFFFFF AND EQ DUP1 PUSH2 0x89E JUMPI POP PUSH1 0x2 PUSH1 0x0 SWAP1 SLOAD SWAP1 PUSH2 0x100 EXP SWAP1 DIV PUSH20 0xFFFFFFFFFFFFFFFFFFFFFFFFFFFFFFFFFFFFFFFF AND PUSH20 0xFFFFFFFFFFFFFFFFFFFFFFFFFFFFFFFFFFFFFFFF AND CALLER PUSH20 0xFFFFFFFFFFFFFFFFFFFFFFFFFFFFFFFFFFFFFFFF AND EQ JUMPDEST PUSH2 0x8A7 JUMPI PUSH1 0x0 DUP1 REVERT JUMPDEST PUSH1 0x2 DUP1 PUSH1 0x2 DUP2 GT ISZERO PUSH2 0x8BC JUMPI PUSH2 0x8BB PUSH2 0x18FA JUMP JUMPDEST JUMPDEST PUSH1 0x0 DUP1 SLOAD SWAP1 PUSH2 0x100 EXP SWAP1 DIV PUSH1 0xFF AND PUSH1 0x2 DUP2 GT ISZERO PUSH2 0x8DC JUMPI PUSH2 0x8DB PUSH2 0x18FA JUMP JUMPDEST JUMPDEST EQ PUSH2 0x8E6 JUMPI PUSH1 0x0 DUP1 REVERT JUMPDEST PUSH1 0x0 DUP1 SHL PUSH1 0x5 SLOAD EQ ISZERO DUP1 ISZERO PUSH2 0x900 JUMPI POP PUSH1 0x0 DUP1 SHL PUSH1 0x6 SLOAD EQ ISZERO JUMPDEST PUSH2 0x909 JUMPI PUSH1 0x0 DUP1 REVERT JUMPDEST PUSH1 0x0 PUSH1 0x2 PUSH2 0x928 DUP7 PUSH1 0x3 DUP2 GT ISZERO PUSH2 0x923 JUMPI PUSH2 0x922 PUSH2 0x18FA JUMP JUMPDEST JUMPDEST PUSH2 0x12E5 JUMP JUMPDEST PUSH2 0x937 DUP7 PUSH4 0xFFFFFFFF AND PUSH2 0x12E5 JUMP JUMPDEST PUSH1 0x40 MLOAD PUSH1 0x20 ADD PUSH2 0x948 SWAP3 SWAP2 SWAP1 PUSH2 0x15C7 JUMP JUMPDEST PUSH1 0x40 MLOAD PUSH1 0x20 DUP2 DUP4 SUB SUB DUP2 MSTORE SWAP1 PUSH1 0x40 MSTORE PUSH1 0x40 MLOAD PUSH2 0x964 SWAP2 SWAP1 PUSH2 0x15B0 JUMP JUMPDEST PUSH1 0x20 PUSH1 0x40 MLOAD DUP1 DUP4 SUB DUP2 DUP6 GAS STATICCALL ISZERO DUP1 ISZERO PUSH2 0x981 JUMPI RETURNDATASIZE PUSH1 0x0 DUP1 RETURNDATACOPY RETURNDATASIZE PUSH1 0x0 REVERT JUMPDEST POP POP POP PUSH1 0x40 MLOAD RETURNDATASIZE PUSH1 0x1F NOT PUSH1 0x1F DUP3 ADD AND DUP3 ADD DUP1 PUSH1 0x40 MSTORE POP DUP2 ADD SWAP1 PUSH2 0x9A4 SWAP2 SWAP1 PUSH2 0x14C7 JUMP JUMPDEST SWAP1 POP PUSH1 0x0 PUSH1 0x3 DUP2 GT ISZERO PUSH2 0x9BA JUMPI PUSH2 0x9B9 PUSH2 0x18FA JUMP JUMPDEST JUMPDEST DUP6 PUSH1 0x3 DUP2 GT ISZERO PUSH2 0x9CD JUMPI PUSH2 0x9CC PUSH2 0x18FA JUMP JUMPDEST JUMPDEST EQ ISZERO PUSH2 0x9FE JUMPI PUSH1 0x4 PUSH1 0x0 SWAP1 SLOAD SWAP1 PUSH2 0x100 EXP SWAP1 DIV PUSH20 0xFFFFFFFFFFFFFFFFFFFFFFFFFFFFFFFFFFFFFFFF AND SWAP3 POP POP PUSH2 0x1023 JUMP JUMPDEST PUSH1 0x1 PUSH1 0x0 SWAP1 SLOAD SWAP1 PUSH2 0x100 EXP SWAP1 DIV PUSH20 0xFFFFFFFFFFFFFFFFFFFFFFFFFFFFFFFFFFFFFFFF AND PUSH20 0xFFFFFFFFFFFFFFFFFFFFFFFFFFFFFFFFFFFFFFFF AND CALLER PUSH20 0xFFFFFFFFFFFFFFFFFFFFFFFFFFFFFFFFFFFFFFFF AND EQ DUP1 ISZERO PUSH2 0xA5C JUMPI POP PUSH1 0x5 SLOAD DUP2 EQ JUMPDEST ISZERO PUSH2 0xA90 JUMPI DUP5 PUSH1 0x7 PUSH1 0x0 PUSH2 0x100 EXP DUP2 SLOAD DUP2 PUSH1 0xFF MUL NOT AND SWAP1 DUP4 PUSH1 0x3 DUP2 GT ISZERO PUSH2 0xA86 JUMPI PUSH2 0xA85 PUSH2 0x18FA JUMP JUMPDEST JUMPDEST MUL OR SWAP1 SSTORE POP PUSH2 0xB4E JUMP JUMPDEST PUSH1 0x2 PUSH1 0x0 SWAP1 SLOAD SWAP1 PUSH2 0x100 EXP SWAP1 DIV PUSH20 0xFFFFFFFFFFFFFFFFFFFFFFFFFFFFFFFFFFFFFFFF AND PUSH20 0xFFFFFFFFFFFFFFFFFFFFFFFFFFFFFFFFFFFFFFFF AND CALLER PUSH20 0xFFFFFFFFFFFFFFFFFFFFFFFFFFFFFFFFFFFFFFFF AND EQ DUP1 ISZERO PUSH2 0xAEE JUMPI POP PUSH1 0x6 SLOAD DUP2 EQ JUMPDEST ISZERO PUSH2 0xB22 JUMPI DUP5 PUSH1 0x7 PUSH1 0x1 PUSH2 0x100 EXP DUP2 SLOAD DUP2 PUSH1 0xFF MUL NOT AND SWAP1 DUP4 PUSH1 0x3 DUP2 GT ISZERO PUSH2 0xB18 JUMPI PUSH2 0xB17 PUSH2 0x18FA JUMP JUMPDEST JUMPDEST MUL OR SWAP1 SSTORE POP PUSH2 0xB4D JUMP JUMPDEST PUSH1 0x4 PUSH1 0x0 SWAP1 SLOAD SWAP1 PUSH2 0x100 EXP SWAP1 DIV PUSH20 0xFFFFFFFFFFFFFFFFFFFFFFFFFFFFFFFFFFFFFFFF AND SWAP3 POP POP PUSH2 0x1023 JUMP JUMPDEST JUMPDEST PUSH1 0x0 PUSH1 0x3 DUP2 GT ISZERO PUSH2 0xB62 JUMPI PUSH2 0xB61 PUSH2 0x18FA JUMP JUMPDEST JUMPDEST PUSH1 0x7 PUSH1 0x0 SWAP1 SLOAD SWAP1 PUSH2 0x100 EXP SWAP1 DIV PUSH1 0xFF AND PUSH1 0x3 DUP2 GT ISZERO PUSH2 0xB84 JUMPI PUSH2 0xB83 PUSH2 0x18FA JUMP JUMPDEST JUMPDEST EQ ISZERO DUP1 PUSH2 0xBC5 JUMPI POP PUSH1 0x0 PUSH1 0x3 DUP2 GT ISZERO PUSH2 0xBA0 JUMPI PUSH2 0xB9F PUSH2 0x18FA JUMP JUMPDEST JUMPDEST PUSH1 0x7 PUSH1 0x1 SWAP1 SLOAD SWAP1 PUSH2 0x100 EXP SWAP1 DIV PUSH1 0xFF AND PUSH1 0x3 DUP2 GT ISZERO PUSH2 0xBC2 JUMPI PUSH2 0xBC1 PUSH2 0x18FA JUMP JUMPDEST JUMPDEST EQ ISZERO JUMPDEST ISZERO PUSH2 0xF3F JUMPI PUSH1 0x7 PUSH1 0x1 SWAP1 SLOAD SWAP1 PUSH2 0x100 EXP SWAP1 DIV PUSH1 0xFF AND PUSH1 0x3 DUP2 GT ISZERO PUSH2 0xBEC JUMPI PUSH2 0xBEB PUSH2 0x18FA JUMP JUMPDEST JUMPDEST PUSH1 0x7 PUSH1 0x0 SWAP1 SLOAD SWAP1 PUSH2 0x100 EXP SWAP1 DIV PUSH1 0xFF AND PUSH1 0x3 DUP2 GT ISZERO PUSH2 0xC0E JUMPI PUSH2 0xC0D PUSH2 0x18FA JUMP JUMPDEST JUMPDEST EQ ISZERO PUSH2 0xC7C JUMPI PUSH1 0x4 PUSH1 0x0 SWAP1 SLOAD SWAP1 PUSH2 0x100 EXP SWAP1 DIV PUSH20 0xFFFFFFFFFFFFFFFFFFFFFFFFFFFFFFFFFFFFFFFF AND PUSH1 0x0 PUSH1 0x1 PUSH2 0x100 EXP DUP2 SLOAD DUP2 PUSH20 0xFFFFFFFFFFFFFFFFFFFFFFFFFFFFFFFFFFFFFFFF MUL NOT AND SWAP1 DUP4 PUSH20 0xFFFFFFFFFFFFFFFFFFFFFFFFFFFFFFFFFFFFFFFF AND MUL OR SWAP1 SSTORE POP PUSH2 0xF3A JUMP JUMPDEST PUSH1 0x2 PUSH1 0x3 DUP2 GT ISZERO PUSH2 0xC90 JUMPI PUSH2 0xC8F PUSH2 0x18FA JUMP JUMPDEST JUMPDEST PUSH1 0x7 PUSH1 0x0 SWAP1 SLOAD SWAP1 PUSH2 0x100 EXP SWAP1 DIV PUSH1 0xFF AND PUSH1 0x3 DUP2 GT ISZERO PUSH2 0xCB2 JUMPI PUSH2 0xCB1 PUSH2 0x18FA JUMP JUMPDEST JUMPDEST EQ DUP1 ISZERO PUSH2 0xCF1 JUMPI POP PUSH1 0x3 DUP1 DUP2 GT ISZERO PUSH2 0xCCD JUMPI PUSH2 0xCCC PUSH2 0x18FA JUMP JUMPDEST JUMPDEST PUSH1 0x7 PUSH1 0x1 SWAP1 SLOAD SWAP1 PUSH2 0x100 EXP SWAP1 DIV PUSH1 0xFF AND PUSH1 0x3 DUP2 GT ISZERO PUSH2 0xCEF JUMPI PUSH2 0xCEE PUSH2 0x18FA JUMP JUMPDEST JUMPDEST EQ JUMPDEST DUP1 PUSH2 0xD6D JUMPI POP PUSH1 0x3 DUP1 DUP2 GT ISZERO PUSH2 0xD0A JUMPI PUSH2 0xD09 PUSH2 0x18FA JUMP JUMPDEST JUMPDEST PUSH1 0x7 PUSH1 0x0 SWAP1 SLOAD SWAP1 PUSH2 0x100 EXP SWAP1 DIV PUSH1 0xFF AND PUSH1 0x3 DUP2 GT ISZERO PUSH2 0xD2C JUMPI PUSH2 0xD2B PUSH2 0x18FA JUMP JUMPDEST JUMPDEST EQ DUP1 ISZERO PUSH2 0xD6C JUMPI POP PUSH1 0x1 PUSH1 0x3 DUP2 GT ISZERO PUSH2 0xD48 JUMPI PUSH2 0xD47 PUSH2 0x18FA JUMP JUMPDEST JUMPDEST PUSH1 0x7 PUSH1 0x1 SWAP1 SLOAD SWAP1 PUSH2 0x100 EXP SWAP1 DIV PUSH1 0xFF AND PUSH1 0x3 DUP2 GT ISZERO PUSH2 0xD6A JUMPI PUSH2 0xD69 PUSH2 0x18FA JUMP JUMPDEST JUMPDEST EQ JUMPDEST JUMPDEST DUP1 PUSH2 0xDEA JUMPI POP PUSH1 0x1 PUSH1 0x3 DUP2 GT ISZERO PUSH2 0xD87 JUMPI PUSH2 0xD86 PUSH2 0x18FA JUMP JUMPDEST JUMPDEST PUSH1 0x7 PUSH1 0x0 SWAP1 SLOAD SWAP1 PUSH2 0x100 EXP SWAP1 DIV PUSH1 0xFF AND PUSH1 0x3 DUP2 GT ISZERO PUSH2 0xDA9 JUMPI PUSH2 0xDA8 PUSH2 0x18FA JUMP JUMPDEST JUMPDEST EQ DUP1 ISZERO PUSH2 0xDE9 JUMPI POP PUSH1 0x2 PUSH1 0x3 DUP2 GT ISZERO PUSH2 0xDC5 JUMPI PUSH2 0xDC4 PUSH2 0x18FA JUMP JUMPDEST JUMPDEST PUSH1 0x7 PUSH1 0x1 SWAP1 SLOAD SWAP1 PUSH2 0x100 EXP SWAP1 DIV PUSH1 0xFF AND PUSH1 0x3 DUP2 GT ISZERO PUSH2 0xDE7 JUMPI PUSH2 0xDE6 PUSH2 0x18FA JUMP JUMPDEST JUMPDEST EQ JUMPDEST JUMPDEST DUP1 PUSH2 0xE68 JUMPI POP PUSH1 0x0 PUSH1 0x3 DUP2 GT ISZERO PUSH2 0xE04 JUMPI PUSH2 0xE03 PUSH2 0x18FA JUMP JUMPDEST JUMPDEST PUSH1 0x7 PUSH1 0x0 SWAP1 SLOAD SWAP1 PUSH2 0x100 EXP SWAP1 DIV PUSH1 0xFF AND PUSH1 0x3 DUP2 GT ISZERO PUSH2 0xE26 JUMPI PUSH2 0xE25 PUSH2 0x18FA JUMP JUMPDEST JUMPDEST EQ ISZERO DUP1 ISZERO PUSH2 0xE67 JUMPI POP PUSH1 0x0 PUSH1 0x3 DUP2 GT ISZERO PUSH2 0xE43 JUMPI PUSH2 0xE42 PUSH2 0x18FA JUMP JUMPDEST JUMPDEST PUSH1 0x7 PUSH1 0x1 SWAP1 SLOAD SWAP1 PUSH2 0x100 EXP SWAP1 DIV PUSH1 0xFF AND PUSH1 0x3 DUP2 GT ISZERO PUSH2 0xE65 JUMPI PUSH2 0xE64 PUSH2 0x18FA JUMP JUMPDEST JUMPDEST EQ JUMPDEST JUMPDEST ISZERO PUSH2 0xED5 JUMPI PUSH1 0x1 PUSH1 0x0 SWAP1 SLOAD SWAP1 PUSH2 0x100 EXP SWAP1 DIV PUSH20 0xFFFFFFFFFFFFFFFFFFFFFFFFFFFFFFFFFFFFFFFF AND PUSH1 0x0 PUSH1 0x1 PUSH2 0x100 EXP DUP2 SLOAD DUP2 PUSH20 0xFFFFFFFFFFFFFFFFFFFFFFFFFFFFFFFFFFFFFFFF MUL NOT AND SWAP1 DUP4 PUSH20 0xFFFFFFFFFFFFFFFFFFFFFFFFFFFFFFFFFFFFFFFF AND MUL OR SWAP1 SSTORE POP PUSH2 0xF39 JUMP JUMPDEST PUSH1 0x2 PUSH1 0x0 SWAP1 SLOAD SWAP1 PUSH2 0x100 EXP SWAP1 DIV PUSH20 0xFFFFFFFFFFFFFFFFFFFFFFFFFFFFFFFFFFFFFFFF AND PUSH1 0x0 PUSH1 0x1 PUSH2 0x100 EXP DUP2 SLOAD DUP2 PUSH20 0xFFFFFFFFFFFFFFFFFFFFFFFFFFFFFFFFFFFFFFFF MUL NOT AND SWAP1 DUP4 PUSH20 0xFFFFFFFFFFFFFFFFFFFFFFFFFFFFFFFFFFFFFFFF AND MUL OR SWAP1 SSTORE POP JUMPDEST JUMPDEST PUSH2 0xFA3 JUMP JUMPDEST PUSH1 0x4 PUSH1 0x0 SWAP1 SLOAD SWAP1 PUSH2 0x100 EXP SWAP1 DIV PUSH20 0xFFFFFFFFFFFFFFFFFFFFFFFFFFFFFFFFFFFFFFFF AND PUSH1 0x0 PUSH1 0x1 PUSH2 0x100 EXP DUP2 SLOAD DUP2 PUSH20 0xFFFFFFFFFFFFFFFFFFFFFFFFFFFFFFFFFFFFFFFF MUL NOT AND SWAP1 DUP4 PUSH20 0xFFFFFFFFFFFFFFFFFFFFFFFFFFFFFFFFFFFFFFFF AND MUL OR SWAP1 SSTORE POP JUMPDEST PUSH32 0x1728DD43546EDD06FABFE796E5B641A151AA90998BFD1B1EC0AE98C6E7708459 PUSH1 0x0 PUSH1 0x1 SWAP1 SLOAD SWAP1 PUSH2 0x100 EXP SWAP1 DIV PUSH20 0xFFFFFFFFFFFFFFFFFFFFFFFFFFFFFFFFFFFFFFFF AND PUSH1 0x40 MLOAD PUSH2 0xFF4 SWAP2 SWAP1 PUSH2 0x15EB JUMP JUMPDEST PUSH1 0x40 MLOAD DUP1 SWAP2 SUB SWAP1 LOG1 PUSH1 0x0 PUSH1 0x1 SWAP1 SLOAD SWAP1 PUSH2 0x100 EXP SWAP1 DIV PUSH20 0xFFFFFFFFFFFFFFFFFFFFFFFFFFFFFFFFFFFFFFFF AND SWAP3 POP POP JUMPDEST POP SWAP3 SWAP2 POP POP JUMP JUMPDEST PUSH1 0x0 PUSH1 0x1 PUSH1 0x0 SWAP1 SLOAD SWAP1 PUSH2 0x100 EXP SWAP1 DIV PUSH20 0xFFFFFFFFFFFFFFFFFFFFFFFFFFFFFFFFFFFFFFFF AND PUSH20 0xFFFFFFFFFFFFFFFFFFFFFFFFFFFFFFFFFFFFFFFF AND CALLER PUSH20 0xFFFFFFFFFFFFFFFFFFFFFFFFFFFFFFFFFFFFFFFF AND EQ DUP1 PUSH2 0x10D5 JUMPI POP PUSH1 0x2 PUSH1 0x0 SWAP1 SLOAD SWAP1 PUSH2 0x100 EXP SWAP1 DIV PUSH20 0xFFFFFFFFFFFFFFFFFFFFFFFFFFFFFFFFFFFFFFFF AND PUSH20 0xFFFFFFFFFFFFFFFFFFFFFFFFFFFFFFFFFFFFFFFF AND CALLER PUSH20 0xFFFFFFFFFFFFFFFFFFFFFFFFFFFFFFFFFFFFFFFF AND EQ JUMPDEST PUSH2 0x10DE JUMPI PUSH1 0x0 DUP1 REVERT JUMPDEST PUSH1 0x1 DUP1 PUSH1 0x2 DUP2 GT ISZERO PUSH2 0x10F3 JUMPI PUSH2 0x10F2 PUSH2 0x18FA JUMP JUMPDEST JUMPDEST PUSH1 0x0 DUP1 SLOAD SWAP1 PUSH2 0x100 EXP SWAP1 DIV PUSH1 0xFF AND PUSH1 0x2 DUP2 GT ISZERO PUSH2 0x1113 JUMPI PUSH2 0x1112 PUSH2 0x18FA JUMP JUMPDEST JUMPDEST EQ PUSH2 0x111D JUMPI PUSH1 0x0 DUP1 REVERT JUMPDEST PUSH1 0x0 PUSH1 0x1 PUSH1 0x0 SWAP1 SLOAD SWAP1 PUSH2 0x100 EXP SWAP1 DIV PUSH20 0xFFFFFFFFFFFFFFFFFFFFFFFFFFFFFFFFFFFFFFFF AND PUSH20 0xFFFFFFFFFFFFFFFFFFFFFFFFFFFFFFFFFFFFFFFF AND CALLER PUSH20 0xFFFFFFFFFFFFFFFFFFFFFFFFFFFFFFFFFFFFFFFF AND EQ DUP1 ISZERO PUSH2 0x1180 JUMPI POP PUSH1 0x0 DUP1 SHL PUSH1 0x5 SLOAD EQ JUMPDEST ISZERO PUSH2 0x1195 JUMPI DUP4 PUSH1 0x5 DUP2 SWAP1 SSTORE POP PUSH1 0x1 SWAP1 POP PUSH2 0x1208 JUMP JUMPDEST PUSH1 0x2 PUSH1 0x0 SWAP1 SLOAD SWAP1 PUSH2 0x100 EXP SWAP1 DIV PUSH20 0xFFFFFFFFFFFFFFFFFFFFFFFFFFFFFFFFFFFFFFFF AND PUSH20 0xFFFFFFFFFFFFFFFFFFFFFFFFFFFFFFFFFFFFFFFF AND CALLER PUSH20 0xFFFFFFFFFFFFFFFFFFFFFFFFFFFFFFFFFFFFFFFF AND EQ DUP1 ISZERO PUSH2 0x11F6 JUMPI POP PUSH1 0x0 DUP1 SHL PUSH1 0x6 SLOAD EQ JUMPDEST ISZERO PUSH2 0x1207 JUMPI DUP4 PUSH1 0x6 DUP2 SWAP1 SSTORE POP PUSH1 0x1 SWAP1 POP JUMPDEST JUMPDEST PUSH1 0x0 DUP1 SHL PUSH1 0x5 SLOAD EQ ISZERO DUP1 ISZERO PUSH2 0x1222 JUMPI POP PUSH1 0x0 DUP1 SHL PUSH1 0x6 SLOAD EQ ISZERO JUMPDEST ISZERO PUSH2 0x1232 JUMPI PUSH2 0x1231 PUSH1 0x2 PUSH2 0x1275 JUMP JUMPDEST JUMPDEST DUP1 SWAP3 POP POP POP SWAP2 SWAP1 POP JUMP JUMPDEST PUSH1 0x7 PUSH1 0x1 SWAP1 SLOAD SWAP1 PUSH2 0x100 EXP SWAP1 DIV PUSH1 0xFF AND DUP2 JUMP JUMPDEST PUSH1 0x0 PUSH1 0x1 SWAP1 SLOAD SWAP1 PUSH2 0x100 EXP SWAP1 DIV PUSH20 0xFFFFFFFFFFFFFFFFFFFFFFFFFFFFFFFFFFFFFFFF AND DUP2 JUMP JUMPDEST DUP1 PUSH1 0x0 DUP1 PUSH2 0x100 EXP DUP2 SLOAD DUP2 PUSH1 0xFF MUL NOT AND SWAP1 DUP4 PUSH1 0x2 DUP2 GT ISZERO PUSH2 0x1299 JUMPI PUSH2 0x1298 PUSH2 0x18FA JUMP JUMPDEST JUMPDEST MUL OR SWAP1 SSTORE POP PUSH32 0x5FE57A6009D2AE51447DEF0790762F4E928888C72F5F8EF4ABED68599519A833 PUSH1 0x0 DUP1 SLOAD SWAP1 PUSH2 0x100 EXP SWAP1 DIV PUSH1 0xFF AND PUSH1 0x40 MLOAD PUSH2 0x12DA SWAP2 SWAP1 PUSH2 0x1621 JUMP JUMPDEST PUSH1 0x40 MLOAD DUP1 SWAP2 SUB SWAP1 LOG1 POP JUMP JUMPDEST PUSH1 0x60 PUSH1 0x0 DUP3 EQ ISZERO PUSH2 0x132D JUMPI PUSH1 0x40 MLOAD DUP1 PUSH1 0x40 ADD PUSH1 0x40 MSTORE DUP1 PUSH1 0x1 DUP2 MSTORE PUSH1 0x20 ADD PUSH32 0x3000000000000000000000000000000000000000000000000000000000000000 DUP2 MSTORE POP SWAP1 POP PUSH2 0x1441 JUMP JUMPDEST PUSH1 0x0 DUP3 SWAP1 POP PUSH1 0x0 JUMPDEST PUSH1 0x0 DUP3 EQ PUSH2 0x135F JUMPI DUP1 DUP1 PUSH2 0x1348 SWAP1 PUSH2 0x1822 JUMP JUMPDEST SWAP2 POP POP PUSH1 0xA DUP3 PUSH2 0x1358 SWAP2 SWAP1 PUSH2 0x16DE JUMP JUMPDEST SWAP2 POP PUSH2 0x1335 JUMP JUMPDEST PUSH1 0x0 DUP2 PUSH8 0xFFFFFFFFFFFFFFFF DUP2 GT ISZERO PUSH2 0x137B JUMPI PUSH2 0x137A PUSH2 0x1958 JUMP JUMPDEST JUMPDEST PUSH1 0x40 MLOAD SWAP1 DUP1 DUP3 MSTORE DUP1 PUSH1 0x1F ADD PUSH1 0x1F NOT AND PUSH1 0x20 ADD DUP3 ADD PUSH1 0x40 MSTORE DUP1 ISZERO PUSH2 0x13AD JUMPI DUP2 PUSH1 0x20 ADD PUSH1 0x1 DUP3 MUL DUP1 CALLDATASIZE DUP4 CALLDATACOPY DUP1 DUP3 ADD SWAP2 POP POP SWAP1 POP JUMPDEST POP SWAP1 POP JUMPDEST PUSH1 0x0 DUP6 EQ PUSH2 0x143A JUMPI PUSH1 0x1 DUP3 PUSH2 0x13C6 SWAP2 SWAP1 PUSH2 0x170F JUMP JUMPDEST SWAP2 POP PUSH1 0xA DUP6 PUSH2 0x13D5 SWAP2 SWAP1 PUSH2 0x186B JUMP JUMPDEST PUSH1 0x30 PUSH2 0x13E1 SWAP2 SWAP1 PUSH2 0x1688 JUMP JUMPDEST PUSH1 0xF8 SHL DUP2 DUP4 DUP2 MLOAD DUP2 LT PUSH2 0x13F7 JUMPI PUSH2 0x13F6 PUSH2 0x1929 JUMP JUMPDEST JUMPDEST PUSH1 0x20 ADD ADD SWAP1 PUSH31 0xFFFFFFFFFFFFFFFFFFFFFFFFFFFFFFFFFFFFFFFFFFFFFFFFFFFFFFFFFFFFFF NOT AND SWAP1 DUP2 PUSH1 0x0 BYTE SWAP1 MSTORE8 POP PUSH1 0xA DUP6 PUSH2 0x1433 SWAP2 SWAP1 PUSH2 0x16DE JUMP JUMPDEST SWAP5 POP PUSH2 0x13B1 JUMP JUMPDEST DUP1 SWAP4 POP POP POP POP JUMPDEST SWAP2 SWAP1 POP JUMP JUMPDEST PUSH1 0x0 DUP2 CALLDATALOAD SWAP1 POP PUSH2 0x1455 DUP2 PUSH2 0x19B4 JUMP JUMPDEST SWAP3 SWAP2 POP POP JUMP JUMPDEST PUSH1 0x0 DUP2 MLOAD SWAP1 POP PUSH2 0x146A DUP2 PUSH2 0x19B4 JUMP JUMPDEST SWAP3 SWAP2 POP POP JUMP JUMPDEST PUSH1 0x0 DUP2 CALLDATALOAD SWAP1 POP PUSH2 0x147F DUP2 PUSH2 0x19CB JUMP JUMPDEST SWAP3 SWAP2 POP POP JUMP JUMPDEST PUSH1 0x0 DUP2 CALLDATALOAD SWAP1 POP PUSH2 0x1494 DUP2 PUSH2 0x19DB JUMP JUMPDEST SWAP3 SWAP2 POP POP JUMP JUMPDEST PUSH1 0x0 PUSH1 0x20 DUP3 DUP5 SUB SLT ISZERO PUSH2 0x14B0 JUMPI PUSH2 0x14AF PUSH2 0x1987 JUMP JUMPDEST JUMPDEST PUSH1 0x0 PUSH2 0x14BE DUP5 DUP3 DUP6 ADD PUSH2 0x1446 JUMP JUMPDEST SWAP2 POP POP SWAP3 SWAP2 POP POP JUMP JUMPDEST PUSH1 0x0 PUSH1 0x20 DUP3 DUP5 SUB SLT ISZERO PUSH2 0x14DD JUMPI PUSH2 0x14DC PUSH2 0x1987 JUMP JUMPDEST JUMPDEST PUSH1 0x0 PUSH2 0x14EB DUP5 DUP3 DUP6 ADD PUSH2 0x145B JUMP JUMPDEST SWAP2 POP POP SWAP3 SWAP2 POP POP JUMP JUMPDEST PUSH1 0x0 DUP1 PUSH1 0x40 DUP4 DUP6 SUB SLT ISZERO PUSH2 0x150B JUMPI PUSH2 0x150A PUSH2 0x1987 JUMP JUMPDEST JUMPDEST PUSH1 0x0 PUSH2 0x1519 DUP6 DUP3 DUP7 ADD PUSH2 0x1470 JUMP JUMPDEST SWAP3 POP POP PUSH1 0x20 PUSH2 0x152A DUP6 DUP3 DUP7 ADD PUSH2 0x1485 JUMP JUMPDEST SWAP2 POP POP SWAP3 POP SWAP3 SWAP1 POP JUMP JUMPDEST PUSH2 0x153D DUP2 PUSH2 0x1743 JUMP JUMPDEST DUP3 MSTORE POP POP JUMP JUMPDEST PUSH2 0x154C DUP2 PUSH2 0x1755 JUMP JUMPDEST DUP3 MSTORE POP POP JUMP JUMPDEST PUSH1 0x0 PUSH2 0x155D DUP3 PUSH2 0x1672 JUMP JUMPDEST PUSH2 0x1567 DUP2 DUP6 PUSH2 0x167D JUMP JUMPDEST SWAP4 POP PUSH2 0x1577 DUP2 DUP6 PUSH1 0x20 DUP7 ADD PUSH2 0x17EF JUMP JUMPDEST DUP1 DUP5 ADD SWAP2 POP POP SWAP3 SWAP2 POP POP JUMP JUMPDEST PUSH2 0x158C DUP2 PUSH2 0x17CB JUMP JUMPDEST DUP3 MSTORE POP POP JUMP JUMPDEST PUSH2 0x159B DUP2 PUSH2 0x17DD JUMP JUMPDEST DUP3 MSTORE POP POP JUMP JUMPDEST PUSH2 0x15AA DUP2 PUSH2 0x17B1 JUMP JUMPDEST DUP3 MSTORE POP POP JUMP JUMPDEST PUSH1 0x0 PUSH2 0x15BC DUP3 DUP5 PUSH2 0x1552 JUMP JUMPDEST SWAP2 POP DUP2 SWAP1 POP SWAP3 SWAP2 POP POP JUMP JUMPDEST PUSH1 0x0 PUSH2 0x15D3 DUP3 DUP6 PUSH2 0x1552 JUMP JUMPDEST SWAP2 POP PUSH2 0x15DF DUP3 DUP5 PUSH2 0x1552 JUMP JUMPDEST SWAP2 POP DUP2 SWAP1 POP SWAP4 SWAP3 POP POP POP JUMP JUMPDEST PUSH1 0x0 PUSH1 0x20 DUP3 ADD SWAP1 POP PUSH2 0x1600 PUSH1 0x0 DUP4 ADD DUP5 PUSH2 0x1534 JUMP JUMPDEST SWAP3 SWAP2 POP POP JUMP JUMPDEST PUSH1 0x0 PUSH1 0x20 DUP3 ADD SWAP1 POP PUSH2 0x161B PUSH1 0x0 DUP4 ADD DUP5 PUSH2 0x1543 JUMP JUMPDEST SWAP3 SWAP2 POP POP JUMP JUMPDEST PUSH1 0x0 PUSH1 0x20 DUP3 ADD SWAP1 POP PUSH2 0x1636 PUSH1 0x0 DUP4 ADD DUP5 PUSH2 0x1583 JUMP JUMPDEST SWAP3 SWAP2 POP POP JUMP JUMPDEST PUSH1 0x0 PUSH1 0x20 DUP3 ADD SWAP1 POP PUSH2 0x1651 PUSH1 0x0 DUP4 ADD DUP5 PUSH2 0x1592 JUMP JUMPDEST SWAP3 SWAP2 POP POP JUMP JUMPDEST PUSH1 0x0 PUSH1 0x20 DUP3 ADD SWAP1 POP PUSH2 0x166C PUSH1 0x0 DUP4 ADD DUP5 PUSH2 0x15A1 JUMP JUMPDEST SWAP3 SWAP2 POP POP JUMP JUMPDEST PUSH1 0x0 DUP2 MLOAD SWAP1 POP SWAP2 SWAP1 POP JUMP JUMPDEST PUSH1 0x0 DUP2 SWAP1 POP SWAP3 SWAP2 POP POP JUMP JUMPDEST PUSH1 0x0 PUSH2 0x1693 DUP3 PUSH2 0x17B1 JUMP JUMPDEST SWAP2 POP PUSH2 0x169E DUP4 PUSH2 0x17B1 JUMP JUMPDEST SWAP3 POP DUP3 PUSH32 0xFFFFFFFFFFFFFFFFFFFFFFFFFFFFFFFFFFFFFFFFFFFFFFFFFFFFFFFFFFFFFFFF SUB DUP3 GT ISZERO PUSH2 0x16D3 JUMPI PUSH2 0x16D2 PUSH2 0x189C JUMP JUMPDEST JUMPDEST DUP3 DUP3 ADD SWAP1 POP SWAP3 SWAP2 POP POP JUMP JUMPDEST PUSH1 0x0 PUSH2 0x16E9 DUP3 PUSH2 0x17B1 JUMP JUMPDEST SWAP2 POP PUSH2 0x16F4 DUP4 PUSH2 0x17B1 JUMP JUMPDEST SWAP3 POP DUP3 PUSH2 0x1704 JUMPI PUSH2 0x1703 PUSH2 0x18CB JUMP JUMPDEST JUMPDEST DUP3 DUP3 DIV SWAP1 POP SWAP3 SWAP2 POP POP JUMP JUMPDEST PUSH1 0x0 PUSH2 0x171A DUP3 PUSH2 0x17B1 JUMP JUMPDEST SWAP2 POP PUSH2 0x1725 DUP4 PUSH2 0x17B1 JUMP JUMPDEST SWAP3 POP DUP3 DUP3 LT ISZERO PUSH2 0x1738 JUMPI PUSH2 0x1737 PUSH2 0x189C JUMP JUMPDEST JUMPDEST DUP3 DUP3 SUB SWAP1 POP SWAP3 SWAP2 POP POP JUMP JUMPDEST PUSH1 0x0 PUSH2 0x174E DUP3 PUSH2 0x1791 JUMP JUMPDEST SWAP1 POP SWAP2 SWAP1 POP JUMP JUMPDEST PUSH1 0x0 DUP2 ISZERO ISZERO SWAP1 POP SWAP2 SWAP1 POP JUMP JUMPDEST PUSH1 0x0 DUP2 SWAP1 POP SWAP2 SWAP1 POP JUMP JUMPDEST PUSH1 0x0 DUP2 SWAP1 POP PUSH2 0x1779 DUP3 PUSH2 0x198C JUMP JUMPDEST SWAP2 SWAP1 POP JUMP JUMPDEST PUSH1 0x0 DUP2 SWAP1 POP PUSH2 0x178C DUP3 PUSH2 0x19A0 JUMP JUMPDEST SWAP2 SWAP1 POP JUMP JUMPDEST PUSH1 0x0 PUSH20 0xFFFFFFFFFFFFFFFFFFFFFFFFFFFFFFFFFFFFFFFF DUP3 AND SWAP1 POP SWAP2 SWAP1 POP JUMP JUMPDEST PUSH1 0x0 DUP2 SWAP1 POP SWAP2 SWAP1 POP JUMP JUMPDEST PUSH1 0x0 PUSH4 0xFFFFFFFF DUP3 AND SWAP1 POP SWAP2 SWAP1 POP JUMP JUMPDEST PUSH1 0x0 PUSH2 0x17D6 DUP3 PUSH2 0x176B JUMP JUMPDEST SWAP1 POP SWAP2 SWAP1 POP JUMP JUMPDEST PUSH1 0x0 PUSH2 0x17E8 DUP3 PUSH2 0x177E JUMP JUMPDEST SWAP1 POP SWAP2 SWAP1 POP JUMP JUMPDEST PUSH1 0x0 JUMPDEST DUP4 DUP2 LT ISZERO PUSH2 0x180D JUMPI DUP1 DUP3 ADD MLOAD DUP2 DUP5 ADD MSTORE PUSH1 0x20 DUP2 ADD SWAP1 POP PUSH2 0x17F2 JUMP JUMPDEST DUP4 DUP2 GT ISZERO PUSH2 0x181C JUMPI PUSH1 0x0 DUP5 DUP5 ADD MSTORE JUMPDEST POP POP POP POP JUMP JUMPDEST PUSH1 0x0 PUSH2 0x182D DUP3 PUSH2 0x17B1 JUMP JUMPDEST SWAP2 POP PUSH32 0xFFFFFFFFFFFFFFFFFFFFFFFFFFFFFFFFFFFFFFFFFFFFFFFFFFFFFFFFFFFFFFFF DUP3 EQ ISZERO PUSH2 0x1860 JUMPI PUSH2 0x185F PUSH2 0x189C JUMP JUMPDEST JUMPDEST PUSH1 0x1 DUP3 ADD SWAP1 POP SWAP2 SWAP1 POP JUMP JUMPDEST PUSH1 0x0 PUSH2 0x1876 DUP3 PUSH2 0x17B1 JUMP JUMPDEST SWAP2 POP PUSH2 0x1881 DUP4 PUSH2 0x17B1 JUMP JUMPDEST SWAP3 POP DUP3 PUSH2 0x1891 JUMPI PUSH2 0x1890 PUSH2 0x18CB JUMP JUMPDEST JUMPDEST DUP3 DUP3 MOD SWAP1 POP SWAP3 SWAP2 POP POP JUMP JUMPDEST PUSH32 0x4E487B7100000000000000000000000000000000000000000000000000000000 PUSH1 0x0 MSTORE PUSH1 0x11 PUSH1 0x4 MSTORE PUSH1 0x24 PUSH1 0x0 REVERT JUMPDEST PUSH32 0x4E487B7100000000000000000000000000000000000000000000000000000000 PUSH1 0x0 MSTORE PUSH1 0x12 PUSH1 0x4 MSTORE PUSH1 0x24 PUSH1 0x0 REVERT JUMPDEST PUSH32 0x4E487B7100000000000000000000000000000000000000000000000000000000 PUSH1 0x0 MSTORE PUSH1 0x21 PUSH1 0x4 MSTORE PUSH1 0x24 PUSH1 0x0 REVERT JUMPDEST PUSH32 0x4E487B7100000000000000000000000000000000000000000000000000000000 PUSH1 0x0 MSTORE PUSH1 0x32 PUSH1 0x4 MSTORE PUSH1 0x24 PUSH1 0x0 REVERT JUMPDEST PUSH32 0x4E487B7100000000000000000000000000000000000000000000000000000000 PUSH1 0x0 MSTORE PUSH1 0x41 PUSH1 0x4 MSTORE PUSH1 0x24 PUSH1 0x0 REVERT JUMPDEST PUSH1 0x0 DUP1 REVERT JUMPDEST PUSH1 0x3 DUP2 LT PUSH2 0x199D JUMPI PUSH2 0x199C PUSH2 0x18FA JUMP JUMPDEST JUMPDEST POP JUMP JUMPDEST PUSH1 0x4 DUP2 LT PUSH2 0x19B1 JUMPI PUSH2 0x19B0 PUSH2 0x18FA JUMP JUMPDEST JUMPDEST POP JUMP JUMPDEST PUSH2 0x19BD DUP2 PUSH2 0x1761 JUMP JUMPDEST DUP2 EQ PUSH2 0x19C8 JUMPI PUSH1 0x0 DUP1 REVERT JUMPDEST POP JUMP JUMPDEST PUSH1 0x4 DUP2 LT PUSH2 0x19D8 JUMPI PUSH1 0x0 DUP1 REVERT JUMPDEST POP JUMP JUMPDEST PUSH2 0x19E4 DUP2 PUSH2 0x17BB JUMP JUMPDEST DUP2 EQ PUSH2 0x19EF JUMPI PUSH1 0x0 DUP1 REVERT JUMPDEST POP JUMP INVALID LOG2 PUSH5 0x6970667358 0x22 SLT KECCAK256 0x22 DUP14 0xB9 SMOD 0xB5 0xFC 0xB3 PUSH1 0x99 0xB8 BLOCKHASH MSIZE 0x27 DUP2 0xE GAS GAS 0xB9 BASEFEE 0x24 0x4F 0xC0 0xEE JUMPI 0x4A COINBASE 0xF7 0xF9 0xB0 MLOAD SWAP10 0x25 PUSH5 0x736F6C6343 STOP ADDMOD SMOD STOP CALLER "
				},
				"gasEstimates": {
					"creation": {
						"codeDepositCost": "1339200",
						"executionCost": "infinite",
						"totalCost": "infinite"
					},
					"external": {
						"currentGamePhase()": "2557",
						"firstPlayer()": "2581",
						"firstPlayerMove()": "2649",
						"move(bytes32)": "69962",
						"register()": "64492",
						"restart()": "196634",
						"reveal(uint8,uint32)": "infinite",
						"secondPlayer()": "2537",
						"secondPlayerMove()": "2676",
						"winner()": "2652"
					},
					"internal": {
						"changeGamePhase(enum RockPaperScissors.GamePhase)": "infinite"
					}
				},
				"methodIdentifiers": {
					"currentGamePhase()": "9ba6c216",
					"firstPlayer()": "54712524",
					"firstPlayerMove()": "8b015ccf",
					"move(bytes32)": "cefdbc84",
					"register()": "1aa3a008",
					"restart()": "1ef3755d",
					"reveal(uint8,uint32)": "ab4a6be1",
					"secondPlayer()": "1bc1e19a",
					"secondPlayerMove()": "dbe4dd79",
					"winner()": "dfbf53ae"
				}
			},
			"storageLayout": {
				"storage": [
					{
						"astId": 257,
						"contract": "contracts/kamenzi.sol:RockPaperScissors",
						"label": "currentGamePhase",
						"offset": 0,
						"slot": "0",
						"type": "t_enum(GamePhase)254"
					},
					{
						"astId": 259,
						"contract": "contracts/kamenzi.sol:RockPaperScissors",
						"label": "winner",
						"offset": 1,
						"slot": "0",
						"type": "t_address"
					},
					{
						"astId": 261,
						"contract": "contracts/kamenzi.sol:RockPaperScissors",
						"label": "firstPlayer",
						"offset": 0,
						"slot": "1",
						"type": "t_address"
					},
					{
						"astId": 263,
						"contract": "contracts/kamenzi.sol:RockPaperScissors",
						"label": "secondPlayer",
						"offset": 0,
						"slot": "2",
						"type": "t_address"
					},
					{
						"astId": 265,
						"contract": "contracts/kamenzi.sol:RockPaperScissors",
						"label": "owner",
						"offset": 0,
						"slot": "3",
						"type": "t_address"
					},
					{
						"astId": 267,
						"contract": "contracts/kamenzi.sol:RockPaperScissors",
						"label": "nullAddress",
						"offset": 0,
						"slot": "4",
						"type": "t_address"
					},
					{
						"astId": 269,
						"contract": "contracts/kamenzi.sol:RockPaperScissors",
						"label": "firstPlayerMoveEncrypted",
						"offset": 0,
						"slot": "5",
						"type": "t_bytes32"
					},
					{
						"astId": 271,
						"contract": "contracts/kamenzi.sol:RockPaperScissors",
						"label": "secondPlayerMoveEncrypted",
						"offset": 0,
						"slot": "6",
						"type": "t_bytes32"
					},
					{
						"astId": 274,
						"contract": "contracts/kamenzi.sol:RockPaperScissors",
						"label": "firstPlayerMove",
						"offset": 0,
						"slot": "7",
						"type": "t_enum(Move)250"
					},
					{
						"astId": 277,
						"contract": "contracts/kamenzi.sol:RockPaperScissors",
						"label": "secondPlayerMove",
						"offset": 1,
						"slot": "7",
						"type": "t_enum(Move)250"
					}
				],
				"types": {
					"t_address": {
						"encoding": "inplace",
						"label": "address",
						"numberOfBytes": "20"
					},
					"t_bytes32": {
						"encoding": "inplace",
						"label": "bytes32",
						"numberOfBytes": "32"
					},
					"t_enum(GamePhase)254": {
						"encoding": "inplace",
						"label": "enum RockPaperScissors.GamePhase",
						"numberOfBytes": "1"
					},
					"t_enum(Move)250": {
						"encoding": "inplace",
						"label": "enum RockPaperScissors.Move",
						"numberOfBytes": "1"
					}
				}
			},
			"userdoc": {
				"kind": "user",
				"methods": {},
				"version": 1
			}
		}
	}
}